:100000000C94A0020C94C8020C94C8020C94C80270
:100010000C94C8020C94C8020C94C8020C94C80238
:100020000C94C8020C94C8020C94C8020C94C80228
:100030000C94C8020C94100F0C94C8020C94C802C3
:100040000C94921C0C94C8020C94C8020C94C80224
:100050000C94C8020C94C8020C94C8020C94C802F8
:100060000C94DC1C0C94C802D017BA1AD017FA17DB
:100070005119A1194018E81840191B181519526593
:100080007365742E2E004E6F2053442043617264BA
:10009000004572726F722052656164696E67204616
:1000A000696C65004E6F7420545A58546170650035
:1000B0005A585461706521D3D3D3D3D3D3D3D3D378
:1000C000D3D0D0D0D0D0D0D0D0D0D0EAEAEAEAEAAB
:1000D000EAEAEAEAEA1FA6DEBACC137D74506C6144
:1000E00079696E67004E6F2046696C652053656CB8
:1000F0006563746564004F4E202A006F6666202A8F
:1001000000545358437A78706F6C554546535700E6
:100110004F4E202A006F6666202A004D6F746F7262
:10012000204374726C003338353000333630300081
:100130003234303000313230300042617564205248
:1001400061746500545358437A7870554546535747
:10015000203F004D6F746F72204374726C203F001B
:10016000426175642052617465203F004D656E7573
:1001700000504C4159696E67200050415553454429
:1001800020200000506C6179696E67200050617515
:100190007365642020002062797465730076312EC7
:1001A0003632204D61784475696E6F0053746F70FC
:1001B00070656400200000000000000000005F5F28
:1001C0005F005F5F5F000707030007070300367FDC
:1001D0007F367F7F3600242E6E7F3B3A120063739A
:1001E000381C0E676300307E4F59377A4800000094
:1001F000070703000000001C3E7F63410000004130
:10020000637F3E1C000049363E5D3E3649000018C3
:10021000187E7E1818000000E0E060000000001862
:100220001818181818000000606060000000607066
:10023000381C0E070300003C7E6B657F3E000060AB
:100240006C7F7F60600000737B69696F660000618E
:100250006165657F3A000F0F08687F7F680000675F
:100260006765657D3900003E7F65657D3900000367
:100270000371790F0700003A7F65657F3A000066D9
:100280006F69697F3E00000066666600000000003E
:10029000E6E666000000081C3E7763410000003679
:1002A000363636363600004163773E1C08000303BD
:1002B0005B595F0F06003E7F6169696F6E007C7E4F
:1002C0007F0B097F7F007F7F7F696F7E38003C7ED8
:1002D0007F63617373007F7F7F61637E3C007C7E00
:1002E0007F6B696363007C7E7F6B090303003C7E48
:1002F0007F63697B7B007C7E7F08087F7F000042F4
:10030000637F7F63210030786263637F3F007C7E80
:100310007F081C7763007C7E7F60607070007C7E4D
:10032000070C067F7F007C7E070E1C7F7F003C7ED3
:100330007F63617F3E007C7E7F69090F06003C7E03
:100340007F6361FFBE007C7E7F09097F7600646E5B
:100350006F6B6979310002637F7F630301003C7E2C
:100360007F60607F7F003C7E7F703C0F03007C7E5F
:100370003F18307F7F004163361C1C366341646E3A
:100380006F68687F3F00436371796D6763000000A9
:100390007F7F7F41000003070E1C38706000000063
:1003A000417F7F7F0000080C0E070E0C0800808044
:1003B0008080808080000000000307070000787CB8
:1003C0007C14147C78007E7E7E44447C3800387C2B
:1003D0007C44446C6C00387C7C44447E7E02387CD7
:1003E0007C54545C5800507C7E7E5202000018BC45
:1003F000BCA4A4FC7C007E7E7E0808787000000807
:100400007A7A7A40000040C088F8FA7A00007E7E4E
:100410007E10386C440000027E7E7E4000007C7CB2
:100420000C180C7C78007C7C7C04047C7800387C84
:100430007C44447C3800FCFCFC24243C1800183C20
:100440003C2424FCFC007C7C7C04040C0800485CFC
:100450005C547474240000387C7E482000003C7C8E
:100460007C40407C7C003C7C7C60301C0C003C7CF4
:100470006030607C3C00446C7C387C6C44008C9C1C
:10048000BCF0603C1C004C6C747C5C6C6400000034
:10049000083E7F7741000000007F7F0000000041A0
:1004A000777F3E0800000203010302030100000001
:1004B000035A58415946696C6520201A0B00C00048
:1004C000806E545A584455494E4F9D50415553459E
:1004D000442A20000000000023002600290000001C
:1004E00000080002010000030407000000000000F3
:1004F000000000000000250028002B000000000084
:10050000240027002A000404040404040404020252
:100510000202020203030303030301020408102082
:1005200040800102040810200102040810202E63FC
:100530006173002E6F002E70002E746170005638AB
:1005400011241FBECFEFD8E0DEBFCDBF11E0A0E089
:10055000B1E0E8E5F7E702C005900D92A836B107D3
:10056000D9F727E0A8E6B1E001C01D92A43EB2078A
:10057000E1F712E0C0EAD2E004C02197FE010E9438
:100580006E3BCF39D107C9F70E94E12C0C94AA3BEE
:100590000C9400008091C907811169C02091060266
:1005A00080917B0190E0820F911D820F911DFC01D3
:1005B000E65EF94F8081813099F028F0823081F534
:1005C0008091D10728C090916C0120916C0180919D
:1005D000D107213001F19923F1F081111EC01FC014
:1005E00090916C0120916C018091D107223011F023
:1005F000911103C0811103C004C0811102C0299A66
:1006000001C029988091D007813051F480916C010C
:10061000813031F42EC0811102C0299801C0299A7D
:1006200080916C018F5F80936C0180916C018430AC
:1006300021F510926C01809106028F5F8093060273
:100640002091060230E04091D00780ED90E0841BBD
:100650009109821793078CF41092060280917B0116
:1006600091E0892780937B01909303010895299855
:10067000089583E080936C01D3CF0895E091060242
:10068000F0E0319680916E01EE0FFF1FE80FF11D33
:10069000E65EF94F60818091060240916E0150E064
:1006A000480F511D480F511DFA01E65EF94F808138
:1006B000109205029091C907911106C070E0782B45
:1006C0006115710509F089C08091C907811180C049
:1006D000809106028E5F8093060280910602813D22
:1006E00050F01092060280916E0191E0892780936C
:1006F0006E019093030168EE73E080E090E0DC010E
:10070000CB010496A11DB11D63E0880F991FAA1F9C
:10071000BB1F6A95D1F7009721E0A207B10520F42D
:1007200021E02093800142C0009728E0A207B10594
:1007300058F422E02093800153E0B695A795979551
:1007400087955A95D1F732C0009720E4A207B105EA
:1007500058F423E02093800146E0B695A79597953D
:1007600087954A95D1F722C00097A10521E0B207ED
:1007700040F424E020938001892F9A2FAB2FBB27D0
:1007800015C00097A10524E0B20758F425E0209396
:1007900080012AE0B695A795979587952A95D1F778
:1007A00005C085E0809380018FEF9FEF90937F01DC
:1007B00080937E0180917E0190917F0190938700CC
:1007C00080938600809180018061809381000895EC
:1007D00060E472E48FE090E092CF77FF07C081E0A1
:1007E000809304027F77809303020AC08091030202
:1007F000813029F480910402882309F469C080E0E3
:1008000076FD0FC020916B0191E0211190E0909353
:100810006B0190916B01911102C029980BC0299A2C
:1008200009C075FD02C0299801C0299A60910B0288
:1008300070910C02813049F590910701911180E08F
:1008400080936B012091060280916E01AB014150B3
:10085000510990E0820F911D820F911DFC01E65E0F
:10086000F94F5083E0910602F0E0319680916E01DD
:100870006150EE0FFF1FE80FF11DE65EF94F608338
:100880006CED75E080E090E03ACF80910402813019
:1008900041F49B01A8EEB3E00E948F39109204024C
:1008A00002C080E090E0209106022E5F20930602B5
:1008B00020910602213D08F422CF109206022091D9
:1008C0006E0131E0232720936E013093030117CF8F
:1008D0001092030294CF089580E090E0089540E0E4
:1008E00050E0BA0180918601909187010C944925CE
:1008F00004960C943428CF93DF931F92CDB7DEB7C4
:10090000698341E050E0BE016F5F7F4F04960E9413
:1009100034280F90DF91CF91089504960C94F82419
:10092000CF93DF93EB010E944C398883CE01DF9196
:10093000CF9108958EE00E94F31B892B79F08FE010
:100940000E94F31B892B51F081E10E94F31B892B3C
:1009500029F080E10E94F31B892B31F462E370E0FF
:1009600080E090E00C944C1C10920A01F7CFCF93DA
:10097000C82F8AEA93E00E944925882349F04C2F2A
:1009800050E062ED77E08AEA93E0CF910C940D2677
:1009900080E090E0CF910895E0E7F1E082E081937C
:1009A00091E0EB37F907D9F708959091D00791308E
:1009B00089F4E0E7F1E080FF02C0908301C010827B
:1009C0008695319621E0E837F207A9F782E0809317
:1009D000780111C010927001E1E7F1E091E080FF31
:1009E00002C0908301C010828695319621E0E937DC
:1009F000F207A9F781E08093790180937A01089545
:100A00000F931F93CF93DF9300D000D0CDB7DEB705
:100A1000AB01BC018AEA93E00E944925882309F1D1
:100A200044E050E0BE016F5F7F4F8AEA93E00E948E
:100A30000D2684309105B9F44091DD075091DE0711
:100A40006091DF077091E0074C5F5F4F6F4F7F4F02
:100A50004093DD075093DE076093DF077093E00754
:100A600002C080E090E04C8150E0542F44272B815D
:100A7000422B60E070E0BA01552744270A8110E05C
:100A8000102F00272981022B20E030E0402B512B32
:100A9000622B732B40930D0250930E0260930F0252
:100AA000709310020F900F900F900F90DF91CF91E5
:100AB0001F910F910895CF93DF9300D01F92CDB770
:100AC000DEB7AB01BC018AEA93E00E944925882386
:100AD00009F143E050E0BE016F5F7F4F8AEA93E087
:100AE0000E940D2683309105B9F44091DD075091A5
:100AF000DE076091DF077091E0074D5F5F4F6F4F3A
:100B00007F4F4093DD075093DE076093DF077093BC
:100B1000E00702C080E090E04B8150E0542F442772
:100B20002A81422B60E070E0762F652F542F4427F6
:100B30002981422B40930D0250930E0260930F02C5
:100B4000709310020F900F900F90DF91CF91089546
:100B5000CF93DF9300D0CDB7DEB7AB01BC018AEAFB
:100B600093E00E944925882309F142E050E0BE014C
:100B70006F5F7F4F8AEA93E00E940D2682309105D5
:100B8000B9F44091DD075091DE076091DF07709165
:100B9000E0074E5F5F4F6F4F7F4F4093DD075093ED
:100BA000DE076093DF077093E00702C080E090E00B
:100BB0002A8130E0322F22274981242B30932402CE
:100BC000209323020F900F90DF91CF910895CF9340
:100BD000DF931F92CDB7DEB7AB01BC018AEA93E089
:100BE0000E944925882309F141E050E0BE016F5F72
:100BF0007F4F8AEA93E00E940D2681309105B9F477
:100C00004091DD075091DE076091DF077091E007AA
:100C10004F5F5F4F6F4F7F4F4093DD075093DE076D
:100C20006093DF077093E00702C080E090E02981C5
:100C300020936D010F90DF91CF910895809108016D
:100C400090910901803629E09207B9F04CF4803B7D
:100C5000944011F581E08093020180ED90E018C08E
:100C600080312EE0920779F08A309F40A9F482E02B
:100C70008093020184E490E00BC081E08093020144
:100C800088E690E005C082E08093020186E490E06F
:100C900090931A018093190180E180938100089557
:100CA0002091830180910801909109012B3019F561
:100CB0008136994084F480916C01811106C080EDE9
:100CC00090E0909301018093000180916C0181304C
:100CD00009F058C029C080916C01811106C08CE3D5
:100CE00090E0909301018093000180916C0181302C
:100CF00009F048C02EC020918301223069F5813669
:100D00009940ACF480916C01811106C080ED90E0B7
:100D1000909301018093000180916C01813091F5E5
:100D2000809107028823F9F080EA91E021C0809148
:100D30006C01811106C08CE390E0909301018093D7
:100D4000000180916C018130E9F4809107028823D1
:100D500069F086ED91E00CC020918301213069F4A7
:100D6000813699401CF480ED90E002C08CE390E065
:100D7000909301018093000105C02091080220FD9D
:100D8000EFCF96CF80916C018F5F80936C01809143
:100D9000000190910101803D910511F0CC9709F57A
:100DA00080918301833040F0809183018B3020F467
:100DB00080916C01823089F180918301813021F42E
:100DC00080916C018630F1F180918301823021F0B5
:100DD000809183018B30C1F480916C018230A1F449
:100DE0000CC080916C01823079F480918301833052
:100DF00020F0809183018B3068F1809183018150D4
:100E00008093830110926C0180918301811139C01C
:100E100080916F01811126C008959091070281E0B1
:100E20008927809307028091080290E09595879525
:100E300080930802809183018150809383011092F6
:100E40006C01BACF8091830181508093830110920D
:100E50006C01BACF8091080290E0959587958093B8
:100E60000802CBCF8FEF90E0A0E0B0E08093CC07FA
:100E70009093CD07A093CE07B093CF0785E08093E2
:100E80008201089580918301811164C06091DD0722
:100E90007091DE078091DF079091E0070E94E705DF
:100EA0000197E1F580916D018093080280911D0208
:100EB00090911E02A0911F02B09120020197A109FA
:100EC000B10980931D0290931E02A0931F02B0935C
:100ED0002002892B8A2B8B2B49F58091DD0790917D
:100EE000DE07A091DF07B091E0070197A109B109E2
:100EF0008093DD079093DE07A093DF07B093E007B0
:100F00008091210290912202892B21F481E080932B
:100F1000E207089585E0809382010895809102029E
:100F2000843021F081E080938101EACF80911D021D
:100F300090911E02A0911F02B09120020197A1057D
:100F4000B10511F088E002C08091180180938301FF
:100F500010926C01809100019091010196FF0DC0EB
:100F60002091080227FF05C09062909301018093B1
:100F7000000180916C018E5F14C08091080287FF90
:100F800005C0809111029091120204C08091130259
:100F900090911402909301018093000180916C0163
:100FA0008F5F80936C0180916C01823061F480913D
:100FB0000802880F809308028091830181508093FA
:100FC000830110926C01089580EA90E090930101F2
:100FD000809300018091080190910901803B24E0F9
:100FE000920731F028E730E03093010120930001AF
:100FF00020916C01213061F4803B944019F482EA25
:1010000095E002C084EF91E090930101809300018C
:1010100080916C01811117C08091080287FF02C086
:1010200083E101C089E080936C0180910802880F00
:1010300080930802809183018150809383011092F4
:1010400001011092000180916C01815080936C012C
:1010500008958091830181115DC06091DD077091D9
:10106000DE078091DF079091E0070E94E705019776
:10107000E9F580916D018093080280911D029091A5
:101080001E02A0911F02B09120020197A109B1098F
:1010900080931D0290931E02A0931F02B093200222
:1010A0008F3F9F4FAF4FBF4F81F58091E10789314F
:1010B00061F58091DD079091DE07A091DF07B09187
:1010C000E0070197A109B1098093DD079093DE073E
:1010D000A093DF07B093E00788EE93E090930A02B5
:1010E0008093090289E58093E1070FC081E0809336
:1010F0008101809121029091220290930A028093B3
:10110000090289E58093E107089589E080938301CE
:1011100010926C010C94E40780918201833071F18C
:1011200028F4813049F08230E9F00895843081F16B
:10113000853009F494C008958091190290911A02A3
:10114000909301018093000180911B0290911C02F9
:10115000019790931C0280931B02892B09F09FC07A
:1011600082E009C0809117029091180290930101CA
:101170008093000183E0809382010895809115029D
:1011800090911602909301018093000184E0F3CFC7
:10119000809102029CEF980F923010F0811102C0F2
:1011A0000C94420780918301811132C080916A01C1
:1011B000833149F4809101028093080282E0809398
:1011C000020285E0D8CF8F5F80936A018431D0F42A
:1011D000E82FF0E0E255FB4FE491E09308028D30F8
:1011E00021F48DEF8093080204C08E3011F4109228
:1011F00008028091080290910102892780930102E0
:1012000088E002C0809118018093830110926C01E4
:101210008091080287FF05C080911102909112020F
:1012200004C0809113029091140290930101809365
:10123000000180916C018F5F80936C0180916C0143
:10124000823069F580910802880F809308028091AE
:10125000830181508093830110926C010895209145
:10126000E10780912102909122022E3F51F02B3F05
:1012700041F090930A028093090289E58093E10787
:1012800007C0906890930101809300011092820141
:1012900080918101813019F48FEF8093E1070895E7
:1012A000BC0180E090E00E94AC3A20E030E040E6F3
:1012B00050E40E940B3A20E030E040E05FE30E94FF
:1012C0009F390E947D3ACB0108950F931F93CF93CE
:1012D000DF93C82F81E0809372038CE380939403A3
:1012E000109273031092950380E490E00E94D82935
:1012F00088E0C89FE001112400E010E0DA95FE01CB
:10130000E00FF11FEA54FE4F649186E993E00E94DA
:10131000C21B0F5F1F4F0830110589F7DF91CF9176
:101320001F910F910C947B29CF93DF931F92CDB720
:10133000DEB7682F81E0809372038CE3809394037F
:10134000109273031092950380E490E069830E94E9
:10135000D829698186E993E00E94C21B0F90DF9132
:10136000CF910C947B290F931F93CF93DF93EC01C4
:1013700088818823A9F000E010E08881F80198E0D6
:10138000899FE00DF11D1124EA54FF4F84910E94C2
:1013900094090F5F1F4F0830110579F72196E8CFA8
:1013A000DF91CF911F910F910895CF93DF931F92FB
:1013B000CDB7DEB7682F81E0809372038CE3809312
:1013C0009403109273031092950380E890E0698370
:1013D0000E94D829698186E993E00E94C21B0F9080
:1013E000DF91CF910C947B29CF93C82F80EB860F90
:1013F0000E94D5098C2F880F880F880F88708E5F08
:101400000E94D50928E0C29FC001112424E09595CF
:1014100087952A95E1F78F70805FCF910C94D5095D
:10142000CF93DF93C0E06C2F80E00E94F409D0E0FE
:1014300080E00E949409DF5FD038D1F7CF5FC830D9
:1014400091F7DF91CF9108956F927F928F929F9243
:10145000AF92BF92CF92DF92EF92FF920F931F93C2
:10146000CF93DF93EC01862E942E642F882D0E945B
:10147000F4098E01662463947CE3772EEE24E394D2
:10148000F12CD8018C91882309F457C06092720323
:1014900070929403109273031092950380E490E08D
:1014A0000E94D829A12CB12CD8018C91F501B8E06B
:1014B0008B02E00DF11D1124EA54FF4FE491F0E09E
:1014C00081E090E0C12CD12C20E030E0AF010C2C69
:1014D00002C0569547950A94E2F740FF14C0B70141
:1014E000082E02C0660F771F0A94E2F7262B372BCF
:1014F000A601440F551FD70102C0AA0FBB1F4A9572
:10150000E2F72A2B3B2B4FEFC41AD40A0296A4E031
:10151000CA16D104D9F6622F86E993E00E94C21B55
:10152000BFEFAB1ABB0AE8E0AE16B10409F0BCCFBE
:101530000E947B290F5F1F4FA4CF61E0690D882DAA
:101540000E94F409DD24D3948CE3C82E01E010E05E
:101550008881882309F452C0D0927203C092940308
:10156000109273031092950380E490E00E94D829B2
:10157000E12CF12C8881F701B8E08B02E00DF11D20
:101580001124EA54FF4FE491F0E020E030E084E0E1
:1015900090E060E070E0AF01082E02C056954795DC
:1015A0000A94E2F740FF14C0A801022E02C0440FC3
:1015B000551F0A94E2F7642B752BA9014F5F5F4F0B
:1015C000D80102C0AA0FBB1F4A95E2F76A2B7B2BFA
:1015D00001962E5F3F4F88309105E9F686E993E04A
:1015E0000E94C21BBFEFEB1AFB0AE8E0EE16F10403
:1015F00009F0C0CF0E947B292196AACFDF91CF911D
:101600001F910F91FF90EF90DF90CF90BF90AF9020
:101610009F908F907F906F9008951F93CF93DF934B
:101620001F92CDB7DEB72091DD073091DE074091E4
:10163000DF075091E007A4E6B0E00E9462392091F4
:10164000FD013091FE014091FF01509100020E9486
:101650006D39122F2093FC0180910601843671F5BB
:101660001092060160E088E02A3038F40E94F40904
:10167000812F6AE00E943A3B0DC0243670F40E942C
:10168000F409812F6AE00E943A3B805D99830E94B1
:101690006509998180E3890F09C00E94F40981E3FB
:1016A0000E94650980E30E94650980E30E94650944
:1016B00085E20E94650980E20E9465091091FC01A3
:1016C00080910601811758F560E088E01A3038F4FF
:1016D0000E94F409812F6AE00E943A3B0DC0143643
:1016E00070F40E94F409812F6AE00E943A3B805D09
:1016F00099830E946509998180E3890F09C00E943E
:10170000F40981E30E94650980E30E94650980E392
:101710000E94650985E20E946509109306010F90F9
:10172000DF91CF911F9108950F931F93CF93DF9374
:101730000E94861C0091F8011091F9012091FA0194
:101740003091FB01DC01CB01801B910BA20BB30B91
:10175000893E9340A105B10508F46AC00E94861C29
:101760006093F8017093F9018093FA019093FB0163
:1017700020918401309185010AE010E0C901B8018F
:101780000E94463B892B69F060E08FE00E94F409DB
:101790008091840190918501B8010E94463B805D53
:1017A0003CC0C4E6D0E0C901BE010E94463B892B83
:1017B00089F060E08EE00E94F409809184019091AC
:1017C0008501BE010E94463BB8010E94463B80E372
:1017D000860F20C008EE13E0C901B8010E94463B05
:1017E00060E0892B81F08DE00E94F40980918401F2
:1017F00090918501B8010E94463BBE010E94463B84
:1018000080E3860F04C08DE00E94F40980E30E940B
:10181000650980E30E94650980E30E946509809163
:1018200084019091850101969093850180938401B4
:10183000DF91CF911F910F91089544E050E064E053
:1018400070E081E491E00E94240A4AE062ED77E0D2
:1018500080910801909109010E94E63846E050E02D
:1018600060E070E082ED97E00E94240A809111010F
:1018700046E050E065E070E0813019F48CE491E0DE
:1018800002C082E591E00E94240A8091070146E0AF
:1018900050E06BE070E0813019F488E591E002C01F
:1018A0008EE591E00C94240AAB01AAE3B3E020E0BA
:1018B00030E060E2FC0101900020E9F73197E81B7D
:1018C000F90B2E173F0730F4FC01E20FF31F708174
:1018D0007C9301C06C932F5F3F4F119620313105EF
:1018E00049F760E070E08AE393E00C94240ACF9318
:1018F000DF93EB0140E150E0BC018AE393E00E94FA
:10190000A938EAE3F3E001900020E9F7319720E2FB
:10191000CF018A539340409714F42193F9CFAE013D
:1019200060E070E08AE393E0DF91CF910C94240AA9
:1019300080918C0163E10E943A3B892F90E0FC0189
:10194000EE0FFF1FEE0FFF1FE85CFD4F408151813E
:10195000628173814093DD075093DE076093DF0758
:101960007093E007FC01EB5DFD4F80818093E10700
:1019700082E08093E20760E070E084EB91E00E94F7
:10198000770C60E080E00E94F40987E491E00E9417
:10199000B30980918C014AE062ED77E090E00E940B
:1019A000223982ED97E00E94B30980E20E94650926
:1019B0008091DD079091DE07A091DF07B091E007ED
:1019C000892B8A2B8B2B91F084E691E00E94B3093E
:1019D0008091E10740E162ED77E090E00E942239DA
:1019E00082ED97E00E94DC380E94B30984E6809380
:1019F00006011092850110928401109283011092C9
:101A00006C010E94102C8091E307811112C010928A
:101A1000820181E08093800180E49FE190937F01C7
:101A200080937E01909387008093860081E180936C
:101A3000810008950E946F0410928B0110928A0118
:101A400080918601909187010E944F2B882371F02D
:101A50008AEA93E00E948D2780918A0190918B0100
:101A6000019690938B0180938A01EACF80918A013D
:101A700090918B0190938901809388010895CF9272
:101A8000DF92EF92FF920F931F93CF93DF93CDB727
:101A9000DEB7A0970FB6F894DEBF0FBECDBF7C01B6
:101AA00080918D01813031F0EA94EF28B9F40E94E1
:101AB0006F0414C00E946F0401E010E00E151F05B2
:101AC0009CF780918601909187010E944F2B8AEAB2
:101AD00093E00E948D270F5F1F4FF0CF809186010A
:101AE000909187010E944F2B19821A828091AA033C
:101AF000811103C01092DF0208C08091AD038111F3
:101B000074C08FED92E00E945A2A8CEB97E00E94FD
:101B10005A2A8091C2039091C303A091C403B0914B
:101B2000C5038093FD019093FE01A093FF01B09344
:101B300000028091AA03807709F0F9C06AE371E09E
:101B40008CEB97E00E949A3B892B09F4F0C010922D
:101B500039038AEA93E00E948D271092D101809187
:101B600039038130B1F48091D001882379F090E07D
:101B7000019726E1289FB001299F700D112462571B
:101B80007E4F81ED91E00E94A33B16C06DE971E0AC
:101B90000FC06091FD017091FE018091FF01909155
:101BA00000022AE041ED51E00E94F13866E971E05F
:101BB00081ED91E00E949E3860E070E081ED91E05F
:101BC0000E94540C109238030E94EC29A0960FB684
:101BD000F894DEBF0FBECDBFDF91CF911F910F9163
:101BE000FF90EF90DF90CF9008958091B203909195
:101BF000B303A091B403B091B5036091B0037091A9
:101C0000B1038E010F5F1F4F0097A105B10539F495
:101C1000C8010E947327882309F46CCF0FC020E20B
:101C2000F80111922A95E9F720E1298321E02B831D
:101C300078876F838D8F9E8FAF8FB8A3CC24C3948A
:101C40009DE0D92E8091AD038C1508F453CFEC2C78
:101C5000F12C4091AE035091AF034E195F0960E043
:101C600070E085E0440F551F661F771F8A95D1F7F6
:101C7000C8010E944925882309F43CCF60E0C801CF
:101C80000E942827FC01892B09F434CF83858F30EB
:101C900009F030CF80818F7190E0E816F90609F0E5
:101CA00029CF81E0E81AF108DE9C9001DF9C300D1D
:101CB0001124B90161527D4F7F0180E0D701853049
:101CC00028F411964D915C9112970BC08B3028F43B
:101CD00014964D915C91159704C016964D915C91A8
:101CE00017974115510591F028353105C8F42F5F3C
:101CF0003F4F4F37510508F04FE3DB014D93BD01D6
:101D00008F5FB2E0EB0EF11C8D30C1F62835310546
:101D100038F4808186FF04C0D901A152BD4F1C92C6
:101D200010923603808186FDF0CEC3948BCF81E084
:101D3000809339030ECFCF9380E180938100C1E07F
:101D4000C093C9071092E8018AEA93E00E948D27A8
:101D5000C0938D0180910E0190910F010E943F0D63
:101D60001092DD071092DE071092DF071092E00755
:101D700010920102109202021092E307CF9108958F
:101D80000E949B0E8091E801813041F460E070E098
:101D90008CEA91E00E94770C1092E8010895CF92AE
:101DA000DF92EF92FF92CF93C82F0E94861C6B01A7
:101DB0007C016093F8017093F9018093FA0190938C
:101DC000FB018C2F0E94F31B892BA1F40E94861C1F
:101DD000AB01BC014C195D096E097F09483C5105F6
:101DE0006105710538F462E370E080E090E00E94E4
:101DF0004C1CE7CFCF91FF90EF90DF90CF900895EC
:101E0000CF93C82F8C2F0E94F31B892B39F462E3E8
:101E100070E080E090E00E944C1CF4CFCF910895D8
:101E20001F920F920FB60F9211242F933F934F934F
:101E30005F936F937F938F939F93AF93BF93EF9332
:101E4000FF93E0917C01F0917D010995FF91EF9165
:101E5000BF91AF919F918F917F916F915F914F91C2
:101E60003F912F910F900FBE0F901F901895CF921A
:101E7000DF92EF92FF920F931F932091E1072A3296
:101E800009F4A0C478F5253109F420C3A0F4223167
:101E900009F44EC240F4203109F45CC0213109F448
:101EA0002BC10C94311A233109F488C2243109F46E
:101EB000B3C20C94311A213209F4AEC440F4293172
:101EC00009F477C3203209F42CC40C94311A24325B
:101ED00009F43EC4253209F461C4223211F00C9495
:101EE000311A94C42B3409F407C5F0F46091DD076E
:101EF0007091DE078091DF079091E007213309F4AC
:101F000089C440F42B3209F474C4203309F48CC41E
:101F10000C94311A233309F4AFC408F498C4253360
:101F200009F4C4C40C94311A2C3F11F40C94A41776
:101F300050F4293511F40C94BC192A3F11F40C9477
:101F4000C3170C94311A2E3F09F435C708F4C4C7DF
:101F50000C940B1A809182018111B6C780918C017B
:101F600063E10E943A3B892F90E0FC01EE0FFF1FD6
:101F7000EE0FFF1FE85CFD4F4091DD075091DE073B
:101F80006091DF077091E007408351836283738320
:101F9000FC01EB5DFD4F208364E087E00E94F409C3
:101FA00081E30E94650980E30E94650964E08EE098
:101FB0000E94F40980918C016AE00E943A3B9111E1
:101FC00003C0805D0E94650964E08FE00E94F4090F
:101FD00080918C016AE00E943A3B80E3890F0E9465
:101FE000650980918C01833120F48F5F80938C018F
:101FF00002C010928C016091DD077091DE07809124
:10200000DF079091E0070E94A805029741F48091B4
:1020100023029091240290932202809321026091E6
:10202000DD077091DE078091DF079091E0070E9445
:10203000A805029779F480912302909124020196D9
:10204000A0E0B0E080931D0290931E02A0931F02B7
:10205000B09320026091DD077091DE078091DF0769
:102060009091E0070E94E705019701F580916D01CD
:10207000811103C08FE79FE102C087E99CE0909344
:102080001C0280931B028091DD079091DE07A091D6
:10209000DF07B091E0070197A109B1098093DD073F
:1020A0009093DE07A093DF07B093E0078BE692E002
:1020B00090931A02809319028FEB90E0909318028C
:1020C0008093170282ED90E09093160280931502A0
:1020D00084EF90E0909314028093130289EE91E0D4
:1020E000909312028093110281E08093820188E034
:1020F000809318010C94BA1A809182018111E4C670
:1021000080918C0163E10E943A3B892F90E0FC01B1
:10211000EE0FFF1FEE0FFF1FE85CFD4F4091DD0744
:102120005091DE076091DF077091E0074083518393
:1021300062837383FC01EB5DFD4F208364E087E0E5
:102140000E94F40981E30E94650981E30E94650908
:1021500064E08EE00E94F40920918C01822F6AE0F5
:102160000E943A3B911106C0822F0E943A3B805D4B
:102170000E94650964E08FE00E94F40980918C015F
:102180006AE00E943A3B80E3890F0E9465098091D2
:102190008C01833120F48F5F80938C0102C01092F8
:1021A0008C016091DD077091DE078091DF079091CF
:1021B000E0070E94A805029751F4809123029091B4
:1021C00024020E94500990931A0280931902609190
:1021D000DD077091DE078091DF079091E0070E9494
:1021E000A805029751F480912302909124020E9445
:1021F000500990931802809317026091DD07709147
:10220000DE078091DF079091E0070E94A805029702
:1022100051F480912302909124020E9450099093DE
:102220001602809315026091DD077091DE078091A0
:10223000DF079091E0070E94A805029751F4809172
:102240002302909124020E945009909314028093DB
:1022500013026091DD077091DE078091DF07909196
:10226000E0070E94A805029751F480912302909103
:1022700024020E94500990931202809311026091EF
:10228000DD077091DE078091DF079091E0070E94E3
:10229000A805029741F48091230290912402909323
:1022A0001C0280931B026091DD077091DE07809114
:1022B000DF079091E0070E94E705019721F48091E4
:1022C0006D01809318016091DD077091DE078091A8
:1022D000DF079091E0070E94A805029741F48091E2
:1022E0002302909124029093220280932102609114
:1022F000DD077091DE078091DF079091E0070E9473
:102300005B05039709F035C680910D0290910E028E
:10231000A0910F02B09110020196A11DB11D8093F2
:102320001D0290931E02A0931F02B093200221C6AB
:102330008091820181112CC06091DD077091DE07D0
:102340008091DF079091E0070E94A805029751F461
:1023500080912302909124020E94500990931A02C6
:10236000809319026091DD077091DE078091DF078D
:102370009091E0070E94A805029709F0FAC58091A4
:1023800023029091240290931C0280931B02F1C5BA
:102390008091190290911A0290930101809300019B
:1023A00080911B0290911C02019790931C028093D4
:1023B0001B02892B09F42AC20C94BA1A20918201BB
:1023C0006091DD077091DE078091DF079091E00753
:1023D00021110AC00E94E705019709F05BC48091B2
:1023E0006D0180938E0256C40E94A805029751F495
:1023F00080912302909124020E9450099093010140
:102400008093000180918E02815080938E028823F8
:1024100009F4FCC10C94BA1A80918201811152C056
:102420006091DD077091DE078091DF079091E007F2
:102430000E94A805029751F48091230290912402F2
:102440000E94500990931402809313026091DD075B
:102450007091DE078091DF079091E0070E94A80548
:10246000029751F480912302909124020E94500916
:1024700090931202809311026091DD077091DE0744
:102480008091DF079091E0070E94E705019721F412
:1024900080916D01809318016091DD077091DE07D6
:1024A0008091DF079091E0070E94A805029709F04C
:1024B0004BC080912302909124029093220280933A
:1024C000210242C0843009F020C26BC08091820199
:1024D00081115BC06091DD077091DE078091DF079D
:1024E0009091E0070E94A805029751F48091230281
:1024F000909124020E94500990930C0280930B0249
:102500006091DD077091DE078091DF079091E00711
:102510000E94A805029741F4809123029091240221
:1025200090932202809321026091DD077091DE0773
:102530008091DF079091E0070E94E705019721F461
:1025400080916D01809318016091DD077091DE0725
:102550008091DF079091E0070E945B05039709F0E7
:1025600099C380910D0290910E02A0910F02B0913B
:1025700010020196A11DB11D80931D0290931E02B1
:10258000A0931F02B093200285C3853009F40AC4CA
:1025900080910B0290910C029064909301018093C2
:1025A00000011F910F91FF90EF90DF90CF900C945E
:1025B000420780918201843009F4DDC4853009F43A
:1025C000A9C08111D7C780918C0163E10E943A3B79
:1025D000892F90E0FC01EE0FFF1FEE0FFF1FE85C5C
:1025E000FD4F4091DD075091DE076091DF0770914C
:1025F000E0074083518362837383FC01EB5DFD4FF1
:1026000029E1208364E087E00E94F40981E30E94CD
:10261000650989E30E94650964E08EE00E94F4097F
:1026200080918C016AE00E943A3B911103C0805D69
:102630000E94650964E08FE00E94F40980918C019A
:102640006AE00E943A3B80E3890F0E94650980910D
:102650008C01833120F48F5F80938C0102C0109233
:102660008C016091DD077091DE078091DF0790910A
:10267000E0070E940005049781F480910D0290917B
:102680000E02A0910F02B091100280931D02909350
:102690001E02A0931F02B09320026091DD0770918B
:1026A000DE078091DF079091E0070E94A80502975E
:1026B00041F480912302909124029093220280930E
:1026C00021028091DD079091DE07A091DF07B09194
:1026D000E0078A5A9F4FAF4FBF4F8093DD0790931B
:1026E000DE07A093DF07B093E00780911D02909171
:1026F0001E02A0911F02B091200288559109A109E4
:10270000B10980931D0290931E02A0931F02B09303
:1027100020022DC788EE93E8909301018093000179
:10272000B9C26091DD077091DE078091DF0790915B
:10273000E0070E94A805029709F01CC780912302B8
:1027400090912402009709F450C010928D022EC37C
:102750006091DD077091DE078091DF079091E007BF
:102760000E94A805029709F051C080912302909120
:10277000240290938C0280938B028091DD079091CC
:10278000DE07A091DF07B091E00780938702909366
:102790008802A0938902B0938A0238C080918B028C
:1027A00090918C02019790938C0280938B02892BDD
:1027B00069F18091870290918802A0918902B0917D
:1027C0008A021CC08091DD079091DE07A091DF078F
:1027D000B091E0070496A11DB11D8093DD07909391
:1027E000DE07A093DF07B093E00781E080938D02BE
:1027F0009EC5DC01CB010596A11DB11D8093DD07AF
:102800009093DE07A093DF07B093E00781E0809309
:10281000E207B0C60E94E7056091DD077091DE0710
:102820008091DF079091E0070E94E705019771F71B
:1028300020916D018091DD079091DE07A091DF0767
:10284000B091E007820F911DA11DB11DD7CF0E944D
:10285000A8050297D9F62091230230912402809195
:10286000DD079091DE07A091DF07B091E007820FAE
:10287000931FA11DB11DC2CF0E94E705019731F63C
:1028800020916D0130E0A3E0B0E00E948F39C0904C
:10289000DD07D090DE07E090DF07F090E007DC0175
:1028A000CB018C0D9D1DAE1DBF1DA8CF605F7F4F5E
:1028B0008F4F9F4F6093DD077093DE078093DF0794
:1028C0009093E0070E940005049709F09FCF409184
:1028D000DD075091DE076091DF077091E00780917E
:1028E0000D0290910E02A0910F02B0911002840F80
:1028F000951FA61FB71F82CF80918201813009F4F6
:10290000BCC138F0843009F4CCC1853009F44AC226
:1029100031C680918C0163E10E943A3B892F90E09F
:10292000FC01EE0FFF1FEE0FFF1FE85CFD4F409113
:10293000DD075091DE076091DF077091E00740836B
:10294000518362837383FC01EB5DFD4F208364E060
:1029500087E00E94F40984E30E94650982E40E94F2
:10296000650964E08EE00E94F40980918C016AE0C0
:102970000E943A3B911103C0805D0E94650964E0AA
:102980008FE00E94F40980918C016AE00E943A3B3A
:1029900080E3890F0E94650980918C01833120F4C6
:1029A0008F5F80938C0102C010928C016091DD07D3
:1029B0007091DE078091DF079091E0070E9400058B
:1029C000049799F480910D0290910E02A0910F024C
:1029D000B09110020C97A109B10980931D02909348
:1029E0001E02A0931F02B09320026091DD07709138
:1029F000DE078091DF079091E0070E94A80502970B
:102A000041F48091230290912402909322028093BA
:102A1000210280910701C090DD07D090DE07E09091
:102A2000DF07F090E007811152C0C701B6010E9494
:102A3000A805029751F480912302909124020E94EC
:102A4000500990931A02809319026091DD077091EA
:102A5000DE078091DF079091E0070E94A8050297AA
:102A600041F4809123029091240290931C02809360
:102A70001B026091DD077091DE078091DF07909166
:102A8000E0070E94A805029751F4809123029091DB
:102A900024020E94500990931402809313026091C3
:102AA000DD077091DE078091DF079091E0070E94BB
:102AB000A805029709F074C0809123029091240226
:102AC0000E945009909312028093110269C02091D4
:102AD000080130910901C90160EB74E00E945A3B82
:102AE00048E853E1649FC001659F900D749F900D6D
:102AF000112490931C0280931B0208E0C00ED11C8D
:102B0000E11CF11CC092DD07D092DE07E092DF07E6
:102B1000F092E007203619E0310729F184F4203BD8
:102B20003440F1F580ED90E0909312028093110211
:102B300090931A028093190281EA91E02DC020310E
:102B40008EE03807E9F02A303F4051F581E490E00B
:102B5000909312028093110290931A0280931902AB
:102B600082E890E019C088E690E09093120280938A
:102B7000110290931A028093190280ED90E00CC02C
:102B800085E490E0909312028093110290931A02D0
:102B9000809319028BE890E09093140280931302C3
:102BA0006091DD077091DE078091DF079091E0076B
:102BB0000E94E7050197C1F480916D01282F2F70C5
:102BC0002093170190E0F4E095958795FA95E1F749
:102BD00080931601211103C020E120931701892B56
:102BE00019F480E1809316016091DD077091DE0792
:102BF0008091DF079091E0070E94E705019709F0B7
:102C0000B8C120916D01822F90E0AC01E5E05595AF
:102C10004795EA95E1F7417040938602522F52950D
:102C2000569556955370442319F03091170102C000
:102C300030911601359F302D112430931501AC01D0
:102C4000559547955595479541704093140173E00C
:102C5000959587957A95E1F78370442319F09091C3
:102C6000170102C090911601989F802D1124809326
:102C700013012170209385027CC180911B029091E9
:102C80001C029C012150310930931C0220931B022D
:102C9000892B11F484E06CC48091190290911A027E
:102CA0008FC380918301882349F0809183018A300A
:102CB000C1F4909115019111FEC313C0809183015D
:102CC000811156C0C0901D02D0901E02E0901F02DC
:102CD000F0902002C114D104E104F10409F009C408
:102CE00047C080918301813009F4DDC38091830165
:102CF0008A3029F480911501882309F434C4809125
:102D00000802282F30E080918502882309F415C439
:102D10008091830190E00297A90102C055954795E3
:102D20008A95E2F7242F217040FF0EC48091110292
:102D300090911202909301018093000180916C01A7
:102D40008F5F80936C0190916C01222309F401C480
:102D500080911701981307C080918301815080935F
:102D6000830110926C0180918301813009F4F4C3D6
:102D700080911D0290911E02A0911F02B09120022D
:102D8000892B8A2B8B2B09F0F5C38091830181114C
:102D9000F1C3809121029091220290930A028093C4
:102DA0000902E5C3809121029091220290930A02C8
:102DB00080930902BCC280918201811185C08091FB
:102DC0008C0163E10E943A3B892F90E0FC01EE0FF9
:102DD000FF1FEE0FFF1FE85CFD4F4091DD07509194
:102DE000DE076091DF077091E007408351836283C3
:102DF0007383FC01EB5DFD4F208364E087E00E945C
:102E0000F40986E40E94650985E40E94650964E08E
:102E10008EE00E94F40980918C016AE00E943A3BA6
:102E2000911103C0805D0E94650964E08FE00E94FB
:102E3000F40980918C016AE00E943A3B80E3890F9B
:102E40000E94650980918C01833120F48F5F80930B
:102E50008C0102C010928C0188EE93E090932202C4
:102E6000809321026091DD077091DE078091DF077A
:102E70009091E0070E94A805029779F480912302BF
:102E8000909124020196A0E0B0E080931D029093FF
:102E90001E02A0931F02B09320026091DD07709183
:102EA000DE078091DF079091E0070E94E705019718
:102EB00009F0FCC880916D01811103C080E89FE199
:102EC000DEC888E99CE0DBC81F910F91FF90EF906E
:102ED000DF90CF900C948C0880918201813089F032
:102EE00038F0843009F447C0853009F43CC042C34F
:102EF00088EE93E090932202809321021092840244
:102F000036C380918301811117C0E0918402F0E003
:102F1000EE53FB4FE491E0930802809184028F5FAF
:102F200080938402809184028A3009F4B3CE89E0D0
:102F30008093830110926C011F910F91FF90EF908D
:102F4000DF90CF900C94E40780918201843099F057
:102F5000853049F081110EC388E893E190932202F5
:102F60008093210204C388EE93E89093010180933B
:102F7000000181E0FDC21F910F91FF90EF90DF9063
:102F8000CF900C942908E09182018E2F90E08B3035
:102F9000910508F0EFC2FC01EC5CFF4F0C946E3B16
:102FA00080918301882341F01F910F91FF90EF9052
:102FB000DF90CF900C9450066091DD077091DE0792
:102FC0008091DF079091E0070E94E70580916D01F5
:102FD000809308028BE08093830110920702109285
:102FE0006F0180910802863109F427C21092830193
:102FF00083E0BEC2809183018111D6CF8091CC073E
:103000009091CD07A091CE07B091CF071816190661
:103010001A061B0614F486E120C081E090E0A0E0CF
:10302000B0E08093CC079093CD07A093CE07B093E8
:10303000CF0789E09DC2809183018111B5CF809136
:10304000CC079091CD07A091CE07B091CF0718166D
:1030500019061A061B0624F484E280930802F8C0BD
:1030600089E090E0A0E0B0E08093CC079093CD079A
:10307000A093CE07B093CF0710926F0186E078C27D
:1030800080918301811190CF8091CC079091CD07E1
:10309000A091CE07B091CF07181619061A061B0685
:1030A0000CF094C06091DD077091DE078091DF071E
:1030B0009091E0070E94E70580916D0180930802DE
:1030C0009BE0909383011092070210926F01409150
:1030D000CC075091CD076091CE077091CF07453056
:1030E00051056105710541F490E0982F8827092E5C
:1030F000000CAA0BBB0B61C04091CC075091CD07CF
:103100006091CE077091CF0744305105610571057C
:1031100099F490E00196092E000CAA0BBB0B40918C
:103120001D0250911E0260911F0270912002840FB7
:10313000951FA61FB71F41C04091CC075091CD07E6
:103140006091CE077091CF0743305105610571053D
:10315000B1F490E0982F8827092E000CAA0BBB0B26
:1031600040911D0250911E0260911F027091200239
:103170008A019B01081B190B2A0B3B0B1CC04091B9
:10318000CC075091CD076091CE077091CF074230A8
:1031900051056105710509F050C140911D02509122
:1031A0001E0260911F02709120028A019B01081B80
:1031B000110921093109D901C80180931D02909399
:1031C0001E02A0931F02B093200237C187E0D0C136
:1031D000809183018111E8CE6091DD077091DE0757
:1031E0008091DF079091E0070E94E70580916D01D3
:1031F000809308028BE08093830110920702109263
:103200006F01809108028111B5C181E090E0A0E0DA
:10321000B0E08093CC079093CD07A093CE07B093F6
:10322000CF07109283018AE0A3C1809183018111AD
:10323000BBCE8091CC079091CD07A091CE07B091E5
:10324000CF07181619061A061B0654F41092080226
:103250008BE0809383011092070210926F01EDC002
:1032600084E690E0A0E0B0E08093CC079093CD0797
:10327000A093CE07B093CF0710926F0188E078C17A
:103280008091CC079091CD07A091CE07B091CF0748
:10329000181619061A061B060CF0FCCC80ED90E0FF
:1032A000C8C08091830181117FCE6091DD0770914C
:1032B000DE078091DF079091E0070E94E705019704
:1032C00009F580916D018093080280911D02909113
:1032D0001E02A0911F02B09120020197A109B1091D
:1032E00080931D0290931E02A0931F02B0932002B0
:1032F00010920702892B8A2B8B2BE9F481E08093B3
:103300006F0119C081E08093810110920A0210922E
:10331000090280938D028FEF90E0A0E0B0E08093EF
:10332000CC079093CD07A093CE07B093CF0789E544
:103330008093E1071FC18BE08093830110926C01A1
:1033400033CE8091CC079091CD07A091CE07B0915C
:10335000CF07892B8A2B8B2B09F069C084E690E07C
:10336000A0E0B0E08093CC079093CD07A093CE0768
:10337000B093CF0782E0FCC08091090290910A02CD
:10338000009719F18D3610E2910768F02CE630E2D3
:1033900030930101209300018C56904290930A02D1
:1033A0008093090208C0909301018093000110925C
:1033B0000A02109209028091000190910101906827
:1033C0009093010180930001D5C080918D028823E4
:1033D000C1F08091CC079091CD07A091CE07B0911C
:1033E000CF07892B8A2B8B2B11F581E08093E70186
:1033F0008093E2078BEC94E00E94DD2910928D020D
:10340000B9C081E08093E20780918101813009F0A9
:10341000B1C08FEF8DCF8091CC079091CD07A09157
:10342000CE07B091CF07892B8A2B8B2BA1F181E09E
:1034300090E890930101809300018091CC079091D6
:10344000CD07A091CE07B091CF070197A109B1098F
:103450008093CC079093CD07A093CE07B093CF076E
:1034600089C06091DD077091DE078091DF07909140
:10347000E00720E141ED51E00E94F13862E070E0A8
:1034800081ED91E00E94540CF89480E10E94F31BBE
:103490000197D9F378941F910F91FF90EF90DF90EF
:1034A000CF900C94C00E90911301992309F41ECC77
:1034B0008091140102C080918602882329F0209116
:1034C00011023091120204C02091130230911402B3
:1034D000309301012093000180916C018F5F8093F4
:1034E0006C0180916C01891343CC809183018150E0
:1034F0001FC06091DD077091DE078091DF0790911A
:10350000E0070E94E705019709F083CF51E0C51A53
:10351000D108E108F108C0921D02D0921E02E0928B
:103520001F02F092200280916D01809308028AE0D0
:103530008093830110926C011BCC4091830189E040
:1035400090E0841B9109E8CB8091130290911402C2
:10355000F1CB80911601FECB80911301811108CC33
:103560001092830105CC89E080938301C8CB85E06C
:10357000809382011F910F91FF90EF90DF90CF9089
:103580000895CF92DF92EF92FF920F931F93CF9304
:10359000DF936C017A018B01C0E0D0E0CE15DF052E
:1035A00089F0D8016D918D01D601ED91FC910190CA
:1035B000F081E02DC6010995892B11F47E0102C02E
:1035C0002196ECCFC701DF91CF911F910F91FF9012
:1035D000EF90DF90CF900895833081F028F4813010
:1035E00099F08230A1F008958730A9F08830B9F0C1
:1035F0008430D1F4809180008F7D03C08091800061
:103600008F7780938000089584B58F7702C084B54A
:103610008F7D84BD08958091B0008F7703C0809125
:10362000B0008F7D8093B00008953FB7F8948091EB
:10363000DB029091DC02A091DD02B091DE0226B5A2
:10364000A89B05C02F3F19F00196A11DB11D3FBFDA
:10365000BA2FA92F982F8827820F911DA11DB11D68
:10366000BC01CD0142E0660F771F881F991F4A9564
:10367000D1F7089585ED8093BC008091BC0084FD56
:10368000FCCF1092710308954091B102262F30E0D3
:10369000240F311D21323105DCF4209171032430D7
:1036A000C9F4FC0180E090E0861758F43091B10233
:1036B0002191DC01A157BD4FA30FB11D2C930196A1
:1036C000F3CF8091B102680F6093B10280E008955A
:1036D00081E0089582E00895089581E090E03091BE
:1036E000690120916801321710F480E090E0919513
:1036F00081959109089580916901909168018917D8
:1037000030F48F5F8093690180E090E008958FEF3F
:103710009FEF08958091680190E020916901821BDC
:1037200091090895CF92DF92EF92FF920F931F932A
:10373000CF93DF937C01262F972F8A01809172030C
:10374000882391F0C62FD72F6E01C40ED51ECC153D
:10375000DD0571F06991D701ED91FC910190F08147
:10376000E02DC7010995F3CF642F822F0E94441BDF
:10377000C801DF91CF911F910F91FF90EF90DF90E3
:10378000CF900895CF93DF931F92CDB7DEB76983B3
:10379000209172032223D1F020919503203240F032
:1037A00021E030E0FC013383228380E090E015C00B
:1037B00080917303E82FF0E0EC58FC4F99819083DF
:1037C0008F5F809373038093950305C061E0CE0102
:1037D00001960E94441B81E090E00F90DF91CF9111
:1037E00008950E94743BCF93DF93282F30E0F901B6
:1037F000E252FB4F8491F901E65EFA4FD491F90150
:10380000EA5FFA4FC491CC2391F081110E94EC1A27
:10381000EC2FF0E0EE0FFF1FEC52FB4FA591B4919F
:10382000EC91ED2381E090E021F480E002C080E0A3
:1038300090E0DF91CF9108951F93CF93DF93282FCE
:1038400030E0F901E252FB4F8491F901E65EFA4F54
:10385000D491F901EA5FFA4FC491CC23C9F0162F35
:1038600081110E94EC1AEC2FF0E0EE0FFF1FEE50DA
:10387000FB4FA591B4918FB7F894111105C09C919D
:10388000ED2FE095E92302C0EC91ED2BEC938FBF77
:10389000DF91CF911F9108958F929F92AF92BF9227
:1038A000CF92DF92EF92FF926B017C010E94151B79
:1038B0004B015C01C114D104E104F104F1F00E9458
:1038C000151BDC01CB0188199909AA09BB09883E9F
:1038D0009340A105B10570F321E0C21AD108E108B7
:1038E000F10888EE880E83E0981EA11CB11CC1145B
:1038F000D104E104F10419F7DDCFFF90EF90DF90E0
:10390000CF90BF90AF909F908F9008952FB7F8946D
:103910006091D7027091D8028091D9029091DA0219
:103920002FBF08951F920F920FB60F9211242F935D
:103930003F938F939F93AF93BF938091D7029091C2
:10394000D802A091D902B091DA023091D60223E0D8
:10395000230F2D3720F40196A11DB11D05C026E8C7
:10396000230F0296A11DB11D2093D6028093D7028A
:103970009093D802A093D902B093DA028091DB022F
:103980009091DC02A091DD02B091DE020196A11DB2
:10399000B11D8093DB029093DC02A093DD02B09313
:1039A000DE02BF91AF919F918F913F912F910F9028
:1039B0000FBE0F901F9018951F920F920FB60F9287
:1039C00011242F933F934F935F936F937F938F9324
:1039D0009F93AF93BF93EF93FF938091B900887F3C
:1039E000803609F49CC068F5883209F45BC090F415
:1039F000803109F454C038F4882309F4F6C08830C3
:103A000009F44DC0F6C0883109F44CC0803209F485
:103A10005DC0EFC0803409F468C048F4803309F415
:103A200055C0883309F0E5C080936F03D8C0803556
:103A300009F44FC0883509F45DC0883409F0D9C055
:103A4000D6C0883909F4C7C0A8F4883709F467C01C
:103A500038F4883609F463C0803709F460C0C9C0FF
:103A6000883809F4B8C0803909F45FC0803809F09B
:103A7000C0C05BC0803B09F486C038F4803A09F4CA
:103A800066C0883A09F47FC0B4C0803C09F4A7C07E
:103A9000883C09F4A4C0883B09F48AC0AAC080917C
:103AA0004C0310C090916E0380916D03981770F5D0
:103AB000E0916E0381E08E0F80936E03F0E0E35B94
:103AC000FC4F80818093BB0085EC86C080936F03A0
:103AD0008EC0E0916E0381E08E0F80936E03809123
:103AE000BB00F0E0E35BFC4F808390916E0380911C
:103AF0006D036EC0E0916E0381E08E0F80936E03C4
:103B00008091BB00F0E0E35BFC4F80838091700309
:103B100081116DC081E080934B0384EA61C083E032
:103B2000809371031092D502CFCF8091D50280325D
:103B300008F051C0E091D50281E08E0F8093D5024C
:103B40008091BB00F0E0EB54FD4F8083BDCF85EC4E
:103B50008093BC00109271038091D502803230F4C2
:103B6000E091D502F0E0EB54FD4F10826091D50258
:103B700070E0E091B302F091B40285EB92E0099518
:103B80001092D50236C084E0809371031092B20285
:103B90001092B102E091AF02F091B00209958091CC
:103BA000B102811105C081E08093B10210928F02B1
:103BB000E091B20281E08E0F8093B202F0E0E15713
:103BC000FD4F80818093BB009091B2028091B10241
:103BD000981708F479CF85E88093BC000AC085EC7B
:103BE0008093BC001092710304C010926F030E9476
:103BF0003A1BFF91EF91BF91AF919F918F917F9170
:103C00006F915F914F913F912F910F900FBE0F9049
:103C10001F9018958EBD0DB407FEFDCF08958FEF50
:103C20008EBD0DB407FEFDCF8EB508950F931F9383
:103C3000CF93DF938B010E94861CEB010E940F1E25
:103C40008F3F49F00E94861C6C1B7D0B06171707DF
:103C5000A8F780E001C081E0DF91CF911F910F9123
:103C60000895CF93DF93FC012381222361F0EC01BF
:103C70000180F281E02D61E082810E941C1C8FEFA7
:103C80000E940A1E1B82DF91CF910895CF93DF938C
:103C9000FC012381211110C0EC010180F281E02D93
:103CA000908181819CBD8DBDE981FA8160E0828136
:103CB0000E941C1C81E08B83DF91CF910895FF92BD
:103CC0000F931F93CF93DF9300D000D0CDB7DEB713
:103CD0008C01F62E29833A834B835C83FC0183811C
:103CE000811103C0C8010E94461EFF2029F06CE22A
:103CF00071E0C8010E94161E8F2D80640E940A1E6A
:103D00008C810E940A1E8B810E940A1E8A810E9459
:103D10000A1E89810E940A1EFF2011F087E801C057
:103D200085E90E940A1E0E940F1E8BE0F82E0E9459
:103D30000F1EF801848387FF03C0FA94F110F7CFB8
:103D40000F900F900F900F90DF91CF911F910F91D7
:103D5000FF9008950F931F93CF93DF93EC01890198
:103D60008D81833039F089E0440F551F661F771F1E
:103D70008A95D1F79A01AB0168E1CE010E945F1EDE
:103D8000882311F082E330C08EEF0E940A1EF801F2
:103D900080818EBD818132961E5F0DB407FEFDCFFE
:103DA0008EBDE017F10711F08191F7CF0DB407FE3A
:103DB000FDCF8FEF0E940A1E8FEF0E940A1E0E9405
:103DC0000F1E8C838F71853031F087E58883CE019B
:103DD0000E94311E0AC060ED77E0CE010E94161EDF
:103DE000182F811107C08AE58883CE010E94311EF9
:103DF00010E012C020E030E0A9016DE0CE010E9489
:103E00005F1E811104C00E940F1E882311F089E2F9
:103E1000EBCFCE010E94311E812FDF91CF911F91F8
:103E20000F910895EF92FF920F931F93CF93DF931B
:103E3000EC0179018D81833039F089E0440F551F01
:103E4000661F771F8A95D1F79A01AB0161E1CE0118
:103E50000E945F1E882319F080E3888338C00E9487
:103E6000861C8B010E940F1E8C838F3F49F40E9499
:103E7000861C601B710B693E7340A0F385E503C08F
:103E80008E3F31F080E58883CE010E94311E1FC035
:103E90008FEF8EBDF701D701A150BE4F9FEF0DB43C
:103EA00007FEFDCF8EB59EBD8193EA17FB07B9F7DC
:103EB0000DB407FEFDCF8EB58C931C820E940F1EA1
:103EC0000E940F1ECE010E94311E81E004C0CE016F
:103ED0000E94311E80E0DF91CF911F910F91FF90E2
:103EE000EF9008958F929F92AF92BF92CF92DF9200
:103EF000EF92FF920F931F936A017B0148015901D2
:103F0000423051056105710510F480E052C0FC019A
:103F1000408D518D628D738D4C155D056E057F054D
:103F2000A0F32581203241F5448955896689778936
:103F300097018601E7E03695279517950795EA954D
:103F4000D1F7400F511F621F731F23E080960E941C
:103F5000A5240097D1F2E894C7F8DD24EE24FF24CD
:103F6000CC0CDD1CCC0CDD1CFC01EC0DFD1D80829D
:103F70009182A282B3821CC0203139F6FC014489AF
:103F80005589668977894D0D511D611D711D23E08D
:103F900080960E94A524009709F4B7CFDD24EE2473
:103FA000FF24CC0CDD1CFC01EC0DFD1D91828082F8
:103FB00081E01F910F91FF90EF90DF90CF90BF9025
:103FC000AF909F908F900895CF92DF92EF92FF92E3
:103FD0000F931F93CF93DF93EC016A017B0189015B
:103FE000423051056105710510F48FEF63C0888D73
:103FF000998DAA8DBB8D84179507A607B707A8F3DF
:104000008D81803241F58C899D89AE89BF89E7E039
:104010007695679557954795EA95D1F7480F591FBB
:104020006A1F7B1F22E0CE0180960E94A524009784
:10403000E1F2E894C7F8DD24EE24FF24CC0CDD1C6B
:10404000CC0CDD1CFC01EC0DFD1D80819181A28159
:10405000B381BF701EC0803141F64C895D896E8985
:104060007F894D0D511D611D711D22E0CE0180968D
:104070000E94A524009709F4B8CFDD24EE24FF2484
:10408000CC0CDD1CFC01EC0DFD1D80819181A0E0BC
:10409000B0E0488D598D6A8D7B8D481759076A07A6
:1040A0007B0738F0F80180839183A283B38381E09A
:1040B00001C080E0DF91CF911F910F91FF90EF90B1
:1040C000DF90CF900895EF92FF921F93CF93DF93ED
:1040D000FC01208120FF32C0EC017C01F7E0EF0EF3
:1040E000F11C4B815C816D817E81E981FA819701B0
:1040F000808191810E94AA1E182F811102C010E0B8
:104100001EC0888181FD04C088818E7F888317C08E
:10411000E981FA8144855585668577858B819C8107
:10412000AD81BE81480F591F6A1F7B1F9701808197
:1041300091810E94AA1E8111E7CFE1CF11E0812F6A
:10414000DF91CF911F91FF90EF9008952F923F92B2
:104150004F925F926F927F928F929F92AF92BF9297
:10416000CF92DF92EF92FF920F931F93CF93DF9343
:1041700000D01F92CDB7DEB75C018B01FA01C18080
:10418000D280DB019C91907709F4EEC0D5018C912F
:104190008111EAC09081937009F4D7C0C6010C96D2
:1041A0006DE070E00E94463B99249394960E7F0147
:1041B00040E050E0BA01C8010E94492519821B82E3
:1041C000812C1A821701B6E02B0E311CF8014088B1
:1041D00051886288738861E0C8010E94282700978F
:1041E00009F4C2C0DC012C91253E39F0222309F4E8
:1041F000B8C0891408F4ACC008C0891440F4839492
:10420000222309F4B1C0253E11F02E3211F41A8296
:10421000DDCFFC0133853F3009F059C03A813111BF
:1042200009C026FFD3CF2F712B83258529833B819E
:104230003A8309C03B8131503B832313E8CF258566
:1042400039813213E4CF2B81422F50E04150510984
:104250006DE0649F9001659F300D11242C153D0584
:10426000B0F6FC0170E0753018F48181928107C0CE
:104270007B3018F48481958102C0868197812C154A
:104280003D0521F4892B09F4A1CFC1CF8F3F9105C2
:1042900011F008F0BCCF4FEB480F4A3110F0682FF7
:1042A00002C060E2680FA9014F5F5F4FD70113960C
:1042B0008D919C911497DC01A20FB31F8C919FEB01
:1042C000980F9A3108F4805E6813A1CF43C033FD84
:1042D0009ECF2A81222351F03B81313009F044C026
:1042E0000E94E524298182133FC00CC04BE050E0BE
:1042F000B1010E94793B892B09F068CFD7018C91DD
:1043000080FD64CFB301A20185E07695679557954E
:1043100047958A95D1F72A81B801C5010F900F9072
:104320000F90DF91CF911F910F91FF90EF90DF9051
:10433000CF90BF90AF909F908F907F906F905F9045
:104340004F903F902F900C94CC2A992493942FCF88
:10435000812C5BCF7F5F32967D3009F437CF9A0195
:1043600082CF891408F44BCF80E00F900F900F900C
:10437000DF91CF911F910F91FF90EF90DF90CF9041
:10438000BF90AF909F908F907F906F905F904F9075
:104390003F902F9008952F923F924F925F926F928D
:1043A0007F928F929F92AF92BF92CF92DF92EF92C5
:1043B000FF920F931F93CF93DF93CDB7DEB7E397B1
:1043C0000FB6F894DEBF0FBECDBF7C018A01198203
:1043D0001A82FC01808181116BC1FB018081807791
:1043E00009F466C1FA0180818F32B9F48F0181919D
:1043F0008F32E1F3FB0166817781811104C0C7012F
:104400000E9473275AC1CE0101960E947327882308
:1044100009F44EC1BE016F5F7F4F6E01F2E3CF0E14
:10442000D11CD8010F5F1F4F8C918032D1F3BDA3F7
:10443000ACA3FD019F012A1B3B0B81918823D9F07E
:104440008F32C9F08C3509F433C1982F977F92329F
:1044500009F42EC18A3309F42BC1982F9F7B9C331A
:1044600009F426C192EC980F923008F421C18052D1
:104470008F3500F31DC1AD01420F531FCA018C01DE
:10448000FC016190CF01F0E26F16C9F32FE26216D2
:10449000B1F39A012A1B3B0B4A175B0741F0FA0163
:1044A0008291AF018E32A9F3803299F303C01BAA27
:1044B0001AAA07C03BAB2AAB2F3F310511F00CF015
:1044C000F7C08AA99BA99BA38AA3CE018796FC016A
:1044D00020E22193CF01EC15FD05C9F7CD019C0128
:1044E0002A1B3B0BFC014191CF014E32C1F34032FC
:1044F000B1F381E02115310509F080E04AA95BA9FB
:104500004150510938F05D01A40EB51EF5019081AE
:104510009E32B1F77EA097E0892E312C512C912C40
:10452000E8E04E2EEAA9FBA92E173F070CF07FC04A
:104530005D01A20EB31EF5019081903209F465C0B1
:104540009E3229F44217530709F05FC004C092322B
:10455000E1F09C37D1F0F6EDBF2EB90EF5E0FB157A
:1045600010F09D3291F4E6ECBE2EB90EE5E0EB15AD
:1045700060F4F5EABF2EB90EF2E0FB1530F4EFED72
:10458000BE2EB90EEDE5EB1520F42417350781F4A6
:1045900040C024173507E9F1831440F1B92EFFE933
:1045A000AF2EA90EF9E1FA1548F0905294280CC0EC
:1045B0008314E0F080E09FE5EFE5BE2EEFEBBE0E4A
:1045C000F9E1FB1508F0542822242394230CE7E298
:1045D000AE2EB12CAC0EBD1EA30CB11CF501908308
:1045E000F6E0F215A0F0722C322C1EC08AE088167C
:1045F00009F460C0421753070CF45CC09A01FAE05A
:104600008F2E88E0382E90E1492E80E00DC0322CAC
:104610000BC0FAE08F1609F44DC09A01FAE08F2E14
:1046200098E0392EE0E14E2E2F5F3F4F7BCF7EA2E8
:104630009FA19032E9F1882339F0592011F4892D96
:1046400001C082E089A314C081E089A38EA190E01B
:10465000E7E2F0E0EC0FFD1FE80FF91F2EE72083E3
:10466000E8E2F0E0EC0FFD1FE80FF91F21E32083E3
:104670006620B9F0AE014F5D5F4FC7010E94A620D2
:104680008823B1F0F701DE01119680E201900D92CE
:104690008A95E1F7C7010E948D27BE016F5F7F4FAA
:1046A000C0CEAE014F5D5F4FC7010E94A62005C07E
:1046B00080E003C07EA280E0BBCFE3960FB6F89403
:1046C000DEBF0FBECDBFDF91CF911F910F91FF9045
:1046D000EF90DF90CF90BF90AF909F908F907F90A2
:1046E0006F905F904F903F902F9008958F929F9280
:1046F000AF92BF92CF92DF92EF92FF92CF93C82FEB
:104700001092CF0381E090E0A0E0B0E08093D2036C
:104710009093D303A093D403B093D5038AEC93E092
:104720009093EC038093EB031092EA038FEF9FEFDB
:10473000DC018093ED039093EE03A093EF03B0931D
:10474000F003CC2331F1C53008F0DCC020E040E0BC
:1047500050E0BA018AEE93E00E94A524009709F484
:10476000D1C020E1C29F800D911D11244097FC0112
:10477000E254FE4F20812F7709F0C4C03896808024
:104780009180A280B38081149104A104B10421F42A
:10479000B9C0812C912C540120E0B501A4018AEE0E
:1047A00093E00E94A524FC01892B09F4ABC083850A
:1047B00094858115924009F0A5C08089823009F066
:1047C000A1C0468557854115510509F49BC0258533
:1047D0002093CC038FEF820F8093CD0380E091E094
:1047E000291751F031E0380F393019F48093CE0396
:1047F00089C0990F832FF4CF8093CE03C688D788C2
:10480000C114D10419F0E12CF12C04C0C4A0D5A02E
:10481000E6A0F7A0C092D603D092D703E092D803C7
:10482000F092D903D501C401840F951FA11DB11DBC
:104830008093DE039093DF03A093E003B093E10342
:10484000218932893093D1032093D003CC0CDD1C15
:10485000EE1CFF1CC80ED91EEA1EFB1EC092E6030A
:10486000D092E703E092E803F092E90355E0220FCB
:10487000331F5A95E1F721503E4F232F33272695BA
:10488000C20ED31EE11CF11CC092DA03D092DB03EE
:10489000E092DC03F092DD03238934892115310590
:1048A00021F0C901A0E0B0E004C080A191A1A2A1C3
:1048B000B3A1B501A4014C195D096E097F09480F28
:1048C000591F6A1F7B1F0090CE0304C07695679521
:1048D000579547950A94D2F7DB01CA010196A11DAD
:1048E000B11D8093E2039093E303A093E403B0939C
:1048F000E503453F8FE058076105710528F48CE01A
:104900008093CF0380E017C0453F5F4F610571057D
:1049100010F480E10DC084A595A5A6A5B7A5809348
:10492000E6039093E703A093E803B093E90380E2E2
:104930008093CF0381E0CF91FF90EF90DF90CF90F5
:10494000BF90AF909F908F900895CF92DF92EF929B
:10495000FF921F93CF93DF93EC016A017B01122F2B
:104960008B819C81AD81BE8184179507A607B7070F
:10497000F1F0CE010E946320811103C080E090E03D
:104980001CC012FF06C01882CB82DC82ED82FE8240
:104990000EC0E981FA819E01295F3F4FB701A60150
:1049A000808191810E94121F8111EDCFE7CF13709A
:1049B0008881182B1883CE010796DF91CF911F9124
:1049C000FF90EF90DF90CF900895FC01AC01455F20
:1049D0005F4F80E090E8899F90011124982F969571
:1049E000922B2191892F820FE417F50799F70895EB
:1049F000CF93DF93FC012081211102C081E046C0EA
:104A0000EC01828182FF3AC04489558966897789A1
:104A10008681978121E080960E94A524009729F441
:104A200089818160898380E031C0EC81FD81EF70F4
:104A3000FF2725E0EE0FFF1F2A95E1F7DC01AE0FFF
:104A4000BF1F2C91253E61F3288123FF0AC0488DAA
:104A5000598D6A8D7B8D5C964D935D936D937C93A0
:104A60005F974C8D5D8D6E8D7F8DE80FF91F538F95
:104A7000428F758B648B8A818B7F8A838E819F8125
:104A800080960E946320882359F2B8CFDF91CF919E
:104A900008954F925F926F927F928F929F92AF9202
:104AA000BF92CF92DF92EF92FF920F931F93CF931B
:104AB000DF93EC014A015B014C845D846E847F844A
:104AC000A881AA2309F491C0488959896A897B89F8
:104AD00084169506A606B70609F48DC081149104C4
:104AE000A104B10429F41C861D861E861F8678C089
:104AF000A3FF0BC0088D198D2A8D3B8D0815190554
:104B00002A053B0508F471C014C0A5FF12C0EE8150
:104B1000FF818681978125E0880F991F2A95E1F70B
:104B2000A0E0B0E088159905AA05BB0508F45DC0B2
:104B300057C0EE81FF81848190E009968A019B0134
:104B40000150110921093109082E04C03695279515
:104B5000179507950A94D2F775016401B1E0CB1A55
:104B6000D108E108F10804C0F694E794D794C794FB
:104B70008A95D2F7C016D106E206F30620F0452B3F
:104B8000462B472B81F4A6FF05C0848D958DA68DFD
:104B9000B78D04C08C8D9D8DAE8DBF8D8C879D870C
:104BA000AE87BF8704C0C01AD10AE20AF30A8E0199
:104BB000045F1F4FC114D104E104F10489F04C8556
:104BC0005D856E857F8598018E819F810E94E41F9F
:104BD00091E0C91AD108E108F10818165CF305C084
:104BE000888A998AAA8ABB8A06C04C865D866E86A8
:104BF0007F8680E001C081E0DF91CF911F910F910E
:104C0000FF90EF90DF90CF90BF90AF909F908F90EC
:104C10007F906F905F904F9008954F925F926F9248
:104C20007F928F929F92AF92BF92CF92DF92EF923C
:104C3000FF920F931F93CF93DF93EC014B018A01F7
:104C400088818823D9F09A8190FF18C01DC0D38035
:104C5000D422A114B10409F081C0D1107FC0892BE6
:104C60008A2B8B2B09F464C04C855D856E857F850E
:104C70009201CF010E94E41F87FF6AC08981826090
:104C800089838FEF9FEFD3C083FF15C0888D998DE7
:104C9000AA8DBB8D488959896A897B89841B950BAC
:104CA000A60BB70BA80160E070E0481759076A0728
:104CB0007B07A0F012C085FF11C0EE81FF818681C5
:104CC000978155E0880F991F5A95E1F7288939890E
:104CD000821B930B8017910708F48C0178012E0139
:104CE0002CE0420E511C612C42E0742EE114F104C0
:104CF00009F465C088899989AA89BB895C0121E08A
:104D0000B2222881EE81FF81AC01BD0139E07695A8
:104D10006795579547953A95D1F725FF98CF848D9C
:104D2000958DA68DB78D480F591F6A1F7B1F34C004
:104D300026FF05C0848D958DA68DB78D04C08C8D02
:104D40009D8DAE8DBF8D8C879D87AE87BF8706C03A
:104D5000811104C08881807791F590CFEE81FF8129
:104D60004C855D856E857F854250510961097109C9
:104D7000048004C0440F551F661F771F0A94D2F7A2
:104D800080899189A289B389480F591F6A1F7B1FA7
:104D90004D0D511D611D711DEE81FF81A114B104E6
:104DA00071F5E11482E0F80650F183A194A1A5A168
:104DB000B6A1481759076A077B0729F420C0C80124
:104DC0008E199F0934C09401808191810E94121F25
:104DD000882309F453CFC12C82E0D82E8C0C9D1C63
:104DE00088899989AA89BB898C0D9D1DA11DB11D3A
:104DF000888B998BAA8BBB8BEC18FD0877CFC301EE
:104E00008A199B0967018E159F0508F46C0120E043
:104E1000CF0180960E94A524009709F42FCFBC01F2
:104E20006A0D7B1DA601C4010E94863BD7CFDF918E
:104E3000CF911F910F91FF90EF90DF90CF90BF9097
:104E4000AF909F908F907F906F905F904F9008955C
:104E5000FF920F931F93CF93DF931F92CDB7DEB7CF
:104E60008C01FC0180899189A289B3899C01AD01E3
:104E700075E056954795379527957A95D1F7F22F96
:104E8000FF70FF2E11F0611116C041E050E0BE012D
:104E90006F5F7F4FC8010E940D26813019F080E0BE
:104EA00090E01AC0F80180899189A289B3894F9650
:104EB000A11DB11D04C08096A11DB11DF801808BFC
:104EC000918BA28BB38BF801868197818796F0E254
:104ED000FF9E800D911D11240F90DF91CF911F91A6
:104EE0000F91FF900895FC018081811114C080E230
:104EF000DF01982F1D929A95E9F777836683DB018E
:104F000015969C91903119F0903229F480E48083B9
:104F100081E08283089580E00895CF93DF93EC01D0
:104F20000E94F8241882DF91CF9108953F924F920A
:104F30005F926F927F928F929F92AF92BF92CF9229
:104F4000DF92EF92FF920F931F93CF93DF9300D0E6
:104F500000D0CDB7DEB74C01FC0182818460828332
:104F60004484558466847784A680B780F501C08424
:104F7000D184E284F384C414D504E604F704C0F4B5
:104F80007301620110E0FFEFCF1ADF0AEF0AFF0A98
:104F9000F501808D918DA28DB38D8C159D05AE058B
:104FA000BF0540F4111132C0C084D184E284F3847F
:104FB00011E0E9CFC414D504E604F70439F19E01E9
:104FC0002F5F3F4FB701A601C5010E94E41F87FD77
:104FD0001DC08823C1F289819A81AB81BC81892B54
:104FE0008A2B8B2B81F6112329F0F501C086D186FF
:104FF000E286F3860FEF1FEF2FEF3FE0B701A60128
:10500000C5010E94721F382E811102C0312C15C0BB
:10501000411451046104710431F4F401C486D5864D
:10502000E686F7860AC097018601B301A201C50191
:105030000E94721F8111F1CFE9CF832D0F900F9045
:105040000F900F90DF91CF911F910F91FF90EF90F4
:10505000DF90CF90BF90AF909F908F907F906F9098
:105060005F904F903F9008952F923F924F925F92A2
:105070006F927F928F929F92AF92BF92CF92DF9268
:10508000EF92FF920F931F93CF93DF93EC015B019D
:105090004A01888183FF0EC08A8181FF0BC083FF94
:1050A0000FC0488D598D6A8D7B8DCE010E94492598
:1050B000811106C08981816089838FEF9FEF08C1CC
:1050C000A40160E070E088899989AA89BB898095EC
:1050D0009095A095B09584179507A607B70750F34C
:1050E00064011E018CE0280E311C088919892A8967
:1050F0003B89C114D10409F4D0C08E819F81B901CC
:10510000A80129E076956795579547952A95D1F797
:10511000DC011396FC90F4221170F11034C00115DB
:10512000110589F54C855D856E857F854115510595
:105130006105710569F091010E94E41F87FDBACFF6
:10514000811121C0CE010E94962781111CC0B2CFCF
:105150008C8D9D8DAE8DBF8D0097A105B10579F425
:10516000CE010E949627882309F4A4CF8C859D85C3
:10517000AE85BF858C8F9D8FAE8FBF8F04C08C870F
:105180009D87AE87BF87EE81FF814C855D856E85EB
:105190007F854250510961097109048004C0440FA0
:1051A000551F661F771F0A94D2F780899189A289BB
:1051B000B389480F591F6A1F7B1F4F0D511D611D79
:1051C000711D0115110521F4C114B2E0DB06B0F523
:1051D00080E092E0801B910B76018C159D0508F410
:1051E0007C010115110579F4488859886A887B8803
:1051F000888D998DAA8DBB8D481659066A067B0647
:1052000010F025E001C021E0CF0180960E94A52486
:10521000009709F44FCFA701B501800F911F0E949D
:10522000863B0E0D1F1D0115124031F58E819F81A9
:1052300080960E94632081111FC03CCF83A194A15E
:10524000A5A1B6A184179507A607B70741F410A238
:105250008FEF9FEFDC0183A394A3A5A3B6A3EE81F8
:10526000FF819501808191810E94AA1E882309F403
:1052700021CFE12C82E0F82E88899989AA89BB89FF
:105280008E0D9F1DA11DB11D888B998BAA8BBB8B89
:10529000AE0CBF1CCE18DF0828CF888D998DAA8D43
:1052A000BB8D80179107A207B30738F4088F198FB9
:1052B0002A8F3B8F8A8184608A838A8187FD02C01E
:1052C000C40106C0CE010E94F8248111F9CFF2CEAC
:1052D000DF91CF911F910F91FF90EF90DF90CF90D2
:1052E000BF90AF909F908F907F906F905F904F9006
:1052F0003F902F900895209195039091940321322F
:1053000008F04AC0809171038111FCCF32E03093E4
:10531000710331E0309370033FEF30936F031092CD
:105320006E0320936D03A4E7B3E04DE453E0FA016C
:105330003E2F341B321718F43D913193F9CF109260
:105340004C0320914C03990F922B90934C03909116
:105350004B03913061F410924B0390914C03909366
:10536000BB009091BC0093FDF8CF95EC01C095EE89
:105370009093BC00909171039230E1F390916F0390
:105380009F3F79F080916F03803241F080916F03ED
:10539000803331F084E005C081E003C082E001C0C9
:1053A00083E0109273031092950310927203089594
:1053B000682F86E993E00C94C21B40E150E0BC01E9
:1053C0008AE393E00E94A93840E050E060E070E09A
:1053D0008AE393E00C94240A0F931F93CF93DF93F7
:1053E000CDB7DEB761970FB6F894DEBF0FBECDBF65
:1053F00090913903809138039923A9F19EE3998311
:10540000DE01129620E030E090E06FED72E0FB01EB
:1054100001900020E9F73197EF5DF240A901480FB4
:10542000591F4E175F0730F4FA01E152FD4F4081DA
:105430004C9301C01C922F5F3F4F11962F303105C6
:1054400031F7198A62E070E0CE0101960E94540C97
:1054500061960FB6F894DEBF0FBECDBFDF91CF913E
:105460001F910F910895DE01119620E030E090E049
:105470004FED52E0BC016A1B7B0BFA01019000204A
:10548000E9F73197EF5DF2408B010A0F1B1F0E17F2
:105490001F0740F4F901E80FF91FE152FD4FE081C9
:1054A000EC9301C01C922F5F3F4F119620313105C4
:1054B00021F7C7CFCF92DF92FF920F931F93CF9325
:1054C000DF93EC019091AA03911102C080E05CC0CF
:1054D000907621F08FE28883198255C04091BE03F7
:1054E0005091BF036091C0037091C1038091B003DC
:1054F0009091B10320E080960E94A524DC01892BC5
:1055000029F32091AE033091AF032F70332785E04C
:10551000220F331F8A95E1F740E050E078E090E0F9
:105520008D01020F131F045F1F4F6EE2F62EFA016A
:10553000E20FF31F6F01CA0EDB1EF601808180327D
:10554000D1F04830510539F4BE01690F711DFB01DE
:10555000F0829F5F70E1F60160818FEB860F8A31E8
:1055600028F4F8018081872309F0605EFE01E90FCD
:10557000F11D60839F5F4F5F5F4F4B305105B9F660
:10558000C90FD11D188281E0DF91CF911F910F913A
:10559000FF90DF90CF900895CF92DF92EF92FF922D
:1055A0000F931F93CF93DF93DC0180E2ED011992FB
:1055B0008A95E9F7EB01EE81FF811796FC93EE9354
:1055C000169715965C934E931497CC8CDD8CEE8CCD
:1055D000FF8C1896CD92DD92ED92FC921B974F7046
:1055E0005527EF01A79635E0440F551F3A95E1F78F
:1055F000BE01640F751FEB018B8583FD45C0CF0194
:10560000840F951FEC019AA997719C93EB018B85F0
:10561000887111F498609C9313962C93139781E0F2
:1056200012968C93129703A114A125A136A154962A
:105630000D931D932D933C935797E40FF51F43ADA6
:1056400054AD60E070E0BA0155274427EF01CF5B0D
:10565000DF4F0881198120E030E0402B512B622B75
:10566000732B5C964D935D936D937C935F97ED5B8D
:10567000FF4F408151816281738158964D935D93B4
:105680006D937C935B9702C01C9280E0DF91CF9179
:105690001F910F91FF90EF90DF90CF900895AF9200
:1056A000BF92CF92DF92EF92FF920F931F93CF930F
:1056B000DF9300D000D0CDB7DEB7FC018091AA0304
:1056C000811160C08081807709F45CC080899189F4
:1056D000A289B3898F719927AA27BB27892B8A2B87
:1056E0008B2B09F04FC05F0110E000E0F501C0888E
:1056F000D188E288F38860E0C5010E9428270097DE
:1057000009F440C0FC0120812223E1F12E3211F482
:1057100010E0ECCF253EE1F3338533FD16C0B70131
:10572000A60125E076956795579547952A95D1F777
:105730001123A1F049835A836B837C830E94E52463
:1057400049815A8108131EC009C03F3009F726FF5E
:10575000CDCF122F1F71FC010585C8CF212FB501B8
:105760008AEA93E00F900F900F900F90DF91CF9106
:105770001F910F91FF90EF90DF90CF90BF90AF906F
:105780000C94CC2A80E00F900F900F900F90DF9137
:10579000CF911F910F91FF90EF90DF90CF90BF902E
:1057A000AF900895CF93DF93CDB7DEB7A0970FB634
:1057B000F894DEBF0FBECDBF19821A82FC01208192
:1057C0002F3271F4218121110BC081EF95E00E94ED
:1057D0008D276AEC73E081EF95E00E94732717C074
:1057E000AC0161EF75E0CE0101960E94CB218823C8
:1057F00071F09981907751F090E2FE013196A1EF1E
:10580000B5E001900D929A95E1F701C080E0A09675
:105810000FB6F894DEBF0FBECDBFDF91CF910895D4
:10582000CF93DF9380E0C82F082E000CDD0BC4540B
:10583000D84F988191110AC0CE010E94D23869E3F5
:1058400075E00E94B838892B29F421C09E32A1F35B
:105850008F5FE9CF1092E30782E08093E2078EEF3B
:105860008093E1074091DD075091DE076091DF07EB
:105870007091E00781E00E94B704019709F07FC0B2
:105880008091D207863109F07AC08AEF0FC0CE012D
:105890000E94D23866E375E00E94B838892B49F03F
:1058A0001092E30782E08093E2078DEF8093E10797
:1058B00066C0CE010E94D23863E375E00E94B8381A
:1058C000892B39F01092E30782E08093E2078CEF96
:1058D000EDCFCE010E94D2386EE275E00E94B8385A
:1058E000892B09F44CC0C1E0C093E3071092D107A3
:1058F0001092D0074091DD075091DE076091DF07DD
:105900007091E00781E00E94B7040197D1F4809183
:10591000D2078535B1F4C093D107C093D00789EF82
:1059200090E090931A01809319018FEF90E0A0E02E
:10593000B0E08093CC079093CD07A093CE07B093AF
:10594000CF071092DD071092DE071092DF0710924A
:10595000E0071092CB071092E2071092CA0780E08E
:1059600090E022E0FC01EE0FFF1FE65EF94F20837E
:1059700021830196813D9105A9F71092C907DF9116
:10598000CF91089590E0FC01E65EFA4F2491FC016E
:10599000EA5FFA4F8491882399F090E0880F991F6D
:1059A000FC01E450FB4FA591B491FC01EE50FB4F7C
:1059B000859194918FB7F894EC91E22BEC938FBF83
:1059C0000895CF93DF93CDB7DEB7A1970FB6F894C4
:1059D000DEBF0FBECDBF789484B5826084BD84B530
:1059E000816084BD85B5826085BD85B5816085BDDA
:1059F00080916E00816080936E0010928100809192
:105A00008100826080938100809181008160809319
:105A10008100809180008160809380008091B1003E
:105A200084608093B1008091B00081608093B00069
:105A300080917A00846080937A0080917A008260FD
:105A400080937A0080917A00816080937A008091BF
:105A50007A00806880937A001092C10010926901E8
:105A600010926801109273031092950310927103C3
:105A700081E08093700310924B0361E082E10E9409
:105A80001C1C61E083E10E941C1C8091B9008E7F88
:105A90008093B9008091B9008D7F8093B90088E42C
:105AA0008093B80085E48093BC008EEA0E94D509FB
:105AB00088EA0E94D5098FE30E94D5098DE80E94EB
:105AC000D50984E10E94D50981EA0E94D50988ECB4
:105AD0000E94D5098AED0E94D50982E10E94D5096C
