:100000000C94B9020C94E1020C94E1020C94E1020C
:100010000C94E1020C94E1020C94E1020C94E102D4
:100020000C94E1020C94E1020C94E1020C94E102C4
:100030000C94E1020C9449180C94E1020C94E10236
:100040000C948A190C94E1020C94E1020C94E102E4
:100050000C94E1020C94E1020C94E1020C94E10294
:100060000C94E1020C94E102E80CD40FE80C0D0DA5
:10007000640EAC0E530DFB0D530E2E0D280E526563
:100080007365742E2E004E6F2053442043617264BA
:1000900000D3D3D3D3D3D3D3D3D3D3D0D0D0D0D012
:1000A000D0D0D0D0D0EAEAEAEAEAEAEAEAEAEA1FFD
:1000B000A6DEBACC137D742E636173002E7565665F
:1000C000002E6F002E70002E74617000506C6179EC
:1000D000696E67004E6F2046696C652053656C65DC
:1000E00063746564004F4E202A006F6666202A0004
:1000F000536B697020424C4B3A3241004F4E202ADC
:10010000006F6666202A00545358437A78706F6CEB
:100110005545465357004F4E202A006F6666202AE9
:10012000004D6F746F72204374726C003338353039
:10013000003336303000323430300031323030006D
:1001400042617564205261746500536B697020428E
:100150004C4B3A3241203F00545358437A78705503
:1001600045465357203F004D6F746F7220437472A1
:100170006C203F00426175642052617465203F002D
:100180004D656E7500504C4159696E6720005041B5
:100190005553454420200000506C6179696E6720FA
:1001A0002020202020005061757365642020004EBF
:1001B0006F7420545A5854617065005A58546170D5
:1001C00065214E6F74205545462046696C65005583
:1001D00045462046696C6521545A584455494E4F4E
:1001E0009D5041555345442A20002062797465731F
:1001F0000076312E3731204D61784475696E6F007D
:1002000053746F70706564002000000000000000EF
:1002100000005F5F5F005F5F5F0007070300070785
:100220000300367F7F367F7F3600242E6E7F3B3A79
:1002300012006373381C0E676300307E4F59377AA3
:1002400048000000070703000000001C3E7F6341D8
:1002500000000041637F3E1C000049363E5D3E3693
:1002600049000018187E7E1818000000E0E06000C9
:1002700000000018181818181800000060606000CE
:1002800000006070381C0E070300003C7E6B657F29
:100290003E0000606C7F7F60600000737B69696F67
:1002A000660000616165657F3A000F0F08687F7F17
:1002B000680000676765657D3900003E7F65657D84
:1002C000390000030371790F0700003A7F65657FED
:1002D0003A0000666F69697F3E000000666666004E
:1002E00000000000E6E666000000081C3E7763415F
:1002F00000000036363636363600004163773E1C45
:10030000080003035B595F0F06003E7F6169696F58
:100310006E007C7E7F0B097F7F007F7F7F696F7E11
:1003200038003C7E7F63617373007F7F7F61637EF3
:100330003C007C7E7F6B696363007C7E7F6B09037E
:1003400003003C7E7F63697B7B007C7E7F08087FA7
:100350007F000042637F7F63210030786263637FA8
:100360003F007C7E7F081C7763007C7E7F6060702E
:1003700070007C7E070C067F7F007C7E070E1C7F52
:100380007F003C7E7F63617F3E007C7E7F69090F3A
:1003900006003C7E7F6361FFBE007C7E7F09097F93
:1003A0007600646E6F6B6979310002637F7F63034F
:1003B00001003C7E7F60607F7F003C7E7F703C0F51
:1003C00003007C7E3F18307F7F004163361C1C3663
:1003D0006341646E6F68687F3F00436371796D6746
:1003E000630000007F7F7F41000003070E1C387010
:1003F00060000000417F7F7F0000080C0E070E0C9C
:100400000800808080808080800000000003070753
:100410000000787C7C14147C78007E7E7E44447CD2
:100420003800387C7C44446C6C00387C7C44447ECE
:100430007E02387C7C54545C5800507C7E7E520294
:10044000000018BCBCA4A4FC7C007E7E7E0808785A
:10045000700000087A7A7A40000040C088F8FA7A82
:1004600000007E7E7E10386C440000027E7E7E405E
:1004700000007C7C0C180C7C78007C7C7C04047C68
:100480007800387C7C44447C3800FCFCFC24243C10
:100490001800183C3C2424FCFC007C7C7C04040CEC
:1004A0000800485C5C547474240000387C7E48204A
:1004B00000003C7C7C40407C7C003C7C7C60301CB0
:1004C0000C003C7C6030607C3C00446C7C387C6C74
:1004D00044008C9CBCF0603C1C004C6C747C5C6CDC
:1004E00064000000083E7F7741000000007F7F002D
:1004F00000000041777F3E08000002030103020371
:100500000100000000002300260029000000000870
:1005100000020100000304070000000000000000CA
:100520000000035A58415946696C6520201A0B0097
:10053000C000806E00000000250028002B00000095
:100540000000240027002A00040404040404040416
:10055000020202020202030303030303010204086E
:10056000102040800102040810200102040810201D
:10057000543A11241FBECFEFD8E0DEBFCDBF11E04B
:10058000A0E0B1E0E4E2FDE702C005900D92AC36D8
:10059000B107D9F727E0ACE6B1E001C01D92AD315B
:1005A000B207E1F712E0C9EBD2E004C02197FE01E7
:1005B0000E94543EC83BD107C9F70E94FA2D0C9403
:1005C000903E0C940000CF92DF92EF92FF920F9337
:1005D0001F93CF93DF93CDB7DEB72B970FB6F89469
:1005E000DEBF0FBECDBF10920101109200018091BD
:1005F0003903811139C040E050E0BA0182E796E04A
:100600000E94141D882309F14AE050E0BE016F5F8B
:100610007F4F82E796E00E941F1F47E050E06BEBA0
:1006200071E0CE0101960E94813B892B71F060E060
:1006300070E08FEA91E00E947A146CE271E080E051
:1006400090E00E9444190E9455148AE090E0A0E0D6
:10065000B0E080933A0390933B03A0933C03B093A4
:100660003D0381E08093390380913903843099F50B
:1006700040E050E0BA0182E796E00E94141D882312
:10068000D9F049E050E0BE016F5F7F4F82E796E00E
:100690000E941F1F49E050E06FEC71E0CE0101960F
:1006A0000E94813B892B41F061E070E082EC91E097
:1006B0000E947A140E9455148CE090E0A0E0B0E013
:1006C00080933A0390933B03A0933C03B0933D0384
:1006D00085E08093390380913903853009F0B4C0F7
:1006E00060913A0370913B0380913C0390913D03EC
:1006F0000E940824029709F07BC00091EB0310913F
:10070000EC031093D3030093D20360913A037091EA
:100710003B0380913C0390913D030E94602304972A
:1007200009F066C08091ED039091EE03A091EF0374
:10073000B091F0038093590690935A06A0935B06FC
:10074000B0935C06109251060430114009F053C07A
:100750000397A109B1098093590690935A06A09373
:100760005B06B0935C0680913A0390913B03A091A5
:100770003C03B0913D03BC01CD016F5F7F4F8F4FB4
:100780009F4F60933A0370933B0380933C03909395
:100790003D030E9447240197B9F48091EA038F3406
:1007A00029F480910801811107C008C0853451F4F3
:1007B00080910801811102C082E001C081E0809334
:1007C000510602C01092510680913A0390913B036A
:1007D000A0913C03B0913D030196A11DB11D8093F2
:1007E0003A0390933B03A0933C03B0933D0303C0B3
:1007F00082E00C94A20E8091090190910A01803B45
:10080000944049F480EA91E0909353068093520615
:1008100080ED90E008C08CE491E0909353068093C3
:10082000520686EA90E09093550680935406109203
:100830006F0110923E031092F10386E0809339031A
:10084000109237031092D10300913903063009F05A
:100850000AC18091D2039091D303803141E0940783
:10086000C1F048F4811501E0900781F08430914097
:1008700009F0DAC00BC0823121E0920709F495C07B
:10088000C0F18731914009F4B0C0CEC00E94512917
:10089000EAC08091370381113AC060913A037091A8
:1008A0003B0380913C0390913D030E9408240297F2
:1008B000E1F42091090130910A018091EB039091BC
:1008C000EC03880F991F880F991F90934C06809313
:1008D0004B06203B344019F480ED90E002C08CE9D7
:1008E00090E090934E0680934D0681E0809337030D
:1008F000BAC080913703882369F01091D103113079
:1009000071F1123009F444C0133009F0ACC00E94F8
:10091000AC2AA9C060913A0370913B0380913C03DB
:1009200090913D030E940824029791F48091EB037B
:100930009091EC03880F991F880F991F90934C0694
:1009400080934B0680ED90E090934E0680934D0689
:1009500081E0809337038091D1038F5F16C00E949E
:10096000AC2A80914B0690914C06892B09F07BC0F4
:10097000009339038AEA8093E60310936F018BE0BA
:1009800080933E031092F10382E08093D1036BC009
:10099000109251060E94512980913E03811163C03B
:1009A00000933903109237035EC060913A0370914F
:1009B0003B0380913C0390913D030E9408240297E1
:1009C00009F051C08091EB039091EC03009709F47A
:1009D00047C0880F991F9093500680934F069068E8
:1009E00090930101809300013BC060913A037091A4
:1009F0003B0380913C0390913D030E9408240297A1
:100A000091F58091EB039091EC038C32914029F4A5
:100A100088E08093070180E104C082E080930701B1
:100A200084E0809306011CC040913A0350913B033F
:100A300060913C0370913D038091590690915A0654
:100A4000A0915B06B0915C06840F951FA61FB71F8F
:100A500080933A0390933B03A0933C03B0933D03F0
:100A600085E080933903809139038130D9F4609116
:100A70003A0370913B0380913C0390913D030E94A7
:100A80004724019719F48091EA0301C08FEF809306
:100A90002B0310923E031092F10382E080933903FE
:100AA0001092370380913903823011F00C94D40FE7
:100AB00020912B032A3209F4BEC378F5253109F4BD
:100AC000DFC2A0F4223109F40DC240F4203109F450
:100AD0005AC0213109F40DC10C944A0F233109F495
:100AE00047C2243109F472C20C944A0F213209F42E
:100AF0000AC440F4293109F43CC3203209F485C307
:100B00000C944A0F243209F4B1C3253209F4D3C33B
:100B1000223211F00C944A0FF0C32B3409F46CC448
:100B2000F0F460913A0370913B0380913C03909103
:100B30003D03213309F4E5C340F42B3209F4CFC35C
:100B4000203309F4E8C30C944A0F233309F413C487
:100B500008F4F4C3253309F429C40C944A0F2C3F3C
:100B600009F443C348F4293511F40C94C70E2A3F05
:100B700009F421C70C944A0F2E3F09F472C608F4F9
:100B8000E0C60C94240F809137038111D7C664E02E
:100B900087E00E94B31181E30E94511180E30E941B
:100BA000511164E08EE00E94B31130915503832F00
:100BB0006AE00E94203E911109C0832F0E94203ECE
:100BC0000E94203E80E3890F0E94511164E08FE073
:100BD0000E94B311809155036AE00E94203E80E399
:100BE000890F0E945111809155038F5F80935503A7
:100BF00060913A0370913B0380913C0390913D03D7
:100C00000E940824029741F48091EB039091EC0339
:100C1000909358068093570660913A0370913B0376
:100C200080913C0390913D030E940824029779F43F
:100C30008091EB039091EC030196A0E0B0E08093EB
:100C4000590690935A06A0935B06B0935C06609198
:100C50003A0370913B0380913C0390913D030E94C5
:100C60004724019701F58091EA03811103C08FE7C2
:100C70009FE102C087E99CE090934C0680934B066D
:100C800080913A0390913B03A0913C03B0913D03C6
:100C90000197A109B10980933A0390933B03A09374
:100CA0003C03B0933D038BE692E090934E06809315
:100CB0004D068FEB90E090934A068093490682EDB3
:100CC00090E0909348068093470684EF90E09093DD
:100CD00053068093520689EE91E0909355068093D7
:100CE000540681E08093370388E080931A010C94C6
:100CF000D40F80913703811121C664E087E00E9400
:100D0000B31181E30E94511181E30E94511164E00B
:100D10008EE00E94B311809155032AE0622F0E9459
:100D2000203E911106C00E94203E80E3890F0E9460
:100D3000511164E08FE00E94B311809155036AE085
:100D40000E94203E80E3890F0E945111809155033B
:100D50008F5F8093550360913A0370913B038091BC
:100D60003C0390913D030E940824029751F4809126
:100D7000EB039091EC030E94591090934E068093E0
:100D80004D0660913A0370913B0380913C03909132
:100D90003D030E940824029751F48091EB03909147
:100DA000EC030E94591090934A0680934906609183
:100DB0003A0370913B0380913C0390913D030E9464
:100DC0000824029751F48091EB039091EC030E9468
:100DD0005910909348068093470660913A037091AA
:100DE0003B0380913C0390913D030E9408240297AD
:100DF00051F48091EB039091EC030E945910909371
:100E000053068093520660913A0370913B038091A0
:100E10003C0390913D030E940824029751F4809175
:100E2000EB039091EC030E94591090935506809328
:100E3000540660913A0370913B0380913C0390917A
:100E40003D030E940824029741F48091EB039091A6
:100E5000EC0390934C0680934B0660913A0370919B
:100E60003B0380913C0390913D030E9447240197EE
:100E700021F48091EA0380931A0160913A03709102
:100E80003B0380913C0390913D030E94082402970C
:100E900041F48091EB039091EC039093580680937A
:100EA000570660913A0370913B0380913C03909107
:100EB0003D030E94BB23039709F055C58091ED03C4
:100EC0009091EE03A091EF03B091F0030196A11D64
:100ED000B11D8093590690935A06A0935B06B09378
:100EE0005C0641C58091370381112CC060913A03A3
:100EF00070913B0380913C0390913D030E94082434
:100F0000029751F48091EB039091EC030E945910E9
:100F100090934E0680934D0660913A0370913B0387
:100F200080913C0390913D030E940824029709F0B0
:100F30001AC58091EB039091EC0390934C0680933B
:100F40004B0611C580914D0690914E06909301017C
:100F50008093000180914B0690914C0601979093ED
:100F60004C0680934B06892B09F4C7C10C94D40F0F
:100F70002091370360913A0370913B0380913C03C9
:100F800090913D0321110AC00E944724019709F066
:100F90003AC18091EA038093D00335C10E940824AE
:100FA000029751F48091EB039091EC030E94591049
:100FB00090930101809300018091D0038150809330
:100FC000D003882309F499C10C94D40F809137037E
:100FD000811152C060913A0370913B0380913C03B0
:100FE00090913D030E940824029751F48091EB03F5
:100FF0009091EC030E9459109093530680935206EF
:1010000060913A0370913B0380913C0390913D03C2
:101010000E940824029751F48091EB039091EC0315
:101020000E945910909355068093540660913A039C
:1010300070913B0380913C0390913D030E944724B3
:10104000019721F48091EA0380931A0160913A0399
:1010500070913B0380913C0390913D030E940824D2
:10106000029709F04BC08091EB039091EC039093B1
:1010700058068093570642C0843009F0C6C176C036
:101080008091370381115BC060913A0370913B03FB
:1010900080913C0390913D030E940824029751F4F3
:1010A0008091EB039091EC030E9459109093E90317
:1010B0008093E80360913A0370913B0380913C0375
:1010C00090913D030E940824029741F48091EB0324
:1010D0009091EC03909358068093570660913A03E1
:1010E00070913B0380913C0390913D030E94472403
:1010F000019721F48091EA0380931A0160913A03E9
:1011000070913B0380913C0390913D030E94BB236F
:10111000039709F078C08091ED039091EE03A091C0
:10112000EF03B091F0030196A11DB11D8093590604
:1011300090935A06A0935B06B0935C0664C085301A
:1011400061F48091570690915806909350068093D1
:101150004F0689E580932B0327C78091E803909180
:10116000E903906490930101809300010E94AF28ED
:101170001BC780913703843009F41AC48530E9F124
:10118000811112C760913A0370913B0380913C0337
:1011900090913D030E94602360913A0370913B035C
:1011A00080913C0390913D030E940824029741F4F2
:1011B0008091EB039091EC0390935806809357062F
:1011C00080913A0390913B03A0913C03B0913D0381
:1011D0008A5A9F4FAF4FBF4F80933A0390933B0380
:1011E000A0933C03B0933D03DCC680913703843069
:1011F00009F4DEC3853009F0D6C388EE93E89093F6
:1012000001018093000184E0CDC660913A037091A2
:101210003B0380913C0390913D030E940824029778
:1012200009F0C2C68091EB039091EC030097D1F0D6
:101230001092CF038ACF80913A0390913B03A09103
:101240003C03B0913D030496A11DB11D80933A0368
:1012500090933B03A0933C03B0933D0380915003D4
:1012600081114BC081E08093CF0373CF60913A032B
:1012700070913B0380913C0390913D030E940824B0
:101280000297D9F58091EB039091EC039093CE03F4
:101290008093CD0380913A0390913B03A0913C034E
:1012A000B0913D038093C9039093CA03A093CB03ED
:1012B000B093CC0322C08091CD039091CE030197CF
:1012C0009093CE038093CD03892BB9F08091C9030D
:1012D0009091CA03A091CB03B091CC0343C0AB0162
:1012E000BC014B5F5F4F6F4F7F4F40933A0350936A
:1012F0003B0360933C0370933D0381E0809339038B
:1013000053C60E94472460913A0370913B03809139
:101310003C0390913D030E944724019771F720916F
:10132000EA0380913A0390913B03A0913C03B09172
:101330003D03820F911DA11DB11D14C00E94082400
:101340000297D9F62091EB033091EC0380913A0398
:1013500090913B03A0913C03B0913D03820F931FFA
:10136000A11DB11D80933A0390933B03A0933C03CE
:10137000B0933D03C2CF0E944724019709F0BDCF2F
:101380002091EA0330E0A3E0B0E00E94753C0091B8
:101390003A0310913B0320913C0330913D03DC0163
:1013A000CB01800F911FA21FB31FDCCF605F7F4F67
:1013B0008F4F9F4F60933A0370933B0380933C039E
:1013C00090933D030E946023049709F096CF4091CB
:1013D0003A0350913B0360913C0370913D0380912F
:1013E000ED039091EE03A091EF03B091F003840F11
:1013F000951FA61FB71FB6CF80913703813009F420
:101400009DC138F0843009F4ACC1853009F499CE1F
:10141000CBC564E087E00E94B31184E30E945111C0
:1014200082E40E94511164E08EE00E94B311809129
:1014300055032AE0622F0E94203E911106C00E94AF
:10144000203E80E3890F0E94511164E08FE00E94EA
:10145000B311809155036AE00E94203E80E3890F1A
:101460000E945111809155038F5F809355036091C5
:101470003A0370913B0380913C0390913D030E949D
:101480006023049799F48091ED039091EE03A0916D
:10149000EF03B091F0030C97A109B10980935906AD
:1014A00090935A06A0935B06B0935C0660913A0352
:1014B00070913B0380913C0390913D030E9408246E
:1014C000029741F48091EB039091EC0390935806BE
:1014D0008093570680910801C0903A03D0903B0357
:1014E000E0903C03F0903D03811152C0C701B6016A
:1014F0000E940824029751F48091EB039091EC0331
:101500000E94591090934E0680934D0660913A03C5
:1015100070913B0380913C0390913D030E9408240D
:10152000029741F48091EB039091EC0390934C0669
:1015300080934B0660913A0370913B0380913C038A
:1015400090913D030E940824029751F48091EB038F
:101550009091EC030E945910909353068093520689
:1015600060913A0370913B0380913C0390913D035D
:101570000E940824029709F074C08091EB039091B7
:10158000EC030E945910909355068093540669C04D
:101590002091090130910A01C90160EB74E00E94B9
:1015A000403E48E853E1649FC001659F900D749FE1
:1015B000900D112490934C0680934B0618E0C10EB9
:1015C000D11CE11CF11CC0923A03D0923B03E09283
:1015D0003C03F0923D03203649E0340729F184F4BE
:1015E000203B3440F1F580ED90E0909355068093D8
:1015F000540690934E0680934D0681EA91E02DC0EB
:1016000020310EE03007E9F02A303F4051F581E407
:1016100090E0909355068093540690934E068093E5
:101620004D0682E890E019C088E690E09093550658
:101630008093540690934E0680934D0680ED90E083
:101640000CC085E490E090935506809354069093E7
:101650004E0680934D068BE890E09093530680935E
:10166000520660913A0370913B0380913C03909144
:101670003D030E9447240197C1F48091EA03282F7B
:101680002F702093190190E0F4E095958795FA95D5
:10169000E1F780931801211103C020E12093190183
:1016A000892B19F480E18093180160913A037091BD
:1016B0003B0380913C0390913D030E944724019796
:1016C00009F051C12091EA03822F90E0AC01E5E0DE
:1016D00055954795EA95E1F741704093C803522F1D
:1016E0005295569556955370442319F0309119012F
:1016F00002C030911801359F302D1124309317010D
:10170000AC01559547955595479541704093160105
:1017100073E0959587957A95E1F78370442319F0E6
:101720009091190102C090911801989F802D112469
:101730008093150121702093C70315C180914B063A
:1017400090914C069C012150310930934C06209316
:101750004B06892B09F457CD80914D0690914E068A
:101760003AC380913E03882349F080913E038A303A
:10177000B9F4909117019111B2C312C080913E0348
:10178000811155C08091590690915A06A0915B062F
:10179000B0915C06892B8A2B8B2B09F0BEC347C006
:1017A00080913E03813009F492C380913E038A30D8
:1017B00029F480911701882309F4EFC38091E6038F
:1017C000282F30E08091C703882309F4D0C380918B
:1017D0003E0390E00297A90102C0559547958A956E
:1017E000E2F7242F217040FFC9C3809154069091E5
:1017F000550690930101809300018091F1038F5F62
:101800008093F1039091F103222309F4BCC38091EA
:101810001901981307C080913E03815080933E03C5
:101820001092F10380913E03813009F4AFC380919F
:10183000590690915A06A0915B06B0915C06892BDF
:101840008A2B8B2B09F0B0C380913E038111ACC36E
:1018500080915706909158069093500680934F06BA
:10186000A0C380913703811169C064E087E00E94C2
:10187000B31186E40E94511185E40E94511164E085
:101880008EE00E94B31130915503832F6AE00E94CD
:10189000203E911109C0832F0E94203E0E94203ECD
:1018A00080E3890F0E94511164E08FE00E94B31120
:1018B000809155036AE00E94203E80E3890F0E94D8
:1018C0005111809155038F5F8093550388EE93E00B
:1018D000909358068093570660913A0370913B03AA
:1018E00080913C0390913D030E940824029779F473
:1018F0008091EB039091EC030196A0E0B0E080931F
:10190000590690935A06A0935B06B0935C066091CB
:101910003A0370913B0380913C0390913D030E94F8
:101920004724019709F0BFC98091EA03811103C0E0
:1019300080E89FE1A1C988E99CE09EC90E94C32A72
:1019400033C380913703813081F028F0843081F1F6
:10195000853019F029C31092C60388EE93E890935E
:1019600001018093000181E01DC380913E0381113C
:1019700017C0E091C603F0E0E852FE4FE491E09317
:10198000E6038091C6038F5F8093C6038091C603F0
:101990008A3009F438CC89E080933E031092F10339
:1019A0000E943C2A01C38111FFC21092C60325CCBC
:1019B0000E94812AF9C2E09137038E2F90E08B308C
:1019C000910508F0F1C2FC01EC5CFF4F0C94543E11
:1019D00080913E03882319F00E948F3AE5C26091FE
:1019E0003A0370913B0380913C0390913D030E9428
:1019F00047248091EA038093E6038BE080933E03C3
:101A00001092E70310926F018091E603863109F48A
:101A10002DC210923E0383E0C5C280913E03811126
:101A2000DBCF8091320390913303A0913403B091C6
:101A30003503181619061A061B0614F486E120C091
:101A400081E090E0A0E0B0E0809332039093330314
:101A5000A0933403B093350389E0A4C280913E0380
:101A60008111BACF8091320390913303A091340356
:101A7000B0913503181619061A061B0624F484E2E1
:101A80008093E603F8C089E090E0A0E0B0E08093A6
:101A9000320390933303A0933403B0933503109231
:101AA0006F0186E07FC280913E03811195CF8091C6
:101AB000320390913303A0913403B091350318168B
:101AC00019061A061B060CF094C060913A03709137
:101AD0003B0380913C0390913D030E9447248091F9
:101AE000EA038093E6039BE090933E031092E703A2
:101AF00010926F014091320350913303609134038F
:101B000070913503453051056105710541F490E050
:101B1000982F8827092E000CAA0BBB0B61C040919F
:101B20003203509133036091340370913503443094
:101B300051056105710599F490E00196092E000C9C
:101B4000AA0BBB0B4091590650915A0660915B0657
:101B500070915C06840F951FA61FB71F41C040916E
:101B60003203509133036091340370913503433055
:101B7000510561057105B1F490E0982F8827092E71
:101B8000000CAA0BBB0B4091590650915A0660916C
:101B90005B0670915C068A019B01081B190B2A0BDE
:101BA0003B0B1CC0409132035091330360913403CE
:101BB00070913503423051056105710509F056C138
:101BC0004091590650915A0660915B0670915C06EF
:101BD0008A019B01081B110921093109D901C8019A
:101BE0008093590690935A06A0935B06B0935C06C7
:101BF0003DC187E0D7C180913E038111EDCE609158
:101C00003A0370913B0380913C0390913D030E9405
:101C100047248091EA038093E6038BE080933E03A0
:101C20001092E70310926F018091E6038111BCC10D
:101C300081E090E0A0E0B0E0809332039093330322
:101C4000A0933403B093350310923E038AE0AAC1F7
:101C500080913E038111C0CE809132039091330375
:101C6000A0913403B0913503181619061A061B0605
:101C700054F41092E6038BE080933E031092E70346
:101C800010926F01F3C084E690E0A0E0B0E0809392
:101C9000320390933303A0933403B093350310922F
:101CA0006F0188E07FC18091320390913303A0914E
:101CB0003403B0913503181619061A061B060CF0EA
:101CC000A2CA80ED90E0CEC080913E03811184CE07
:101CD00060913A0370913B0380913C0390913D03E6
:101CE0000E944724019709F58091EA038093E60357
:101CF0008091590690915A06A0915B06B0915C06BE
:101D00000197A109B1098093590690935A06A093AF
:101D10005B06B0935C061092E703892B8A2B8B2B12
:101D2000A9F481E080936F0111C08FEF90E0A0E0F3
:101D3000B0E08093320390933303A0933403B093C5
:101D4000350381E0809339038FEF04CA8BE08093E1
:101D50003E031092F10340CE809132039091330301
:101D6000A0913403B0913503892B8A2B8B2B09F07A
:101D700047C084E690E0A0E0B0E080933203909307
:101D80003303A0933403B093350382E00BC18091F9
:101D90004F0690915006009719F1811510E29107B6
:101DA00068F02FEF3FE130930101209300018F5F36
:101DB0009F419093500680934F0608C09093010175
:101DC000809300011092500610924F0680910001FE
:101DD0009091010190689093010180930001E4C00B
:101DE0008091CF03882339F180913203909133039E
:101DF000A0913403B0913503892B8A2B8B2B19F0DA
:101E000081E090E82FC081E08093B0038093390394
:101E100081EE91E00E94722D8FEF90E0A0E0B0E0A3
:101E20008093320390933303A0933403B09335032C
:101E30001092CF03B9C081E08093390380913103C0
:101E4000813009F0B1C080CF80913203909133038B
:101E5000A0913403B0913503892B8A2B8B2BA1F1F0
:101E60008AE090EA9093010180930001809132030F
:101E700090913303A0913403B09135030197A109E8
:101E8000B1098093320390933303A0933403B0934A
:101E900035038AC060913A0370913B0380913C0303
:101EA00090913D0320E14AE953E00E94D73B62E074
:101EB00070E08AE993E00E94D612F89480E10E94D3
:101EC000EB180197D9F378940E9402176DC0909196
:101ED0001501992309F469CC8091160102C0809103
:101EE000C803882329F0209154063091550604C078
:101EF0002091520630915306309301012093000146
:101F00008091F1038F5F8093F1038091F103891336
:101F10008ECC80913E03815025C060913A03709130
:101F20003B0380913C0390913D030E94472401971D
:101F300009F00ACF8091590690915A06A0915B064C
:101F4000B0915C060197A109B1098093590690935D
:101F50005A06A0935B06B0935C068091EA038093D7
:101F6000E6038AE080933E031092F10360CC409137
:101F70003E0389E090E0841B91092DCC80915206AC
:101F80009091530636CC8091180143CC8091150175
:101F900081114DCC10923E034ACC89E080933E03E0
:101FA0000DCC85E0809337032B960FB6F894DEBFF7
:101FB0000FBECDBFDF91CF911F910F91FF90EF909A
:101FC000DF90CF9008950895FC0124A535A523172F
:101FD00028F4E20FF11D848590E008958FEF9FEFC4
:101FE0000895FC0194A585A5981748F4DF01A90F71
:101FF000B11D1C962C9130E09F5F94A702C02FEF7B
:102000003FEFC9010895FC0125A530E084A5A90191
:10201000481B5109CA010895CF92DF92EF92FF92B7
:102020000F931F93CF93DF936C01EB017B01E40EC1
:10203000F51E00E010E0CE15DF0561F06991D601D4
:10204000ED91FC910190F081E02DC6010995080FFA
:10205000191FF1CFC801DF91CF911F910F91FF9010
:10206000EF90DF90CF900895089580E090E008957C
:1020700040E050E0BA0180914E0390914F030C94E0
:10208000141D04960C94D81DCF93DF931F92CDB7E7
:10209000DEB7698341E050E0BE016F5F7F4F049679
:1020A0000E94D81D0F90DF91CF91089504960C9453
:1020B000C31CBC0180E090E00E94923D20E030E033
:1020C00040E650E40E94F13C20E030E040E05FE375
:1020D0000E94853C0E94633DCB0108950E94381008
:1020E000109254031092530380914E0390914F032A
:1020F0000E94EF2C882371F082E796E00E9449222B
:1021000080915303909154030196909354038093CC
:102110005303EACF80915303909154039093520359
:102120008093510308951F93CF93DF93182FC4E03A
:10213000D0E0812F0E94EB18892B49F4219739F0C8
:1021400062E370E080E090E00E944419F2CFDF91FA
:10215000CF911F910895CF93C82F8C2F0E94EB1819
:10216000892B39F462E370E080E090E00E9444192A
:10217000F4CFCF91089571E03D9A3C9800000000A3
:1021800000000E9444183D980E944418A894000042
:1021900000000000359B0E943E18D2F088943499CC
:1021A0000894771F48F73D9A803019F03C980C94BA
:1021B000DA103C9A0000000000000E9444183D988C
:1021C000A89400000000359B0E943E180E9444180D
:1021D000000000003D9A872F9927089580E2089516
:1021E0000894881F0C94F510880FF1F03D9A0000B8
:1021F0000000000020F400003C980C9402113C9A6E
:102200000C9402110E9444183D98A894000000000C
:102210000000359B0E943E181AF488270C94271161
:102220000E9444180C94F4103D9A000000003C9861
:102230000E944418992788273D98A8940000359B50
:102240000E943E1852F3349B81E00E944418000023
:1022500000003D9A089581E00895CF93DF93EC014B
:10226000862F0E94F010811106C08FA5811106C033
:1022700083E08FA703C081E090E002C080E090E09F
:10228000DF91CF9108953D9A3C9A0E9444183D9861
:102290000E944418359B0E943E183C980E944418A6
:1022A00008950F931F93CF93DF93C82F0E94812D22
:1022B00080E490E00E94872B88E0C89FE001112411
:1022C00000E010E0DA95FE01E00FF11FE65FFD4F40
:1022D00064918DEE96E00E942D110F5F1F4F083024
:1022E000110589F70E94431110921B0710921C07D9
:1022F000DF91CF911F910F910895CF93DF931F929C
:10230000CDB7DEB789830E94812D80E490E00E94E2
:10231000872B69818DEE96E00E942D110E9443115A
:10232000EDEEF6E016A617A60F90DF91CF91089577
:10233000CF93DF931F92CDB7DEB789830E94812DA3
:1023400080E890E00E94872B69818DEE96E00E94E4
:102350002D110E944311EDEEF6E016A617A60F9080
:10236000DF91CF910895CF93C82F80EB860F0E9405
:1023700098118C2F880F880F880F88708E5F0E94AD
:10238000981128E0C29FC001112424E095958795FB
:102390002A95E1F78F70805FCF910C949811AF92DE
:1023A000BF92CF92DF92EF92FF920F931F93CF9342
:1023B000DF93EC01A62EB42E642F8A2D0E94B31158
:1023C0008E01EE24E394F12CD8018C91882309F43A
:1023D00051C00E94812D80E490E00E94872BC12C87
:1023E000D12CD8018C91F601B8E08B02E00DF11DE3
:1023F0001124E65FFE4FE491F0E0A1E0B0E060E080
:1024000070E020E030E0CF01062E02C09595879560
:102410000A94E2F780FF14C0C7010A2E02C0880F99
:10242000991F0A94E2F7282B392BCB01880F991FAB
:10243000A70102C0440F551F8A95E2F7242B352BC4
:102440006F5F7F4F129664307105E9F6C9010E94F3
:10245000872BEFEFCE1ADE0AF8E0CF16D10409F091
:10246000C0CF0E94431110921B0710921C070F5FF0
:102470001F4FAACF61E06B0D8A2D0E94B31101E0BE
:1024800010E08881882309F44FC00E94812D80E4E8
:1024900090E00E94872BE12CF12C8881F701B8E0B5
:1024A0008B02E00DF11D1124E65FFE4FE491F0E098
:1024B00060E070E044E050E020E030E0CF01042E26
:1024C00002C0959587950A94E2F780FF13C0C80172
:1024D000062E02C0880F991F0A94E2F7282B392B89
:1024E000CB010196D80102C0AA0FBB1F8A95E2F763
:1024F0002A2B3B2B4F5F5F4F6E5F7F4F483051055C
:10250000E9F6C9010E94872BBFEFEB1AFB0AE8E04E
:10251000EE16F10409F0C1CF0E94431110921B077F
:1025200010921C072196ADCFDF91CF911F910F9193
:10253000FF90EF90DF90CF90BF90AF90089544E070
:1025400050E064E070E084E491E00E94CF114AE042
:1025500060E273E08091090190910A010E94CC3BF6
:1025600046E050E060E070E080E293E00E94CF112E
:102570008091130146E050E065E070E0813019F48D
:102580008FE491E002C085E591E00E94CF11809137
:10259000080146E050E06BE070E0813019F48BE513
:1025A00091E002C081E691E00C94CF11AB01ADE562
:1025B000B6E020E030E060E2FC0101900020E9F7A5
:1025C0003197E81BF90B2E173F0730F4FC01E20F9F
:1025D000F31F70817C9301C06C932F5F3F4F119666
:1025E0002031310549F760E070E08DE596E00C940C
:1025F000CF11CF92DF92EF92FF920F931F93CF9361
:10260000DF93CDB7DEB7A0970FB6F894DEBF0FBE4D
:10261000CDBF7C0180915603813031F0EA94EF28E0
:10262000B9F40E94381014C00E94381001E010E084
:102630000E151F059CF780914E0390914F030E9449
:10264000EF2C82E796E00E9449220F5F1F4FF0CFE8
:1026500080914E0390914F030E94EF2C19821A82B1
:1026600080917206811103C01092920608C0809179
:102670007506811174C082E996E00E94FA2B81E40C
:1026800093E00E94FA2B80918A0690918B06A0918C
:102690008C06B0918D068093D9039093DA03A093B2
:1026A000DB03B093DC0380917206807709F0F9C0F8
:1026B00069E371E081E493E00E94803E892B09F494
:1026C000F0C01092EC0682E796E00E944922109238
:1026D0009A038091EC068130B1F4809199038823AC
:1026E00079F090E0019726E1289FB001299F700DB5
:1026F0001124695A7C4F8AE993E00E94893E16C0F2
:1027000061EF71E00FC06091D9037091DA0380919D
:10271000DB039091DC032AE04AE953E00E94D73BB7
:102720006AEE71E08AE993E00E948E3B60E070E01F
:102730008AE993E00E94D6121092EB060E948C2B3D
:10274000A0960FB6F894DEBF0FBECDBFDF91CF913C
:102750001F910F91FF90EF90DF90CF90089580919F
:102760007A0690917B06A0917C06B0917D066091DF
:102770007806709179068E010F5F1F4F0097A105B3
:10278000B10539F4C8010E948520882309F46CCF73
:102790000FC020E2F80111922A95E9F720E1298380
:1027A00021E02B8378876F838D8F9E8FAF8FB8A3A7
:1027B000CC24C3949DE0D92E809175068C1508F425
:1027C00053CFEC2CF12C40917606509177064E19A0
:1027D0005F0960E070E085E0440F551F661F771FBA
:1027E0008A95D1F7C8010E94141D882309F43CCFB3
:1027F00060E0C8010E943A20FC01892B09F434CF23
:1028000083858F3009F030CF80818F7190E0E8169A
:10281000F90609F029CF81E0E81AF108DE9C900161
:10282000DF9C300D1124B9016E56794F7F0180E095
:10283000D701853028F411964D915C9112970BC009
:102840008B3028F414964D915C91159704C0169620
:102850004D915C9117974115510591F0283531053F
:10286000C8F42F5F3F4F4F37510508F04FE3DB01AE
:102870004D93BD018F5FB2E0EB0EF11C8D30C1F6C0
:102880002835310538F4808186FF04C0D901AE5661
:10289000B94F1C921092E906808186FDF0CEC39458
:1028A0008BCF81E08093EC060ECFCF9380E18093B5
:1028B0008100C1E0C09336031092B50382E796E031
:1028C0000E944922C093560380910E0190910F01FE
:1028D0000E94F91210923A0310923B0310923C03AB
:1028E00010923D031092460610925606109238033D
:1028F000CF910895CF93DF93EB0140E150E0BC010D
:102900008DE596E00E94993BEDE5F6E00190002010
:10291000E9F7319720E2CF018D559640409714F4A6
:102920002193F9CFAE0160E070E08DE596E0DF9194
:10293000CF910C94CF110F931F93CF93DF931092ED
:102940003A0310923B0310923C0310923D03809196
:102950002B038E3F61F08AE090E0A0E0B0E080932E
:102960003A0390933B03A0933C03B0933D03C1E033
:10297000D0E08091550390E08C179D070CF4B0C116
:1029800060913A0370913B0380913C0390913D0329
:102990000E9447240197D9F480912B038E3F21F0A8
:1029A0008091EA0380932B0380912B038E3F99F44F
:1029B00080913A0390913B03A0913C03B0913D0379
:1029C000BC01CD0161507109810991094EC0C1500E
:1029D000C093550385C1813209F4CDC038F58331E8
:1029E00009F45BC0B8F4813109F448C008F0ABC009
:1029F000803109F073C180913A0390913B03A0911B
:102A00003C03B0913D03BC01CD016E5F7F4F8F4F02
:102A10009F4F2BC0853109F46EC008F45DC0893129
:102A200009F434C1803209F482C058C1813309F4F9
:102A3000ABC078F48A3209F486C020F4843209F4F9
:102A400076C04CC18B3209F48AC0803309F493C03C
:102A500045C1833309F4E0C008F4C0C0853309F4EC
:102A6000FEC08B3409F412C139C160933A037093EC
:102A70003B0380933C0390933D03B8C080913A039D
:102A800090913B03A0913C03B0913D03BC01CD016B
:102A9000615F7F4F8F4F9F4F3CC060913A037091B1
:102AA0003B0380913C0390913D030E944724019792
:102AB00009F014C18091EA0390E0A0E0B0E0880F33
:102AC000991FAA1FBB1F40913A0350913B0360918D
:102AD0003C0370913D03F6C080913A0390913B0313
:102AE000A0913C03B0913D03BC01CD01695F7F4FD4
:102AF0008F4F9F4F0EC080913A0390913B03A0915E
:102B00003C03B0913D03BC01CD016B5F7F4F8F4F04
:102B10009F4F60933A0370933B0380933C039093E1
:102B20003D030E94BB23039709F0D8C0BBC080912E
:102B30003A0390913B03A0913C03B0913D03029670
:102B4000A11DB11DC3C080913A0390913B03A09198
:102B50003C03B0913D030496A11DB11DB7C0809107
:102B60003A0390913B03A0913C03B0913D0305963D
:102B7000A11DB11DABC060913A0370913B038091E0
:102B80003C0390913D0316C080913A0390913B0322
:102B9000A0913C03B0913D03BC01CD016F5F7F4F1D
:102BA0008F4F9F4F60933A0370933B0380933C0396
:102BB00090933D030E944724019709F08FC0209114
:102BC000EA0380913A0390913B03A0913C03B091BA
:102BD0003D03820F911DA11DB11D78C060913A0384
:102BE00070913B0380913C0390913D030E94082427
:102BF000029709F073C02091EB033091EC038091B0
:102C00003A0390913B03A0913C03B0913D03820FA6
:102C1000931FA11DB11D5AC060913A0370913B03EF
:102C200080913C0390913D030E944724019709F055
:102C300055C02091EA0330E0A3E0B0E00E94753C6B
:102C400000913A0310913B0320913C0330913D03E6
:102C5000DC01CB01800F911FA21FB31F37C08091F1
:102C60003A0390913B03A0913C03B0913D03BC011A
:102C7000CD01605F7F4F8F4F9F4F60933A037093FA
:102C80003B0380933C0390933D0308C060913A035B
:102C900070913B0380913C0390913D030E9460231F
:102CA0000497E1F440913A0350913B0360913C0357
:102CB00070913D038091ED039091EE03A091EF039D
:102CC000B091F003840F951FA61FB71F80933A039E
:102CD00090933B03A0933C03B0933D03219649CED0
:102CE00080912B038E3F99F081E0809339036091AE
:102CF0003A0370913B0380913C0390913D030E9405
:102D00004724019739F48091EA0380932B0382E0F2
:102D10008093390360E070E088E092E00E947A14CA
:102D200040E050E060E070E08AE491E00E94CF1162
:102D3000809155034AE060E273E090E00E94083C15
:102D400040E050E064E070E080E293E00E94CF1148
:102D50008091550340E050E0833618F466E070E05F
:102D600002C067E070E087E691E00E94CF11809199
:102D70002B03982F92959F70803A10F4905D01C0BC
:102D8000995C909320038F708A3010F4805D01C0AD
:102D9000895C80932103109222038091550340E0C7
:102DA00050E0833618F46AE070E002C06BE070E037
:102DB00080E293E00E94CF1184E68093100110928C
:102DC000400310923F0310923E031092F103809152
:102DD0003803811112C01092370381E080933003D1
:102DE00080E49FE190932F0380932E0390938700BC
:102DF0008093860081E180938100DF91CF911F91C4
:102E00000F9108950E9455148091B503813041F4CB
:102E100060E070E080E092E00E947A141092B503C6
:102E200008950F931F93CF93DF931F92CDB7DEB713
:102E300020913A0330913B0340913C0350913D0374
:102E4000A4E6B0E00E94483C2091D9033091DA0317
:102E50004091DB035091DC030E94533C122F2093DE
:102E6000D80380911001843611F4109210018091E2
:102E70001001811710F081112CC0022F60E088E052
:102E80001A3038F40E94B311812F6AE00E94203E6C
:102E90000DC0143670F40E94B311812F6AE00E94B5
:102EA000203E805D99830E945111998180E3890FB2
:102EB00009C00E94B31181E30E94511180E30E9476
:102EC000511180E30E94511185E20E94511100933B
:102ED00010010F90DF91CF911F910F9108950F93E3
:102EE0001F93CF93DF930E947E190091D40310911A
:102EF000D5032091D6033091D703DC01CB01801B91
:102F0000910BA20BB30B893E9340A105B10508F4C8
:102F10006AC00E947E196093D4037093D503809396
:102F2000D6039093D70320913F03309140030AE0EA
:102F300010E0C901B8010E942C3E892B69F060E0C5
:102F40008FE00E94B31180913F0390914003B8013C
:102F50000E942C3E805D3CC0C4E6D0E0C901BE01A9
:102F60000E942C3E892B89F060E08EE00E94B31114
:102F700080913F0390914003BE010E942C3EB80116
:102F80000E942C3E80E3860F20C008EE13E0C901AA
:102F9000B8010E942C3E60E0892B81F08DE00E94F8
:102FA000B31180913F0390914003B8010E942C3EE1
:102FB000BE010E942C3E80E3860F04C08DE00E947B
:102FC000B31180E30E94511180E30E94511180E30C
:102FD0000E94511180913F0390914003019690937C
:102FE000400380933F03DF91CF911F910F9108958C
:102FF0008F93F1E0E4EF8F918F93359B0E943E1801
:103000003C9A0E9444180E94F010882331F40E94D8
:103010004311319711F00C94FB1799270F900895E5
:1030200008953D9A0E9444183C980E9444183D9887
:103030000E944418359B0E943E183C9A0E944418F6
:103040000E94F010089581E00895359B0E943E187B
:103050003C9A0E9444180E94F010089581E008955F
:103060003C983D984498459888279927349B089523
:10307000359B089581E0089581E00895359B0C9477
:103080003E18A8940895089597E19A95F1F7089548
:1030900008951F920F920FB60F9211242F933F9312
:1030A0004F935F936F937F938F939F93AF93BF9350
:1030B000EF93FF93E0912C03F0912D030995FF917D
:1030C000EF91BF91AF919F918F917F916F915F91A0
:1030D0004F913F912F910F900FBE0F901F90189519
:1030E000CF92DF92EF92FF920F931F93CF93DF93D4
:1030F0006C017A018B01C0E0D0E0CE15DF0589F0CC
:10310000D8016D918D01D601ED91FC910190F08176
:10311000E02DC6010995892B11F47E0102C021968C
:10312000ECCFC701DF91CF911F910F91FF90EF90EE
:10313000DF90CF900895833081F028F4813099F0AA
:103140008230A1F008958730A9F08830B9F084303A
:10315000D1F4809180008F7D03C0809180008F77B3
:1031600080938000089584B58F7702C084B58F7DE9
:1031700084BD08958091B0008F7703C08091B00026
:103180008F7D8093B00008953FB7F8948091E2035B
:103190009091E303A091E403B091E50326B5A89BC9
:1031A00005C02F3F19F00196A11DB11D3FBFBA2FD9
:1031B000A92F982F8827820F911DA11DB11DBC0139
:1031C000CD0142E0660F771F881F991F4A95D1F7FE
:1031D00008950E945A3ECF93DF93282F30E0F901E3
:1031E000E45FFA4F8491F901E45AFA4FD491F9015E
:1031F000E85BFA4FC491CC2391F081110E949B1897
:10320000EC2FF0E0EE0FFF1FEE5FFA4FA591B491A7
:10321000EC91ED2381E090E021F480E002C080E0B9
:1032200090E0DF91CF9108951F93CF93DF93282FE4
:1032300030E0F901E45FFA4F8491F901E45AFA4F62
:10324000D491F901E85BFA4FC491CC23C9F0162F51
:1032500081110E949B18EC2FF0E0EE0FFF1FEC5C39
:10326000FA4FA591B4918FB7F894111105C09C91B4
:10327000ED2FE095E92302C0EC91ED2BEC938FBF8D
:10328000DF91CF911F9108958F929F92AF92BF923D
:10329000CF92DF92EF92FF926B017C010E94C418E3
:1032A0004B015C01C114D104E104F104F1F00E946E
:1032B000C418DC01CB0188199909AA09BB09883E09
:1032C0009340A105B10570F321E0C21AD108E108CD
:1032D000F10888EE880E83E0981EA11CB11CC11471
:1032E000D104E104F10419F7DDCFFF90EF90DF90F6
:1032F000CF90BF90AF909F908F9008952FB7F89484
:103300006091DE037091DF038091E0039091E1030F
:103310002FBF08951F920F920FB60F9211242F9373
:103320003F938F939F93AF93BF938091DE039091D0
:10333000DF03A091E003B091E1033091DD0323E0CE
:10334000230F2D3720F40196A11DB11D05C026E8DD
:10335000230F0296A11DB11D2093DD038093DE0390
:103360009093DF03A093E003B093E1038091E20325
:103370009091E303A091E403B091E5030196A11DB0
:10338000B11D8093E2039093E303A093E403B09311
:10339000E503BF91AF919F918F913F912F910F9036
:1033A0000FBE0F901F9018958EBD0DB407FEFDCF78
:1033B00008958FEF8EBD0DB407FEFDCF8EB5089535
:1033C0000F931F93CF93DF938B010E947E19EB0124
:1033D0000E94D9198F3F49F00E947E196C1B7D0B0A
:1033E00006171707A8F780E001C081E0DF91CF91B1
:1033F0001F910F910895CF93DF93FC012381222326
:1034000061F0EC010180F281E02D61E082810E9497
:1034100014198FEF0E94D4191B82DF91CF91089568
:10342000CF93DF93FC012381211110C0EC010180B7
:10343000F281E02D908181819CBD8DBDE981FA8171
:1034400060E082810E94141981E08B83DF91CF912B
:103450000895FF920F931F93CF93DF9300D000D076
:10346000CDB7DEB78C01F62E29833A834B835C837C
:10347000FC018381811103C0C8010E94101AFF2042
:1034800029F06CE271E0C8010E94E0198F2D806480
:103490000E94D4198C810E94D4198B810E94D41966
:1034A0008A810E94D41989810E94D419FF2011F0C9
:1034B00087E801C085E90E94D4190E94D9198BE0E0
:1034C000F82E0E94D919F801848387FF03C0FA946B
:1034D000F110F7CF0F900F900F900F90DF91CF91D9
:1034E0001F910F91FF9008950F931F93CF93DF9338
:1034F000EC0189018D81833039F089E0440F551F3B
:10350000661F771F8A95D1F79A01AB0168E1CE015A
:103510000E94291A882311F082E330C08EEF0E94A6
:10352000D419F80180818EBD818132961E5F0DB461
:1035300007FEFDCF8EBDE017F10711F08191F7CFA7
:103540000DB407FEFDCF8FEF0E94D4198FEF0E94BC
:10355000D4190E94D9198C838F71853031F087E599
:103560008883CE010E94FB190AC060ED77E0CE018E
:103570000E94E019182F811107C08AE58883CE01C7
:103580000E94FB1910E012C020E030E0A9016DE0BC
:10359000CE010E94291A811104C00E94D9198823E2
:1035A00011F089E2EBCFCE010E94FB19812FDF9150
:1035B000CF911F910F910895EF92FF921F93CF9398
:1035C000DF93FC01208120FF32C0EC017C01F7E099
:1035D000EF0EF11C4B815C816D817E81E981FA8166
:1035E0009701808191810E94741A182F811102C065
:1035F00010E01EC0888181FD04C088818E7F888391
:1036000017C0E981FA8144855585668577858B8168
:103610009C81AD81BE81480F591F6A1F7B1F970196
:10362000808191810E94741A8111E7CFE1CF11E06E
:10363000812FDF91CF911F91FF90EF900895EF922E
:10364000FF920F931F93CF93DF93EC0179018D814C
:10365000833039F089E0440F551F661F771F8A9524
:10366000D1F79A01AB0161E1CE010E94291A8823AA
:1036700019F080E3888338C00E947E198B010E9474
:10368000D9198C838F3F49F40E947E19601B710BFE
:10369000693E7340A0F385E503C08E3F31F080E5BD
:1036A0008883CE010E94FB191FC08FEF8EBDF701EA
:1036B000D701A150BE4F9FEF0DB407FEFDCF8EB5D1
:1036C0009EBD8193EA17FB07B9F70DB407FEFDCF46
:1036D0008EB58C931C820E94D9190E94D919CE01F3
:1036E0000E94FB1981E004C0CE010E94FB1980E01A
:1036F000DF91CF911F910F91FF90EF900895CF929E
:10370000DF92EF92FF921F93CF93DF93EC016A0158
:103710007B01122F8B819C81AD81BE81841795071F
:10372000A607B707F1F0CE010E94DC1A811103C091
:1037300080E090E01CC012FF06C01882CB82DC82C1
:10374000ED82FE820EC0E981FA819E01295F3F4F22
:10375000B701A601808191810E941F1B8111EDCFCD
:10376000E7CF13708881182B1883CE010796DF915D
:10377000CF911F91FF90EF90DF90CF9008958F929F
:103780009F92AF92BF92CF92DF92EF92FF920F93F0
:103790001F936A017B0148015901423051056105BF
:1037A000710510F480E052C0FC01408D518D628D96
:1037B000738D4C155D056E057F05A0F325812032C4
:1037C00041F5448955896689778997018601E7E043
:1037D0003695279517950795EA95D1F7400F511F14
:1037E000621F731F23E080960E947F1B0097D1F217
:1037F000E894C7F8DD24EE24FF24CC0CDD1CCC0CAF
:10380000DD1CFC01EC0DFD1D80829182A282B38241
:103810001CC0203139F6FC014489558966897789B5
:103820004D0D511D611D711D23E080960E947F1B6F
:10383000009709F4B7CFDD24EE24FF24CC0CDD1C67
:10384000FC01EC0DFD1D9182808281E01F910F91A2
:10385000FF90EF90DF90CF90BF90AF909F908F90B0
:103860000895CF92DF92EF92FF920F931F93CF9321
:10387000DF93EC016A017B0189014230510561054A
:10388000710510F48FEF63C0888D998DAA8DBB8D63
:1038900084179507A607B707A8F38D81803241F5F5
:1038A0008C899D89AE89BF89E7E0769567955795A4
:1038B0004795EA95D1F7480F591F6A1F7B1F22E0F1
:1038C000CE0180960E947F1B0097E1F2E894C7F832
:1038D000DD24EE24FF24CC0CDD1CCC0CDD1CFC0113
:1038E000EC0DFD1D80819181A281B381BF701EC04E
:1038F000803141F64C895D896E897F894D0D511D5E
:10390000611D711D22E0CE0180960E947F1B0097F1
:1039100009F4B8CFDD24EE24FF24CC0CDD1CFC011F
:10392000EC0DFD1D80819181A0E0B0E0488D598DA6
:103930006A8D7B8D481759076A077B0738F0F801B5
:1039400080839183A283B38381E001C080E0DF9113
:10395000CF911F910F91FF90EF90DF90CF9008953E
:10396000FC01AC01455F5F4F80E090E8899F9001CA
:103970001124982F9695922B2191892F820FE4176D
:10398000F50799F70895CF93DF93FC01208121116A
:1039900002C081E046C0EC01828182FF3AC04489C6
:1039A0005589668977898681978121E080960E9472
:1039B0007F1B009729F489818160898380E031C071
:1039C000EC81FD81EF70FF2725E0EE0FFF1F2A95A8
:1039D000E1F7DC01AE0FBF1F2C91253E61F328817A
:1039E00023FF0AC0488D598D6A8D7B8D5C964D935F
:1039F0005D936D937C935F974C8D5D8D6E8D7F8D08
:103A0000E80FF91F538F428F758B648B8A818B7FF0
:103A10008A838E819F8180960E94DC1A882359F2C6
:103A2000B8CFDF91CF9108954F925F926F927F92BE
:103A30008F929F92AF92BF92CF92DF92EF92FF92BE
:103A40000F931F93CF93DF93EC014A015B014C84EA
:103A50005D846E847F84A881AA2309F491C048897B
:103A600059896A897B8984169506A606B70609F4E2
:103A70008DC081149104A104B10429F41C861D8613
:103A80001E861F8678C0A3FF0BC0088D198D2A8D56
:103A90003B8D081519052A053B0508F471C014C0B3
:103AA000A5FF12C0EE81FF818681978125E0880FF6
:103AB000991F2A95E1F7A0E0B0E088159905AA05BD
:103AC000BB0508F45DC057C0EE81FF81848190E0A2
:103AD00009968A019B010150110921093109082E1B
:103AE00004C036952795179507950A94D2F7750166
:103AF0006401B1E0CB1AD108E108F10804C0F694E2
:103B0000E794D794C7948A95D2F7C016D106E206F7
:103B1000F30620F0452B462B472B81F4A6FF05C06A
:103B2000848D958DA68DB78D04C08C8D9D8DAE8DA9
:103B3000BF8D8C879D87AE87BF8704C0C01AD10A0E
:103B4000E20AF30A8E01045F1F4FC114D104E1049D
:103B5000F10489F04C855D856E857F8598018E81A5
:103B60009F810E94311C91E0C91AD108E108F10837
:103B700018165CF305C0888A998AAA8ABB8A06C08F
:103B80004C865D866E867F8680E001C081E0DF9195
:103B9000CF911F910F91FF90EF90DF90CF90BF904A
:103BA000AF909F908F907F906F905F904F9008950F
:103BB0002F923F924F925F926F927F928F929F923D
:103BC000AF92BF92CF92DF92EF92FF920F931F932B
:103BD000CF93DF93EC015B014A01888183FF0EC024
:103BE0008A8181FF0BC083FF0FC0488D598D6A8D7C
:103BF0007B8DCE010E94141D811106C089818160D8
:103C000089838FEF9FEF08C1A40160E070E088898D
:103C10009989AA89BB8980959095A095B0958417BC
:103C20009507A607B70750F364011E018CE0280E24
:103C3000311C088919892A893B89C114D10409F4E6
:103C4000D0C08E819F81B901A80129E07695679542
:103C5000579547952A95D1F7DC011396FC90F422ED
:103C60001170F11034C00115110589F54C855D8581
:103C70006E857F85411551056105710569F09101DA
:103C80000E94311C87FDBACF811121C0CE010E9454
:103C9000522281111CC0B2CF8C8D9D8DAE8DBF8DF7
:103CA0000097A105B10579F4CE010E945222882324
:103CB00009F4A4CF8C859D85AE85BF858C8F9D8FA3
:103CC000AE8FBF8F04C08C879D87AE87BF87EE8184
:103CD000FF814C855D856E857F8542505109610964
:103CE0007109048004C0440F551F661F771F0A9492
:103CF000D2F780899189A289B389480F591F6A1F19
:103D00007B1F4F0D511D611D711D0115110521F402
:103D1000C114B2E0DB06B0F580E092E0801B910BAD
:103D200076018C159D0508F47C010115110579F4C7
:103D3000488859886A887B88888D998DAA8DBB8D23
:103D4000481659066A067B0610F025E001C021E0FE
:103D5000CF0180960E947F1B009709F44FCFA701E7
:103D6000B501800F911F0E946C3E0E0D1F1D0115A5
:103D7000124031F58E819F8180960E94DC1A81115C
:103D80001FC03CCF83A194A1A5A1B6A1841795071C
:103D9000A607B70741F410A28FEF9FEFDC0183A3C2
:103DA00094A3A5A3B6A3EE81FF81950180819181A3
:103DB0000E94741A882309F421CFE12C82E0F82EA6
:103DC00088899989AA89BB898E0D9F1DA11DB11D66
:103DD000888B998BAA8BBB8BAE0CBF1CCE18DF08CF
:103DE00028CF888D998DAA8DBB8D80179107A2074A
:103DF000B30738F4088F198F2A8F3B8F8A8184602C
:103E00008A838A8187FD02C0C40106C0CE010E9458
:103E1000C31C8111F9CFF2CEDF91CF911F910F9189
:103E2000FF90EF90DF90CF90BF90AF909F908F90DA
:103E30007F906F905F904F903F902F9008954F929A
:103E40005F926F927F928F929F92AF92BF92CF922A
:103E5000DF92EF92FF920F931F93CF93DF93EC01CA
:103E60004B018A0188818823D9F09A8190FF18C07C
:103E70001DC0D380D422A114B10409F081C0D11097
:103E80007FC0892B8A2B8B2B09F464C04C855D8500
:103E90006E857F859201CF010E94311C87FF6AC029
:103EA0008981826089838FEF9FEFD3C083FF15C024
:103EB000888D998DAA8DBB8D488959896A897B899E
:103EC000841B950BA60BB70BA80160E070E04817A8
:103ED00059076A077B07A0F012C085FF11C0EE8169
:103EE000FF818681978155E0880F991F5A95E1F7E8
:103EF00028893989821B930B8017910708F48C015C
:103F000078012E012CE0420E511C612C42E0742EEF
:103F1000E114F10409F465C088899989AA89BB89EB
:103F20005C0121E0B2222881EE81FF81AC01BD015C
:103F300039E076956795579547953A95D1F725FFDE
:103F400098CF848D958DA68DB78D480F591F6A1F08
:103F50007B1F34C026FF05C0848D958DA68DB78D3F
:103F600004C08C8D9D8DAE8DBF8D8C879D87AE8757
:103F7000BF8706C0811104C08881807791F590CFFA
:103F8000EE81FF814C855D856E857F8542505109AC
:103F900061097109048004C0440F551F661F771F13
:103FA0000A94D2F780899189A289B389480F591F51
:103FB0006A1F7B1F4D0D511D611D711DEE81FF811B
:103FC000A114B10471F5E11482E0F80650F183A167
:103FD00094A1A5A1B6A1481759076A077B0729F440
:103FE00020C0C8018E199F0934C09401808191813D
:103FF0000E941F1B882309F453CFC12C82E0D82EC6
:104000008C0C9D1C88899989AA89BB898C0D9D1D62
:10401000A11DB11D888B998BAA8BBB8BEC18FD0859
:1040200077CFC3018A199B0967018E159F0508F494
:104030006C0120E0CF0180960E947F1B009709F45D
:104040002FCFBC016A0D7B1DA601C4010E946C3EEE
:10405000D7CFDF91CF911F910F91FF90EF90DF901D
:10406000CF90BF90AF909F908F907F906F905F9018
:104070004F900895FF920F931F93CF93DF931F925A
:10408000CDB7DEB78C01FC0180899189A289B38903
:104090009C01AD0175E056954795379527957A9522
:1040A000D1F7F22FFF70FF2E11F0611116C041E021
:1040B00050E0BE016F5F7F4FC8010E941F1F81301B
:1040C00019F080E090E01AC0F80180899189A289F6
:1040D000B3894F96A11DB11D04C08096A11DB11DCD
:1040E000F801808B918BA28BB38BF801868197812D
:1040F0008796F0E2FF9E800D911D11240F90DF91B5
:10410000CF911F910F91FF900895FC018081811143
:1041100014C080E2DF01982F1D929A95E9F777830A
:104120006683DB0115969C91903119F0903229F449
:1041300080E4808381E08283089580E00895809107
:104140003603811169C02091F50380917B0190E0D5
:10415000820F911D820F911DFC01E458FE4F80815A
:10416000813099F028F0823081F580911F0328C0BA
:104170009091F1032091F10380911F03213001F10F
:104180009923F1F081111EC01FC09091F10320917D
:10419000F10380911F03223011F0911103C08111AE
:1041A00003C004C0811102C0299A01C029988091DE
:1041B0001E03813051F48091F103813031F42EC01F
:1041C000811102C0299801C0299A8091F1038F5F63
:1041D0008093F1038091F103843021F51092F10373
:1041E0008091F5038F5F8093F5032091F50330E014
:1041F00040911E0380ED90E0841B91098217930784
:104200008CF41092F50380917B0191E089278093D3
:104210007B019093030108952998089583E080938A
:10422000F103D3CF0895E091F503F0E0319680914A
:104230006E01EE0FFF1FE80FF11DE458FE4F2081C5
:104240003091F50380916E0190E0830F911D830FF3
:10425000911DFC01E458FE4F80811092F40390916F
:104260003603911106C030E0382B2115310509F0D5
:1042700089C080913603811180C08091F5038E5FE3
:104280008093F5038091F503813D50F01092F50382
:1042900080916E0191E0892780936E0190930301D4
:1042A00068EE73E080E090E0DC01CB010496A11D94
:1042B000B11D63E0880F991FAA1FBB1F6A95D1F734
:1042C000009721E0A207B10520F421E020933003FC
:1042D00042C0009728E0A207B10558F422E02093DD
:1042E000300353E0B695A795979587955A95D1F7E2
:1042F00032C0009720E4A207B10558F423E02093D0
:10430000300346E0B695A795979587954A95D1F7DE
:1043100022C00097A10521E0B20740F424E02093D9
:104320003003892F9A2FAB2FBB2715C00097A1050B
:1043300024E0B20758F425E0209330032AE0B69534
:10434000A795979587952A95D1F705C085E0809325
:1043500030038FEF9FEF90932F0380932E03809174
:104360002E0390912F039093870080938600809175
:104370003003806180938100089560E573EC80E0F4
:1043800090E092CF37FF07C081E08093F3033F773F
:104390008093F2030AC08091F203813029F4809166
:1043A000F303882309F472C080E036FD0FC040910A
:1043B0006D0191E0411190E090936D0190916D013C
:1043C000911102C029980BC0299A09C035FD02C07D
:1043D000299801C0299A2091E8033091E90381309E
:1043E00091F590910801911180E080936D01215029
:1043F000310935FF09C010926D013F7DB90180E0A0
:1044000090E020E030E004C06CED75E080E090E0EA
:10441000E091F50340916E0150E04E0F511D4E0F9B
:10442000511DFA01E458FE4F3083E091F503F0E0AE
:10443000319630916E01EE0FFF1FE30FF11DE4582E
:10444000FE4F208331CF8091F303813039F4A8EE01
:10445000B3E00E94753C1092F30303C0B90180E001
:1044600090E02091F5032E5F2093F5032091F50352
:10447000213D08F419CF1092F50320916E0131E02F
:10448000232720936E01309303010ECF1092F20385
:104490008BCFCF93DF93EC010E94C31C1882DF9176
:1044A000CF9108953F924F925F926F927F928F9239
:1044B0009F92AF92BF92CF92DF92EF92FF920F93B3
:1044C0001F93CF93DF9300D000D0CDB7DEB74C0160
:1044D000FC0182818460828344845584668477846D
:1044E000A680B780F501C084D184E284F384C4142B
:1044F000D504E604F704C0F47301620110E0FFEF95
:10450000CF1ADF0AEF0AFF0AF501808D918DA28D87
:10451000B38D8C159D05AE05BF0540F4111132C059
:10452000C084D184E284F38411E0E9CFC414D504BB
:10453000E604F70439F19E012F5F3F4FB701A60152
:10454000C5010E94311C87FD1DC08823C1F28981ED
:104550009A81AB81BC81892B8A2B8B2B81F611230D
:1045600029F0F501C086D186E286F3860FEF1FEFB2
:104570002FEF3FE0B701A601C5010E94BF1B382EF7
:10458000811102C0312C15C0411451046104710421
:1045900031F4F401C486D586E686F7860AC0970111
:1045A0008601B301A201C5010E94BF1B8111F1CF99
:1045B000E9CF832D0F900F900F900F90DF91CF9147
:1045C0001F910F91FF90EF90DF90CF90BF90AF9031
:1045D0009F908F907F906F905F904F903F90089545
:1045E000CF93DF93EB010E94323C8883CE01DF91B1
:1045F000CF9108958EE00E94EB18892B79F08FE01F
:104600000E94EB18892B51F081E10E94EB18892B55
:1046100029F080E10E94EB18892B31F462E370E00D
:1046200080E090E00C94441910920B01F7CFCF93E7
:10463000C82F82E796E00E94141D882349F04C2F72
:1046400050E060E273E082E796E0CF910C941F1F88
:1046500080E090E0CF910895E0E7F1E082E081937F
:1046600091E0EB37F907D9F7089590911E03913047
:1046700089F4E0E7F1E080FF02C0908301C010827E
:104680008695319621E0E837F207A9F782E080931A
:10469000780111C010927001E1E7F1E091E080FF34
:1046A00002C0908301C010828695319621E0E937DF
:1046B000F207A9F781E08093790180937A01089548
:1046C0000F931F93CF93DF9300D000D0CDB7DEB709
:1046D000AB01BC0182E796E00E94141D882309F11A
:1046E00044E050E0BE016F5F7F4F82E796E00E949A
:1046F0001F1F84309105B9F440913A0350913B0358
:1047000060913C0370913D034C5F5F4F6F4F7F4F53
:1047100040933A0350933B0360933C0370933D03F3
:1047200002C080E090E04C8150E0542F44272B8160
:10473000422B60E070E0BA01552744270A8110E05F
:10474000102F00272981022B20E030E0402B512B35
:10475000622B732B4093ED035093EE036093EF03B2
:104760007093F0030F900F900F900F90DF91CF9107
:104770001F910F910895CF93DF9300D01F92CDB773
:10478000DEB7AB01BC0182E796E00E94141D8823CE
:1047900009F143E050E0BE016F5F7F4F82E796E092
:1047A0000E941F1F83309105B9F440913A03509144
:1047B0003B0360913C0370913D034D5F5F4F6F4F32
:1047C0007F4F40933A0350933B0360933C037093B5
:1047D0003D0302C080E090E04B8150E0542F44271D
:1047E0002A81422B60E070E0762F652F542F4427FA
:1047F0002981422B4093ED035093EE036093EF0326
:104800007093F0030F900F900F90DF91CF91089568
:10481000CF93DF9300D0CDB7DEB7AB01BC0182E709
:1048200096E00E94141D882309F142E050E0BE0189
:104830006F5F7F4F82E796E00E941F1F82309105D5
:10484000B9F440913A0350913B0360913C0370915D
:104850003D034E5F5F4F6F4F7F4F40933A0350933E
:104860003B0360933C0370933D0302C080E090E003
:104870002A8130E0322F22274981242B3093EC0308
:104880002093EB030F900F90DF91CF910895CF937A
:10489000DF931F92CDB7DEB7AB01BC0182E796E094
:1048A0000E94141D882309F141E050E0BE016F5FB2
:1048B0007F4F82E796E00E941F1F81309105B9F477
:1048C00040913A0350913B0360913C0370913D034A
:1048D0004F5F5F4F6F4F7F4F40933A0350933B03BF
:1048E00060933C0370933D0302C080E090E0298117
:1048F0002093EA030F90DF91CF91089580910901F1
:1049000090910A01803629E09207B9F04CF4803B7F
:10491000944011F581E08093020180ED90E018C091
:1049200080312EE0920779F08A309F40A9F482E02E
:104930008093020184E490E00BC081E08093020147
:1049400088E690E005C082E08093020186E490E072
:10495000909305018093040180E180938100089584
:104960002F923F924F925F926F927F928F929F927F
:10497000AF92BF92CF92DF92EF92FF920F931F936D
:10498000CF93DF9300D01F92CDB7DEB75C018B01D0
:10499000FA01C180D280DB019C91907709F4EEC0CE
:1049A000D5018C918111EAC09081937009F4D7C030
:1049B000C6010C966DE070E00E942C3E9924939401
:1049C000960E7F0140E050E0BA01C8010E94141D1C
:1049D00019821B82812C1A821701B6E02B0E311C22
:1049E000F801408851886288738861E0C8010E949C
:1049F0003A20009709F4C2C0DC012C91253E39F021
:104A0000222309F4B8C0891408F4ACC008C0891482
:104A100040F48394222309F4B1C0253E11F02E32D4
:104A200011F41A82DDCFFC0133853F3009F059C003
:104A30003A81311109C026FFD3CF2F712B832585F1
:104A400029833B813A8309C03B8131503B83231347
:104A5000E8CF258539813213E4CF2B81422F50E0F6
:104A6000415051096DE0649F9001659F300D112404
:104A70002C153D05B0F6FC0170E0753018F481810D
:104A8000928107C07B3018F48481958102C08681B1
:104A900097812C153D0521F4892B09F4A1CFC1CFB5
:104AA0008F3F910511F008F0BCCF4FEB480F4A3112
:104AB00010F0682F02C060E2680FA9014F5F5F4FDE
:104AC000D70113968D919C911497DC01A20FB31F0F
:104AD0008C919FEB980F9A3108F4805E6813A1CFF8
:104AE00043C033FD9ECF2A81222351F03B813130D8
:104AF00009F044C00E94B01C298182133FC00CC041
:104B00004BE050E0B1010E945F3E892B09F068CF75
:104B1000D7018C9180FD64CFB301A20185E0769529
:104B20006795579547958A95D1F72A81B801C501B0
:104B30000F900F900F90DF91CF911F910F91FF90E9
:104B4000EF90DF90CF90BF90AF909F908F907F902D
:104B50006F905F904F903F902F900C946C2C992405
:104B600093942FCF812C5BCF7F5F32967D3009F4F9
:104B700037CF9A0182CF891408F44BCF80E00F9091
:104B80000F900F90DF91CF911F910F91FF90EF90B9
:104B9000DF90CF90BF90AF909F908F907F906F905D
:104BA0005F904F903F902F9008952F923F924F9299
:104BB0005F926F927F928F929F92AF92BF92CF92AD
:104BC000DF92EF92FF920F931F93CF93DF93CDB7B6
:104BD000DEB7E3970FB6F894DEBF0FBECDBF7C0102
:104BE0008A0119821A82FC01808181116BC1FB014B
:104BF0008081807709F466C1FA0180818F32B9F42F
:104C00008F0181918F32E1F3FB0166817781811100
:104C100004C0C7010E9485205AC1CE0101960E949E
:104C20008520882309F44EC1BE016F5F7F4F6E015E
:104C3000F2E3CF0ED11CD8010F5F1F4F8C91803251
:104C4000D1F3BDA3ACA3FD019F012A1B3B0B8191B6
:104C50008823D9F08F32C9F08C3509F433C1982FED
:104C6000977F923209F42EC18A3309F42BC1982F11
:104C70009F7B9C3309F426C192EC980F923008F484
:104C800021C180528F3500F31DC1AD01420F531F6A
:104C9000CA018C01FC016190CF01F0E26F16C9F3EB
:104CA0002FE26216B1F39A012A1B3B0B4A175B07EE
:104CB00041F0FA018291AF018E32A9F3803299F36B
:104CC00003C01BAA1AAA07C03BAB2AAB2F3F310572
:104CD00011F00CF0F7C08AA99BA99BA38AA3CE016F
:104CE0008796FC0120E22193CF01EC15FD05C9F761
:104CF000CD019C012A1B3B0BFC014191CF014E329F
:104D0000C1F34032B1F381E02115310509F080E0B3
:104D10004AA95BA94150510938F05D01A40EB51EA6
:104D2000F50190819E32B1F77EA097E0892E312C5B
:104D3000512C912CE8E04E2EEAA9FBA92E173F0733
:104D40000CF07FC05D01A20EB31EF5019081903280
:104D500009F465C09E3229F44217530709F05FC079
:104D600004C09232E1F09C37D1F0F6EDBF2EB90EBF
:104D7000F5E0FB1510F09D3291F4E6ECBE2EB90E75
:104D8000E5E0EB1560F4F5EABF2EB90EF2E0FB1595
:104D900030F4EFEDBE2EB90EEDE5EB1520F424173F
:104DA000350781F440C024173507E9F1831440F139
:104DB000B92EFFE9AF2EA90EF9E1FA1548F090528D
:104DC00094280CC08314E0F080E09FE5EFE5BE2E50
:104DD000EFEBBE0EF9E1FB1508F0542822242394D2
:104DE000230CE7E2AE2EB12CAC0EBD1EA30CB11C01
:104DF000F5019083F6E0F215A0F0722C322C1EC063
:104E00008AE0881609F460C0421753070CF45CC0AE
:104E10009A01FAE08F2E88E0382E90E1492E80E04A
:104E20000DC0322C0BC0FAE08F1609F44DC09A0168
:104E3000FAE08F2E98E0392EE0E14E2E2F5F3F4FA3
:104E40007BCF7EA29FA19032E9F1882339F05920CF
:104E500011F4892D01C082E089A314C081E089A3E7
:104E60008EA190E0E7E2F0E0EC0FFD1FE80FF91FE4
:104E70002EE72083E8E2F0E0EC0FFD1FE80FF91FBA
:104E800021E320836620B9F0AE014F5D5F4FC7017B
:104E90000E94B0248823B1F0F701DE01119680E270
:104EA00001900D928A95E1F7C7010E944922BE0147
:104EB0006F5F7F4FC0CEAE014F5D5F4FC7010E9455
:104EC000B02405C080E003C07EA280E0BBCFE396A3
:104ED0000FB6F894DEBF0FBECDBFDF91CF911F910B
:104EE0000F91FF90EF90DF90CF90BF90AF909F9089
:104EF0008F907F906F905F904F903F902F9008958C
:104F00008F929F92AF92BF92CF92DF92EF92FF92D9
:104F1000CF93C82F1092FB0381E090E0A0E0B0E0B7
:104F20008093FE039093FF03A0930004B0930104C9
:104F300086EF93E090931804809317041092160460
:104F40008FEF9FEFDC018093190490931A04A093D4
:104F50001B04B0931C04CC2331F1C53008F0DCC035
:104F600020E040E050E0BA0186E194E00E947F1B1F
:104F7000009709F4D1C020E1C29F800D911D11243A
:104F80004097FC01E254FE4F20812F7709F0C4C006
:104F9000389680809180A280B38081149104A1040E
:104FA000B10421F4B9C0812C912C540120E0B50149
:104FB000A40186E194E00E947F1BFC01892B09F487
:104FC000ABC0838594858115924009F0A5C0808986
:104FD000823009F0A1C0468557854115510509F475
:104FE0009BC025852093F8038FEF820F8093F903F0
:104FF00080E091E0291751F031E0380F393019F491
:105000008093FA0389C0990F832FF4CF8093FA031A
:10501000C688D788C114D10419F0E12CF12C04C042
:10502000C4A0D5A0E6A0F7A0C0920204D0920304C9
:10503000E0920404F0920504D501C401840F951F89
:10504000A11DB11D80930A0490930B04A0930C043E
:10505000B0930D04218932893093FD032093FC0322
:10506000CC0CDD1CEE1CFF1CC80ED91EEA1EFB1E5C
:10507000C0921204D0921304E0921404F09215042A
:1050800055E0220F331F5A95E1F721503E4F232F51
:1050900033272695C20ED31EE11CF11CC0920604D4
:1050A000D0920704E0920804F0920904238934891D
:1050B0002115310521F0C901A0E0B0E004C080A1B4
:1050C00091A1A2A1B3A1B501A4014C195D096E097A
:1050D0007F09480F591F6A1F7B1F0090FA0304C005
:1050E00076956795579547950A94D2F7DB01CA01E3
:1050F0000196A11DB11D80930E0490930F04A093FF
:105100001004B0931104453F8FE058076105710505
:1051100028F48CE08093FB0380E017C0453F5F4F8D
:105120006105710510F480E10DC084A595A5A6A5C3
:10513000B7A58093120490931304A0931404B09322
:10514000150480E28093FB0381E0CF91FF90EF9004
:10515000DF90CF90BF90AF909F908F9008958091F7
:105160003E03811164C060913A0370913B038091CA
:105170003C0390913D030E9447240197E1F5809103
:10518000EA038093E6038091590690915A06A09114
:105190005B06B0915C060197A109B109809359069D
:1051A00090935A06A0935B06B0935C06892B8A2BDA
:1051B0008B2B49F580913A0390913B03A0913C03DE
:1051C000B0913D030197A109B10980933A039093EF
:1051D0003B03A0933C03B0933D038091570690910D
:1051E0005806892B21F481E080933903089585E0E6
:1051F00080933703089580915606843021F081E032
:1052000080933103EACF8091590690915A06A0917C
:105210005B06B0915C060197A105B10511F088E02D
:1052200002C080911A0180933E031092F103809195
:1052300000019091010196FF0DC02091E60327FF28
:1052400005C0906290930101809300018091F10369
:105250008E5F14C08091E60387FF05C080915406DD
:105260009091550604C080915206909153069093F8
:105270000101809300018091F1038F5F8093F1031E
:105280008091F103823061F48091E603880F80936E
:10529000E60380913E03815080933E031092F10318
:1052A000089580913E03811140C060913A0370914E
:1052B0003B0380913C0390913D030E94472401975A
:1052C00061F58091EA038093E603809159069091FD
:1052D0005A06A0915B06B0915C060197A109B1093D
:1052E0008093590690935A06A0935B06B0935C0690
:1052F0001092E703892B8A2B8B2B91F481E080930A
:105300006F018091570690915806892B11F486E021
:1053100005C085E08093370303C085E0809339039F
:105320008BE080933E031092F10380913E03823024
:1053300029F480915106882309F47FC020913E030F
:1053400080915206909153062B3029F490930101DD
:105350008093000129C020913E03223099F42091CE
:10536000510621703091E703321729F0309154062D
:105370002091550602C0382F292F30930001209329
:10538000010112C020913E03213049F420915406BE
:1053900030915506309301012093000105C0209102
:1053A000E60320FDF3CFD2CF2091F1032F5F2093AE
:1053B000F103209100013091010128173907F9F418
:1053C0009091F10380910701981355C080913E039D
:1053D000823020F080913E038B3098F180913E0323
:1053E000815080933E031092F10380916F018823D6
:1053F00009F441C080913E03882359F108959091AA
:10540000F10380910601981336C080913E038230EB
:1054100020F080913E038B3000F180913E0381505B
:1054200080933E031092F10380916F01882319F15C
:1054300080913E03882369F0089581E080933E03C4
:105440007DCF8091E60390E0959587958093E60364
:10545000C5CF85E08093390308959091E70381E0FB
:1054600089278093E7038091E60390E095958795DF
:105470008093E603D2CF089580EA90E090930101F3
:10548000809300018091090190910A01803B24E002
:10549000920731F028E730E03093010120930001BA
:1054A0002091F103213061F4803B944019F482EAA9
:1054B00095E002C084EF91E0909301018093000198
:1054C0008091F103811117C08091E60387FF02C02C
:1054D00083E101C089E08093F1038091E603880FA6
:1054E0008093E60380913E03815080933E031092A7
:1054F0000101109200018091F10381508093F1032A
:10550000089580913E03811125C060913A03709106
:105510003B0380913C0390913D030E9447240197F7
:1055200051F48091EA038093E60389E080933E037F
:105530001092F1030FC081E08093310380915706F0
:10554000909158069093500680934F0689E580937A
:105550002B0308950C943C2A80914D0690914E06A1
:10556000909301018093000180914B0690914C062D
:10557000019790934C0680934B06892B19F485E094
:1055800080933903089580913703833071F128F4B3
:10559000813049F08230E9F00895843081F185301E
:1055A00009F494C0089580914D0690914E06909311
:1055B00001018093000180914B0690914C06019768
:1055C00090934C0680934B06892B09F09FC082E094
:1055D00009C08091490690914A06909301018093F9
:1055E000000183E0809337030895809147069091EE
:1055F0004806909301018093000184E0F3CF8091ED
:1056000056069CEF980F923010F0811102C00C9456
:10561000AF2880913E03811132C080916C018331AB
:1056200049F4809146068093E60382E08093560613
:1056300085E0D8CF8F5F80936C018431D0F4E82F60
:10564000F0E0E05EFA4FE491E093E6038D3021F460
:105650008DEF8093E60304C08E3011F41092E603C0
:105660008091E6039091460689278093460688E05C
:1056700002C080911A0180933E031092F103809141
:10568000E60387FF05C0809154069091550604C03B
:1056900080915206909153069093010180930001EE
:1056A0008091F1038F5F8093F1038091F103823049
:1056B00069F58091E603880F8093E60380913E03AD
:1056C000815080933E031092F103089520912B03A3
:1056D00080915706909158062E3F51F02B3F41F094
:1056E0009093500680934F0689E580932B0307C063
:1056F000906890930101809300011092370380918C
:105700003103813019F48FEF80932B030895682FB4
:105710008DEE96E00C942D110F931F93CF93DF9392
:10572000CDB7DEB761970FB6F894DEBF0FBECDBF21
:105730009091EC068091EB069923A9F19EE3998361
:10574000DE01129620E030E090E062E976E0FB01B5
:1057500001900020E9F73197E259F640A901480F7E
:10576000591F4E175F0730F4FA01EE56F94F40818A
:105770004C9301C01C922F5F3F4F11962F30310583
:1057800031F7198A62E070E0CE0101960E94D612CC
:1057900061960FB6F894DEBF0FBECDBFDF91CF91FB
:1057A0001F910F910895DE01119620E030E090E006
:1057B00042E956E0BC016A1B7B0BFA010190002014
:1057C000E9F73197E259F6408B010A0F1B1F0E17BC
:1057D0001F0740F4F901E80FF91FEE56F94FE08179
:1057E000EC9301C01C922F5F3F4F11962031310581
:1057F00021F7C7CFCF92DF92FF920F931F93CF93E2
:10580000DF93EC0190917206911102C080E05CC0C0
:10581000907621F08FE28883198255C040918606E8
:10582000509187066091880670918906809178066C
:105830009091790620E080960E947F1BDC01892BE5
:1058400029F320917606309177062F70332785E073
:10585000220F331F8A95E1F740E050E078E090E0B6
:105860008D01020F131F045F1F4F6EE2F62EFA0127
:10587000E20FF31F6F01CA0EDB1EF601808180323A
:10588000D1F04830510539F4BE01690F711DFB019B
:10589000F0829F5F70E1F60160818FEB860F8A31A5
:1058A00028F4F8018081872309F0605EFE01E90F8A
:1058B000F11D60839F5F4F5F5F4F4B305105B9F61D
:1058C000C90FD11D188281E0DF91CF911F910F91F7
:1058D000FF90DF90CF900895CF92DF92EF92FF92EA
:1058E0000F931F93CF93DF93DC0180E2ED011992B8
:1058F0008A95E9F7EB01EE81FF811796FC93EE9311
:10590000169715965C934E931497CC8CDD8CEE8C89
:10591000FF8C1896CD92DD92ED92FC921B974F7002
:105920005527EF01A79635E0440F551F3A95E1F74B
:10593000BE01640F751FEB018B8583FD45C0CF0150
:10594000840F951FEC019AA997719C93EB018B85AD
:10595000887111F498609C9313962C93139781E0AF
:1059600012968C93129703A114A125A136A15496E7
:105970000D931D932D933C935797E40FF51F43AD63
:1059800054AD60E070E0BA0155274427EF01CF5BCA
:10599000DF4F0881198120E030E0402B512B622B32
:1059A000732B5C964D935D936D937C935F97ED5B4A
:1059B000FF4F408151816281738158964D935D9371
:1059C0006D937C935B9702C01C9280E0DF91CF9136
:1059D0001F910F91FF90EF90DF90CF900895AF92BD
:1059E000BF92CF92DF92EF92FF920F931F93CF93CC
:1059F000DF9300D000D0CDB7DEB7FC0180917206F6
:105A0000811160C08081807709F45CC080899189B0
:105A1000A289B3898F719927AA27BB27892B8A2B43
:105A20008B2B09F04FC05F0110E000E0F501C0884A
:105A3000D188E288F38860E0C5010E943A2000978F
:105A400009F440C0FC0120812223E1F12E3211F43F
:105A500010E0ECCF253EE1F3338533FD16C0B701EE
:105A6000A60125E076956795579547952A95D1F734
:105A70001123A1F049835A836B837C830E94B01C5D
:105A800049815A8108131EC009C03F3009F726FF1B
:105A9000CDCF122F1F71FC010585C8CF212FB50175
:105AA00082E796E00F900F900F900F90DF91CF91CB
:105AB0001F910F91FF90EF90DF90CF90BF90AF902C
:105AC0000C946C2C80E00F900F900F900F90DF9152
:105AD000CF911F910F91FF90EF90DF90CF90BF90EB
