:100000000C94B9020C94E1020C94E1020C94E1020C
:100010000C94E1020C94E1020C94E1020C94E102D4
:100020000C94E1020C94E1020C94E1020C94E102C4
:100030000C94E1020C94B01F0C94E1020C94E102C8
:100040000C94A8210C94E1020C94E1020C94E102BE
:100050000C94E1020C94E1020C94E1020C94E10294
:100060000C94F2210C94E102E80CD40FE80C0D0D75
:10007000640EAC0E530DFB0D530E2E0D280E526563
:100080007365742E2E004E6F2053442043617264BA
:1000900000D3D3D3D3D3D3D3D3D3D3D0D0D0D0D012
:1000A000D0D0D0D0D0EAEAEAEAEAEAEAEAEAEA1FFD
:1000B000A6DEBACC137D742E636173002E7565665F
:1000C000002E6F002E70002E74617000506C6179EC
:1000D000696E67004E6F2046696C652053656C65DC
:1000E00063746564004F4E202A006F6666202A0004
:1000F000536B697020424C4B3A3241004F4E202ADC
:10010000006F6666202A00545358437A78706F6CEB
:100110005545465357004F4E202A006F6666202AE9
:10012000004D6F746F72204374726C003338353039
:10013000003336303000323430300031323030006D
:1001400042617564205261746500536B697020428E
:100150004C4B3A3241203F00545358437A78705503
:1001600045465357203F004D6F746F7220437472A1
:100170006C203F00426175642052617465203F002D
:100180004D656E7500504C4159696E6720005041B5
:100190005553454420200000506C6179696E6720FA
:1001A0002020202020005061757365642020004EBF
:1001B0006F7420545A5854617065005A58546170D5
:1001C00065214E6F74205545462046696C65005583
:1001D00045462046696C6521545A584455494E4F4E
:1001E0009D5041555345442A20002062797465731F
:1001F0000076312E3731204D61784475696E6F007D
:1002000053746F70706564002000000000000000EF
:1002100000005F5F5F005F5F5F0007070300070785
:100220000300367F7F367F7F3600242E6E7F3B3A79
:1002300012006373381C0E676300307E4F59377AA3
:1002400048000000070703000000001C3E7F6341D8
:1002500000000041637F3E1C000049363E5D3E3693
:1002600049000018187E7E1818000000E0E06000C9
:1002700000000018181818181800000060606000CE
:1002800000006070381C0E070300003C7E6B657F29
:100290003E0000606C7F7F60600000737B69696F67
:1002A000660000616165657F3A000F0F08687F7F17
:1002B000680000676765657D3900003E7F65657D84
:1002C000390000030371790F0700003A7F65657FED
:1002D0003A0000666F69697F3E000000666666004E
:1002E00000000000E6E666000000081C3E7763415F
:1002F00000000036363636363600004163773E1C45
:10030000080003035B595F0F06003E7F6169696F58
:100310006E007C7E7F0B097F7F007F7F7F696F7E11
:1003200038003C7E7F63617373007F7F7F61637EF3
:100330003C007C7E7F6B696363007C7E7F6B09037E
:1003400003003C7E7F63697B7B007C7E7F08087FA7
:100350007F000042637F7F63210030786263637FA8
:100360003F007C7E7F081C7763007C7E7F6060702E
:1003700070007C7E070C067F7F007C7E070E1C7F52
:100380007F003C7E7F63617F3E007C7E7F69090F3A
:1003900006003C7E7F6361FFBE007C7E7F09097F93
:1003A0007600646E6F6B6979310002637F7F63034F
:1003B00001003C7E7F60607F7F003C7E7F703C0F51
:1003C00003007C7E3F18307F7F004163361C1C3663
:1003D0006341646E6F68687F3F00436371796D6746
:1003E000630000007F7F7F41000003070E1C387010
:1003F00060000000417F7F7F0000080C0E070E0C9C
:100400000800808080808080800000000003070753
:100410000000787C7C14147C78007E7E7E44447CD2
:100420003800387C7C44446C6C00387C7C44447ECE
:100430007E02387C7C54545C5800507C7E7E520294
:10044000000018BCBCA4A4FC7C007E7E7E0808785A
:10045000700000087A7A7A40000040C088F8FA7A82
:1004600000007E7E7E10386C440000027E7E7E405E
:1004700000007C7C0C180C7C78007C7C7C04047C68
:100480007800387C7C44447C3800FCFCFC24243C10
:100490001800183C3C2424FCFC007C7C7C04040CEC
:1004A0000800485C5C547474240000387C7E48204A
:1004B00000003C7C7C40407C7C003C7C7C60301CB0
:1004C0000C003C7C6030607C3C00446C7C387C6C74
:1004D00044008C9CBCF0603C1C004C6C747C5C6CDC
:1004E00064000000083E7F7741000000007F7F002D
:1004F00000000041777F3E08000002030103020371
:100500000100000000002300260029000000000870
:1005100000020100000304070000000000000000CA
:100520000000035A58415946696C6520201A0B0097
:10053000C000806E00000000250028002B00000095
:100540000000240027002A00040404040404040416
:10055000020202020202030303030303010204086E
:10056000102040800102040810200102040810201D
:100570006D3C11241FBECFEFD8E0DEBFCDBF11E030
:10058000A0E0B1E0E2E7FFE702C005900D92AE36D1
:10059000B107D9F727E0AEE6B1E001C01D92AF3850
:1005A000B207E1F712E0C9EBD2E004C02197FE01E7
:1005B0000E947B3FC83BD107C9F70E94042F0C94CF
:1005C000B73F0C940000CF92DF92EF92FF920F930F
:1005D0001F93CF93DF93CDB7DEB72B970FB6F89469
:1005E000DEBF0FBECDBF10920101109200018091BD
:1005F0003D03811139C040E050E0BA018FE195E040
:100600000E947412882309F14AE050E0BE016F5F36
:100610007F4F8FE195E00E94381347E050E06BEB8D
:1006200071E0CE0101960E94A83C892B71F060E038
:1006300070E08FEA91E00E944B1B6CE271E080E079
:1006400090E00E9462210E94541F8AE090E0A0E0A6
:10065000B0E080933E0390933F03A0934003B09398
:10066000410381E080933D0380913D03843099F5FF
:1006700040E050E0BA018FE195E00E9474128823B7
:10068000D9F049E050E0BE016F5F7F4F8FE195E008
:100690000E94381349E050E06FEC71E0CE01019602
:1006A0000E94A83C892B41F061E070E082EC91E06F
:1006B0000E944B1B0E94541F8CE090E0A0E0B0E031
:1006C00080933E0390933F03A0934003B093410374
:1006D00085E080933D0380913D03853009F0B4C0EF
:1006E00060913E0370913F038091400390914103DC
:1006F0000E94BE17029709F07BC00091D7031091AA
:10070000D8031093D3030093D20360913E037091FA
:100710003F0380914003909141030E941617049774
:1007200009F066C08091D9039091DA03A091DB03B0
:10073000B091DC0380934E0490934F04A093500437
:10074000B0935104109246040430114009F053C094
:100750000397A109B10980934E0490934F04A0938D
:100760005004B093510480913E0390913F03A091B7
:100770004003B0914103BC01CD016F5F7F4F8F4FAC
:100780009F4F60933E0370933F0380934003909389
:1007900041030E94FD170197B9F48091D6038F346D
:1007A00029F480910801811107C008C0853451F4F3
:1007B00080910801811102C082E001C081E0809334
:1007C000460402C01092460480913E0390913F037C
:1007D000A0914003B09141030196A11DB11D8093EA
:1007E0003E0390933F03A0934003B093410303C0A3
:1007F00082E00C94A20E8091090190910A01803B45
:10080000944049F480EA91E090934804809347042F
:1008100080ED90E008C08CE491E0909348048093D0
:10082000470486EA90E090934A048093490410922A
:100830007301109242031092DD0386E080933D0322
:1008400010923B031092D10300913D03063009F052
:100850000AC18091D2039091D303803141E0940783
:10086000C1F048F4811501E0900781F08430914097
:1008700009F0DAC00BC0823121E0920709F495C07B
:10088000C0F18731914009F4B0C0CEC00E941A2A4D
:10089000EAC080913B0381113AC060913E037091A0
:1008A0003F0380914003909141030E94BE1702973D
:1008B000E1F42091090130910A018091D7039091D0
:1008C000D803880F991F880F991F90934104809334
:1008D0004004203B344019F480ED90E002C08CE9E4
:1008E00090E0909343048093420481E080933B0323
:1008F000BAC080913B03882369F01091D103113075
:1009000071F1123009F444C0133009F0ACC00E94F8
:10091000752BA9C060913E0370913F038091400305
:10092000909141030E94BE17029791F48091D703E2
:100930009091D803880F991F880F991F90934104B5
:100940008093400480ED90E09093430480934204B0
:1009500081E080933B038091D1038F5F16C00E949A
:10096000752B8091400490914104892B09F07BC044
:1009700000933D038AEA80935204109373018BE045
:10098000809342031092DD0382E08093D1036BC019
:10099000109246040E941A2A80914203811163C07A
:1009A00000933D0310923B035EC060913E03709143
:1009B0003F0380914003909141030E94BE1702972C
:1009C00009F051C08091D7039091D803009709F4A2
:1009D00047C0880F991F9093450480934404906802
:1009E00090930101809300013BC060913E037091A0
:1009F0003F0380914003909141030E94BE170297EC
:100A000091F58091D7039091D8038C32914029F4CD
:100A100088E08093070180E104C082E080930701B1
:100A200084E0809306011CC040913E0350913F0337
:100A3000609140037091410380914E0490914F0466
:100A4000A0915004B0915104840F951FA61FB71FA9
:100A500080933E0390933F03A0934003B0934103E0
:100A600085E080933D0380913D038130D9F460910E
:100A70003E0370913F0380914003909141030E9497
:100A8000FD17019719F48091D60301C08FEF809371
:100A90002F03109242031092DD0382E080933D0306
:100AA00010923B0380913D03823011F00C94D40FDF
:100AB00020912F032A3209F4BEC378F5253109F4B9
:100AC000DFC2A0F4223109F40DC240F4203109F450
:100AD0005AC0213109F40DC10C944A0F233109F495
:100AE00047C2243109F472C20C944A0F213209F42E
:100AF0000AC440F4293109F43CC3203209F485C307
:100B00000C944A0F243209F4B1C3253209F4D3C33B
:100B1000223211F00C944A0FF0C32B3409F46CC448
:100B2000F0F460913E0370913F03809140039091F7
:100B30004103213309F4E5C340F42B3209F4CFC358
:100B4000203309F4E8C30C944A0F233309F413C487
:100B500008F4F4C3253309F429C40C944A0F2C3F3C
:100B600009F443C348F4293511F40C94C70E2A3F05
:100B700009F421C70C944A0F2E3F09F472C608F4F9
:100B8000E0C60C94240F80913B038111D7C664E02A
:100B900087E00E940D1981E30E94A01880E30E9463
:100BA000A01864E08EE00E940D1930915903832F44
:100BB0006AE00E94473F911109C0832F0E94473F7E
:100BC0000E94473F80E3890F0E94A01864E08FE0F5
:100BD0000E940D19809159036AE00E94473F80E30B
:100BE000890F0E94A018809159038F5F8093590349
:100BF00060913E0370913F038091400390914103C7
:100C00000E94BE17029741F48091D7039091D803B8
:100C100090934D0480934C0460913E0370913F0388
:100C200080914003909141030E94BE17029779F48E
:100C30008091D7039091D8030196A0E0B0E0809313
:100C40004E0490934F04A0935004B09351046091CC
:100C50003E0370913F0380914003909141030E94B5
:100C6000FD17019701F58091D603811103C08FE72D
:100C70009FE102C087E99CE0909341048093400487
:100C800080913E0390913F03A0914003B0914103B6
:100C90000197A109B10980933E0390933F03A0936C
:100CA0004003B09341038BE692E09093430480931A
:100CB00042048FEB90E090933F0480933E0482EDDA
:100CC00090E090933D0480933C0484EF90E09093F7
:100CD00048048093470489EE91E090934A048093FE
:100CE000490481E080933B0388E080931A010C94CF
:100CF000D40F80913B03811121C664E087E00E94FC
:100D00000D1981E30E94A01881E30E94A01864E0FD
:100D10008EE00E940D19809159032AE0622F0E94F3
:100D2000473F911106C00E94473F80E3890F0E9410
:100D3000A01864E08FE00E940D19809159036AE0C9
:100D40000E94473F80E3890F0E94A01880915903B9
:100D50008F5F8093590360913E0370913F038091B0
:100D60004003909141030E94BE17029751F4809175
:100D7000D7039091D8030E948B18909343048093DB
:100D8000420460913E0370913F0380914003909133
:100D900041030E94BE17029751F48091D7039091AE
:100DA000D8030E948B1890933F0480933E04609177
:100DB0003E0370913F0380914003909141030E9454
:100DC000BE17029751F48091D7039091D8030E94E7
:100DD0008B1890933D0480933C0460913E03709186
:100DE0003F0380914003909141030E94BE170297F8
:100DF00051F48091D7039091D8030E948B1890935F
:100E000048048093470460913E0370913F038091B2
:100E10004003909141030E94BE17029751F48091C4
:100E2000D7039091D8030E948B1890934A04809323
:100E3000490460913E0370913F038091400390917B
:100E400041030E94BE17029741F48091D70390910D
:100E5000D803909341048093400460913E037091C5
:100E60003F0380914003909141030E94FD17019739
:100E700021F48091D60380931A0160913E03709112
:100E80003F0380914003909141030E94BE17029757
:100E900041F48091D7039091D80390934D048093AF
:100EA0004C0460913E0370913F0380914003909108
:100EB00041030E947117039709F055C58091D9032A
:100EC0009091DA03A091DB03B091DC030196A11DA0
:100ED000B11D80934E0490934F04A0935004B0939F
:100EE000510441C580913B0381112CC060913E03A8
:100EF00070913F0380914003909141030E94BE177F
:100F0000029751F48091D7039091D8030E948B18D7
:100F1000909343048093420460913E0370913F0399
:100F200080914003909141030E94BE17029709F0FF
:100F30001AC58091D7039091D80390934104809370
:100F4000400411C5809142049091430490930101A3
:100F50008093000180914004909141040197909307
:100F6000410480934004892B09F4C7C10C94D40F29
:100F700020913B0360913E0370913F0380914003B9
:100F80009091410321110AC00E94FD17019709F0B9
:100F90003AC18091D6038093D00335C10E94BE1719
:100FA000029751F48091D7039091D8030E948B1837
:100FB00090930101809300018091D0038150809330
:100FC000D003882309F499C10C94D40F80913B037A
:100FD000811152C060913E0370913F0380914003A4
:100FE000909141030E94BE17029751F48091D7035C
:100FF0009091D8030E948B189093480480934704E3
:1010000060913E0370913F038091400390914103B2
:101010000E94BE17029751F48091D7039091D80394
:101020000E948B1890934A048093490460913E0378
:1010300070913F0380914003909141030E94FD17FE
:10104000019721F48091D60380931A0160913E03A9
:1010500070913F0380914003909141030E94BE171D
:10106000029709F04BC08091D7039091D8039093D9
:101070004D0480934C0442C0843009F0C6C176C050
:1010800080913B0381115BC060913E0370913F03EF
:1010900080914003909141030E94BE17029751F442
:1010A0008091D7039091D8030E948B189093D50319
:1010B0008093D40360913E0370913F03809140037D
:1010C000909141030E94BE17029741F48091D7038B
:1010D0009091D80390934D0480934C0460913E030B
:1010E00070913F0380914003909141030E94FD174E
:1010F000019721F48091D60380931A0160913E03F9
:1011000070913F0380914003909141030E947117B9
:10111000039709F078C08091D9039091DA03A091E8
:10112000DB03B091DC030196A11DB11D80934E0439
:1011300090934F04A0935004B093510464C0853041
:1011400061F480914C0490914D04909345048093F8
:10115000440489E580932F0327C78091D40390919D
:10116000D503906490930101809300010E94782937
:101170001BC780913B03843009F41AC48530E9F120
:10118000811112C760913E0370913F03809140032B
:10119000909141030E94161760913E0370913F03A6
:1011A00080914003909141030E94BE17029741F441
:1011B0008091D7039091D80390934D0480934C0471
:1011C00080913E0390913F03A0914003B091410371
:1011D0008A5A9F4FAF4FBF4F80933E0390933F0378
:1011E000A0934003B0934103DCC680913B0384305D
:1011F00009F4DEC3853009F0D6C388EE93E89093F6
:1012000001018093000184E0CDC660913E0370919E
:101210003F0380914003909141030E94BE170297C3
:1012200009F0C2C68091D7039091D8030097D1F0FE
:101230001092CF038ACF80913E0390913F03A091FB
:101240004003B09141030496A11DB11D80933E035C
:1012500090933F03A0934003B093410380915403C4
:1012600081114BC081E08093CF0373CF60913E0327
:1012700070913F0380914003909141030E94BE17FB
:101280000297D9F58091D7039091D8039093CE031C
:101290008093CD0380913E0390913F03A091400342
:1012A000B09141038093C9039093CA03A093CB03E9
:1012B000B093CC0322C08091CD039091CE030197CF
:1012C0009093CE038093CD03892BB9F08091C9030D
:1012D0009091CA03A091CB03B091CC0343C0AB0162
:1012E000BC014B5F5F4F6F4F7F4F40933E03509366
:1012F0003F03609340037093410381E080933D037B
:1013000053C60E94FD1760913E0370913F03809188
:101310004003909141030E94FD17019771F72091BE
:10132000D60380913E0390913F03A0914003B0917A
:101330004103820F911DA11DB11D14C00E94BE1753
:101340000297D9F62091D7033091D80380913E03BC
:1013500090913F03A0914003B0914103820F931FEE
:10136000A11DB11D80933E0390933F03A0934003C2
:10137000B0934103C2CF0E94FD17019709F0BDCF82
:101380002091D60330E0A3E0B0E00E949C3D0091A4
:101390003E0310913F032091400330914103DC0153
:1013A000CB01800F911FA21FB31FDCCF605F7F4F67
:1013B0008F4F9F4F60933E0370933F038093400392
:1013C000909341030E941617049709F096CF40911D
:1013D0003E0350913F03609140037091410380911F
:1013E000D9039091DA03A091DB03B091DC03840F61
:1013F000951FA61FB71FB6CF80913B03813009F41C
:101400009DC138F0843009F4ACC1853009F499CE1F
:10141000CBC564E087E00E940D1984E30E94A01808
:1014200082E40E94A01864E08EE00E940D19809171
:1014300059032AE0622F0E94473F911106C00E9483
:10144000473F80E3890F0E94A01864E08FE00E946C
:101450000D19809159036AE00E94473F80E3890F8C
:101460000E94A018809159038F5F80935903609167
:101470003E0370913F0380914003909141030E948D
:101480001617049799F48091D9039091DA03A091EB
:10149000DB03B091DC030C97A109B10980934E04E2
:1014A00090934F04A0935004B093510460913E0375
:1014B00070913F0380914003909141030E94BE17B9
:1014C000029741F48091D7039091D80390934D04F3
:1014D00080934C0480910801C0903E03D0903F035C
:1014E000E0904003F0904103811152C0C701B60162
:1014F0000E94BE17029751F48091D7039091D803B0
:101500000E948B18909343048093420460913E03A1
:1015100070913F0380914003909141030E94BE1758
:10152000029741F48091D7039091D803909341049E
:101530008093400460913E0370913F03809140038B
:10154000909141030E94BE17029751F48091D703F6
:101550009091D8030E948B1890934804809347047D
:1015600060913E0370913F0380914003909141034D
:101570000E94BE17029709F074C08091D703909122
:10158000D8030E948B1890934A048093490469C041
:101590002091090130910A01C90160EB74E00E94B9
:1015A000673F48E853E1649FC001659F900D749FB9
:1015B000900D1124909341048093400418E0C10ED3
:1015C000D11CE11CF11CC0923E03D0923F03E0927B
:1015D0004003F0924103203649E0340729F184F4B6
:1015E000203B3440F1F580ED90E090934A048093E5
:1015F0004904909343048093420481EA91E02DC012
:1016000020310EE03007E9F02A303F4051F581E407
:1016100090E090934A04809349049093430480930C
:10162000420482E890E019C088E690E090934A0472
:1016300080934904909343048093420480ED90E0AA
:101640000CC085E490E090934A0480934904909301
:101650004304809342048BE890E090934804809385
:10166000470460913E0370913F0380914003909145
:1016700041030E94FD170197C1F48091D603282FE2
:101680002F702093190190E0F4E095958795FA95D5
:10169000E1F780931801211103C020E12093190183
:1016A000892B19F480E18093180160913E037091B9
:1016B0003F0380914003909141030E94FD170197E1
:1016C00009F051C12091D603822F90E0AC01E5E0F2
:1016D00055954795EA95E1F741704093C803522F1D
:1016E0005295569556955370442319F0309119012F
:1016F00002C030911801359F302D1124309317010D
:10170000AC01559547955595479541704093160105
:1017100073E0959587957A95E1F78370442319F0E6
:101720009091190102C090911801989F802D112469
:101730008093150121702093C70315C18091400447
:10174000909141049C012150310930934104209330
:101750004004892B09F457CD8091420490914304B1
:101760003AC380914203882349F0809142038A3032
:10177000B9F4909117019111B2C312C08091420344
:10178000811155C080914E0490914F04A091500456
:10179000B0915104892B8A2B8B2B09F0BEC347C013
:1017A00080914203813009F492C3809142038A30D0
:1017B00029F480911701882309F4EFC38091520422
:1017C000282F30E08091C703882309F4D0C380918B
:1017D000420390E00297A90102C0559547958A956A
:1017E000E2F7242F217040FFC9C3809149049091F2
:1017F0004A0490930101809300018091DD038F5F83
:101800008093DD039091DD03222309F4BCC3809112
:101810001901981307C080914203815080934203BD
:101820001092DD0380914203813009F4AFC38091AF
:101830004E0490914F04A0915004B0915104892B13
:101840008A2B8B2B09F0B0C3809142038111ACC36A
:1018500080914C0490914D049093450480934404EE
:10186000A0C380913B03811169C064E087E00E94BE
:101870000D1986E40E94A01885E40E94A01864E077
:101880008EE00E940D1930915903832F6AE00E9467
:10189000473F911109C0832F0E94473F0E94473F55
:1018A00080E3890F0E94A01864E08FE00E940D1968
:1018B000809159036AE00E94473F80E3890F0E94AC
:1018C000A018809159038F5F8093590388EE93E0AD
:1018D00090934D0480934C0460913E0370913F03BC
:1018E00080914003909141030E94BE17029779F4C2
:1018F0008091D7039091D8030196A0E0B0E0809347
:101900004E0490934F04A0935004B09351046091FF
:101910003E0370913F0380914003909141030E94E8
:10192000FD17019709F0BFC98091D603811103C04B
:1019300080E89FE1A1C988E99CE09EC90E948C2BA8
:1019400033C380913B03813081F028F0843081F1F2
:10195000853019F029C31092C60388EE93E890935E
:1019600001018093000181E01DC380914203811138
:1019700017C0E091C603F0E0E852FE4FE491E09317
:1019800052048091C6038F5F8093C6038091C60383
:101990008A3009F438CC89E0809342031092DD0349
:1019A0000E94052B01C38111FFC21092C60325CCF2
:1019B0000E944A2BF9C2E0913B038E2F90E08B30BE
:1019C000910508F0F1C2FC01EC5CFF4F0C947B3FE9
:1019D00080914203882319F00E947B3BE5C260910D
:1019E0003E0370913F0380914003909141030E9418
:1019F000FD178091D603809352048BE080934203BD
:101A0000109253041092730180915204863109F4AC
:101A10002DC21092420383E0C5C28091420381111E
:101A2000DBCF8091360390913703A0913803B091BA
:101A30003903181619061A061B0614F486E120C08D
:101A400081E090E0A0E0B0E080933603909337030C
:101A5000A0933803B093390389E0A4C28091420374
:101A60008111BACF8091360390913703A09138034A
:101A7000B0913903181619061A061B0624F484E2DD
:101A800080935204F8C089E090E0A0E0B0E0809339
:101A9000360390933703A0933803B0933903109221
:101AA000730186E07FC280914203811195CF8091BE
:101AB000360390913703A0913803B091390318167B
:101AC00019061A061B060CF094C060913E03709133
:101AD0003F0380914003909141030E94FD17809144
:101AE000D603809352049BE09093420310925304D8
:101AF000109273014091360350913703609138037F
:101B000070913903453051056105710541F490E04C
:101B1000982F8827092E000CAA0BBB0B61C040919F
:101B20003603509137036091380370913903443084
:101B300051056105710599F490E00196092E000C9C
:101B4000AA0BBB0B40914E0450914F04609150047E
:101B500070915104840F951FA61FB71F41C040917B
:101B60003603509137036091380370913903433045
:101B7000510561057105B1F490E0982F8827092E71
:101B8000000CAA0BBB0B40914E0450914F04609186
:101B90005004709151048A019B01081B190B2A0BF8
:101BA0003B0B1CC0409136035091370360913803C2
:101BB00070913903423051056105710509F056C134
:101BC00040914E0450914F04609150047091510423
:101BD0008A019B01081B110921093109D901C8019A
:101BE00080934E0490934F04A0935004B0935104FB
:101BF0003DC187E0D7C1809142038111EDCE609154
:101C00003E0370913F0380914003909141030E94F5
:101C1000FD178091D603809352048BE0809342039A
:101C20001092530410927301809152048111BCC12F
:101C300081E090E0A0E0B0E080933603909337031A
:101C4000A0933803B0933903109242038AE0AAC1EB
:101C5000809142038111C0CE809136039091370369
:101C6000A0913803B0913903181619061A061B06FD
:101C700054F4109252048BE0809342031092530468
:101C800010927301F3C084E690E0A0E0B0E080938E
:101C9000360390933703A0933803B093390310921F
:101CA000730188E07FC18091360390913703A09142
:101CB0003803B0913903181619061A061B060CF0E2
:101CC000A2CA80ED90E0CEC080914203811184CE03
:101CD00060913E0370913F038091400390914103D6
:101CE0000E94FD17019709F58091D6038093520455
:101CF00080914E0490914F04A0915004B0915104F2
:101D00000197A109B10980934E0490934F04A093C9
:101D10005004B093510410925304892B8A2B8B2BBF
:101D2000A9F481E08093730111C08FEF90E0A0E0EF
:101D3000B0E08093360390933703A0933803B093B9
:101D4000390381E080933D038FEF04CA8BE08093D9
:101D500042031092DD0340CE809136039091370309
:101D6000A0913803B0913903892B8A2B8B2B09F072
:101D700047C084E690E0A0E0B0E080933603909303
:101D80003703A0933803B093390382E00BC18091ED
:101D9000440490914504009719F1811510E29107D0
:101DA00068F02FEF3FE130930101209300018F5F36
:101DB0009F41909345048093440408C0909301018F
:101DC0008093000110924504109244048091000118
:101DD0009091010190689093010180930001E4C00B
:101DE0008091CF03882339F1809136039091370396
:101DF000A0913803B0913903892B8A2B8B2B19F0D2
:101E000081E090E82FC081E08093B40380933D038C
:101E100081EE91E00E94982E8FEF90E0A0E0B0E07C
:101E20008093360390933703A0933803B09339031C
:101E30001092CF03B9C081E080933D0380913503B8
:101E4000813009F0B1C080CF809136039091370383
:101E5000A0913803B0913903892B8A2B8B2BA1F1E8
:101E60008AE090EA9093010180930001809136030B
:101E700090913703A0913803B09139030197A109DC
:101E8000B1098093360390933703A0933803B0933E
:101E900039038AC060913E0370913F0380914003F3
:101EA0009091410320E14EE953E00E94FE3C62E044
:101EB00070E08EE993E00E94281BF89480E10E9474
:101EC00009210197D9F378940E94791F6DC09091F0
:101ED0001501992309F469CC8091160102C0809103
:101EE000C803882329F02091490430914A0404C092
:101EF0002091470430914804309301012093000160
:101F00008091DD038F5F8093DD038091DD03891372
:101F10008ECC80914203815025C060913E03709128
:101F20003F0380914003909141030E94FD17019768
:101F300009F00ACF80914E0490914F04A091500473
:101F4000B09151040197A109B10980934E04909377
:101F50004F04A0935004B09351048091D603809312
:101F600052048AE0809342031092DD0360CC4091DA
:101F7000420389E090E0841B91092DCC80914704B5
:101F80009091480436CC8091180143CC8091150182
:101F900081114DCC109242034ACC89E080934203D8
:101FA0000DCC85E080933B032B960FB6F894DEBFF3
:101FB0000FBECDBFDF91CF911F910F91FF90EF909A
:101FC000DF90CF90089580913A03811169C02091EC
:101FD000E10380917F0190E0820F911D820F911D9E
:101FE000FC01E058FE4F8081813099F028F082306A
:101FF00081F58091230328C09091DD032091DD03BA
:1020000080912303213001F19923F1F081111EC049
:102010001FC09091DD032091DD03809123032230C6
:1020200011F0911103C0811103C004C0811102C0DD
:10203000299A01C0299880912203813051F480911E
:10204000DD03813031F42EC0811102C0299801C016
:10205000299A8091DD038F5F8093DD038091DD03FA
:10206000843021F51092DD038091E1038F5F80932E
:10207000E1032091E10330E04091220380ED90E004
:10208000841B9109821793078CF41092E1038091CD
:102090007F0191E0892780937F0190930301089548
:1020A0002998089583E08093DD03D3CF0895E091CC
:1020B000E103F0E0319680917201EE0FFF1FE80F0F
:1020C000F11DE058FE4F20813091E10380917201B3
:1020D00090E0830F911D830F911DFC01E058FE4F8E
:1020E00080811092E00390913A03911106C030E094
:1020F000382B2115310509F089C080913A038111EF
:1021000080C08091E1038E5F8093E1038091E103C1
:10211000813D50F01092E1038091720191E0892796
:10212000809372019093030168EE73E080E090E089
:10213000DC01CB010496A11DB11D63E0880F991F3E
:10214000AA1FBB1F6A95D1F7009721E0A207B1052E
:1021500020F421E02093340342C0009728E0A20736
:10216000B10558F422E02093340353E0B695A795C7
:10217000979587955A95D1F732C0009720E4A2072A
:10218000B10558F423E02093340346E0B695A795B3
:10219000979587954A95D1F722C00097A10521E030
:1021A000B20740F424E020933403892F9A2FAB2FF9
:1021B000BB2715C00097A10524E0B20758F425E01D
:1021C000209334032AE0B695A795979587952A958D
:1021D000D1F705C085E0809334038FEF9FEF909394
:1021E00033038093320380913203909133039093B1
:1021F0008700809386008091340380618093810002
:10220000089560E573EC80E090E092CF37FF07C05F
:1022100081E08093DF033F778093DE030AC08091E3
:10222000DE03813029F48091DF03882309F472C032
:1022300080E036FD0FC04091710191E0411190E0C6
:102240009093710190917101911102C029980BC076
:10225000299A09C035FD02C0299801C0299A209108
:10226000D4033091D503813091F5909108019111FB
:1022700080E0809371012150310935FF09C010922F
:1022800071013F7DB90180E090E020E030E004C0C2
:102290006CED75E080E090E0E091E1034091720127
:1022A00050E04E0F511D4E0F511DFA01E058FE4FE8
:1022B0003083E091E103F0E0319630917201EE0F4E
:1022C000FF1FE30FF11DE058FE4F208331CF8091B7
:1022D000DF03813039F4A8EEB3E00E949C3D1092F8
:1022E000DF0303C0B90180E090E02091E1032E5F9D
:1022F0002093E1032091E103213D08F419CF1092CE
:10230000E1032091720131E0232720937201309381
:1023100003010ECF1092DE038BCFEF92FF921F933B
:10232000CF93DF93FC01208120FF32C0EC017C01C0
:10233000F7E0EF0EF11C4B815C816D817E81E981BC
:10234000FA819701808191810E94C023182F811109
:1023500002C010E01EC0888181FD04C088818E7F8C
:10236000888317C0E981FA8144855585668577851C
:102370008B819C81AD81BE81480F591F6A1F7B1FD5
:102380009701808191810E94C0238111E7CFE1CF25
:1023900011E0812FDF91CF911F91FF90EF90089571
:1023A000CF92DF92EF92FF921F93CF93DF93EC01D6
:1023B0006A017B01122F8B819C81AD81BE818417C4
:1023C0009507A607B707F1F0CE010E948D11811184
:1023D00003C080E090E01CC012FF06C01882CB82D0
:1023E000DC82ED82FE820EC0E981FA819E01295FC6
:1023F0003F4FB701A601808191810E94282481115D
:10240000EDCFE7CF13708881182B1883CE01079684
:10241000DF91CF911F91FF90EF90DF90CF900895C3
:10242000FC01AC01455F5F4F80E090E8899F90011F
:102430001124982F9695922B2191892F820FE417C2
:10244000F50799F70895CF93DF93FC0120812111BF
:1024500002C081E046C0EC01828182FF3AC044891B
:102460005589668977898681978121E080960E94C7
:10247000D011009729F489818160898380E031C07F
:10248000EC81FD81EF70FF2725E0EE0FFF1F2A95FD
:10249000E1F7DC01AE0FBF1F2C91253E61F32881CF
:1024A00023FF0AC0488D598D6A8D7B8D5C964D93B4
:1024B0005D936D937C935F974C8D5D8D6E8D7F8D5D
:1024C000E80FF91F538F428F758B648B8A818B7F46
:1024D0008A838E819F8180960E948D11882359F274
:1024E000B8CFDF91CF9108954F925F926F927F9214
:1024F0008F929F92AF92BF92CF92DF92EF92FF9214
:102500000F931F93CF93DF93EC014A015B014C843F
:102510005D846E847F84A881AA2309F491C04889D0
:1025200059896A897B8984169506A606B70609F437
:102530008DC081149104A104B10429F41C861D8668
:102540001E861F8678C0A3FF0BC0088D198D2A8DAB
:102550003B8D081519052A053B0508F471C014C008
:10256000A5FF12C0EE81FF818681978125E0880F4B
:10257000991F2A95E1F7A0E0B0E088159905AA0512
:10258000BB0508F45DC057C0EE81FF81848190E0F7
:1025900009968A019B010150110921093109082E70
:1025A00004C036952795179507950A94D2F77501BB
:1025B0006401B1E0CB1AD108E108F10804C0F69437
:1025C000E794D794C7948A95D2F7C016D106E2064D
:1025D000F30620F0452B462B472B81F4A6FF05C0C0
:1025E000848D958DA68DB78D04C08C8D9D8DAE8DFF
:1025F000BF8D8C879D87AE87BF8704C0C01AD10A64
:10260000E20AF30A8E01045F1F4FC114D104E104F2
:10261000F10489F04C855D856E857F8598018E81FA
:102620009F810E94FA2491E0C91AD108E108F108BB
:1026300018165CF305C0888A998AAA8ABB8A06C0E4
:102640004C865D866E867F8680E001C081E0DF91EA
:10265000CF911F910F91FF90EF90DF90CF90BF909F
:10266000AF909F908F907F906F905F904F90089564
:102670004F925F926F927F928F929F92AF92BF9292
:10268000CF92DF92EF92FF920F931F93CF93DF933E
:10269000EC014B018A0188818823D9F09A8190FF4F
:1026A00018C01DC0D380D422A114B10409F081C088
:1026B000D1107FC0892B8A2B8B2B09F464C04C85E9
:1026C0005D856E857F859201CF010E94FA2487FF88
:1026D0006AC08981826089838FEF9FEFD3C083FFB7
:1026E00015C0888D998DAA8DBB8D488959896A89B5
:1026F0007B89841B950BA60BB70BA80160E070E0EB
:10270000481759076A077B07A0F012C085FF11C060
:10271000EE81FF818681978155E0880F991F5A9538
:10272000E1F728893989821B930B8017910708F4F8
:102730008C0178012E012CE0420E511C612C42E0EC
:10274000742EE114F10409F465C088899989AA8975
:10275000BB895C0121E0B2222881EE81FF81AC01BE
:10276000BD0139E076956795579547953A95D1F72C
:1027700025FF98CF848D958DA68DB78D480F591F55
:102780006A1F7B1F34C026FF05C0848D958DA68DE2
:10279000B78D04C08C8D9D8DAE8DBF8D8C879D8730
:1027A000AE87BF8706C0811104C08881807791F50C
:1027B00090CFEE81FF814C855D856E857F8542508F
:1027C000510961097109048004C0440F551F661F37
:1027D000771F0A94D2F780899189A289B389480F1B
:1027E000591F6A1F7B1F4D0D511D611D711DEE810B
:1027F000FF81A114B10471F5E11482E0F80650F1F3
:1028000083A194A1A5A1B6A1481759076A077B0720
:1028100029F420C0C8018E199F0934C09401808119
:1028200091810E942824882309F453CFC12C82E08F
:10283000D82E8C0C9D1C88899989AA89BB898C0DFE
:102840009D1DA11DB11D888B998BAA8BBB8BEC188C
:10285000FD0877CFC3018A199B0967018E159F0573
:1028600008F46C0120E0CF0180960E94D0110097FF
:1028700009F42FCFBC016A0D7B1DA601C4010E9483
:10288000933FD7CFDF91CF911F910F91FF90EF90A2
:10289000DF90CF90BF90AF909F908F907F906F9080
:1028A0005F904F900895FF920F931F93CF93DF9304
:1028B0001F92CDB7DEB78C01FC0180899189A28976
:1028C000B3899C01AD0175E05695479537952795DD
:1028D0007A95D1F7F22FFF70FF2E11F0611116C01B
:1028E00041E050E0BE016F5F7F4FC8010E94381386
:1028F000813019F080E090E01AC0F8018089918958
:10290000A289B3894F96A11DB11D04C08096A11D57
:10291000B11DF801808B918BA28BB38BF80186815E
:1029200097818796F0E2FF9E800D911D11240F90F4
:10293000DF91CF911F910F91FF900895FC0180814D
:10294000811114C080E2DF01982F1D929A95E9F75A
:1029500077836683DB0115969C91903119F0903254
:1029600029F480E4808381E08283089580E00895E3
:10297000CF93DF93EC010E9423121882DF91CF9155
:1029800008953F924F925F926F927F928F929F92A3
:10299000AF92BF92CF92DF92EF92FF920F931F936D
:1029A000CF93DF9300D000D0CDB7DEB74C01FC0150
:1029B0008281846082834484558466847784A6807F
:1029C000B780F501C084D184E284F384C414D504B3
:1029D000E604F704C0F47301620110E0FFEFCF1AC0
:1029E000DF0AEF0AFF0AF501808D918DA28DB38D6C
:1029F0008C159D05AE05BF0540F4111132C0C08491
:102A0000D184E284F38411E0E9CFC414D504E60450
:102A1000F70439F19E012F5F3F4FB701A601C501B1
:102A20000E94FA2487FD1DC08823C1F289819A8102
:102A3000AB81BC81892B8A2B8B2B81F6112329F04A
:102A4000F501C086D186E286F3860FEF1FEF2FEFE8
:102A50003FE0B701A601C5010E948824382E8111EC
:102A600002C0312C15C0411451046104710431F4C9
:102A7000F401C486D586E686F7860AC097018601EA
:102A8000B301A201C5010E9488248111F1CFE9CFD1
:102A9000832D0F900F900F900F90DF91CF911F918A
:102AA0000F91FF90EF90DF90CF90BF90AF909F90ED
:102AB0008F907F906F905F904F903F9008952F92EE
:102AC0003F924F925F926F927F928F929F92AF92BE
:102AD000BF92CF92DF92EF92FF920F931F93CF930B
:102AE000DF93EC015B014A01888183FF0EC08A817C
:102AF00081FF0BC083FF0FC0488D598D6A8D7B8D80
:102B0000CE010E947412811106C08981816089837F
:102B10008FEF9FEF08C1A40160E070E08889998978
:102B2000AA89BB8980959095A095B0958417950743
:102B3000A607B70750F364011E018CE0280E311C74
:102B4000088919892A893B89C114D10409F4D0C0A4
:102B50008E819F81B901A80129E0769567955795E7
:102B600047952A95D1F7DC011396FC90F422117059
:102B7000F11034C00115110589F54C855D856E8510
:102B80007F85411551056105710569F091010E942C
:102B9000FA2487FDBACF811121C0CE010E94C11451
:102BA00081111CC0B2CF8C8D9D8DAE8DBF8D0097D5
:102BB000A105B10579F4CE010E94C114882309F45E
:102BC000A4CF8C859D85AE85BF858C8F9D8FAE8F64
:102BD000BF8F04C08C879D87AE87BF87EE81FF8142
:102BE0004C855D856E857F8542505109610971096B
:102BF000048004C0440F551F661F771F0A94D2F744
:102C000080899189A289B389480F591F6A1F7B1F48
:102C10004F0D511D611D711D0115110521F4C114C8
:102C2000B2E0DB06B0F580E092E0801B910B76010C
:102C30008C159D0508F47C010115110579F448886F
:102C400059886A887B88888D998DAA8DBB8D481696
:102C500059066A067B0610F025E001C021E0CF018D
:102C600080960E94D011009709F44FCFA701B501BB
:102C7000800F911F0E94933F0E0D1F1D01151240E2
:102C800031F58E819F8180960E948D1181111FC028
:102C90003CCF83A194A1A5A1B6A184179507A6074F
:102CA000B70741F410A28FEF9FEFDC0183A394A339
:102CB000A5A3B6A3EE81FF819501808191810E9439
:102CC000C023882309F421CFE12C82E0F82E8889E3
:102CD0009989AA89BB898E0D9F1DA11DB11D888B65
:102CE000998BAA8BBB8BAE0CBF1CCE18DF0828CFEC
:102CF000888D998DAA8DBB8D80179107A207B30788
:102D000038F4088F198F2A8F3B8F8A8184608A83D9
:102D10008A8187FD02C0C40106C0CE010E94231231
:102D20008111F9CFF2CEDF91CF911F910F91FF90DA
:102D3000EF90DF90CF90BF90AF909F908F907F905B
:102D40006F905F904F903F902F900895CF93DF93B7
:102D5000EB010E94593D8883CE01DF91CF91089508
:102D60008EE00E940921892B79F08FE00E940921D1
:102D7000892B51F081E10E940921892B29F080E102
:102D80000E940921892B31F462E370E080E090E039
:102D90000C94622110920B01F7CFCF93C82F8FE1D3
:102DA00095E00E947412882349F04C2F50E064E2B1
:102DB00073E08FE195E0CF910C94381380E090E0C0
:102DC000CF910895E4E7F1E082E0819391E0EF375D
:102DD000F907D9F7089590912203913089F4E4E737
:102DE000F1E080FF02C0908301C010828695319689
:102DF00021E0EC37F207A9F782E080937C0111C053
:102E000010927401E5E7F1E091E080FF02C0908349
:102E100001C010828695319621E0ED37F207A9F7BF
:102E200081E080937D0180937E0108950F931F932D
:102E3000CF93DF9300D000D0CDB7DEB7AB01BC019C
:102E40008FE195E00E947412882309F144E050E07C
:102E5000BE016F5F7F4F8FE195E00E943813843091
:102E60009105B9F440913E0350913F0360914003B6
:102E7000709141034C5F5F4F6F4F7F4F40933E0314
:102E800050933F03609340037093410302C080E07E
:102E900090E04C8150E0542F44272B81422B60E07E
:102EA00070E0BA01552744270A8110E0102F00274F
:102EB0002981022B20E030E0402B512B622B732B19
:102EC0004093D9035093DA036093DB037093DC03E0
:102ED0000F900F900F900F90DF91CF911F910F9156
:102EE0000895CF93DF9300D01F92CDB7DEB7AB012B
:102EF000BC018FE195E00E947412882309F143E040
:102F000050E0BE016F5F7F4F8FE195E00E94381364
:102F100083309105B9F440913E0350913F03609195
:102F20004003709141034D5F5F4F6F4F7F4F409360
:102F30003E0350933F03609340037093410302C0EC
:102F400080E090E04B8150E0542F44272A81422BAF
:102F500060E070E0762F652F542F44272981422BA3
:102F60004093D9035093DA036093DB037093DC033F
:102F70000F900F900F90DF91CF910895CF93DF9333
:102F800000D0CDB7DEB7AB01BC018FE195E00E9468
:102F90007412882309F142E050E0BE016F5F7F4F59
:102FA0008FE195E00E94381382309105B9F4409189
:102FB0003E0350913F0360914003709141034E5F87
:102FC0005F4F6F4F7F4F40933E0350933F0360939B
:102FD00040037093410302C080E090E02A8130E01A
:102FE000322F22274981242B3093D8032093D703F3
:102FF0000F900F90DF91CF910895CF93DF931F92A1
:10300000CDB7DEB7AB01BC018FE195E00E94741231
:10301000882309F141E050E0BE016F5F7F4F8FE1EF
:1030200095E00E94381381309105B9F440913E0338
:1030300050913F0360914003709141034F5F5F4F98
:103040006F4F7F4F40933E0350933F036093400385
:103050007093410302C080E090E029812093D60361
:103060000F90DF91CF9108958091090190910A010D
:10307000803629E09207B9F04CF4803B944011F57A
:1030800081E08093020180ED90E018C080312EE055
:10309000920779F08A309F40A9F482E08093020180
:1030A00084E490E00BC081E08093020188E690E028
:1030B00005C082E08093020186E490E090930501D0
:1030C0008093040180E1809381000895089580E059
:1030D00090E0089540E050E0BA0180915203909151
:1030E00053030C94741204960C945F15CF93DF93E2
:1030F0001F92CDB7DEB7698341E050E0BE016F5F3C
:103100007F4F04960E945F150F90DF91CF91089535
:1031100004960C942312BC0180E090E00E94B93E1A
:1031200020E030E040E650E40E94183E20E030E02D
:1031300040E05FE30E94AC3D0E948A3ECB010895CF
:103140000F931F93CF93DF93C82F81E08093E70401
:103150008CE3809309051092E80410920A0580E43C
:1031600090E00E94AD2C88E0C89FE001112400E0AF
:1031700010E0DA95FE01E00FF11FE65FFD4F64916C
:103180008BE095E00E94D8200F5F1F4F083011059B
:1031900089F7DF91CF911F910F910C94502CCF9311
:1031A000DF931F92CDB7DEB7682F81E08093E704ED
:1031B0008CE3809309051092E80410920A0580E4DC
:1031C00090E069830E94AD2C69818BE095E00E94BC
:1031D000D8200F90DF91CF910C94502CCF93DF9398
:1031E0001F92CDB7DEB7682F81E08093E7048CE3B0
:1031F000809309051092E80410920A0580E890E097
:1032000069830E94AD2C69818BE095E00E94D820F3
:103210000F90DF91CF910C94502CCF93C82F80EB5F
:10322000860F0E94EE188C2F880F880F880F8870E9
:103230008E5F0E94EE1828E0C29FC001112424E096
:10324000959587952A95E1F78F70805FCF910C94C3
:10325000EE186F927F928F929F92AF92BF92CF9211
:10326000DF92EF92FF920F931F93CF93DF93EC01C6
:10327000862E942E642F882D0E940D198E016624AF
:1032800063947CE3772EEE24E394F12CF8018081A3
:10329000882309F456C06092E704709209051092E1
:1032A000E80410920A0580E490E00E94AD2CA12C65
:1032B000B12CD8018C91F501B8E08B02E00DF11D25
:1032C0001124E65FFE4FE491F0E041E050E0C12CB4
:1032D000D12C20E030E0CF010C2C02C095958795D1
:1032E0000A94E2F780FF14C0C701042E02C0880FC1
:1032F000991F0A94E2F7282B392BC601880F991FD2
:10330000D70102C0AA0FBB1F8A95E2F72A2B3B2BDD
:103310008FEFC81AD80A4E5F5F4F94E0C916D104E8
:10332000D1F6C9010E94AD2CAFEFAA1ABA0AB8E0D3
:10333000AB16B10409F0BDCF0E94502C0F5F1F4F98
:10334000A5CF61E0690D882D0E940D19DD24D3946D
:103350008CE3C82E01E010E08881882309F451C075
:10336000D092E704C09209051092E80410920A0571
:1033700080E490E00E94AD2CE12CF12C8881F701D3
:1033800098E08902E00DF11D1124E65FFE4FE49103
:10339000F0E040E050E024E030E080E090E0BF0169
:1033A000022E02C0759567950A94E2F760FF14C07B
:1033B000B801042E02C0660F771F0A94E2F7862B2D
:1033C000972BBA016F5F7F4FD80102C0AA0FBB1FB6
:1033D0006A95E2F78A2B9B2B2F5F3F4F4E5F5F4F23
:1033E00028303105E1F60E94AD2CBFEFEB1AFB0A45
:1033F000E8E0EE16F10409F0C1CF0E94502C2196AE
:10340000ABCFDF91CF911F910F91FF90EF90DF90A5
:10341000CF90BF90AF909F908F907F906F900895C6
:103420000F931F93CF93DF931F92CDB7DEB72091F9
:103430003E0330913F034091400350914103A4E685
:10344000B0E00E946F3D2091E7033091E803409186
:10345000E9035091EA030E947A3D022F122F209334
:10346000E60380911001843611F41092100160E09F
:1034700088E01A3038F40E940D19812F6AE00E940A
:10348000473F0DC0143670F40E940D19812F6AE079
:103490000E94473F805D99830E94A018998180E334
:1034A000890F09C00E940D1981E30E94A01880E3D2
:1034B0000E94A01880E30E94A01885E20E94A01834
:1034C000009310010F90DF91CF911F910F910895FC
:1034D0000F931F93CF93DF930E949C210091E203EF
:1034E0001091E3032091E4033091E503DC01CB016B
:1034F000801B910BA20BB30B893E9340A105B10534
:1035000008F46AC00E949C216093E2037093E30375
:103510008093E4039093E5032091430330914403A7
:103520000AE010E0C901B8010E94533F892B69F0FD
:1035300060E08FE00E940D19809143039091440355
:10354000B8010E94533F805D3CC0C4E6D0E0C90191
:10355000BE010E94533F892B89F060E08EE00E94FB
:103560000D198091430390914403BE010E94533F83
:10357000B8010E94533F80E3860F20C008EE13E09D
:10358000C901B8010E94533F60E0892B81F08DE0B2
:103590000E940D198091430390914403B8010E9449
:1035A000533FBE010E94533F80E3860F04C08DE06D
:1035B0000E940D1980E30E94A01880E30E94A018C9
:1035C00080E30E94A01880914303909144030196E8
:1035D0009093440380934303DF91CF911F910F9108
:1035E000089544E050E064E070E085E491E00E94DA
:1035F00029194AE064E273E08091090190910A017F
:103600000E94F33C46E050E060E070E084E293E02A
:103610000E9429198091130146E050E065E070E0B6
:10362000813019F480E591E002C086E591E00E94C6
:1036300029198091080146E050E06BE070E081308C
:1036400019F48CE591E002C082E691E00C9429190E
:10365000AB01A4E5B4E020E030E060E2FC010190C1
:103660000020E9F73197E81BF90B2E173F0730F4DC
:10367000FC01E20FF31F70817C9301C06C932F5FFC
:103680003F4F11962031310549F760E070E084E545
:1036900094E00C942919CF93DF93EB0140E150E0C3
:1036A000BC0184E594E00E94C03CE4E5F4E00190B4
:1036B0000020E9F7319720E2CF01845594404097EC
:1036C00014F42193F9CFAE0160E070E084E594E05A
:1036D000DF91CF910C9429190F931F93CF93DF9310
:1036E00010923E0310923F03109240031092410348
:1036F00080912F038E3F61F08AE090E0A0E0B0E07F
:1037000080933E0390933F03A0934003B093410303
:10371000C1E0D0E08091590390E08C179D070CF434
:10372000B0C160913E0370913F038091400390913E
:1037300041030E94FD170197D9F480912F038E3F1A
:1037400021F08091D60380932F0380912F038E3F29
:1037500099F480913E0390913F03A0914003B09172
:103760004103BC01CD0161507109810991094EC02D
:10377000C150C093590385C1813209F4CDC038F5D9
:10378000833109F45BC0B8F4813109F448C008F012
:10379000ABC0803109F073C180913E0390913F032B
:1037A000A0914003B0914103BC01CD016E5F7F4FFA
:1037B0008F4F9F4F2BC0853109F46EC008F45DC058
:1037C000893109F434C1803209F482C058C181338F
:1037D00009F4ABC078F48A3209F486C020F484324C
:1037E00009F476C04CC18B3209F48AC0803309F4E5
:1037F00093C045C1833309F4E0C008F4C0C08533E9
:1038000009F4FEC08B3409F412C139C160933E0340
:1038100070933F038093400390934103B8C080911D
:103820003E0390913F03A0914003B0914103BC013E
:10383000CD01615F7F4F8F4F9F4F3CC060913E0332
:1038400070913F0380914003909141030E94FD17C6
:10385000019709F014C18091D60390E0A0E0B0E098
:10386000880F991FAA1FBB1F40913E0350913F0331
:103870006091400370914103F6C080913E039091A6
:103880003F03A0914003B0914103BC01CD01695FAA
:103890007F4F8F4F9F4F0EC080913E0390913F030B
:1038A000A0914003B0914103BC01CD016B5F7F4FFC
:1038B0008F4F9F4F60933E0370933F03809340036D
:1038C000909341030E947117039709F0D8C0BBC0C1
:1038D00080913E0390913F03A0914003B09141033A
:1038E0000296A11DB11DC3C080913E0390913F037C
:1038F000A0914003B09141030496A11DB11DB7C032
:1039000080913E0390913F03A0914003B091410309
:103910000596A11DB11DABC060913E0370913F03A0
:10392000809140039091410316C080913E03909195
:103930003F03A0914003B0914103BC01CD016F5FF3
:103940007F4F8F4F9F4F60933E0370933F03809351
:103950004003909341030E94FD17019709F08FC027
:103960002091D60380913E0390913F03A0914003A4
:10397000B0914103820F911DA11DB11D78C06091CE
:103980003E0370913F0380914003909141030E9458
:10399000BE17029709F073C02091D7033091D80366
:1039A00080913E0390913F03A0914003B091410369
:1039B000820F931FA11DB11D5AC060913E037091EB
:1039C0003F0380914003909141030E94FD170197AE
:1039D00009F055C02091D60330E0A3E0B0E00E948A
:1039E0009C3D00913E0310913F0320914003309194
:1039F0004103DC01CB01800F911FA21FB31F37C011
:103A000080913E0390913F03A0914003B091410308
:103A1000BC01CD01605F7F4F8F4F9F4F60933E038E
:103A200070933F03809340039093410308C06091DB
:103A30003E0370913F0380914003909141030E94A7
:103A400016170497E1F440913E0350913F036091B3
:103A50004003709141038091D9039091DA03A091C2
:103A6000DB03B091DC03840F951FA61FB71F809363
:103A70003E0390933F03A0934003B09341032196EC
:103A800049CE80912F038E3F99F081E080933D03D2
:103A900060913E0370913F038091400390914103F8
:103AA0000E94FD17019739F48091D60380932F036C
:103AB00082E080933D0360E070E088E092E00E9445
:103AC0004B1B40E050E060E070E08BE491E00E942E
:103AD0002919809159034AE064E273E090E00E9462
:103AE0002F3D40E050E064E070E084E293E00E940B
:103AF00029198091590340E050E0833618F466E0BC
:103B000070E002C067E070E088E691E00E94291949
:103B100080912F03982F92959F70803A10F4905DBA
:103B200001C0995C909324038F708A3010F4805DFB
:103B300001C0895C8093250310922603809159036C
:103B400040E050E0833618F46AE070E002C06BE0B9
:103B500070E084E293E00E94291984E680931001CA
:103B60001092440310924303109242031092DD031B
:103B700080913C03811112C010923B0381E080933D
:103B8000340380E49FE19093330380933203909356
:103B900087008093860081E180938100DF91CF913F
:103BA0001F910F9108950E946A1810925803109265
:103BB000570380915203909153030E94152E88233E
:103BC00071F08FE195E00E94B814809157039091B5
:103BD000580301969093580380935703EACF80913E
:103BE000570390915803909356038093550308957B
:103BF000CF92DF92EF92FF920F931F93CF93DF93B9
:103C0000CDB7DEB7A0970FB6F894DEBF0FBECDBF1D
:103C10007C0180915A03813031F0EA94EF28B9F4A5
:103C20000E946A1814C00E946A1801E010E00E1584
:103C30001F059CF780915203909153030E94152E0B
:103C40008FE195E00E94B8140F5F1F4FF0CF809175
:103C50005203909153030E94152E19821A8280916B
:103C60001F05811103C01092650408C080912205D0
:103C7000811174C085E694E00E94202D85E493E0D4
:103C80000E94202D8091370590913805A09139052B
:103C9000B0913A058093E7039093E803A093E9037A
:103CA000B093EA0380911F05807709F0F9C06AE3B9
:103CB00071E085E493E00E94A73F892B09F4F0C0EE
:103CC0001092BF048FE195E00E94B81410929E03F9
:103CD0008091BF048130B1F480919D03882379F0F5
:103CE00090E0019726E1289FB001299F700D1124D3
:103CF000655A7C4F8EE993E00E94B03F16C061EF99
:103D000071E00FC06091E7037091E8038091E903CF
:103D10009091EA032AE04EE953E00E94FE3C6AEEED
:103D200071E08EE993E00E94B53C60E070E08EE9BE
:103D300093E00E94281B1092BE040E94B22CA09611
:103D40000FB6F894DEBF0FBECDBFDF91CF911F91AC
:103D50000F91FF90EF90DF90CF900895809127050D
:103D600090912805A0912905B0912A05609125051B
:103D7000709126058E010F5F1F4F0097A105B105B9
:103D800039F4C8010E949E14882309F46CCF0FC037
:103D900020E2F80111922A95E9F720E1298321E038
:103DA0002B8378876F838D8F9E8FAF8FB8A3CC24A2
:103DB000C3949DE0D92E809122058C1508F453CF31
:103DC000EC2CF12C40912305509124054E195F09EC
:103DD00060E070E085E0440F551F661F771F8A95ED
:103DE000D1F7C8010E947412882309F43CCF60E027
:103DF000C8010E945314FC01892B09F434CF838538
:103E00008F3009F030CF80818F7190E0E816F9068D
:103E100009F029CF81E0E81AF108DE9C9001DF9CCF
:103E2000300D1124B9016B597B4F7F0180E0D70120
:103E3000853028F411964D915C9112970BC08B3010
:103E400028F414964D915C91159704C016964D91E7
:103E50005C9117974115510591F028353105C8F44B
:103E60002F5F3F4F4F37510508F04FE3DB014D9374
:103E7000BD018F5FB2E0EB0EF11C8D30C1F628352D
:103E8000310538F4808186FF04C0D901AB59BB4F9E
:103E90001C921092BC04808186FDF0CEC3948BCF1F
:103EA00081E08093BF040ECFCF9380E180938100A7
:103EB000C1E0C0933A031092B5038FE195E00E94F0
:103EC000B814C0935A0380910E0190910F010E9483
:103ED000F81D10923E0310923F031092400310927F
:103EE000410310923B0410924B0410923C03CF917B
:103EF00008950E94541F8091B503813041F460E021
:103F000070E080E092E00E944B1B1092B503089590
:103F10001F93CF93DF93182FC4E0D0E0812F0E942E
:103F20000921892B49F4219739F062E370E080E0A0
:103F300090E00E946221F2CFDF91CF911F9108950E
:103F4000CF93C82F8C2F0E940921892B39F462E36B
:103F500070E080E090E00E946221F4CFCF9108955C
:103F60001F920F920FB60F9211242F933F934F93EE
:103F70005F936F937F938F939F93AF93BF93EF93D1
:103F8000FF93E0913003F09131030995FF91EF9198
:103F9000BF91AF919F918F917F916F915F914F9161
:103FA0003F912F910F900FBE0F901F901895CF92B9
:103FB000DF92EF92FF920F931F93CF93DF936C01E9
:103FC0007A018B01C0E0D0E0CE15DF0589F0D80181
:103FD0006D918D01D601ED91FC910190F081E02D64
:103FE000C6010995892B11F47E0102C02196ECCF00
:103FF000C701DF91CF911F910F91FF90EF90DF905C
:10400000CF900895833081F028F4813099F0823088
:10401000A1F008958730A9F08830B9F08430D1F448
:10402000809180008F7D03C0809180008F77809386
:104030008000089584B58F7702C084B58F7D84BDDC
:1040400008958091B0008F7703C08091B0008F7D7C
:104050008093B00008953FB7F89480913704909111
:104060003804A0913904B0913A0426B5A89B05C044
:104070002F3F19F00196A11DB11D3FBFBA2FA92FE7
:10408000982F8827820F911DA11DB11DBC01CD0164
:1040900042E0660F771F881F991F4A95D1F7089550
:1040A00085ED8093BC008091BC0084FDFCCF109214
:1040B000E604089540910D04262F30E0240F311DB1
:1040C00021323105DCF42091E6042430C9F4FC01EE
:1040D00080E090E0861758F430910D042191DC01C6
:1040E000A551BC4FA30FB11D2C930196F3CF809126
:1040F0000D04680F60930D0480E0089581E0089539
:1041000082E00895089581E090E030916F01209160
:104110006E01321710F480E090E09195819591093D
:10412000089580916F0190916E01891730F48F5F2F
:1041300080936F0180E090E008958FEF9FEF0895E6
:1041400080916E0190E020916F01821B910908958A
:10415000CF92DF92EF92FF920F931F93CF93DF9353
:104160007C01262F972F8A018091E704882391F004
:10417000C62FD72F6E01C40ED51ECC15DD0571F0EC
:104180006991D701ED91FC910190F081E02DC7017B
:104190000995F3CF642F822F0E945A20C801DF9126
:1041A000CF911F910F91FF90EF90DF90CF900895E6
:1041B000CF93DF931F92CDB7DEB769832091E704D9
:1041C0002223D1F020910A05203240F021E030E096
:1041D000FC013383228380E090E015C08091E804E5
:1041E000E82FF0E0E751FB4F998190838F5F809338
:1041F000E80480930A0505C061E0CE0101960E94A3
:104200005A2081E090E00F90DF91CF9108950E94B5
:10421000813FCF93DF93282F30E0F901E45FFA4F1D
:104220008491F901E45AFA4FD491F901E85BFA4F0D
:10423000C491CC2391F081110E940220EC2FF0E078
:10424000EE0FFF1FEE5FFA4FA591B491EC91ED23B5
:1042500081E090E021F480E002C080E090E0DF9116
:10426000CF9108951F93CF93DF93282F30E0F9016A
:10427000E45FFA4F8491F901E45AFA4FD491F901BD
:10428000E85BFA4FC491CC23C9F0162F81110E942C
:104290000220EC2FF0E0EE0FFF1FEC5CFA4FA5912F
:1042A000B4918FB7F894111105C09C91ED2FE09552
:1042B000E92302C0EC91ED2BEC938FBFDF91CF91FE
:1042C0001F9108958F929F92AF92BF92CF92DF92EB
:1042D000EF92FF926B017C010E942B204B015C014D
:1042E000C114D104E104F104F1F00E942B20DC019F
:1042F000CB0188199909AA09BB09883E9340A105F9
:10430000B10570F321E0C21AD108E108F10888EE86
:10431000880E83E0981EA11CB11CC114D104E104D5
:10432000F10419F7DDCFFF90EF90DF90CF90BF90B1
:10433000AF909F908F9008952FB7F89460913304B9
:104340007091340480913504909136042FBF089504
:104350001F920F920FB60F9211242F933F938F93BA
:104360009F93AF93BF938091330490913404A091B5
:104370003504B09136043091320423E0230F2D37F9
:1043800020F40196A11DB11D05C026E8230F029659
:10439000A11DB11D20933204809333049093340403
:1043A000A0933504B093360480913704909138047B
:1043B000A0913904B0913A040196A11DB11D8093DA
:1043C000370490933804A0933904B0933A04BF9112
:1043D000AF919F918F913F912F910F900FBE0F90B2
:1043E0001F9018951F920F920FB60F9211242F93C2
:1043F0003F934F935F936F937F938F939F93AF936D
:10440000BF93EF93FF938091B900887F803609F4C2
:104410009CC068F5883209F45BC090F4803109F4DF
:1044200054C038F4882309F4F6C0883009F44DC02C
:10443000F6C0883109F44CC0803209F45DC0EFC089
:10444000803409F468C048F4803309F455C08833D7
:1044500009F0E5C08093E404D8C0803509F44FC06A
:10446000883509F45DC0883409F0D9C0D6C08839D0
:1044700009F4C7C0A8F4883709F467C038F488364F
:1044800009F463C0803709F460C0C9C0883809F4F2
:10449000B8C0803909F45FC0803809F0C0C05BC083
:1044A000803B09F486C038F4803A09F466C0883A43
:1044B00009F47FC0B4C0803C09F4A7C0883C09F46B
:1044C000A4C0883B09F48AC0AAC08091C10410C06E
:1044D0009091E3048091E204981770F5E091E30471
:1044E00081E08E0F8093E304F0E0EE53FB4F808178
:1044F0008093BB0085EC86C08093E4048EC0E0917D
:10450000E30481E08E0F8093E3048091BB00F0E030
:10451000EE53FB4F80839091E3048091E2046EC0E0
:10452000E091E30481E08E0F8093E3048091BB006F
:10453000F0E0EE53FB4F80838091E50481116DC064
:1045400081E08093C00484EA61C083E08093E60444
:1045500010923104CFCF80913104803208F051C0E5
:10456000E091310481E08E0F809331048091BB0093
:10457000F0E0EF5EFB4F8083BDCF85EC8093BC0005
:104580001092E60480913104803230F4E0913104DD
:10459000F0E0EF5EFB4F10826091310470E0E0913B
:1045A0000F04F091100481E194E009951092310418
:1045B00036C084E08093E60410920E0410920D043D
:1045C000E0910B04F0910C04099580910D04811188
:1045D00005C081E080930D041092EB03E0910E047E
:1045E00081E08E0F80930E04F0E0E551FC4F808156
:1045F0008093BB0090910E0480910D04981708F4ED
:1046000079CF85E88093BC000AC085EC8093BC001C
:104610001092E60404C01092E4040E945020FF911E
:10462000EF91BF91AF919F918F917F916F915F912A
:104630004F913F912F910F900FBE0F901F901895A3
:104640008EBD0DB407FEFDCF08958FEF8EBD0DB466
:1046500007FEFDCF8EB508950F931F93CF93DF9381
:104660008B010E949C21EB010E9425238F3F49F082
:104670000E949C216C1B7D0B06171707A8F780E092
:1046800001C081E0DF91CF911F910F910895CF93E9
:10469000DF93FC012381222361F0EC010180F28190
:1046A000E02D61E082810E9432218FEF0E94202361
:1046B0001B82DF91CF910895CF93DF93FC0123817B
:1046C000211110C0EC010180F281E02D90818181E7
:1046D0009CBD8DBDE981FA8160E082810E9432211A
:1046E00081E08B83DF91CF910895FF920F931F9309
:1046F000CF93DF9300D000D0CDB7DEB78C01F62E7C
:1047000029833A834B835C83FC018381811103C03D
:10471000C8010E945C23FF2029F06CE271E0C8010F
:104720000E942C238F2D80640E9420238C810E9464
:1047300020238B810E9420238A810E94202389814B
:104740000E942023FF2011F087E801C085E90E9424
:1047500020230E9425238BE0F82E0E942523F801B8
:10476000848387FF03C0FA94F110F7CF0F900F9066
:104770000F900F90DF91CF911F910F91FF900895AF
:104780000F931F93CF93DF93EC0189018D818330C9
:1047900039F089E0440F551F661F771F8A95D1F7BE
:1047A0009A01AB0168E1CE010E947523882311F0C4
:1047B00082E330C08EEF0E942023F80180818EBDFD
:1047C000818132961E5F0DB407FEFDCF8EBDE017CE
:1047D000F10711F08191F7CF0DB407FEFDCF8FEFF8
:1047E0000E9420238FEF0E9420230E9425238C8388
:1047F0008F71853031F087E58883CE010E94472391
:104800000AC060ED77E0CE010E942C23182F8111A1
:1048100007C08AE58883CE010E94472310E012C0BA
:1048200020E030E0A9016DE0CE010E9475238111E6
:1048300004C00E942523882311F089E2EBCFCE012A
:104840000E944723812FDF91CF911F910F910895EF
:10485000EF92FF920F931F93CF93DF93EC017901B7
:104860008D81833039F089E0440F551F661F771F13
:104870008A95D1F79A01AB0161E1CE010E947523BF
:10488000882319F080E3888338C00E949C218B0123
:104890000E9425238C838F3F49F40E949C21601B3A
:1048A000710B693E7340A0F385E503C08E3F31F084
:1048B00080E58883CE010E9447231FC08FEF8EBD05
:1048C000F701D701A150BE4F9FEF0DB407FEFDCFFA
:1048D0008EB59EBD8193EA17FB07B9F70DB407FEAD
:1048E000FDCF8EB58C931C820E9425230E94252328
:1048F000CE010E94472381E004C0CE010E944723DD
:1049000080E0DF91CF911F910F91FF90EF9008957C
:104910008F929F92AF92BF92CF92DF92EF92FF92CF
:104920000F931F936A017B014801590142305105E1
:104930006105710510F480E052C0FC01408D518D7D
:10494000628D738D4C155D056E057F05A0F3258185
:10495000203241F544895589668977899701860116
:10496000E7E03695279517950795EA95D1F7400F1B
:10497000511F621F731F23E080960E94D011009781
:10498000D1F2E894C7F8DD24EE24FF24CC0CDD1C22
:10499000CC0CDD1CFC01EC0DFD1D80829182A282FD
:1049A000B3821CC0203139F6FC01448955896689DF
:1049B00077894D0D511D611D711D23E080960E9468
:1049C000D011009709F4B7CFDD24EE24FF24CC0CDE
:1049D000DD1CFC01EC0DFD1D9182808281E01F91A8
:1049E0000F91FF90EF90DF90CF90BF90AF909F908E
:1049F0008F900895CF92DF92EF92FF920F931F93C3
:104A0000CF93DF93EC016A017B01890142305105AC
:104A10006105710510F48FEF63C0888D998DAA8DA3
:104A2000BB8D84179507A607B707A8F38D81803241
:104A300041F58C899D89AE89BF89E7E076956795B8
:104A400057954795EA95D1F7480F591F6A1F7B1F65
:104A500022E0CE0180960E94D0110097E1F2E89406
:104A6000C7F8DD24EE24FF24CC0CDD1CCC0CDD1CAF
:104A7000FC01EC0DFD1D80819181A281B381BF708D
:104A80001EC0803141F64C895D896E897F894D0D4C
:104A9000511D611D711D22E0CE0180960E94D01132
:104AA000009709F4B8CFDD24EE24FF24CC0CDD1CE4
:104AB000FC01EC0DFD1D80819181A0E0B0E0488DEE
:104AC000598D6A8D7B8D481759076A077B0738F027
:104AD000F80180839183A283B38381E001C080E0E9
:104AE000DF91CF911F910F91FF90EF90DF90CF90CA
:104AF00008952F923F924F925F926F927F928F9282
:104B00009F92AF92BF92CF92DF92EF92FF920F935C
:104B10001F93CF93DF9300D01F92CDB7DEB75C0118
:104B20008B01FA01C180D280DB019C91907709F45E
:104B3000EEC0D5018C918111EAC09081937009F487
:104B4000D7C0C6010C966DE070E00E94533F9924D7
:104B50009394960E7F0140E050E0BA01C8010E9494
:104B6000741219821B82812C1A821701B6E02B0E57
:104B7000311CF801408851886288738861E0C8015F
:104B80000E945314009709F4C2C0DC012C91253E09
:104B900039F0222309F4B8C0891408F4ACC008C065
:104BA000891440F48394222309F4B1C0253E11F006
:104BB0002E3211F41A82DDCFFC0133853F3009F02B
:104BC00059C03A81311109C026FFD3CF2F712B83F1
:104BD000258529833B813A8309C03B8131503B8342
:104BE0002313E8CF258539813213E4CF2B81422F5F
:104BF00050E0415051096DE0649F9001659F300D78
:104C000011242C153D05B0F6FC0170E0753018F448
:104C10008181928107C07B3018F48481958102C024
:104C2000868197812C153D0521F4892B09F4A1CFAC
:104C3000C1CF8F3F910511F008F0BCCF4FEB480F6B
:104C40004A3110F0682F02C060E2680FA9014F5F7F
:104C50005F4FD70113968D919C911497DC01A20FA1
:104C6000B31F8C919FEB980F9A3108F4805E681304
:104C7000A1CF43C033FD9ECF2A81222351F03B8137
:104C8000313009F044C00E941012298182133FC0C4
:104C90000CC04BE050E0B1010E94863F892B09F027
:104CA00068CFD7018C9180FD64CFB301A20185E06C
:104CB00076956795579547958A95D1F72A81B801DA
:104CC000C5010F900F900F90DF91CF911F910F9121
:104CD000FF90EF90DF90CF90BF90AF909F908F901C
:104CE0007F906F905F904F903F902F900C94922DFB
:104CF000992493942FCF812C5BCF7F5F32967D30A8
:104D000009F437CF9A0182CF891408F44BCF80E0A1
:104D10000F900F900F90DF91CF911F910F91FF9007
:104D2000EF90DF90CF90BF90AF909F908F907F904B
:104D30006F905F904F903F902F9008952F923F92E9
:104D40004F925F926F927F928F929F92AF92BF929B
:104D5000CF92DF92EF92FF920F931F93CF93DF9347
:104D6000CDB7DEB7E3970FB6F894DEBF0FBECDBF69
:104D70007C018A0119821A82FC01808181116BC138
:104D8000FB018081807709F466C1FA0180818F324E
:104D9000B9F48F0181918F32E1F3FB016681778154
:104DA000811104C0C7010E949E145AC1CE01019610
:104DB0000E949E14882309F44EC1BE016F5F7F4F8D
:104DC0006E01F2E3CF0ED11CD8010F5F1F4F8C9103
:104DD0008032D1F3BDA3ACA3FD019F012A1B3B0B85
:104DE00081918823D9F08F32C9F08C3509F433C111
:104DF000982F977F923209F42EC18A3309F42BC180
:104E0000982F9F7B9C3309F426C192EC980F923027
:104E100008F421C180528F3500F31DC1AD01420F4E
:104E2000531FCA018C01FC016190CF01F0E26F16A3
:104E3000C9F32FE26216B1F39A012A1B3B0B4A1702
:104E40005B0741F0FA018291AF018E32A9F3803203
:104E500099F303C01BAA1AAA07C03BAB2AAB2F3F8A
:104E6000310511F00CF0F7C08AA99BA99BA38AA376
:104E7000CE018796FC0120E22193CF01EC15FD05C0
:104E8000C9F7CD019C012A1B3B0BFC014191CF01CD
:104E90004E32C1F34032B1F381E02115310509F002
:104EA00080E04AA95BA94150510938F05D01A40E88
:104EB000B51EF50190819E32B1F77EA097E0892E54
:104EC000312C512C912CE8E04E2EEAA9FBA92E178B
:104ED0003F070CF07FC05D01A20EB31EF50190816B
:104EE000903209F465C09E3229F44217530709F045
:104EF0005FC004C09232E1F09C37D1F0F6EDBF2ED6
:104F0000B90EF5E0FB1510F09D3291F4E6ECBE2EE3
:104F1000B90EE5E0EB1560F4F5EABF2EB90EF2E04C
:104F2000FB1530F4EFEDBE2EB90EEDE5EB1520F4D8
:104F30002417350781F440C024173507E9F183149D
:104F400040F1B92EFFE9AF2EA90EF9E1FA1548F0AC
:104F5000905294280CC08314E0F080E09FE5EFE5C8
:104F6000BE2EEFEBBE0EF9E1FB1508F0542822240B
:104F70002394230CE7E2AE2EB12CAC0EBD1EA30C85
:104F8000B11CF5019083F6E0F215A0F0722C322CE2
:104F90001EC08AE0881609F460C0421753070CF45B
:104FA0005CC09A01FAE08F2E88E0382E90E1492EFD
:104FB00080E00DC0322C0BC0FAE08F1609F44DC012
:104FC0009A01FAE08F2E98E0392EE0E14E2E2F5F05
:104FD0003F4F7BCF7EA29FA19032E9F1882339F029
:104FE000592011F4892D01C082E089A314C081E009
:104FF00089A38EA190E0E7E2F0E0EC0FFD1FE80F3F
:10500000F91F2EE72083E8E2F0E0EC0FFD1FE80F28
:10501000F91F21E320836620B9F0AE014F5D5F4F99
:10502000C7010E9479258823B1F0F701DE011196AE
:1050300080E201900D928A95E1F7C7010E94B814B1
:10504000BE016F5F7F4FC0CEAE014F5D5F4FC701A6
:105050000E94792505C080E003C07EA280E0BBCF1E
:10506000E3960FB6F894DEBF0FBECDBFDF91CF91B0
:105070001F910F91FF90EF90DF90CF90BF90AF9076
:105080009F908F907F906F905F904F903F902F9068
:1050900008958F929F92AF92BF92CF92DF92EF923C
:1050A000FF92CF93C82F1092440581E090E0A0E0DA
:1050B000B0E08093470590934805A0934905B093CD
:1050C0004A058FE395E09093610580936005109207
:1050D0005F058FEF9FEFDC0180936205909363057E
:1050E000A0936405B0936505CC2331F1C53008F079
:1050F000DCC020E040E050E0BA018FE595E00E947E
:10510000D011009709F4D1C020E1C29F800D911DFC
:1051100011244097FC01E254FE4F20812F7709F0C3
:10512000C4C0389680809180A280B380811491049D
:10513000A104B10421F4B9C0812C912C540120E0C8
:10514000B501A4018FE595E00E94D011FC01892BE7
:1051500009F4ABC0838594858115924009F0A5C000
:105160008089823009F0A1C04685578541155105D7
:1051700009F49BC02585209341058FEF820F809312
:10518000420580E091E0291751F031E0380F3930C5
:1051900019F48093430589C0990F832FF4CF80932E
:1051A0004305C688D788C114D10419F0E12CF12C2D
:1051B00004C0C4A0D5A0E6A0F7A0C0924B05D09231
:1051C0004C05E0924D05F0924E05D501C401840FC7
:1051D000951FA11DB11D8093530590935405A09375
:1051E0005505B093560521893289309346052093A1
:1051F0004505CC0CDD1CEE1CFF1CC80ED91EEA1E9A
:10520000FB1EC0925B05D0925C05E0925D05F092BA
:105210005E0555E0220F331F5A95E1F721503E4FAE
:10522000232F33272695C20ED31EE11CF11CC092FA
:105230004F05D0925005E0925105F0925205238916
:1052400034892115310521F0C901A0E0B0E004C086
:1052500080A191A1A2A1B3A1B501A4014C195D093E
:105260006E097F09480F591F6A1F7B1F0090430575
:1052700004C076956795579547950A94D2F7DB0158
:10528000CA010196A11DB11D809357059093580541
:10529000A0935905B0935A05453F8FE05807610523
:1052A000710528F48CE08093440580E017C0453FE9
:1052B0005F4F6105710510F480E10DC084A595A5CF
:1052C000A6A5B7A580935B0590935C05A0935D05AB
:1052D000B0935E0580E28093440581E0CF91FF901A
:1052E000EF90DF90CF90BF90AF909F908F900895F8
:1052F00080914203811164C060913E0370913F032D
:1053000080914003909141030E94FD170197E1F5C0
:105310008091D6038093520480914E0490914F0463
:10532000A0915004B09151040197A109B109809353
:105330004E0490934F04A0935004B0935104892BD2
:105340008A2B8B2B49F580913E0390913F03A091CE
:105350004003B09141030197A109B10980933E0335
:1053600090933F03A0934003B093410380914C047A
:1053700090914D04892B21F481E080933D030895A1
:1053800085E080933B03089580914B04843021F0A5
:1053900081E080933503EACF80914E0490914F04D1
:1053A000A0915004B09151040197A105B10511F0ED
:1053B00088E002C080911A01809342031092DD03BD
:1053C000809100019091010196FF0DC0209152043F
:1053D00027FF05C0906290930101809300018091A6
:1053E000DD038E5F14C08091520487FF05C0809159
:1053F000490490914A0404C0809147049091480464
:1054000090930101809300018091DD038F5F809371
:10541000DD038091DD03823061F480915204880FB6
:1054200080935204809142038150809342031092F2
:10543000DD03089580914203811140C060913E03D5
:1054400070913F0380914003909141030E94FD17AA
:10545000019761F58091D6038093520480914E04A8
:1054600090914F04A0915004B09151040197A1096B
:10547000B10980934E0490934F04A0935004B093CD
:10548000510410925304892B8A2B8B2B91F481E0C9
:105490008093730180914C0490914D04892B11F4F9
:1054A00086E005C085E080933B0303C085E08093E0
:1054B0003D038BE0809342031092DD038091420311
:1054C000823029F480914604882309F47FC020911A
:1054D000420380914704909148042B3029F4909323
:1054E00001018093000129C020914203223099F4E8
:1054F00020914604217030915304321729F03091E5
:10550000490420914A0402C0382F292F309300010A
:105510002093010112C020914203213049F42091CF
:10552000490430914A04309301012093000105C0E1
:105530002091520420FDF3CFD2CF2091DD032F5FC5
:105540002093DD03209100013091010128173907D4
:10555000F9F49091DD0380910701981355C0809173
:105560004203823020F0809142038B3098F1809189
:1055700042038150809342031092DD0380917301B6
:10558000882309F441C080914203882359F108958A
:105590009091DD0380910601981336C080914203FB
:1055A000823020F0809142038B3000F180914203E1
:1055B0008150809342031092DD0380917301882310
:1055C00019F180914203882369F0089581E0809366
:1055D00042037DCF8091520490E09595879580930A
:1055E0005204C5CF85E080933D0308959091530404
:1055F00081E08927809353048091520490E095952F
:10560000879580935204D2CF089580EA90E09093DA
:105610000101809300018091090190910A01803B72
:1056200024E0920731F028E730E030930101209325
:1056300000012091DD03213061F4803B944019F496
:1056400082EA95E002C084EF91E09093010180939B
:1056500000018091DD03811117C08091520487FF02
:1056600002C083E101C089E08093DD038091520490
:10567000880F8093520480914203815080934203AB
:1056800010920101109200018091DD0381508093FE
:10569000DD03089580914203811125C060913E038E
:1056A00070913F0380914003909141030E94FD1748
:1056B000019751F48091D6038093520489E080933E
:1056C00042031092DD030FC081E080933503809187
:1056D0004C0490914D04909345048093440489E5D3
:1056E00080932F0308950C94052B80914204909190
:1056F00043049093010180930001809140049091B4
:10570000410401979093410480934004892B19F43C
:1057100085E080933D03089580913B03833071F1D0
:1057200028F4813049F08230E9F00895843081F125
:10573000853009F494C00895809142049091430407
:105740009093010180930001809140049091410465
:1057500001979093410480934004892B09F09FC0E6
:1057600082E009C080913E0490913F049093010132
:105770008093000183E080933B03089580913C0473
:1057800090913D04909301018093000184E0F3CF58
:1057900080914B049CEF980F923010F0811102C061
:1057A0000C94782980914203811132C0809170015C
:1057B000833149F480913B048093520482E08093CA
:1057C0004B0485E0D8CF8F5F809370018431D0F493
:1057D000E82FF0E0E05EFA4FE491E09352048D3060
:1057E00021F48DEF8093520404C08E3011F4109296
:1057F00052048091520490913B04892780933B048A
:1058000088E002C080911A01809342031092DD0368
:105810008091520487FF05C08091490490914A0409
:1058200004C08091470490914804909301018093B3
:1058300000018091DD038F5F8093DD038091DD03A4
:10584000823069F580915204880F809352048091D0
:1058500042038150809342031092DD03089520910A
:105860002F0380914C0490914D042E3F51F02B3F1B
:1058700041F0909345048093440489E580932F037D
:1058800007C09068909301018093000110923B0340
:1058900080913503813019F48FEF80932F030895A1
:1058A00020910A0590910905213208F04AC08091A3
:1058B000E6048111FCCF32E03093E60431E030930E
:1058C000E5043FEF3093E4041092E3042093E204F4
:1058D000A9EEB4E042EC54E0FA013E2F341B32173B
:1058E00018F43D913193F9CF1092C1042091C10475
:1058F000990F922B9093C1049091C004913061F460
:105900001092C0049091C1049093BB009091BC0090
:1059100093FDF8CF95EC01C095EE9093BC0090916B
:10592000E6049230E1F39091E4049F3F79F0809196
:10593000E404803241F08091E404803331F084E06B
:1059400005C081E003C082E001C083E01092E8045A
:1059500010920A051092E7040895682F8BE095E0F5
:105960000C94D8200F931F93CF93DF93CDB7DEB75E
:1059700061970FB6F894DEBF0FBECDBF9091BF0404
:105980008091BE049923A9F19EE39983DE011296CA
:1059900020E030E090E065E674E0FB01019000203B
:1059A000E9F73197E556F440A901480F591F4E1702
:1059B0005F0730F4FA01EB59FB4F40814C9301C073
:1059C0001C922F5F3F4F11962F30310531F7198A06
:1059D00062E070E0CE0101960E94281B61960FB62E
:1059E000F894DEBF0FBECDBFDF91CF911F910F9115
:1059F0000895DE01119620E030E090E045E654E0A5
:105A0000BC016A1B7B0BFA0101900020E9F731977A
:105A1000E556F4408B010A0F1B1F0E171F0740F4B9
:105A2000F901E80FF91FEB59FB4FE081EC9301C03E
:105A30001C922F5F3F4F11962031310521F7C7CFC0
:105A4000CF92DF92FF920F931F93CF93DF93EC01DE
:105A500090911F05911102C080E05CC0907621F00A
:105A60008FE28883198255C04091330550913405E7
:105A70006091350570913605809125059091260538
:105A800020E080960E94D011DC01892B29F320911F
:105A90002305309124052F70332785E0220F331F13
:105AA0008A95E1F740E050E078E090E08D01020F48
:105AB000131F045F1F4F6EE2F62EFA01E20FF31F71
:105AC0006F01CA0EDB1EF60180818032D1F04830B2
:105AD000510539F4BE01690F711DFB01F0829F5F12
