:100000000C94B9020C94E1020C94E1020C94E1020C
:100010000C94E1020C94E1020C94E1020C94E102D4
:100020000C94E1020C94E1020C94E1020C94E102C4
:100030000C94E1020C94231C0C94E1020C94E10258
:100040000C94B4110C94E1020C94E1020C94E102C2
:100050000C94E1020C94E1020C94E1020C94E10294
:100060000C94FE110C94E102E80CD40FE80C0D0D79
:10007000640EAC0E530DFB0D530E2E0D280E526563
:100080007365742E2E004E6F2053442043617264BA
:1000900000D3D3D3D3D3D3D3D3D3D3D0D0D0D0D012
:1000A000D0D0D0D0D0EAEAEAEAEAEAEAEAEAEA1FFD
:1000B000A6DEBACC137D742E636173002E7565665F
:1000C000002E6F002E70002E74617000506C6179EC
:1000D000696E67004E6F2046696C652053656C65DC
:1000E00063746564004F4E202A006F6666202A0004
:1000F000536B697020424C4B3A3241004F4E202ADC
:10010000006F6666202A00545358437A78706F6CEB
:100110005545465357004F4E202A006F6666202AE9
:10012000004D6F746F72204374726C003338353039
:10013000003336303000323430300031323030006D
:1001400042617564205261746500536B697020428E
:100150004C4B3A3241203F00545358437A78705503
:1001600045465357203F004D6F746F7220437472A1
:100170006C203F00426175642052617465203F002D
:100180004D656E7500504C4159696E6720005041B5
:100190005553454420200000506C6179696E6720FA
:1001A0002020202020005061757365642020004EBF
:1001B0006F7420545A5854617065005A58546170D5
:1001C00065214E6F74205545462046696C65005583
:1001D00045462046696C6521545A584455494E4F4E
:1001E0009D5041555345442A200000000000230043
:1001F0002600290000000008000201000003040797
:100200000000000000000000206279746573007631
:10021000312E3731204D61784475696E6F0053740B
:100220006F70706564002000000000000000000096
:100230005F5F5F005F5F5F00070703000707030062
:10024000367F7F367F7F3600242E6E7F3B3A12004A
:100250006373381C0E676300307E4F59377A48004D
:100260000000070703000000001C3E7F6341000000
:100270000041637F3E1C000049363E5D3E3649002A
:100280000018187E7E1818000000E0E060000000F2
:1002900000181818181818000000606060000000AE
:1002A0006070381C0E070300003C7E6B657F3E00CB
:1002B00000606C7F7F60600000737B69696F66001F
:1002C00000616165657F3A000F0F08687F7F6800F5
:1002D00000676765657D3900003E7F65657D390093
:1002E00000030371790F0700003A7F65657F3A00CC
:1002F00000666F69697F3E00000066666600000068
:100300000000E6E666000000081C3E77634100003E
:100310000036363636363600004163773E1C08001C
:1003200003035B595F0F06003E7F6169696F6E00D2
:100330007C7E7F0B097F7F007F7F7F696F7E380027
:100340003C7E7F63617373007F7F7F61637E3C00CF
:100350007C7E7F6B696363007C7E7F6B0903030097
:100360003C7E7F63697B7B007C7E7F08087F7F000B
:100370000042637F7F63210030786263637F3F00C8
:100380007C7E7F081C7763007C7E7F6060707000DD
:100390007C7E070C067F7F007C7E070E1C7F7F0023
:1003A0003C7E7F63617F3E007C7E7F69090F060093
:1003B0003C7E7F6361FFBE007C7E7F09097F760003
:1003C000646E6F6B6979310002637F7F63030100A4
:1003D0003C7E7F60607F7F003C7E7F703C0F03002F
:1003E0007C7E3F18307F7F004163361C1C366341A2
:1003F000646E6F68687F3F00436371796D67630067
:1004000000007F7F7F41000003070E1C38706000F2
:100410000000417F7F7F0000080C0E070E0C0800D3
:10042000808080808080800000000003070700003B
:10043000787C7C14147C78007E7E7E44447C38007A
:10044000387C7C44446C6C00387C7C44447E7E0266
:10045000387C7C54545C5800507C7E7E52020000F4
:1004600018BCBCA4A4FC7C007E7E7E0808787000CA
:1004700000087A7A7A40000040C088F8FA7A0000D2
:100480007E7E7E10386C440000027E7E7E4000003E
:100490007C7C0C180C7C78007C7C7C04047C7800D0
:1004A000387C7C44447C3800FCFCFC24243C180050
:1004B000183C3C2424FCFC007C7C7C04040C0800DC
:1004C000485C5C547474240000387C7E4820000032
:1004D0003C7C7C40407C7C003C7C7C60301C0C0084
:1004E0003C7C6030607C3C00446C7C387C6C44001C
:1004F0008C9CBCF0603C1C004C6C747C5C6C64009C
:100500000000083E7F7741000000007F7F00000070
:100510000041777F3E08000002030103020301004F
:100520000000035A58415946696C6520201A0B0097
:10053000C000806E00000000250028002B00000095
:100540000000240027002A00040404040404040416
:10055000020202020202030303030303010204086E
:10056000102040800102040810200102040810201D
:10057000883B11241FBECFEFD8E0DEBFCDBF11E016
:10058000A0E0B1E0EAE8FDE702C005900D92AA36CE
:10059000B107D9F727E0AAE6B1E001C01D92AA375A
:1005A000B207E1F712E0C9EBD2E004C02197FE01E7
:1005B0000E94873EC83BD107C9F70E941A2E0C94AF
:1005C000C33E0C940000CF92DF92EF92FF920F9304
:1005D0001F93CF93DF93CDB7DEB72B970FB6F89469
:1005E000DEBF0FBECDBF10920101109200018091BD
:1005F0003903811139C040E050E0BA0185E095E04F
:100600000E94621D882309F14AE050E0BE016F5F3D
:100610007F4F85E095E00E94261E47E050E06BEB9F
:1006200071E0CE0101960E94C33B892B71F060E01E
:1006300070E08FEA91E00E94DA176CE271E080E0EE
:1006400090E00E946E110E94C71B8AE090E0A0E03B
:10065000B0E080933A0390933B03A0933C03B093A4
:100660003D0381E08093390380913903843099F50B
:1006700040E050E0BA0185E095E00E94621D8823C9
:10068000D9F049E050E0BE016F5F7F4F85E095E013
:100690000E94261E49E050E06FEC71E0CE01019609
:1006A0000E94C33B892B41F061E070E082EC91E055
:1006B0000E94DA170E94C71B8CE090E0A0E0B0E037
:1006C00080933A0390933B03A0933C03B0933D0384
:1006D00085E08093390380913903853009F0B4C0F7
:1006E00060913A0370913B0380913C0390913D03EC
:1006F0000E94E127029709F07BC000914604109107
:1007000047041093CF030093CE0360913A03709196
:100710003B0380913C0390913D030E940422049787
:1007200009F066C08091290490912A04A0912B04BD
:10073000B0912C0480933D0490933E04A0933F0419
:10074000B0934004109235040430114009F053C0B6
:100750000397A109B10980933D0490933E04A093AF
:100760003F04B093400480913A0390913B03A091E1
:100770003C03B0913D03BC01CD016F5F7F4F8F4FB4
:100780009F4F60933A0370933B0380933C03909395
:100790003D030E9420280197B9F4809145048F34CD
:1007A00029F480910801811107C008C0853451F4F3
:1007B00080910801811102C082E001C081E0809334
:1007C000350402C01092350480913A0390913B03A6
:1007D000A0913C03B0913D030196A11DB11D8093F2
:1007E0003A0390933B03A0933C03B0933D0303C0B3
:1007F00082E00C94A20E8091090190910A01803B45
:10080000944049F480EA91E0909337048093360451
:1008100080ED90E008C08CE491E0909337048093E1
:10082000360486EA90E0909339048093380410925D
:100830006F0110923E0310922D0486E080933903DD
:10084000109237031092CD0300913903063009F05E
:100850000AC18091CE039091CF03803141E094078B
:10086000C1F048F4811501E0900781F08430914097
:1008700009F0DAC00BC0823121E0920709F495C07B
:10088000C0F18731914009F4B0C0CEC00E942B293D
:10089000EAC08091370381113AC060913A037091A8
:1008A0003B0380913C0390913D030E94E127029716
:1008B000E1F42091090130910A0180914604909160
:1008C0004704880F991F880F991F909330048093D5
:1008D0002F04203B344019F480ED90E002C08CE9F5
:1008E00090E0909332048093310481E08093370349
:1008F000BAC080913703882369F01091CD0311307D
:1009000071F1123009F444C0133009F0ACC00E94F8
:10091000862AA9C060913A0370913B0380913C0301
:1009200090913D030E94E127029791F48091460443
:1009300090914704880F991F880F991F9093300456
:1009400080932F0480ED90E09093320480933104E3
:1009500081E0809337038091CD038F5F16C00E94A2
:10096000862A80912F0490913004892B09F07BC056
:10097000009339038AEA8093410410936F018BE05E
:1009800080933E0310922D0482E08093CD036BC0D0
:10099000109235040E942B2980913E03811163C07F
:1009A00000933903109237035EC060913A0370914F
:1009B0003B0380913C0390913D030E94E127029705
:1009C00009F051C08091460490914704009709F4C2
:1009D00047C0880F991F9093340480933304906824
:1009E00090930101809300013BC060913A037091A4
:1009F0003B0380913C0390913D030E94E1270297C5
:100A000091F580914604909147048C32914029F4ED
:100A100088E08093070180E104C082E080930701B1
:100A200084E0809306011CC040913A0350913B033F
:100A300060913C0370913D0380913D0490913E0490
:100A4000A0913F04B0914004840F951FA61FB71FCB
:100A500080933A0390933B03A0933C03B0933D03F0
:100A600085E080933903809139038130D9F4609116
:100A70003A0370913B0380913C0390913D030E94A7
:100A80002028019719F48091450401C08FEF8093CD
:100A90002B0310923E0310922D0482E080933903C1
:100AA0001092370380913903823011F00C94D40FE7
:100AB00020912B032A3209F4BEC378F5253109F4BD
:100AC000DFC2A0F4223109F40DC240F4203109F450
:100AD0005AC0213109F40DC10C944A0F233109F495
:100AE00047C2243109F472C20C944A0F213209F42E
:100AF0000AC440F4293109F43CC3203209F485C307
:100B00000C944A0F243209F4B1C3253209F4D3C33B
:100B1000223211F00C944A0FF0C32B3409F46CC448
:100B2000F0F460913A0370913B0380913C03909103
:100B30003D03213309F4E5C340F42B3209F4CFC35C
:100B4000203309F4E8C30C944A0F233309F413C487
:100B500008F4F4C3253309F429C40C944A0F2C3F3C
:100B600009F443C348F4293511F40C94C70E2A3F05
:100B700009F421C70C944A0F2E3F09F472C608F4F9
:100B8000E0C60C94240F809137038111D7C662E030
:100B900087E00E94861681E30E94021680E30E948D
:100BA000021662E08EE00E94861630915503832F74
:100BB0006AE00E94533E911109C0832F0E94533E68
:100BC0000E94533E80E3890F0E94021662E08FE08C
:100BD0000E948616809155036AE00E94533E80E38E
:100BE000890F0E940216809155038F5F80935503F1
:100BF00060913A0370913B0380913C0390913D03D7
:100C00000E94E127029741F48091460490914704A5
:100C100090933C0480933B0460913A0370913B03B2
:100C200080913C0390913D030E94E127029779F463
:100C300080914604909147040196A0E0B0E0809333
:100C40003D0490933E04A0933F04B0934004609110
:100C50003A0370913B0380913C0390913D030E94C5
:100C60002028019701F580914504811103C08FE789
:100C70009FE102C087E99CE09093300480932F04A9
:100C800080913A0390913B03A0913C03B0913D03C6
:100C90000197A109B10980933A0390933B03A09374
:100CA0003C03B0933D038BE692E090933204809333
:100CB00031048FEB90E0909379078093780782ED71
:100CC00090E0909377078093760784EF90E090937D
:100CD00037048093360489EE91E090933904809331
:100CE000380481E08093370388E080931A010C94E4
:100CF000D40F80913703811121C662E087E00E9402
:100D0000861681E30E94021681E30E94021662E0C9
:100D10008EE00E948616809155032AE0622F0E9481
:100D2000533E911106C00E94533E80E3890F0E94FA
:100D3000021662E08FE00E948616809155036AE0F9
:100D40000E94533E80E3890F0E9402168091550352
:100D50008F5F8093550360913A0370913B038091BC
:100D60003C0390913D030E94E127029751F480914A
:100D70004604909147040E94ED15909332048093AD
:100D8000310460913A0370913B0380913C03909150
:100D90003D030E94E127029751F48091460490910F
:100DA00047040E94ED15909379078093780760912E
:100DB0003A0370913B0380913C0390913D030E9464
:100DC000E127029751F480914604909147040E94D4
:100DD000ED15909377078093760760913A037091B1
:100DE0003B0380913C0390913D030E94E1270297D1
:100DF00051F480914604909147040E94ED15909320
:100E000037048093360460913A0370913B038091DC
:100E10003C0390913D030E94E127029751F4809199
:100E20004604909147040E94ED15909339048093F5
:100E3000380460913A0370913B0380913C03909198
:100E40003D030E94E127029741F48091460490916E
:100E500047049093300480932F0460913A0370917B
:100E60003B0380913C0390913D030E942028019711
:100E700021F48091450480931A0160913A037091A6
:100E80003B0380913C0390913D030E94E127029730
:100E900041F4809146049091470490933C048093E0
:100EA0003B0460913A0370913B0380913C03909125
:100EB0003D030E949427039709F055C580912904AA
:100EC00090912A04A0912B04B0912C040196A11DAD
:100ED000B11D80933D0490933E04A0933F04B093D2
:100EE000400441C58091370381112CC060913A03C1
:100EF00070913B0380913C0390913D030E94E12758
:100F0000029751F480914604909147040E94ED1598
:100F1000909332048093310460913A0370913B03C3
:100F200080913C0390913D030E94E127029709F0D4
:100F30001AC58091460490914704909330048093A1
:100F40002F0411C5809131049091320490930101D6
:100F50008093000180912F04909130040197909329
:100F6000300480932F04892B09F4C7C10C94D40F4B
:100F70002091370360913A0370913B0380913C03C9
:100F800090913D0321110AC00E942028019709F089
:100F90003AC1809145048093CC0335C10E94E1277A
:100FA000029751F480914604909147040E94ED15F8
:100FB00090930101809300018091CC038150809334
:100FC000CC03882309F499C10C94D40F8091370382
:100FD000811152C060913A0370913B0380913C03B0
:100FE00090913D030E94E127029751F480914604BD
:100FF000909147040E94ED15909337048093360436
:1010000060913A0370913B0380913C0390913D03C2
:101010000E94E127029751F4809146049091470481
:101020000E94ED15909339048093380460913A033F
:1010300070913B0380913C0390913D030E942028D6
:10104000019721F48091450480931A0160913A033D
:1010500070913B0380913C0390913D030E94E127F6
:10106000029709F04BC080914604909147049093F9
:101070003C0480933B0442C0843009F0C6C176C072
:101080008091370381115BC060913A0370913B03FB
:1010900080913C0390913D030E94E127029751F417
:1010A00080914604909147040E94ED15909344046A
:1010B0008093430460913A0370913B0380913C0319
:1010C00090913D030E94E127029741F480914604EC
:1010D0009091470490933C0480933B0460913A03C1
:1010E00070913B0380913C0390913D030E94202826
:1010F000019721F48091450480931A0160913A038D
:1011000070913B0380913C0390913D030E94942792
:10111000039709F078C08091290490912A04A09146
:101120002B04B0912C040196A11DB11D80933D04A8
:1011300090933E04A0933F04B093400464C0853074
:1011400061F480913B0490913C049093340480932B
:10115000330489E580932B0327C780914304909142
:101160004404906490930101809300010E948928B7
:101170001BC780913703843009F41AC48530E9F124
:10118000811112C760913A0370913B0380913C0337
:1011900090913D030E94042260913A0370913B03B9
:1011A00080913C0390913D030E94E127029741F416
:1011B000809146049091470490933C0480933B04B3
:1011C00080913A0390913B03A0913C03B0913D0381
:1011D0008A5A9F4FAF4FBF4F80933A0390933B0380
:1011E000A0933C03B0933D03DCC680913703843069
:1011F00009F4DEC3853009F0D6C388EE93E89093F6
:1012000001018093000184E0CDC660913A037091A2
:101210003B0380913C0390913D030E94E12702979C
:1012200009F0C2C680914604909147040097D1F01E
:101230001092CB038ACF80913A0390913B03A09107
:101240003C03B0913D030496A11DB11D80933A0368
:1012500090933B03A0933C03B0933D0380915003D4
:1012600081114BC081E08093CB0373CF60913A032F
:1012700070913B0380913C0390913D030E94E127D4
:101280000297D9F580914604909147049093CA0340
:101290008093C90380913A0390913B03A0913C0352
:1012A000B0913D038093C5039093C603A093C703F9
:1012B000B093C80322C08091C9039091CA030197DB
:1012C0009093CA038093C903892BB9F08091C50319
:1012D0009091C603A091C703B091C80343C0AB016E
:1012E000BC014B5F5F4F6F4F7F4F40933A0350936A
:1012F0003B0360933C0370933D0381E0809339038B
:1013000053C60E94202860913A0370913B0380915C
:101310003C0390913D030E942028019771F7209192
:10132000450480913A0390913B03A0913C03B09116
:101330003D03820F911DA11DB11D14C00E94E12724
:101340000297D9F6209146043091470480913A03E0
:1013500090913B03A0913C03B0913D03820F931FFA
:10136000A11DB11D80933A0390933B03A0933C03CE
:10137000B0933D03C2CF0E942028019709F0BDCF52
:101380002091450430E0A3E0B0E00E94A83C009129
:101390003A0310913B0320913C0330913D03DC0163
:1013A000CB01800F911FA21FB31FDCCF605F7F4F67
:1013B0008F4F9F4F60933A0370933B0380933C039E
:1013C00090933D030E940422049709F096CF409128
:1013D0003A0350913B0360913C0370913D0380912F
:1013E000290490912A04A0912B04B0912C04840F1D
:1013F000951FA61FB71FB6CF80913703813009F420
:101400009DC138F0843009F4ACC1853009F499CE1F
:10141000CBC562E087E00E94861684E30E94021634
:1014200082E40E94021662E08EE00E94861680919D
:1014300055032AE0622F0E94533E911106C00E947C
:10144000533E80E3890F0E94021662E08FE00E9403
:101450008616809155036AE00E94533E80E3890F0F
:101460000E940216809155038F5F8093550360910F
:101470003A0370913B0380913C0390913D030E949D
:101480000422049799F48091290490912A04A09150
:101490002B04B0912C040C97A109B10980933D0451
:1014A00090933E04A0933F04B093400460913A03AC
:1014B00070913B0380913C0390913D030E94E12792
:1014C000029741F4809146049091470490933C0424
:1014D00080933B0480910801C0903A03D0903B0375
:1014E000E0903C03F0903D03811152C0C701B6016A
:1014F0000E94E127029751F480914604909147049D
:101500000E94ED15909332048093310460913A0368
:1015100070913B0380913C0390913D030E94E12731
:10152000029741F4809146049091470490933004CF
:1015300080932F0460913A0370913B0380913C03A8
:1015400090913D030E94E127029751F48091460457
:10155000909147040E94ED159093370480933604D0
:1015600060913A0370913B0380913C0390913D035D
:101570000E94E127029709F074C08091460490917F
:1015800047040E94ED15909339048093380469C094
:101590002091090130910A01C90160EB74E00E94B9
:1015A000733E48E853E1649FC001659F900D749FAE
:1015B000900D11249093300480932F0418E0C10EF5
:1015C000D11CE11CF11CC0923A03D0923B03E09283
:1015D0003C03F0923D03203649E0340729F184F4BE
:1015E000203B3440F1F580ED90E0909339048093F6
:1015F0003804909332048093310481EA91E02DC045
:1016000020310EE03007E9F02A303F4051F581E407
:1016100090E090933904809338049093320480933F
:10162000310482E890E019C088E690E09093390494
:1016300080933804909332048093310480ED90E0DD
:101640000CC085E490E09093390480933804909323
:101650003204809331048BE890E0909337048093B8
:10166000360460913A0370913B0380913C03909162
:101670003D030E9420280197C1F480914504282F42
:101680002F702093190190E0F4E095958795FA95D5
:10169000E1F780931801211103C020E12093190183
:1016A000892B19F480E18093180160913A037091BD
:1016B0003B0380913C0390913D030E9420280197B9
:1016C00009F051C120914504822F90E0AC01E5E082
:1016D00055954795EA95E1F741704093C403522F21
:1016E0005295569556955370442319F0309119012F
:1016F00002C030911801359F302D1124309317010D
:10170000AC01559547955595479541704093160105
:1017100073E0959587957A95E1F78370442319F0E6
:101720009091190102C090911801989F802D112469
:101730008093150121702093C30315C180912F045C
:10174000909130049C012150310930933004209352
:101750002F04892B09F457CD8091310490913204E4
:101760003AC380913E03882349F080913E038A303A
:10177000B9F4909117019111B2C312C080913E0348
:10178000811155C080913D0490913E04A0913F0489
:10179000B0914004892B8A2B8B2B09F0BEC347C024
:1017A00080913E03813009F492C380913E038A30D8
:1017B00029F480911701882309F4EFC38091410433
:1017C000282F30E08091C303882309F4D0C380918F
:1017D0003E0390E00297A90102C0559547958A956E
:1017E000E2F7242F217040FFC9C380913804909103
:1017F0003904909301018093000180912D048F5F43
:1018000080932D0490912D04222309F4BCC3809170
:101810001901981307C080913E03815080933E03C5
:1018200010922D0480913E03813009F4AFC3809162
:101830003D0490913E04A0913F04B0914004892B57
:101840008A2B8B2B09F0B0C380913E038111ACC36E
:1018500080913B0490913C04909334048093330432
:10186000A0C380913703811169C062E087E00E94C4
:10187000861686E40E94021685E40E94021662E043
:101880008EE00E94861630915503832F6AE00E94F5
:10189000533E911109C0832F0E94533E0E94533E34
:1018A00080E3890F0E94021662E08FE00E94861694
:1018B000809155036AE00E94533E80E3890F0E94A5
:1018C0000216809155038F5F8093550388EE93E055
:1018D00090933C0480933B0460913A0370913B03E6
:1018E00080913C0390913D030E94E127029779F497
:1018F00080914604909147040196A0E0B0E0809367
:101900003D0490933E04A0933F04B0934004609143
:101910003A0370913B0380913C0390913D030E94F8
:101920002028019709F0BFC980914504811103C0A7
:1019300080E89FE1A1C988E99CE09EC90E94F92C3A
:1019400033C380913703813081F028F0843081F1F6
:10195000853019F029C31092C20388EE93E8909362
:1019600001018093000181E01DC380913E0381113C
:1019700017C0E091C203F0E0E852FE4FE491E0931B
:1019800041048091C2038F5F8093C2038091C203A0
:101990008A3009F438CC89E080933E0310922D04FC
:1019A0000E94162A01C38111FFC21092C20325CCE6
:1019B0000E945B2AF9C2E09137038E2F90E08B30B2
:1019C000910508F0F1C2FC01EC5CFF4F0C94873EDE
:1019D00080913E03882319F00E94963AE5C26091F7
:1019E0003A0370913B0380913C0390913D030E9428
:1019F000202880914504809341048BE080933E032E
:101A00001092420410926F0180914104863109F4D2
:101A10002DC210923E0383E0C5C280913E03811126
:101A2000DBCF8091320390913303A0913403B091C6
:101A30003503181619061A061B0614F486E120C091
:101A400081E090E0A0E0B0E0809332039093330314
:101A5000A0933403B093350389E0A4C280913E0380
:101A60008111BACF8091320390913303A091340356
:101A7000B0913503181619061A061B0624F484E2E1
:101A800080934104F8C089E090E0A0E0B0E080934A
:101A9000320390933303A0933403B0933503109231
:101AA0006F0186E07FC280913E03811195CF8091C6
:101AB000320390913303A0913403B091350318168B
:101AC00019061A061B060CF094C060913A03709137
:101AD0003B0380913C0390913D030E94202880911C
:101AE0004504809341049BE090933E03109242048E
:101AF00010926F014091320350913303609134038F
:101B000070913503453051056105710541F490E050
:101B1000982F8827092E000CAA0BBB0B61C040919F
:101B20003203509133036091340370913503443094
:101B300051056105710599F490E00196092E000C9C
:101B4000AA0BBB0B40913D0450913E0460913F04B1
:101B500070914004840F951FA61FB71F41C040918C
:101B60003203509133036091340370913503433055
:101B7000510561057105B1F490E0982F8827092E71
:101B8000000CAA0BBB0B40913D0450913E046091A8
:101B90003F04709140048A019B01081B190B2A0B1A
:101BA0003B0B1CC0409132035091330360913403CE
:101BB00070913503423051056105710509F056C138
:101BC00040913D0450913E0460913F047091400467
:101BD0008A019B01081B110921093109D901C8019A
:101BE00080933D0490933E04A0933F04B09340043F
:101BF0003DC187E0D7C180913E038111EDCE609158
:101C00003A0370913B0380913C0390913D030E9405
:101C1000202880914504809341048BE080933E030B
:101C20001092420410926F01809141048111BCC155
:101C300081E090E0A0E0B0E0809332039093330322
:101C4000A0933403B093350310923E038AE0AAC1F7
:101C500080913E038111C0CE809132039091330375
:101C6000A0913403B0913503181619061A061B0605
:101C700054F4109241048BE080933E03109242048E
:101C800010926F01F3C084E690E0A0E0B0E0809392
:101C9000320390933303A0933403B093350310922F
:101CA0006F0188E07FC18091320390913303A0914E
:101CB0003403B0913503181619061A061B060CF0EA
:101CC000A2CA80ED90E0CEC080913E03811184CE07
:101CD00060913A0370913B0380913C0390913D03E6
:101CE0000E942028019709F58091450480934104C2
:101CF00080913D0490913E04A0913F04B091400436
:101D00000197A109B10980933D0490933E04A093EB
:101D10003F04B093400410924204892B8A2B8B2BF2
:101D2000A9F481E080936F0111C08FEF90E0A0E0F3
:101D3000B0E08093320390933303A0933403B093C5
:101D4000350381E0809339038FEF04CA8BE08093E1
:101D50003E0310922D0440CE8091320390913303C4
:101D6000A0913403B0913503892B8A2B8B2B09F07A
:101D700047C084E690E0A0E0B0E080933203909307
:101D80003303A0933403B093350382E00BC18091F9
:101D9000330490913404009719F1811510E29107F2
:101DA00068F02FEF3FE130930101209300018F5F36
:101DB0009F41909334048093330408C090930101B1
:101DC000809300011092340410923304809100013A
:101DD0009091010190689093010180930001E4C00B
:101DE0008091CB03882339F18091320390913303A2
:101DF000A0913403B0913503892B8A2B8B2B19F0DA
:101E000081E090E82FC081E08093B0038093390394
:101E100081EE91E00E94E02C8FEF90E0A0E0B0E036
:101E20008093320390933303A0933403B09335032C
:101E30001092CB03B9C081E08093390380913103C4
:101E4000813009F0B1C080CF80913203909133038B
:101E5000A0913403B0913503892B8A2B8B2BA1F1F0
:101E60008AE090EA9093010180930001809132030F
:101E700090913303A0913403B09135030197A109E8
:101E8000B1098093320390933303A0933403B0934A
:101E900035038AC060913A0370913B0380913C0303
:101EA00090913D0320E14AE953E00E940A3C61E041
:101EB00070E08AE993E00E94BA17F89480E10E94EA
:101EC00015110197D9F378940E94EC1B6DC0909185
:101ED0001501992309F469CC8091160102C0809103
:101EE000C403882329F0209138043091390404C0B8
:101EF0002091360430913704309301012093000182
:101F000080912D048F5F80932D0480912D0489137F
:101F10008ECC80913E03815025C060913A03709130
:101F20003B0380913C0390913D030E942028019740
:101F300009F00ACF80913D0490913E04A0913F04A6
:101F4000B09140040197A109B10980933D04909399
:101F50003E04A0933F04B0934004809145048093D5
:101F600041048AE080933E0310922D0460CC40919E
:101F70003E0389E090E0841B91092DCC80913604CA
:101F80009091370436CC8091180143CC8091150193
:101F900081114DCC10923E034ACC89E080933E03E0
:101FA0000DCC85E0809337032B960FB6F894DEBFF7
:101FB0000FBECDBFDF91CF911F910F91FF90EF909A
:101FC000DF90CF900895CF92DF92EF92FF920F9320
:101FD0001F93CF93DF936C017A018B01C0E0D0E0B7
:101FE000CE15DF0589F0D8016D918D01D601ED91F7
:101FF000FC910190F081E02DC6010995892B11F427
:102000007E0102C02196ECCFC701DF91CF911F91D5
:102010000F91FF90EF90DF90CF900895833081F083
:1020200028F4813099F08230A1F008958730A9F02A
:102030008830B9F08430D1F4809180008F7D03C066
:10204000809180008F7780938000089584B58F778A
:1020500002C084B58F7D84BD08958091B0008F77D4
:1020600003C08091B0008F7D8093B00008953FB78A
:10207000F89480911C0490911D04A0911E04B091CD
:102080001F0426B5A89B05C02F3F19F00196A11D7E
:10209000B11D3FBFBA2FA92F982F8827820F911DFE
:1020A000A11DB11DBC01CD0142E0660F771F881F45
:1020B000991F4A95D1F7089585ED8093BC008091D2
:1020C000BC0084FDFCCF1092CC0408954091F20333
:1020D000262F30E0240F311D21323105DCF4209110
:1020E000CC042430C9F4FC0180E090E0861758F459
:1020F0003091F2032191DC01A053BC4FA30FB11D1D
:102100002C930196F3CF8091F203680F6093F20352
:1021100080E0089581E0089582E00895089581E0C7
:1021200090E030916B0120916A01321710F480E049
:1021300090E0919581959109089580916B0190911E
:102140006A01891730F48F5F80936B0180E090E023
:1021500008958FEF9FEF089580916A0190E020919C
:102160006B01821B91090895CF92DF92EF92FF924B
:102170000F931F93CF93DF937C01262F972F8A0114
:102180008091CD04882391F0C62FD72F6E01C40E05
:10219000D51ECC15DD0571F06991D701ED91FC914B
:1021A0000190F081E02DC7010995F3CF642F822FB4
:1021B0000E946610C801DF91CF911F910F91FF908F
:1021C000EF90DF90CF900895CF93DF931F92CDB71C
:1021D000DEB769832091CD042223D1F02091F00451
:1021E000203240F021E030E0FC013383228380E0A4
:1021F00090E015C08091CE04E82FF0E0E153FB4F52
:10220000998190838F5F8093CE048093F00405C002
:1022100061E0CE0101960E94661081E090E00F908F
:10222000DF91CF9108950E948D3ECF93DF93282FA9
:1022300030E0F901EC50FE4F8491F901E45AFA4F75
:10224000D491F901E85BFA4FC491CC2391F081114C
:102250000E940E10EC2FF0E0EE0FFF1FE651FE4F34
:10226000A591B491EC91ED2381E090E021F480E020
:1022700002C080E090E0DF91CF9108951F93CF934B
:10228000DF93282F30E0F901EC50FE4F8491F901E3
:10229000E45AFA4FD491F901E85BFA4FC491CC2388
:1022A000C9F0162F81110E940E10EC2FF0E0EE0FF6
:1022B000FF1FEC5CFA4FA591B4918FB7F894111100
:1022C00005C09C91ED2FE095E92302C0EC91ED2B28
:1022D000EC938FBFDF91CF911F9108958F929F92C2
:1022E000AF92BF92CF92DF92EF92FF926B017C018F
:1022F0000E9437104B015C01C114D104E104F104C8
:10230000F1F00E943710DC01CB0188199909AA0964
:10231000BB09883E9340A105B10570F321E0C21AC4
:10232000D108E108F10888EE880E83E0981EA11C10
:10233000B11CC114D104E104F10419F7DDCFFF9001
:10234000EF90DF90CF90BF90AF909F908F900895C7
:102350002FB7F894609118047091190480911A04B1
:1023600090911B042FBF08951F920F920FB60F92EA
:1023700011242F933F938F939F93AF93BF9380919B
:10238000180490911904A0911A04B0911B04309183
:10239000170423E0230F2D3720F40196A11DB11D52
:1023A00005C026E8230F0296A11DB11D2093170436
:1023B0008093180490931904A0931A04B0931B04FB
:1023C00080911C0490911D04A0911E04B0911F04E3
:1023D0000196A11DB11D80931C0490931D04A09330
:1023E0001E04B0931F04BF91AF919F918F913F91B5
:1023F0002F910F900FBE0F901F9018951F920F9264
:102400000FB60F9211242F933F934F935F936F93C7
:102410007F938F939F93AF93BF93EF93FF9380919D
:10242000B900887F803609F49CC068F5883209F4C9
:102430005BC090F4803109F454C038F4882309F467
:10244000F6C0883009F44DC0F6C0883109F44CC09C
:10245000803209F45DC0EFC0803409F468C048F4EC
:10246000803309F455C0883309F0E5C08093CA046D
:10247000D8C0803509F44FC0883509F45DC0883470
:1024800009F0D9C0D6C0883909F4C7C0A8F4883784
:1024900009F467C038F4883609F463C0803709F45A
:1024A00060C0C9C0883809F4B8C0803909F45FC079
:1024B000803809F0C0C05BC0803B09F486C038F4A6
:1024C000803A09F466C0883A09F47FC0B4C0803C01
:1024D00009F4A7C0883C09F4A4C0883B09F48AC069
:1024E000AAC08091A70410C09091C9048091C8042B
:1024F000981770F5E091C90481E08E0F8093C904AC
:10250000F0E0E855FB4F80818093BB0085EC86C0EE
:102510008093CA048EC0E091C90481E08E0F80933D
:10252000C9048091BB00F0E0E855FB4F8083909197
:10253000C9048091C8046EC0E091C90481E08E0F87
:102540008093C9048091BB00F0E0E855FB4F808385
:102550008091CB0481116DC081E08093A60484EA50
:1025600061C083E08093CC0410921604CFCF809199
:102570001604803208F051C0E091160481E08E0FFD
:10258000809316048091BB00F0E0EA50FC4F8083FA
:10259000BDCF85EC8093BC001092CC0480911604D2
:1025A000803230F4E0911604F0E0EA50FC4F1082E3
:1025B0006091160470E0E091F403F091F50386EF6A
:1025C00093E009951092160436C084E08093CC0401
:1025D0001092F3031092F203E091F003F091F103F3
:1025E00009958091F203811105C081E08093F20387
:1025F0001092D003E091F30381E08E0F8093F303F8
:10260000F0E0E053FC4F80818093BB009091F30396
:102610008091F203981708F479CF85E88093BC0085
:102620000AC085EC8093BC001092CC0404C01092C8
:10263000CA040E945C10FF91EF91BF91AF919F91EE
:102640008F917F916F915F914F913F912F910F905B
:102650000FBE0F901F9018958EBD0DB407FEFDCFD5
:1026600008958FEF8EBD0DB407FEFDCF8EB5089592
:102670000F931F93CF93DF938B010E94A811EB015F
:102680000E9431138F3F49F00E94A8116C1B7D0BF3
:1026900006171707A8F780E001C081E0DF91CF910E
:1026A0001F910F910895CF93DF93FC012381222383
:1026B00061F0EC010180F281E02D61E082810E94F5
:1026C0003E118FEF0E942C131B82DF91CF91089552
:1026D000CF93DF93FC012381211110C0EC01018015
:1026E000F281E02D908181819CBD8DBDE981FA81CF
:1026F00060E082810E943E1181E08B83DF91CF9167
:102700000895FF920F931F93CF93DF9300D000D0D3
:10271000CDB7DEB78C01F62E29833A834B835C83D9
:10272000FC018381811103C0C8010E946813FF204E
:1027300029F06CE271E0C8010E9438138F2D80648B
:102740000E942C138C810E942C138B810E942C13CD
:102750008A810E942C1389810E942C13FF2011F082
:1027600087E801C085E90E942C130E9431138BE099
:10277000F82E0E943113F801848387FF03C0FA9476
:10278000F110F7CF0F900F900F900F90DF91CF9136
:102790001F910F91FF9008950F931F93CF93DF9395
:1027A000EC0189018D81833039F089E0440F551F98
:1027B000661F771F8A95D1F79A01AB0168E1CE01B8
:1027C0000E948113882311F082E330C08EEF0E94B3
:1027D0002C13F80180818EBD818132961E5F0DB46D
:1027E00007FEFDCF8EBDE017F10711F08191F7CF05
:1027F0000DB407FEFDCF8FEF0E942C138FEF0E94C8
:102800002C130E9431138C838F71853031F087E552
:102810008883CE010E9453130AC060ED77E0CE0199
:102820000E943813182F811107C08AE58883CE01D2
:102830000E94531310E012C020E030E0A9016DE0C7
:10284000CE010E948113811104C00E94311388239C
:1028500011F089E2EBCFCE010E945313812FDF915B
:10286000CF911F910F910895EF92FF920F931F93B5
:10287000CF93DF93EC0179018D81833039F089E0CA
:10288000440F551F661F771F8A95D1F79A01AB0138
:1028900061E1CE010E948113882319F080E38883CF
:1028A00038C00E94A8118B010E9431138C838F3F86
:1028B00049F40E94A811601B710B693E7340A0F39C
:1028C00085E503C08E3F31F080E58883CE010E940C
:1028D00053131FC08FEF8EBDF701D701A150BE4F1C
:1028E0009FEF0DB407FEFDCF8EB59EBD8193EA1715
:1028F000FB07B9F70DB407FEFDCF8EB58C931C8294
:102900000E9431130E943113CE010E94531381E0C3
:1029100004C0CE010E94531380E0DF91CF911F913C
:102920000F91FF90EF9008958F929F92AF92BF9278
:10293000CF92DF92EF92FF920F931F936A017B0178
:1029400048015901423051056105710510F480E0DC
:1029500052C0FC01408D518D628D738D4C155D050B
:102960006E057F05A0F32581203241F54489558904
:102970006689778997018601E7E03695279517954F
:102980000795EA95D1F7400F511F621F731F23E08F
:1029900080960E94BE1C0097D1F2E894C7F8DD240F
:1029A000EE24FF24CC0CDD1CCC0CDD1CFC01EC0D5A
:1029B000FD1D80829182A282B3821CC0203139F633
:1029C000FC0144895589668977894D0D511D611D2A
:1029D000711D23E080960E94BE1C009709F4B7CFBA
:1029E000DD24EE24FF24CC0CDD1CFC01EC0DFD1DD0
:1029F0009182808281E01F910F91FF90EF90DF9094
:102A0000CF90BF90AF909F908F900895CF92DF921C
:102A1000EF92FF920F931F93CF93DF93EC016A0124
:102A20007B018901423051056105710510F48FEF7A
:102A300063C0888D998DAA8DBB8D84179507A607D5
:102A4000B707A8F38D81803241F58C899D89AE89C5
:102A5000BF89E7E07695679557954795EA95D1F751
:102A6000480F591F6A1F7B1F22E0CE0180960E94EB
:102A7000BE1C0097E1F2E894C7F8DD24EE24FF24A1
:102A8000CC0CDD1CCC0CDD1CFC01EC0DFD1D808193
:102A90009181A281B381BF701EC0803141F64C8903
:102AA0005D896E897F894D0D511D611D711D22E06B
:102AB000CE0180960E94BE1C009709F4B8CFDD2499
:102AC000EE24FF24CC0CDD1CFC01EC0DFD1D8081EF
:102AD0009181A0E0B0E0488D598D6A8D7B8D4817BB
:102AE00059076A077B0738F0F80180839183A28336
:102AF000B38381E001C080E0DF91CF911F910F91FE
:102B0000FF90EF90DF90CF900895EF92FF921F9388
:102B1000CF93DF93FC01208120FF32C0EC017C01C8
:102B2000F7E0EF0EF11C4B815C816D817E81E981C4
:102B3000FA819701808191810E94CC13182F811115
:102B400002C010E01EC0888181FD04C088818E7F94
:102B5000888317C0E981FA81448555856685778524
:102B60008B819C81AD81BE81480F591F6A1F7B1FDD
:102B70009701808191810E94CC138111E7CFE1CF31
:102B800011E0812FDF91CF911F91FF90EF90089579
:102B9000089580E090E0089540E050E0BA0180910F
:102BA0004E0390914F030C94621D04960C944D209B
:102BB000CF93DF931F92CDB7DEB7698341E050E03A
:102BC000BE016F5F7F4F04960E944D200F90DF91F2
:102BD000CF91089504960C94111DBC0180E090E003
:102BE0000E94C53D20E030E040E650E40E94243DD4
:102BF00020E030E040E05FE30E94B83C0E94963D58
:102C0000CB0108950F931F93CF93DF93C82F81E0DB
:102C10008093CD048CE38093EF041092CE04109245
:102C2000F00460E481EF94E00E94E41088E0C89F23
:102C3000E001112400E010E0DA95FE01E00FF11F41
:102C4000E85DFD4F649181EF94E00E94E4100F5F16
:102C50001F4F0830110589F7DF91CF911F910F9118
:102C60000C949D2ACF93C82F81E08093CD048CE3F0
:102C70008093EF041092CE041092F00460E481EF90
:102C800094E00E94E4106C2F81EF94E00E94E41025
:102C9000CF910C949D2A0F931F93CF93DF93EC0158
:102CA00088818823A9F000E010E08881F80198E08D
:102CB000899FE00DF11D1124E85DFE4F84910E9473
:102CC00032160F5F1F4F0830110579F72196E8CFB4
:102CD000DF91CF911F910F910895CF93C82F81E07D
:102CE0008093CD048CE38093EF041092CE04109275
:102CF000F00460E881EF94E00E94E4106C2F81EF13
:102D000094E00E94E410CF910C949D2ACF93C82F99
:102D100080EB860F0E946D168C2F880F880F880F0E
:102D200088708E5F0E946D1628E0C29FC00111243A
:102D300024E0959587952A95E1F78F70805FCF9174
:102D40000C946D160F931F93CF93DF931F92CDB703
:102D5000DEB720913A0330913B0340913C03509100
:102D60003D03A4E6B0E00E947B3C20912504309115
:102D7000260440912704509128040E94863C022F8B
:102D8000122F2093240480911001843611F41092A4
:102D9000100160E088E01A3038F40E948616812F16
:102DA0006AE00E94533E0DC0143670F40E948616ED
:102DB000812F6AE00E94533E805D99830E94021633
:102DC000998180E3890F09C00E94861681E30E94E1
:102DD000021680E30E94021680E30E94021685E23A
:102DE0000E940216009310010F90DF91CF911F9166
:102DF0000F9108950F931F93CF93DF930E94A81113
:102E00000091200410912104209122043091230488
:102E1000DC01CB01801B910BA20BB30B893E9340CD
:102E2000A105B10508F46AC00E94A81160932004AE
:102E300070932104809322049093230420913F03F4
:102E4000309140030AE010E0C901B8010E945F3EE2
:102E5000892B69F060E08FE00E94861680913F0325
:102E600090914003B8010E945F3E805D3CC0C4E683
:102E7000D0E0C901BE010E945F3E892B89F060E06D
:102E80008EE00E94861680913F0390914003BE0120
:102E90000E945F3EB8010E945F3E80E3860F20C023
:102EA00008EE13E0C901B8010E945F3E60E0892B83
:102EB00081F08DE00E94861680913F03909140033F
:102EC000B8010E945F3EBE010E945F3E80E3860F14
:102ED00004C08DE00E94861680E30E94021680E303
:102EE0000E94021680E30E94021680913F03909197
:102EF000400301969093400380933F03DF91CF916D
:102F00001F910F91089562E084E00E94861681E48B
:102F100091E00E944B1663E080E00E9486164AE032
:102F200060E273E08091090190910A010E94FF3BE9
:102F300080E293E00E944B1663E085E00E948616D3
:102F400080911301813019F48CE491E002C082E594
:102F500091E00E944B1663E08BE00E948616809100
:102F60000801813019F488E591E002C08EE591E016
:102F70000C944B160F931F93CF93DF93EC0180E0DB
:102F80000E948616FE0101900020E9F731971E2F5E
:102F90001C1B00E0011714F4888101C080E20E942C
:102FA00002160F5F21960031A9F7DF91CF911F9193
:102FB0000F9108950F931F93CF938C0180E00E948F
:102FC0008616C0E0F801EC0FF11DC7FDFA9584915B
:102FD000882321F00E940216CF5FF4CFC0312CF479
:102FE00080E20E940216CF5FF9CFCF911F910F911F
:102FF00008950F931F93CF93DF9310923A0310928B
:103000003B0310923C0310923D0380912B038E3FB3
:1030100061F08AE090E0A0E0B0E080933A03909302
:103020003B03A0933C03B0933D03C1E0D0E080910B
:10303000550390E08C179D070CF4B0C160913A03E2
:1030400070913B0380913C0390913D030E942028A6
:103050000197D9F480912B038E3F21F08091450494
:1030600080932B0380912B038E3F99F480913A0338
:1030700090913B03A0913C03B0913D03BC01CD0175
:1030800061507109810991094EC0C150C093550327
:1030900085C1813209F4CDC038F5833109F45BC0B4
:1030A000B8F4813109F448C008F0ABC0803109F0B0
:1030B00073C180913A0390913B03A0913C03B0917E
:1030C0003D03BC01CD016E5F7F4F8F4F9F4F2BC0E3
:1030D000853109F46EC008F45DC0893109F434C14A
:1030E000803209F482C058C1813309F4ABC078F44E
:1030F0008A3209F486C020F4843209F476C04CC1C7
:103100008B3209F48AC0803309F493C045C18333FC
:1031100009F4E0C008F4C0C0853309F4FEC08B3464
:1031200009F412C139C160933A0370933B03809351
:103130003C0390933D03B8C080913A0390913B03C8
:10314000A0913C03B0913D03BC01CD01615F7F4F75
:103150008F4F9F4F3CC060913A0370913B03809129
:103160003C0390913D030E942028019709F014C16F
:103170008091450490E0A0E0B0E0880F991FAA1F5D
:10318000BB1F40913A0350913B0360913C03709107
:103190003D03F6C080913A0390913B03A0913C031C
:1031A000B0913D03BC01CD01695F7F4F8F4F9F4FB1
:1031B0000EC080913A0390913B03A0913C03B091E3
:1031C0003D03BC01CD016B5F7F4F8F4F9F4F6093DD
:1031D0003A0370933B0380933C0390933D030E941A
:1031E0009427039709F0D8C0BBC080913A0390910F
:1031F0003B03A0913C03B0913D030296A11DB11D7C
:10320000C3C080913A0390913B03A0913C03B091DD
:103210003D030496A11DB11DB7C080913A03909162
:103220003B03A0913C03B0913D030596A11DB11D48
:10323000ABC060913A0370913B0380913C03909145
:103240003D0316C080913A0390913B03A0913C034B
:10325000B0913D03BC01CD016F5F7F4F8F4F9F4FFA
:1032600060933A0370933B0380933C0390933D0338
:103270000E942028019709F08FC020914504809179
:103280003A0390913B03A0913C03B0913D03820F20
:10329000911DA11DB11D78C060913A0370913B034F
:1032A00080913C0390913D030E94E127029709F031
:1032B00073C0209146043091470480913A03909165
:1032C0003B03A0913C03B0913D03820F931FA11DCE
:1032D000B11D5AC060913A0370913B0380913C0349
:1032E00090913D030E942028019709F055C020913C
:1032F000450430E0A3E0B0E00E94A83C00913A030E
:1033000010913B0320913C0330913D03DC01CB0144
:10331000800F911FA21FB31F37C080913A03909175
:103320003B03A0913C03B0913D03BC01CD01605F24
:103330007F4F8F4F9F4F60933A0370933B0380936F
:103340003C0390933D0308C060913A0370913B03A6
:1033500080913C0390913D030E9404220497E1F484
:1033600040913A0350913B0360913C0370913D03BF
:103370008091290490912A04A0912B04B0912C04EF
:10338000840F951FA61FB71F80933A0390933B03AA
:10339000A0933C03B0933D03219649CE80912B032B
:1033A0008E3F99F081E08093390360913A037091E8
:1033B0003B0380913C0390913D030E94202801979C
:1033C00039F48091450480932B0382E08093390384
:1033D00060E070E086E292E00E94DA1760E080E050
:1033E0000E94861687E491E00E944B168091550357
:1033F0004AE060E273E090E00E943B3C80E293E0B0
:103400000E944B1684E691E00E944B1680912B039C
:10341000982F92959F70803A10F4905D01C0995C4E
:10342000909320038F708A3010F4805D01C0895C16
:10343000809321031092220380E293E00E944B16B6
:1034400084E6809310011092400310923F03109283
:103450003E0310922D0480913803811112C0109206
:10346000370381E08093300380E49FE190932F0342
:1034700080932E03909387008093860081E1809350
:103480008100DF91CF911F910F9108950E94CC157B
:10349000109254031092530380914E0390914F0366
:1034A0000E945D2C882371F085E095E00E94A61FA4
:1034B0008091530390915403019690935403809309
:1034C0005303EACF80915303909154039093520396
:1034D000809351030895CF92DF92EF92FF920F9362
:1034E0001F93CF93DF93CDB7DEB7A0970FB6F894B5
:1034F000DEBF0FBECDBF7C0180915603813031F01D
:10350000EA94EF28B9F40E94CC1514C00E94CC159F
:1035100001E010E00E151F059CF780914E0390917D
:103520004F030E945D2C85E095E00E94A61F0F5F6F
:103530001F4FF0CF80914E0390914F030E945D2C5E
:1035400019821A8280910505811103C010924B04E3
:1035500008C080910805811174C08BE494E00E943A
:10356000682B81E493E00E94682B80911D05909167
:103570001E05A0911F05B09120058093250490930E
:103580002604A0932704B093280480910505807732
:1035900009F0F9C06AE371E081E493E00E94B33E70
:1035A000892B09F4F0C01092A50485E095E00E94F3
:1035B000A61F10929A038091A5048130B1F48091E6
:1035C0009903882379F090E0019726E1289FB001C4
:1035D000299F700D1124695A7C4F8AE993E00E945B
:1035E000BC3E16C06FE072E00FC060912504709180
:1035F000260480912704909128042AE04AE953E0A8
:103600000E940A3C68E072E08AE993E00E94D03BA5
:1036100060E070E08AE993E00E94BA171092A40477
:103620000E94FA2AA0960FB6F894DEBF0FBECDBF57
:10363000DF91CF911F910F91FF90EF90DF90CF908E
:10364000089580910D0590910E05A0910F05B09100
:10365000100560910B0570910C058E010F5F1F4FD7
:103660000097A105B10539F4C8010E948C1F882379
:1036700009F46CCF0FC020E2F80111922A95E9F706
:1036800020E1298321E02B8378876F838D8F9E8FA4
:10369000AF8FB8A3CC24C3949DE0D92E80910805A8
:1036A0008C1508F453CFEC2CF12C40910905509166
:1036B0000A054E195F0960E070E085E0440F551F70
:1036C000661F771F8A95D1F7C8010E94621D882363
:1036D00009F43CCF60E0C8010E94411FFC01892B26
:1036E00009F434CF83858F3009F030CF80818F711A
:1036F00090E0E816F90609F029CF81E0E81AF10810
:10370000DE9C9001DF9C300D1124B901655B7B4F7D
:103710007F0180E0D701853028F411964D915C91AE
:1037200012970BC08B3028F414964D915C9115972D
:1037300004C016964D915C9117974115510591F073
:1037400028353105C8F42F5F3F4F4F37510508F03A
:103750004FE3DB014D93BD018F5FB2E0EB0EF11C37
:103760008D30C1F62835310538F4808186FF04C0DC
:10377000D901A55BBB4F1C921092A204808186FDEB
:10378000F0CEC3948BCF81E08093A5040ECFCF936E
:1037900080E180938100C1E0C09336031092B103B1
:1037A00085E095E00E94A61FC093560380910E010C
:1037B00090910F010E946B1A10923A0310923B03F2
:1037C00010923C0310923D031092750710923A0438
:1037D00010923803CF9108950E94C71B8091B103C6
:1037E000813041F460E070E08EE192E00E94DA17EF
:1037F0001092B10308951F93CF93DF93182FC4E065
:10380000D0E0812F0E941511892B49F4219739F0BE
:1038100062E370E080E090E00E946E11F2CFDF91F1
:10382000CF911F910895CF93C82F8C2F0E9415110F
:10383000892B39F462E370E080E090E00E946E1121
:10384000F4CFCF9108951F920F920FB60F921124CB
:103850002F933F934F935F936F937F938F939F9398
:10386000AF93BF93EF93FF93E0912C03F0912D035F
:103870000995FF91EF91BF91AF919F918F917F91AA
:103880006F915F914F913F912F910F900FBE0F90CD
:103890001F90189580913603811169C020912E04E4
:1038A00080917B0190E0820F911D820F911DFC01A0
:1038B000E458FE4F8081813099F028F0823081F504
:1038C00080911F0328C090912D0420912D04809198
:1038D0001F03213001F19923F1F081111EC01FC097
:1038E00090912D0420912D0480911F03223011F01E
:1038F000911103C0811103C004C0811102C0299A33
:1039000001C0299880911E03813051F480912D04CB
:10391000813031F42EC0811102C0299801C0299A4A
:1039200080912D048F5F80932D0480912D0484302D
:1039300021F510922D0480912E048F5F80932E0428
:1039400020912E0430E040911E0380ED90E0841B16
:103950009109821793078CF410922E0480917B01B9
:1039600091E0892780937B01909303010895299822
:10397000089583E080932D04D3CF0895CF92DF92F2
:10398000EF92FF921F93CF93DF93EC016A017B01CB
:10399000122F8B819C81AD81BE8184179507A6076C
:1039A000B707F1F0CE010E948515811103C080E0B8
:1039B00090E01CC012FF06C01882CB82DC82ED8230
:1039C000FE820EC0E981FA819E01295F3F4FB70157
:1039D000A601808191810E9434148111EDCFE7CF3F
:1039E00013708881182B1883CE010796DF91CF9131
:1039F0001F91FF90EF90DF90CF900895FC01AC01F4
:103A0000455F5F4F80E090E8899F90011124982FD7
:103A10009695922B2191892F820FE417F50799F73C
:103A20000895CF93DF93FC012081211102C081E032
:103A300046C0EC01828182FF3AC04489558966897B
:103A400077898681978121E080960E94BE1C00972D
:103A500029F489818160898380E031C0EC81FD8116
:103A6000EF70FF2725E0EE0FFF1F2A95E1F7DC013D
:103A7000AE0FBF1F2C91253E61F3288123FF0AC0A2
:103A8000488D598D6A8D7B8D5C964D935D936D93BA
:103A90007C935F974C8D5D8D6E8D7F8DE80FF91F48
:103AA000538F428F758B648B8A818B7F8A838E8143
:103AB0009F8180960E948515882359F2B8CFDF91A7
:103AC000CF9108954F925F926F927F928F929F92C3
:103AD000AF92BF92CF92DF92EF92FF920F931F931C
:103AE000CF93DF93EC014A015B014C845D846E84CB
:103AF0007F84A881AA2309F491C0488959896A89D9
:103B00007B8984169506A606B70609F48DC0811434
:103B10009104A104B10429F41C861D861E861F860B
:103B200078C0A3FF0BC0088D198D2A8D3B8D081519
:103B300019052A053B0508F471C014C0A5FF12C081
:103B4000EE81FF818681978125E0880F991F2A9554
:103B5000E1F7A0E0B0E088159905AA05BB0508F4D7
:103B60005DC057C0EE81FF81848190E009968A0193
:103B70009B010150110921093109082E04C0369515
:103B80002795179507950A94D2F775016401B1E05E
:103B9000CB1AD108E108F10804C0F694E794D79451
:103BA000C7948A95D2F7C016D106E206F30620F034
:103BB000452B462B472B81F4A6FF05C0848D958DA0
:103BC000A68DB78D04C08C8D9D8DAE8DBF8D8C87DD
:103BD0009D87AE87BF8704C0C01AD10AE20AF30AE4
:103BE0008E01045F1F4FC114D104E104F10489F078
:103BF0004C855D856E857F8598018E819F810E94B1
:103C0000061591E0C91AD108E108F10818165CF30D
:103C100005C0888A998AAA8ABB8A06C04C865D86B6
:103C20006E867F8680E001C081E0DF91CF911F9199
:103C30000F91FF90EF90DF90CF90BF90AF909F904B
:103C40008F907F906F905F904F9008954F925F920A
:103C50006F927F928F929F92AF92BF92CF92DF929C
:103C6000EF92FF920F931F93CF93DF93EC014B01E1
:103C70008A0188818823D9F09A8190FF18C01DC0DD
:103C8000D380D422A114B10409F081C0D1107FC027
:103C9000892B8A2B8B2B09F464C04C855D856E853E
:103CA0007F859201CF010E94061587FF6AC0898136
:103CB000826089838FEF9FEFD3C083FF15C0888D0B
:103CC000998DAA8DBB8D488959896A897B89841B06
:103CD000950BA60BB70BA80160E070E048175907D9
:103CE0006A077B07A0F012C085FF11C0EE81FF813B
:103CF0008681978155E0880F991F5A95E1F72889A9
:103D00003989821B930B8017910708F48C01780185
:103D10002E012CE0420E511C612C42E0742EE11465
:103D2000F10409F465C088899989AA89BB895C0175
:103D300021E0B2222881EE81FF81AC01BD0139E092
:103D400076956795579547953A95D1F725FF98CF82
:103D5000848D958DA68DB78D480F591F6A1F7B1FC7
:103D600034C026FF05C0848D958DA68DB78D04C007
:103D70008C8D9D8DAE8DBF8D8C879D87AE87BF87C7
:103D800006C0811104C08881807791F590CFEE81C3
:103D9000FF814C855D856E857F85425051096109A3
:103DA0007109048004C0440F551F661F771F0A94D1
:103DB000D2F780899189A289B389480F591F6A1F58
:103DC0007B1F4D0D511D611D711DEE81FF81A114E1
:103DD000B10471F5E11482E0F80650F183A194A1D9
:103DE000A5A1B6A1481759076A077B0729F420C087
:103DF000C8018E199F0934C09401808191810E946D
:103E00003414882309F453CFC12C82E0D82E8C0CB3
:103E10009D1C88899989AA89BB898C0D9D1DA11D2E
:103E2000B11D888B998BAA8BBB8BEC18FD0877CFC3
:103E3000C3018A199B0967018E159F0508F46C015F
:103E400020E0CF0180960E94BE1C009709F42FCF7E
:103E5000BC016A0D7B1DA601C4010E949F3ED7CF05
:103E6000DF91CF911F910F91FF90EF90DF90CF9056
:103E7000BF90AF909F908F907F906F905F904F908A
:103E80000895FF920F931F93CF93DF931F92CDB7A7
:103E9000DEB78C01FC0180899189A289B3899C01DC
:103EA000AD0175E056954795379527957A95D1F7E9
:103EB000F22FFF70FF2E11F0611116C041E050E0AB
:103EC000BE016F5F7F4FC8010E94261E813019F02E
:103ED00080E090E01AC0F80180899189A289B389B5
:103EE0004F96A11DB11D04C08096A11DB11DF80102
:103EF000808B918BA28BB38BF801868197818796FB
:103F0000F0E2FF9E800D911D11240F90DF91CF9163
:103F10001F910F91FF900895FC018081811114C0C1
:103F200080E2DF01982F1D929A95E9F777836683E7
:103F3000DB0115969C91903119F0903229F480E4C0
:103F4000808381E08283089580E00895CF93DF939A
:103F5000EC010E94111D1882DF91CF9108953F92CC
:103F60004F925F926F927F928F929F92AF92BF9289
:103F7000CF92DF92EF92FF920F931F93CF93DF9335
:103F800000D000D0CDB7DEB74C01FC018281846047
:103F900082834484558466847784A680B780F50143
:103FA000C084D184E284F384C414D504E604F70405
:103FB000C0F47301620110E0FFEFCF1ADF0AEF0ACD
:103FC000FF0AF501808D918DA28DB38D8C159D0515
:103FD000AE05BF0540F4111132C0C084D184E28423
:103FE000F38411E0E9CFC414D504E604F70439F1F1
:103FF0009E012F5F3F4FB701A601C5010E94061524
:1040000087FD1DC08823C1F289819A81AB81BC8163
:10401000892B8A2B8B2B81F6112329F0F501C08681
:10402000D186E286F3860FEF1FEF2FEF3FE0B70157
:10403000A601C5010E949414382E811102C0312CB2
:1040400015C0411451046104710431F4F401C486B3
:10405000D586E686F7860AC097018601B301A201DC
:10406000C5010E9494148111F1CFE9CF832D0F90E7
:104070000F900F900F90DF91CF911F910F91FF90B4
:10408000EF90DF90CF90BF90AF909F908F907F90F8
:104090006F905F904F903F9008952F923F924F9274
:1040A0005F926F927F928F929F92AF92BF92CF92C8
:1040B000DF92EF92FF920F931F93CF93DF93EC0168
:1040C0005B014A01888183FF0EC08A8181FF0BC09A
:1040D00083FF0FC0488D598D6A8D7B8DCE010E9464
:1040E000621D811106C08981816089838FEF9FEFF6
:1040F00008C1A40160E070E088899989AA89BB8918
:1041000080959095A095B09584179507A607B70759
:1041100050F364011E018CE0280E311C08891989B6
:104120002A893B89C114D10409F4D0C08E819F81B2
:10413000B901A80129E076956795579547952A9585
:10414000D1F7DC011396FC90F4221170F11034C009
:104150000115110589F54C855D856E857F854115B5
:1041600051056105710569F091010E94061587FDF1
:10417000BACF811121C0CE010E94AF1F81111CC096
:10418000B2CF8C8D9D8DAE8DBF8D0097A105B105F1
:1041900079F4CE010E94AF1F882309F4A4CF8C8547
:1041A0009D85AE85BF858C8F9D8FAE8FBF8F04C0E0
:1041B0008C879D87AE87BF87EE81FF814C855D85AB
:1041C0006E857F854250510961097109048004C0E0
:1041D000440F551F661F771F0A94D2F78089918973
:1041E000A289B389480F591F6A1F7B1F4F0D511DAC
:1041F000611D711D0115110521F4C114B2E0DB062A
:10420000B0F580E092E0801B910B76018C159D0546
:1042100008F47C010115110579F4488859886A88E9
:104220007B88888D998DAA8DBB8D481659066A06A4
:104230007B0610F025E001C021E0CF0180960E94AE
:10424000BE1C009709F44FCFA701B501800F911F45
:104250000E949F3E0E0D1F1D0115124031F58E81EB
:104260009F8180960E94851581111FC03CCF83A13C
:1042700094A1A5A1B6A184179507A607B70741F495
:1042800010A28FEF9FEFDC0183A394A3A5A3B6A395
:10429000EE81FF819501808191810E94CC1388235A
:1042A00009F421CFE12C82E0F82E88899989AA8926
:1042B000BB898E0D9F1DA11DB11D888B998BAA8B6B
:1042C000BB8BAE0CBF1CCE18DF0828CF888D998D14
:1042D000AA8DBB8D80179107A207B30738F4088F0A
:1042E000198F2A8F3B8F8A8184608A838A8187FD18
:1042F00002C0C40106C0CE010E94111D8111F9CF78
:10430000F2CEDF91CF911F910F91FF90EF90DF9050
:10431000CF90BF90AF909F908F907F906F905F9065
:104320004F903F902F900895CF93DF93EB010E9421
:10433000653C8883CE01DF91CF9108958EE00E9485
:104340001511892B79F08FE00E941511892B51F0FE
:1043500081E10E941511892B29F080E10E9415113D
:10436000892B31F462E370E080E090E00C946E11F0
:1043700010920B01F7CFCF93C82F85E095E00E94F4
:10438000621D882349F04C2F50E060E273E085E025
:1043900095E0CF910C94261E80E090E0CF91089597
:1043A000E0E7F1E082E0819391E0EB37F907D9F79C
:1043B000089590911E03913089F4E0E7F1E080FFC9
:1043C00002C0908301C010828695319621E0E837C3
:1043D000F207A9F782E08093780111C01092700172
:1043E000E1E7F1E091E080FF02C0908301C010821C
:1043F0008695319621E0E937F207A9F781E08093AD
:10440000790180937A0108950F931F93CF93DF93DF
:1044100000D000D0CDB7DEB7AB01BC0185E095E0A0
:104420000E94621D882309F144E050E0BE016F5FE5
:104430007F4F85E095E00E94261E84309105B9F4F7
:1044400040913A0350913B0360913C0370913D03CE
:104450004C5F5F4F6F4F7F4F40933A0350933B0346
:1044600060933C0370933D0302C080E090E04C8178
:1044700050E0542F44272B81422B60E070E0BA01BA
:10448000552744270A8110E0102F00272981022B8D
:1044900020E030E0402B512B622B732B40932904FA
:1044A00050932A0460932B0470932C040F900F9068
:1044B0000F900F90DF91CF911F910F9108952F9240
:1044C0003F924F925F926F927F928F929F92AF92A4
:1044D000BF92CF92DF92EF92FF920F931F93CF93F1
:1044E000DF9300D01F92CDB7DEB75C018B01FA01DC
:1044F000C180D280DB019C91907709F4EEC0D50198
:104500008C918111EAC09081937009F4D7C0C601E3
:104510000C966DE070E00E945F3E99249394960E95
:104520007F0140E050E0BA01C8010E94621D19827B
:104530001B82812C1A821701B6E02B0E311CF80168
:10454000408851886288738861E0C8010E94411FD9
:10455000009709F4C2C0DC012C91253E39F02223DA
:1045600009F4B8C0891408F4ACC008C0891440F438
:104570008394222309F4B1C0253E11F02E3211F4A8
:104580001A82DDCFFC0133853F3009F059C03A81F2
:10459000311109C026FFD3CF2F712B8325852983A5
:1045A0003B813A8309C03B8131503B832313E8CFE1
:1045B000258539813213E4CF2B81422F50E04150C1
:1045C00051096DE0649F9001659F300D11242C15F9
:1045D0003D05B0F6FC0170E0753018F481819281E0
:1045E00007C07B3018F48481958102C08681978151
:1045F0002C153D0521F4892B09F4A1CFC1CF8F3FA4
:10460000910511F008F0BCCF4FEB480F4A3110F084
:10461000682F02C060E2680FA9014F5F5F4FD701AA
:1046200013968D919C911497DC01A20FB31F8C916E
:104630009FEB980F9A3108F4805E6813A1CF43C0B6
:1046400033FD9ECF2A81222351F03B81313009F086
:1046500044C00E94FE1C298182133FC00CC04BE065
:1046600050E0B1010E94923E892B09F068CFD7013A
:104670008C9180FD64CFB301A20185E076956795AA
:10468000579547958A95D1F72A81B801C5010F90B2
:104690000F900F90DF91CF911F910F91FF90EF90AE
:1046A000DF90CF90BF90AF909F908F907F906F9052
:1046B0005F904F903F902F900C94DA2B9924939415
:1046C0002FCF812C5BCF7F5F32967D3009F437CFBF
:1046D0009A0182CF891408F44BCF80E00F900F909D
:1046E0000F90DF91CF911F910F91FF90EF90DF908E
:1046F000CF90BF90AF909F908F907F906F905F9082
:104700004F903F902F9008952F923F924F925F923B
:104710006F927F928F929F92AF92BF92CF92DF92D1
:10472000EF92FF920F931F93CF93DF93CDB7DEB736
:10473000E3970FB6F894DEBF0FBECDBF7C018A01B0
:1047400019821A82FC01808181116BC1FB01808179
:10475000807709F466C1FA0180818F32B9F48F0144
:1047600081918F32E1F3FB0166817781811104C071
:10477000C7010E948C1F5AC1CE0101960E948C1F56
:10478000882309F44EC1BE016F5F7F4F6E01F2E3D3
:10479000CF0ED11CD8010F5F1F4F8C918032D1F307
:1047A000BDA3ACA3FD019F012A1B3B0B8191882374
:1047B000D9F08F32C9F08C3509F433C1982F977F27
:1047C000923209F42EC18A3309F42BC1982F9F7BB2
:1047D0009C3309F426C192EC980F923008F421C161
:1047E00080528F3500F31DC1AD01420F531FCA0126
:1047F0008C01FC016190CF01F0E26F16C9F32FE24A
:104800006216B1F39A012A1B3B0B4A175B0741F072
:10481000FA018291AF018E32A9F3803299F303C07D
:104820001BAA1AAA07C03BAB2AAB2F3F310511F0D8
:104830000CF0F7C08AA99BA99BA38AA3CE018796F7
:10484000FC0120E22193CF01EC15FD05C9F7CD0154
:104850009C012A1B3B0BFC014191CF014E32C1F35D
:104860004032B1F381E02115310509F080E04AA919
:104870005BA94150510938F05D01A40EB51EF50148
:1048800090819E32B1F77EA097E0892E312C512C79
:10489000912CE8E04E2EEAA9FBA92E173F070CF059
:1048A0007FC05D01A20EB31EF5019081903209F424
:1048B00065C09E3229F44217530709F05FC004C057
:1048C0009232E1F09C37D1F0F6EDBF2EB90EF5E053
:1048D000FB1510F09D3291F4E6ECBE2EB90EE5E02A
:1048E000EB1560F4F5EABF2EB90EF2E0FB1530F4DB
:1048F000EFEDBE2EB90EEDE5EB1520F424173507CC
:1049000081F440C024173507E9F1831440F1B92E32
:10491000FFE9AF2EA90EF9E1FA1548F0905294285C
:104920000CC08314E0F080E09FE5EFE5BE2EEFEBD6
:10493000BE0EF9E1FB1508F0542822242394230C21
:10494000E7E2AE2EB12CAC0EBD1EA30CB11CF501DE
:104950009083F6E0F215A0F0722C322C1EC08AE093
:10496000881609F460C0421753070CF45CC09A0122
:10497000FAE08F2E88E0382E90E1492E80E00DC0BD
:10498000322C0BC0FAE08F1609F44DC09A01FAE000
:104990008F2E98E0392EE0E14E2E2F5F3F4F7BCFD8
:1049A0007EA29FA19032E9F1882339F0592011F4B9
:1049B000892D01C082E089A314C081E089A38EA162
:1049C00090E0E7E2F0E0EC0FFD1FE80FF91F2EE7A3
:1049D0002083E8E2F0E0EC0FFD1FE80FF91F21E370
:1049E00020836620B9F0AE014F5D5F4FC7010E9482
:1049F0005F228823B1F0F701DE01119680E2019079
:104A00000D928A95E1F7C7010E94A61FBE016F5F54
:104A10007F4FC0CEAE014F5D5F4FC7010E945F2246
:104A200005C080E003C07EA280E0BBCFE3960FB656
:104A3000F894DEBF0FBECDBFDF91CF911F910F91D4
:104A4000FF90EF90DF90CF90BF90AF909F908F90AE
:104A50007F906F905F904F903F902F9008958F922E
:104A60009F92AF92BF92CF92DF92EF92FF92CF933D
:104A7000C82F10922A0581E090E0A0E0B0E080937A
:104A80002D0590932E05A0932F05B093300585E258
:104A900095E09093470580934605109245058FEF6A
:104AA0009FEFDC018093480590934905A0934A0548
:104AB000B0934B05CC2331F1C53008F0DCC020E0C9
:104AC00040E050E0BA0185E495E00E94BE1C0097EA
:104AD00009F4D1C020E1C29F800D911D112440979F
:104AE000FC01E254FE4F20812F7709F0C4C03896B4
:104AF00080809180A280B38081149104A104B104CC
:104B000021F4B9C0812C912C540120E0B501A401FD
:104B100085E495E00E94BE1CFC01892B09F4ABC022
:104B2000838594858115924009F0A5C080898230E3
:104B300009F0A1C0468557854115510509F49BC070
:104B40002585209327058FEF820F8093280580E02D
:104B500091E0291751F031E0380F393019F4809382
:104B6000290589C0990F832FF4CF80932905C68822
:104B7000D788C114D10419F0E12CF12C04C0C4A0D1
:104B8000D5A0E6A0F7A0C0923105D0923205E09200
:104B90003305F0923405D501C401840F951FA11D82
:104BA000B11D8093390590933A05A0933B05B093CE
:104BB0003C052189328930932C0520932B05CC0CA0
:104BC000DD1CEE1CFF1CC80ED91EEA1EFB1EC09287
:104BD0004105D0924205E0924305F092440555E02C
:104BE000220F331F5A95E1F721503E4F232F3327D1
:104BF0002695C20ED31EE11CF11CC0923505D09241
:104C00003605E0923705F09238052389348921155D
:104C1000310521F0C901A0E0B0E004C080A191A15C
:104C2000A2A1B3A1B501A4014C195D096E097F09C8
:104C3000480F591F6A1F7B1F0090290504C07695F5
:104C40006795579547950A94D2F7DB01CA010196FB
:104C5000A11DB11D80933D0590933E05A0933F0596
:104C6000B0934005453F8FE058076105710528F472
:104C70008CE080932A0580E017C0453F5F4F6105B7
:104C8000710510F480E10DC084A595A5A6A5B7A572
:104C90008093410590934205A0934305B09344054A
:104CA00080E280932A0581E0CF91FF90EF90DF9022
:104CB000CF90BF90AF909F908F900895E0912E0479
:104CC000F0E0319680916E01EE0FFF1FE80FF11DAD
:104CD000E458FE4F208130912E0480916E0190E0C7
:104CE000830F911D830F911DFC01E458FE4F8081BD
:104CF00010924A0490913603911106C030E0382B8F
:104D00002115310509F089C080913603811180C0D9
:104D100080912E048E5F80932E0480912E04813D1D
:104D200050F010922E0480916E0191E089278093BB
:104D30006E019093030168EE73E080E090E0DC0187
:104D4000CB010496A11DB11D63E0880F991FAA1F16
:104D5000BB1F6A95D1F7009721E0A207B10520F4A7
:104D600021E02093300342C0009728E0A207B1055C
:104D700058F422E02093300353E0B695A795979519
:104D800087955A95D1F732C0009720E4A207B10564
:104D900058F423E02093300346E0B695A795979505
:104DA00087954A95D1F722C00097A10521E0B20767
:104DB00040F424E020933003892F9A2FAB2FBB2798
:104DC00015C00097A10524E0B20758F425E0209310
:104DD00030032AE0B695A795979587952A95D1F740
:104DE00005C085E0809330038FEF9FEF90932F03F2
:104DF00080932E0380912E0390912F039093870030
:104E000080938600809130038061809381000895B3
:104E100060E573EC80E090E092CF37FF07C081E05F
:104E2000809349043F77809348040AC080914804E6
:104E3000813029F480914904882309F472C080E00C
:104E400036FD0FC040916D0191E0411190E09093CB
:104E50006D0190916D01911102C029980BC0299AA2
:104E600009C035FD02C0299801C0299A2091430448
:104E700030914404813091F590910801911180E0C6
:104E800080936D012150310935FF09C010926D01E9
:104E90003F7DB90180E090E020E030E004C06CED9F
:104EA00075E080E090E0E0912E0440916E0150E0CA
:104EB0004E0F511D4E0F511DFA01E458FE4F308325
:104EC000E0912E04F0E0319630916E01EE0FFF1F5D
:104ED000E30FF11DE458FE4F208331CF8091490448
:104EE000813039F4A8EEB3E00E94A83C1092490446
:104EF00003C0B90180E090E020912E042E5F209342
:104F00002E0420912E04213D08F419CF10922E0476
:104F100020916E0131E0232720936E01309303012D
:104F20000ECF109248048BCFCF93DF9300D01F9207
:104F3000CDB7DEB7AB01BC0185E095E00E94621DF4
:104F4000882309F143E050E0BE016F5F7F4F85E0A9
:104F500095E00E94261E83309105B9F440913A03F2
:104F600050913B0360913C0370913D034D5F5F4F57
:104F70006F4F7F4F40933A0350933B0360933C0342
:104F800070933D0302C080E090E04B8150E0542FCD
:104F900044272A81422B60E070E0762F652F542F42
:104FA00044272981422B4093290450932A0460937B
:104FB0002B0470932C040F900F900F90DF91CF91E2
:104FC0000895CF93DF9300D0CDB7DEB7AB01BC011E
:104FD00085E095E00E94621D882309F142E050E0DF
:104FE000BE016F5F7F4F85E095E00E94261E8230F4
:104FF0009105B9F440913A0350913B0360913C0311
:1050000070913D034E5F5F4F6F4F7F4F40933A0368
:1050100050933B0360933C0370933D0302C080E0D8
:1050200090E02A8130E0322F22274981242B3093CF
:105030004704209346040F900F90DF91CF9108957D
:10504000CF93DF931F92CDB7DEB7AB01BC0185E0F4
:1050500095E00E94621D882309F141E050E0BE0105
:105060006F5F7F4F85E095E00E94261E813091059D
:10507000B9F440913A0350913B0360913C03709125
:105080003D034F5F5F4F6F4F7F4F40933A03509305
:105090003B0360933C0370933D0302C080E090E0CB
:1050A0002981209345040F90DF91CF91089580913D
:1050B000090190910A01803629E09207B9F04CF479
:1050C000803B944011F581E08093020180ED90E0F7
:1050D00018C080312EE0920779F08A309F40A9F401
:1050E00082E08093020184E490E00BC081E0809331
:1050F000020188E690E005C082E08093020186E428
:1051000090E0909305018093040180E180938100F9
:10511000089580913E03811164C060913A037091BB
:105120003B0380913C0390913D030E94202801970E
:10513000E1F5809145048093410480913D04909174
:105140003E04A0913F04B09140040197A109B10928
:1051500080933D0490933E04A0933F04B093400499
:10516000892B8A2B8B2B49F580913A0390913B0335
:10517000A0913C03B0913D030197A109B10980932F
:105180003A0390933B03A0933C03B0933D0380917B
:105190003B0490913C04892B21F481E080933903F6
:1051A000089585E080933703089580913A04843010
:1051B00021F081E080933103EACF80913D0490910A
:1051C0003E04A0913F04B09140040197A105B105B0
:1051D00011F088E002C080911A0180933E03109282
:1051E0002D04809100019091010196FF0DC0209146
:1051F000410427FF05C09062909301018093000154
:1052000080912D048E5F14C08091410487FF05C0FA
:10521000809138049091390404C0809136049091B3
:105220003704909301018093000180912D048F5FDA
:1052300080932D0480912D04823061F4809141048B
:10524000880F8093410480913E03815080933E03F8
:1052500010922D04089580913E03811140C0609109
:105260003A0370913B0380913C0390913D030E946F
:105270002028019761F58091450480934104809135
:105280003D0490913E04A0913F04B09140040197E9
:10529000A109B10980933D0490933E04A0933F047B
:1052A000B093400410924204892B8A2B8B2B91F4EB
:1052B00081E080936F0180913B0490913C04892BA5
:1052C00011F486E005C085E08093370303C085E0D4
:1052D000809339038BE080933E0310922D048091DC
:1052E0003E03823029F480913504882309F47FC07D
:1052F00020913E0380913604909137042B3029F49D
:10530000909301018093000129C020913E03223037
:1053100099F420913504217030914204321729F01C
:10532000309138042091390402C0382F292F30934E
:1053300000012093010112C020913E03213049F465
:1053400020913804309139043093010120930001F9
:1053500005C02091410420FDF3CFD2CF20912D0430
:105360002F5F20932D042091000130910101281717
:105370003907F9F490912D0480910701981355C0D5
:1053800080913E03823020F080913E038B3098F173
:1053900080913E03815080933E0310922D048091B2
:1053A0006F01882309F441C080913E03882359F19D
:1053B000089590912D0480910601981336C0809134
:1053C0003E03823020F080913E038B3000F18091CB
:1053D0003E03815080933E0310922D0480916F0113
:1053E000882319F180913E03882369F0089581E0B4
:1053F00080933E037DCF8091410490E09595879501
:1054000080934104C5CF85E080933903089590913E
:10541000420481E08927809342048091410490E016
:105420009595879580934104D2CF089580EA90E0C6
:1054300090930101809300018091090190910A01EC
:10544000803B24E0920731F028E730E030930101FF
:105450002093000120912D04213061F4803B944081
:1054600019F482EA95E002C084EF91E09093010183
:105470008093000180912D04811117C08091410417
:1054800087FF02C083E101C089E080932D048091F1
:105490004104880F8093410480913E0381508093A2
:1054A0003E03109201011092000180912D04815061
:1054B00080932D04089580913E03811125C0609151
:1054C0003A0370913B0380913C0390913D030E940D
:1054D0002028019751F4809145048093410489E08C
:1054E00080933E0310922D040FC081E0809331031E
:1054F00080913B0490913C04909334048093330456
:1055000089E580932B0308950C94162A8091310429
:1055100090913204909301018093000180912F04B7
:105520009091300401979093300480932F04892B3D
:1055300019F485E08093390308952091F004909147
:10554000EF04213208F04AC08091CC048111FCCFD5
:1055500032E03093CC0431E03093CB043FEF309312
:10556000CA041092C9042093C804AFECB4E048EA1E
:1055700054E0FA013E2F341B321718F43D91319359
:10558000F9CF1092A7042091A704990F922B909322
:10559000A7049091A604913061F41092A604909112
:1055A000A7049093BB009091BC0093FDF8CF95ECBD
:1055B00001C095EE9093BC009091CC049230E1F341
:1055C0009091CA049F3F79F08091CA04803241F0E3
:1055D0008091CA04803331F084E005C081E003C0CB
:1055E00082E001C083E01092CE041092F004109289
:1055F000CD0408950F931F93CF93DF93CDB7DEB7FC
:1056000061970FB6F894DEBF0FBECDBF9091A50491
:105610008091A4049923A9F19EE39983DE01129657
:1056200020E030E090E06BE474E0FB0101900020AA
:10563000E9F73197EB54F440A901480F591F4E1771
:105640005F0730F4FA01E55BFB4F40814C9301C0EA
:105650001C922F5F3F4F11962F30310531F7198A79
:1056600061E070E0CE0101960E94BA1761960FB614
:10567000F894DEBF0FBECDBFDF91CF911F910F9188
:105680000895DE01119620E030E090E04BE454E014
:10569000BC016A1B7B0BFA0101900020E9F73197EE
:1056A000EB54F4408B010A0F1B1F0E171F0740F429
:1056B000F901E80FF91FE55BFB4FE081EC9301C0B6
:1056C0001C922F5F3F4F11962031310521F7C7CF34
:1056D000CF92DF92FF920F931F93CF93DF93EC0152
:1056E00090910505911102C080E05CC0907621F098
:1056F0008FE28883198255C04091190550911A058F
:1057000060911B0570911C0580910B0590910C0513
:1057100020E080960E94BE1CDC01892B29F3209199
:10572000090530910A052F70332785E0220F331FBA
:105730008A95E1F740E050E078E090E08D01020FBB
:10574000131F045F1F4F6EE2F62EFA01E20FF31FE4
:105750006F01CA0EDB1EF60180818032D1F0483025
:10576000510539F4BE01690F711DFB01F0829F5F85
:1057700070E1F60160818FEB860F8A3128F4F80121
:105780008081872309F0605EFE01E90FF11D6083CF
:105790009F5F4F5F5F4F4B305105B9F6C90FD11D69
:1057A000188281E0DF91CF911F910F91FF90DF90E0
:1057B000CF900895CF92DF92EF92FF920F931F93B5
:1057C000CF93DF93DC0180E2ED0119928A95E9F72E
:1057D000EB01EE81FF811796FC93EE9316971596D9
:1057E0005C934E931497CC8CDD8CEE8CFF8C1896CA
:1057F000CD92DD92ED92FC921B974F705527EF01F1
:10580000A79635E0440F551F3A95E1F7BE01640FA6
:10581000751FEB018B8583FD45C0CF01840F951F5C
:10582000EC019AA997719C93EB018B85887111F417
:1058300098609C9313962C93139781E012968C9307
:10584000129703A114A125A136A154960D931D937F
:105850002D933C935797E40FF51F43AD54AD60E093
:1058600070E0BA0155274427EF01CF5BDF4F088175
:10587000198120E030E0402B512B622B732B5C967A
:105880004D935D936D937C935F97ED5BFF4F4081EC
:1058900051816281738158964D935D936D937C9392
:1058A0005B9702C01C9280E0DF91CF911F910F9116
:1058B000FF90EF90DF90CF900895AF92BF92CF927C
:1058C000DF92EF92FF920F931F93CF93DF9300D05D
:1058D00000D0CDB7DEB7FC0180910505811160C015
:1058E0008081807709F45CC080899189A289B3891D
:1058F0008F719927AA27BB27892B8A2B8B2B09F01D
:105900004FC05F0110E000E0F501C088D188E28857
:10591000F38860E0C5010E94411F009709F440C070
:10592000FC0120812223E1F12E3211F410E0ECCFB2
:10593000253EE1F3338533FD16C0B701A60125E00E
:1059400076956795579547952A95D1F71123A1F03C
:1059500049835A836B837C830E94FE1C49815A8150
:1059600008131EC009C03F3009F726FFCDCF122F04
:105970001F71FC010585C8CF212FB50185E095E099
:105980000F900F900F900F90DF91CF911F910F917B
:10599000FF90EF90DF90CF90BF90AF900C94DA2BF8
:1059A00080E00F900F900F900F90DF91CF911F919B
:1059B0000F91FF90EF90DF90CF90BF90AF90089540
:1059C0000F931F93CF938C0160E080E00E948616B6
:1059D000C0E0F801EC0FF11DC7FDFA958491882312
:1059E00021F00E940216CF5FF4CFCF911F910F914B
:1059F000089580913703833071F128F4813049F0A4
:105A00008230E9F00895843081F1853009F494C042
:105A10000895809131049091320490930101809314
:105A2000000180912F0490913004019790933004ED
:105A300080932F04892B09F09FC082E009C08091D8
:105A4000780790917907909301018093000183E09A
:105A5000809337030895809176079091770790930C
:105A600001018093000184E0F3CF80913A049CEF20
:105A7000980F923010F0811102C00C948928809107
:105A80003E03811132C080916C01833149F48091D1
:105A900075078093410482E080933A0485E0D8CF73
:105AA0008F5F80936C018431D0F4E82FF0E0E05EEA
:105AB000FA4FE491E09341048D3021F48DEF80930F
:105AC000410404C08E3011F41092410480914104CD
:105AD0009091750789278093750788E002C08091AF
