:100000000C94B9020C94E1020C94E1020C94E1020C
:100010000C94E1020C94E1020C94E1020C94E102D4
:100020000C94E1020C94E1020C94E1020C94E102C4
:100030000C94E1020C948C1C0C94E1020C94E102EF
:100040000C9492110C94E1020C94E1020C94E102E4
:100050000C94E1020C94E1020C94E1020C94E10294
:100060000C94DC110C94E102CB0CB20FCB0CF00C15
:10007000470E8F0E360DDE0D360E110D0B0E52652E
:100080007365742E2E004E6F2053442043617264BA
:1000900000D3D3D3D3D3D3D3D3D3D3D0D0D0D0D012
:1000A000D0D0D0D0D0EAEAEAEAEAEAEAEAEAEA1FFD
:1000B000A6DEBACC137D742E636173002E7565665F
:1000C000002E6F002E70002E74617000506C6179EC
:1000D000696E67004E6F2046696C652053656C65DC
:1000E00063746564004F4E202A006F6666202A0004
:1000F000536B697020424C4B3A3241004F4E202ADC
:10010000006F6666202A00545358437A78706F6CEB
:100110005545465357004F4E202A006F6666202AE9
:10012000004D6F746F72204374726C003338353039
:10013000003336303000323430300031323030006D
:1001400042617564205261746500536B697020428E
:100150004C4B3A3241203F00545358437A78705503
:1001600045465357203F004D6F746F7220437472A1
:100170006C203F00426175642052617465203F002D
:100180004D656E7500504C4159696E6720005041B5
:100190005553454420200000506C6179696E6720FA
:1001A00020202020005061757365642020004E6F70
:1001B0007420545A5854617065005A5854617065DF
:1001C000214E6F74205545462046696C65005545A3
:1001D000462046696C6521545A584455494E4F9DF6
:1001E0005041555345442A200000000000230026BA
:1001F00000290000000008000201000003040700BD
:100200000000000000000020627974657300763100
:100210002E3730204D61784475696E6F0053746FCE
:100220007070656400200000000000000000005FA6
:100230005F5F005F5F5F000707030007070300368B
:100240007F7F367F7F3600242E6E7F3B3A1200631D
:1002500073381C0E676300307E4F59377A480000B0
:1002600000070703000000001C3E7F634100000000
:1002700041637F3E1C000049363E5D3E364900002A
:1002800018187E7E1818000000E0E06000000000F2
:10029000181818181818000000606060000000604E
:1002A00070381C0E070300003C7E6B657F3E00002B
:1002B000606C7F7F60600000737B69696F6600001F
:1002C000616165657F3A000F0F08687F7F680000F5
:1002D000676765657D3900003E7F65657D39000093
:1002E000030371790F0700003A7F65657F3A0000CC
:1002F000666F69697F3E0000006666660000000068
:1003000000E6E666000000081C3E7763410000003E
:1003100036363636363600004163773E1C08000319
:10032000035B595F0F06003E7F6169696F6E007C59
:100330007E7F0B097F7F007F7F7F696F7E38003C67
:100340007E7F63617373007F7F7F61637E3C007C8F
:100350007E7F6B696363007C7E7F6B090303003CD7
:100360007E7F63697B7B007C7E7F08087F7F000047
:1003700042637F7F63210030786263637F3F007C4C
:100380007E7F081C7763007C7E7F60607070007CDD
:100390007E070C067F7F007C7E070E1C7F7F003C63
:1003A0007E7F63617F3E007C7E7F69090F06003C93
:1003B0007E7F6361FFBE007C7E7F09097F760064DB
:1003C0006E6F6B6979310002637F7F630301003CCC
:1003D0007E7F60607F7F003C7E7F703C0F03007CEF
:1003E0007E3F18307F7F004163361C1C36634164BA
:1003F0006E6F68687F3F00436371796D67630000CB
:10040000007F7F7F41000003070E1C3870600000F2
:1004100000417F7F7F0000080C0E070E0C08008053
:100420008080808080800000000003070700007843
:100430007C7C14147C78007E7E7E44447C380038BA
:100440007C7C44446C6C00387C7C44447E7E023866
:100450007C7C54545C5800507C7E7E520200001814
:10046000BCBCA4A4FC7C007E7E7E080878700000E2
:10047000087A7A7A40000040C088F8FA7A00007E54
:100480007E7E10386C440000027E7E7E4000007C40
:100490007C0C180C7C78007C7C7C04047C78003814
:1004A0007C7C44447C3800FCFCFC24243C18001870
:1004B0003C3C2424FCFC007C7C7C04040C080048AC
:1004C0005C5C547474240000387C7E482000003C3E
:1004D0007C7C40407C7C003C7C7C60301C0C003C84
:1004E0007C6030607C3C00446C7C387C6C44008CCC
:1004F0009CBCF0603C1C004C6C747C5C6C64000028
:1005000000083E7F7741000000007F7F0000000070
:1005100041777F3E0800000203010302030100004F
:1005200000035A58415946696C6520201A0B00C0D7
:1005300000806E00000000250028002B0000000055
:1005400000240027002A0004040404040404040214
:100550000202020202030303030303010204081060
:10056000204080010204081020010204081020002D
:10057000733B11241FBECFEFD8E0DEBFCDBF11E02B
:10058000A0E0B1E0E0E6FDE702C005900D92AA36DA
:10059000B107D9F727E0AAE6B1E001C01D92AB3759
:1005A000B207E1F712E0C9EBD2E004C02197FE01E7
:1005B0000E94723EC83BD107C9F70E94302E0C94AE
:1005C000AE3E0C940000CF92DF92EF92FF920F9319
:1005D0001F93CF93DF93CDB7DEB72B970FB6F89469
:1005E000DEBF0FBECDBF10920101109200018091BD
:1005F0003903811139C040E050E0BA018BE095E049
:100600000E94AE1E882309F14AE050E0BE016F5FF0
:100610007F4F8BE095E00E94721F47E050E06AEB4D
:1006200071E0CE0101960E94AE3B892B71F060E033
:1006300070E08EEA91E00E943A186CE271E080E08E
:1006400090E00E944C110E94301C8AE090E0A0E0F3
:10065000B0E080933A0390933B03A0933C03B093A4
:100660003D0381E08093390380913903843099F50B
:1006700040E050E0BA018BE095E00E94AE1E882376
:10068000D9F049E050E0BE016F5F7F4F8BE095E00D
:100690000E94721F49E050E06EEC71E0CE010196BD
:1006A0000E94AE3B892B41F061E070E081EC91E06B
:1006B0000E943A180E94301C8CE090E0A0E0B0E06C
:1006C00080933A0390933B03A0933C03B0933D0384
:1006D00085E08093390380913903853009F0B4C0F7
:1006E00060913A0370913B0380913C0390913D03EC
:1006F0000E94F823029709F07BC000912D0410910D
:100700002E041093D0030093CF0360913A037091AD
:100710003B0380913C0390913D030E94502304973A
:1007200009F066C080912F0490913004A0913104AB
:10073000B091320480934B0490934C04A0934D04E9
:10074000B0934E04109243040430114009F053C09A
:100750000397A109B10980934B0490934C04A09393
:100760004D04B0934E0480913A0390913B03A091C5
:100770003C03B0913D03BC01CD016F5F7F4F8F4FB4
:100780009F4F60933A0370933B0380933C03909395
:100790003D030E9437240197B9F480912C048F34D3
:1007A00029F480910801811107C008C0853451F4F3
:1007B00080910801811102C082E001C081E0809334
:1007C000430402C01092430480913A0390913B038A
:1007D000A0913C03B0913D030196A11DB11D8093F2
:1007E0003A0390933B03A0933C03B0933D0303C0B3
:1007F00082E00C94850E8091090190910A01803B62
:10080000944049F480EA91E0909345048093440435
:1008100080ED90E008C08CE491E0909345048093D3
:10082000440486EA90E09093470480934604109233
:100830006F0110923E031092330486E080933903D7
:10084000109237031092CE0300913903063009F05D
:10085000EAC08091CF039091D003843041E09407A7
:10086000B1F038F4009709F4BFC08115914079F0D8
:10087000BBC0813111E09107E9F1823121E092079B
:1008800009F494C08031914009F0AEC003C00E94C9
:100890004129C9C08091370381113AC060913A0360
:1008A00070913B0380913C0390913D030E94F8239B
:1008B0000297E1F42091090130910A0180912D0401
:1008C00090912E04880F991F880F991F90933E04D2
:1008D00080933D04203B344019F480ED90E002C049
:1008E0008CE990E09093400480933F0481E08093F2
:1008F000370399C080913703882369F01091CE03A4
:10090000113071F1123009F444C0133009F08BC07A
:100910000E949C2A88C060913A0370913B038091A9
:100920003C0390913D030E94F823029791F480913B
:100930002D0490912E04880F991F880F991F909372
:100940003E0480933D0480ED90E0909340048093BA
:100950003F0481E0809337038091CE038F5F16C000
:100960000E949C2A80913D0490913E04892B09F0BD
:100970005AC0009339038AEA80934F0410936F01A1
:100980008BE080933E031092330482E08093CE0389
:100990004AC0109243040E94412980913E03811174
:1009A00042C000933903109237033DC060913A036F
:1009B00070913B0380913C0390913D030E94F8238A
:1009C000029789F580912D0490912E04009741F1B2
:1009D000880F991F909342048093410490689093EC
:1009E0000101809300011CC040913A0350913B03E8
:1009F00060913C0370913D0380914B0490914C04B5
:100A0000A0914D04B0914E04840F951FA61FB71FEF
:100A100080933A0390933B03A0933C03B0933D0330
:100A200085E080933903809139038130D9F4609156
:100A30003A0370913B0380913C0390913D030E94E7
:100A40003724019719F480912C0401C08FEF809313
:100A50002B0310923E031092330482E080933903FB
:100A60001092370380913903823011F00C94B20F49
:100A700020912B032A3209F4BEC378F5253109F4FD
:100A8000DFC2A0F4223109F40DC240F4203109F490
:100A90005AC0213109F40DC10C942D0F233109F4F2
:100AA00047C2243109F472C20C942D0F213209F48B
:100AB0000AC440F4293109F43CC3203209F485C347
:100AC0000C942D0F243209F4B1C3253209F4D3C399
:100AD000223211F00C942D0FF0C32B3409F46CC4A6
:100AE000F0F460913A0370913B0380913C03909144
:100AF0003D03213309F4E5C340F42B3209F4CFC39D
:100B0000203309F4E8C30C942D0F233309F413C4E4
:100B100008F4F4C3253309F429C40C942D0F2C3F99
:100B200009F443C348F4293511F40C94AA0E2A3F62
:100B300009F424C70C942D0F2E3F09F475C608F450
:100B4000E3C60C94070F809137038111DAC662E087
:100B500087E00E94B71681E30E94331680E30E946B
:100B6000331662E08EE00E94B71630915503832F52
:100B70006AE00E943E3E911109C0832F0E943E3ED2
:100B80000E943E3E80E3890F0E94331662E08FE0B0
:100B90000E94B716809155036AE00E943E3E80E3B2
:100BA000890F0E943316809155038F5F8093550300
:100BB00060913A0370913B0380913C0390913D0317
:100BC0000E94F823029741F480912D0490912E0405
:100BD00090934A048093490460913A0370913B03D7
:100BE00080913C0390913D030E94F823029779F491
:100BF00080912D0490912E040196A0E0B0E08093A6
:100C00004B0490934C04A0934D04B0934E04609118
:100C10003A0370913B0380913C0390913D030E9405
:100C20003724019701F580912C04811103C08FE7CF
:100C30009FE102C087E99CE090933E0480933D04CD
:100C400080913A0390913B03A0913C03B0913D0306
:100C50000197A109B10980933A0390933B03A093B4
:100C60003C03B0933D038BE692E090934004809365
:100C70003F048FEB90E090933C0480933B0482ED23
:100C800090E090933A048093390484EF90E090933D
:100C900045048093440489EE91E090934704809347
:100CA000460481E08093370388E080931A010C9416
:100CB000B20F80913703811124C662E087E00E9461
:100CC000B71681E30E94331681E30E94331662E077
:100CD0008EE00E94B716809155032AE0622F0E9491
:100CE0003E3E911106C00E943E3E80E3890F0E9465
:100CF000331662E08FE00E94B716809155036AE0D8
:100D00000E943E3E80E3890F0E9433168091550376
:100D10008F5F8093550360913A0370913B038091FC
:100D20003C0390913D030E94F823029751F4809177
:100D30002D0490912E040E941E16909340048093DF
:100D40003F0460913A0370913B0380913C03909182
:100D50003D030E94F823029751F480912D04909155
:100D60002E040E941E1690933C0480933B046091D5
:100D70003A0370913B0380913C0390913D030E94A4
:100D8000F823029751F480912D0490912E040E9433
:100D90001E1690933A048093390460913A0370913F
:100DA0003B0380913C0390913D030E94F8230297FE
:100DB00051F480912D0490912E040E941E16909360
:100DC00045048093440460913A0370913B03809101
:100DD0003C0390913D030E94F823029751F48091C7
:100DE0002D0490912E040E941E1690934704809328
:100DF000460460913A0370913B0380913C039091CB
:100E00003D030E94F823029741F480912D049091B4
:100E10002E0490933E0480933D0460913A037091B8
:100E20003B0380913C0390913D030E94372401973E
:100E300021F480912C0480931A0160913A037091FF
:100E40003B0380913C0390913D030E94F82302975D
:100E500041F480912D0490912E0490934A04809344
:100E6000490460913A0370913B0380913C03909157
:100E70003D030E94AB23039709F058C580912F04CE
:100E800090913004A0913104B09132040196A11DDB
:100E9000B11D80934B0490934C04A0934D04B093E8
:100EA0004E0444C58091370381112CC060913A03F0
:100EB00070913B0380913C0390913D030E94F82385
:100EC000029751F480912D0490912E040E941E16D9
:100ED0009093400480933F0460913A0370913B03E8
:100EE00080913C0390913D030E94F823029709F002
:100EF0001DC580912D0490912E0490933E04809303
:100F00003D0414C580913F049091400490930101E9
:100F10008093000180913D0490913E04019790934D
:100F20003E0480933D04892B09F4C7C10C94B20F91
:100F30002091370360913A0370913B0380913C0309
:100F400090913D0321110AC00E943724019709F0B6
:100F50003AC180912C048093CD0335C10E94F823BF
:100F6000029751F480912D0490912E040E941E1638
:100F700090930101809300018091CD038150809373
:100F8000CD03882309F499C10C94B20F80913703E3
:100F9000811152C060913A0370913B0380913C03F0
:100FA00090913D030E94F823029751F480912D0403
:100FB00090912E040E941E16909345048093440441
:100FC00060913A0370913B0380913C0390913D0303
:100FD0000E94F823029751F480912D0490912E04E1
:100FE0000E941E16909347048093460460913A0332
:100FF00070913B0380913C0390913D030E94372404
:10100000019721F480912C0480931A0160913A0396
:1010100070913B0380913C0390913D030E94F82323
:10102000029709F04BC080912D0490912E0490936B
:101030004A048093490442C0843009F0C6C176C096
:101040008091370381115BC060913A0370913B033B
:1010500080913C0390913D030E94F823029751F444
:1010600080912D0490912E040E941E1690932B04C3
:1010700080932A0460913A0370913B0380913C0372
:1010800090913D030E94F823029741F480912D0432
:1010900090912E0490934A048093490460913A03FE
:1010A00070913B0380913C0390913D030E94372453
:1010B000019721F480912C0480931A0160913A03E6
:1010C00070913B0380913C0390913D030E94AB23C0
:1010D000039709F078C080912F0490913004A0917B
:1010E0003104B09132040196A11DB11D80934B04CF
:1010F00090934C04A0934D04B0934E0464C085308B
:1011000061F48091490490914A0490934204809341
:10111000410489E580932B0325C780912A0490918F
:101120002B04906490930101809300010E949F28FA
:1011300019C780913703843009F41DC48530E9F163
:10114000811110C760913A0370913B0380913C0379
:1011500090913D030E94502360913A0370913B03AC
:1011600080913C0390913D030E94F823029741F443
:1011700080912D0490912E0490934A048093490409
:1011800080913A0390913B03A0913C03B0913D03C1
:101190008A5A9F4FAF4FBF4F80933A0390933B03C0
:1011A000A0933C03B0933D03DAC6809137038430AB
:1011B00009F4E1C3853009F0D9C388EE93E8909330
:1011C00001018093000184E0CBC660913A037091E5
:1011D0003B0380913C0390913D030E94F8230297CA
:1011E00009F0C0C680912D0490912E040097D1F093
:1011F0001092CC038ACF80913A0390913B03A09147
:101200003C03B0913D030496A11DB11D80933A03A8
:1012100090933B03A0933C03B0933D038091500314
:1012200081114BC081E08093CC0373CF60913A036E
:1012300070913B0380913C0390913D030E94F82301
:101240000297D9F580912D0490912E049093CB03B1
:101250008093CA0380913A0390913B03A0913C0391
:10126000B0913D038093C6039093C703A093C80336
:10127000B093C90322C08091CA039091CB03019718
:101280009093CB038093CA03892BB9F08091C60356
:101290009091C703A091C803B091C90343C0AB01AB
:1012A000BC014B5F5F4F6F4F7F4F40933A035093AA
:1012B0003B0360933C0370933D0381E080933903CB
:1012C00051C60E94372460913A0370913B0380918C
:1012D0003C0390913D030E943724019771F72091C0
:1012E0002C0480913A0390913B03A0913C03B09170
:1012F0003D03820F911DA11DB11D14C00E94F82352
:101300000297D9F620912D0430912E0480913A0352
:1013100090913B03A0913C03B0913D03820F931F3A
:10132000A11DB11D80933A0390933B03A0933C030E
:10133000B0933D03C2CF0E943724019709F0BDCF7F
:1013400020912C0430E0A3E0B0E00E94933C009197
:101350003A0310913B0320913C0330913D03DC01A3
:10136000CB01800F911FA21FB31FDCCF605F7F4FA7
:101370008F4F9F4F60933A0370933B0380933C03DE
:1013800090933D030E945023049709F096CF40911B
:101390003A0350913B0360913C0370913D0380916F
:1013A0002F0490913004A0913104B0913204840F45
:1013B000951FA61FB71FB6CF80913703813009F460
:1013C0009DC138F0843009F4ACC1853009F499CE60
:1013D000C9C562E087E00E94B71684E30E94331615
:1013E00082E40E94331662E08EE00E94B71680917C
:1013F00055032AE0622F0E943E3E911106C00E94D2
:101400003E3E80E3890F0E94331662E08FE00E9427
:10141000B716809155036AE00E943E3E80E3890F33
:101420000E943316809155038F5F8093550360911E
:101430003A0370913B0380913C0390913D030E94DD
:101440005023049799F480912F0490913004A09137
:101450003104B09132040C97A109B10980934B0477
:1014600090934C04A0934D04B0934E0460913A03C2
:1014700070913B0380913C0390913D030E94F823BF
:10148000029741F480912D0490912E0490934A0488
:101490008093490480910801C0903A03D0903B03A7
:1014A000E0903C03F0903D03811152C0C701B601AA
:1014B0000E94F823029751F480912D0490912E04FC
:1014C0000E941E169093400480933F0460913A035B
:1014D00070913B0380913C0390913D030E94F8235F
:1014E000029741F480912D0490912E0490933E0434
:1014F00080933D0460913A0370913B0380913C03DB
:1015000090913D030E94F823029751F480912D049D
:1015100090912E040E941E169093450480934404DB
:1015200060913A0370913B0380913C0390913D039D
:101530000E94F823029709F074C080912D049091C5
:101540002E040E941E16909347048093460469C09F
:101550002091090130910A01C90160EB74E00E94F9
:101560005E3E48E853E1649FC001659F900D749F03
:10157000900D112490933E0480933D0458E0C50ED5
:10158000D11CE11CF11CC0923A03D0923B03E092C3
:101590003C03F0923D03203689E0380729F184F4BA
:1015A000203B3440F1F580ED90E090934704809328
:1015B00046049093400480933F0481EA91E02DC05B
:1015C00020314EE03407E9F02A303F4051F581E404
:1015D00090E0909347048093460490934004809356
:1015E0003F0482E890E019C088E690E090934704B9
:1015F000809346049093400480933F0480ED90E0F4
:101600000CC085E490E09093470480934604909347
:10161000400480933F048BE890E0909345048093CE
:10162000440460913A0370913B0380913C03909194
:101630003D030E9437240197C1F480912C04282F88
:101640002F702093190190E0F4E095958795FA9515
:10165000E1F780931801211103C020E120931901C3
:10166000892B19F480E18093180160913A037091FD
:101670003B0380913C0390913D030E9437240197E6
:1016800009F054C120912C04822F90E0AC01E5E0D8
:1016900055954795EA95E1F741704093C503522F60
:1016A0005295569556955370442319F0309119016F
:1016B00002C030911801359F302D1124309317014D
:1016C000AC01559547955595479541704093160146
:1016D00073E0959587957A95E1F78370442319F027
:1016E0009091190102C090911801989F802D1124AA
:1016F0008093150121702093C40318C180913D048B
:1017000090913E049C012150310930933E04209376
:101710003D04892B09F457CD80913F0490914004FA
:101720003DC380913E03882349F080913E038A3077
:10173000B9F4909117019111ADC312C080913E038D
:10174000811158C080914B0490914C04A0914D049C
:10175000B0914E04892B8A2B8B2B09F0D2C34AC03F
:1017600080913E03813021F4909115019111ABC31A
:1017700080913E038A3029F480911701882309F46F
:10178000EAC380914F04282F30E08091C40388235E
:1017900009F483C380913E0390E00297890102C05F
:1017A000159507958A95E2F7202F217000FF7CC3DD
:1017B0008091460490914704909301018093000129
:1017C000809133048F5F80933304909133042223FC
:1017D00009F46FC380911901981307C080913E03EB
:1017E000815080933E031092330480913E038130F8
:1017F00009F462C380914B0490914C04A0914D0474
:10180000B0914E04892B8A2B8B2B09F0ABC38091AE
:101810003E038111A7C38091490490914A0490939B
:101820004204809341049BC380913703811169C0B6
:1018300062E087E00E94B71686E40E94331685E4D2
:101840000E94331662E08EE00E94B7163091550375
:10185000832F6AE00E943E3E911109C0832F0E94AF
:101860003E3E0E943E3E80E3890F0E94331662E0B6
:101870008FE00E94B716809155036AE00E943E3EB9
:1018800080E3890F0E943316809155038F5F809308
:10189000550388EE93E090934A0480934904609145
:1018A0003A0370913B0380913C0390913D030E9469
:1018B000F823029779F480912D0490912E040196DB
:1018C000A0E0B0E080934B0490934C04A0934D04AF
:1018D000B0934E0460913A0370913B0380913C03B6
:1018E00090913D030E943724019709F0BCC9809173
:1018F0002C04811103C080E89FE19EC988E99CE027
:101900009BC90E94B32A2EC380913703813081F096
:1019100028F0843081F1853019F024C31092C3037C
:1019200088EE93E8909301018093000181E018C351
:1019300080913E03811117C0E091C303F0E0E952AA
:10194000FE4FE491E0934F048091C3038F5F809337
:10195000C3038091C3038A3009F435CC89E08093B6
:101960003E03109233040E942C2AFCC28111FAC259
:101970001092C30322CC0E94712AF4C2E091370373
:101980008E2F90E08B30910508F0ECC2FC01EC5CEE
:10199000FF4F0C94723E80913E03882319F00E9401
:1019A000813AE0C260913A0370913B0380913C031D
:1019B00090913D030E94372480912C0480934F0422
:1019C0008BE080933E031092500410926F0180913F
:1019D0004F04863109F42DC210923E0383E0C0C249
:1019E00080913E038111DBCF8091320390913303CC
:1019F000A0913403B0913503181619061A061B0678
:101A000014F486E120C081E090E0A0E0B0E0809393
:101A1000320390933303A0933403B093350389E0EA
:101A20009FC280913E038111BACF80913203909181
:101A30003303A0913403B0913503181619061A0622
:101A40001B0624F484E280934F04F8C089E090E000
:101A5000A0E0B0E08093320390933303A09334036B
:101A6000B093350310926F0186E07AC280913E03F5
:101A7000811195CF8091320390913303A09134036B
:101A8000B0913503181619061A061B060CF094C0FF
:101A900060913A0370913B0380913C0390913D0328
:101AA0000E94372480912C0480934F049BE09093F4
:101AB0003E031092500410926F01409132035091F6
:101AC000330360913403709135034530510561054E
:101AD000710541F490E0982F8827092E000CAA0B7D
:101AE000BB0B61C0409132035091330360913403CA
:101AF00070913503443051056105710599F490E00A
:101B00000196092E000CAA0BBB0B40914B0450917F
:101B10004C0460914D0470914E04840F951FA61FD4
:101B2000B71F41C040913203509133036091340399
:101B3000709135034330510561057105B1F490E0B2
:101B4000982F8827092E000CAA0BBB0B40914B0441
:101B500050914C0460914D0470914E048A019B0198
:101B6000081B190B2A0B3B0B1CC0409132035091F0
:101B700033036091340370913503423051056105A0
:101B8000710509F056C140914B0450914C0460918D
:101B90004D0470914E048A019B01081B1109210913
:101BA0003109D901C80180934B0490934C04A09350
:101BB0004D04B0934E043DC187E0D2C180913E03F5
:101BC0008111EDCE60913A0370913B0380913C030B
:101BD00090913D030E94372480912C0480934F0400
:101BE0008BE080933E031092500410926F0180911D
:101BF0004F048111B7C181E090E0A0E0B0E0809394
:101C0000320390933303A0933403B09335031092BF
:101C10003E038AE0A5C180913E038111C0CE809130
:101C2000320390913303A0913403B0913503181619
:101C300019061A061B0654F410924F048BE0809389
:101C40003E031092500410926F01F3C084E690E0BE
:101C5000A0E0B0E08093320390933303A093340369
:101C6000B093350310926F0188E07AC180913203FE
:101C700090913303A0913403B091350318161906DF
:101C80001A061B060CF09FCA80ED90E0CEC0809132
:101C90003E03811184CE60913A0370913B038091A1
:101CA0003C0390913D030E943724019709F58091F0
:101CB0002C0480934F0480914B0490914C04A0918C
:101CC0004D04B0914E040197A109B10980934B04D2
:101CD00090934C04A0934D04B0934E041092500482
:101CE000892B8A2B8B2BA9F481E080936F0111C083
:101CF0008FEF90E0A0E0B0E0809332039093330345
:101D0000A0933403B093350381E0809339038FEFC0
:101D100001CA8BE080933E031092330440CE809141
:101D2000320390913303A0913403B0913503892B92
:101D30008A2B8B2B09F047C084E690E0A0E0B0E04E
:101D40008093320390933303A0933403B09335030D
:101D500082E006C18091410490914204009719F1FC
:101D6000811510E2910768F02FEF3FE130930101F8
:101D7000209300018F5F9F41909342048093410420
:101D800008C09093010180930001109242041092C8
:101D900041048091000190910101906890930101AC
:101DA00080930001DFC08091CC03882339F18091BA
:101DB000320390913303A0913403B0913503892B02
:101DC0008A2B8B2B19F081E090E82FC081E0809363
:101DD000B0038093390380EE91E00E94BA2D8FEF1B
:101DE00090E0A0E0B0E08093320390933303A0939F
:101DF0003403B09335031092CC03B4C081E08093D8
:101E0000390380913103813009F0ACC080CF8091DB
:101E1000320390913303A0913403B0913503892BA1
:101E20008A2B8B2BA1F18AE090EA90930101809399
:101E300000018091320390913303A0913403B0915B
:101E400035030197A109B1098093320390933303BD
:101E5000A0933403B093350385C060913A03709129
:101E60003B0380913C0390913D0320E14AE953E01C
:101E70000E94F53B61E070E08AE993E00E941A1845
:101E8000F89480E10E94F3100197D9F378940E94AE
:101E9000551C68C08091C50318C040913E0389E07D
:101EA00090E0841B91097ACC809144049091450480
:101EB00083CC8091180190CC8091150181119ACC2E
:101EC00010923E0397CC80911601882329F020912F
:101ED00046043091470404C02091440430914504E5
:101EE0003093010120930001809133048F5F809330
:101EF00033048091330489137DCC80913E0381505B
:101F000025C060913A0370913B0380913C0390910E
:101F10003D030E943724019709F0F9CE80914B04CC
:101F200090914C04A0914D04B0914E040197A109E9
:101F3000B10980934B0490934C04A0934D04B0934B
:101F40004E0480912C0480934F048AE080933E03DA
:101F5000109233044FCC89E080933E0312CC85E08D
:101F6000809337032B960FB6F894DEBF0FBECDBF1C
:101F7000DF91CF911F910F91FF90EF90DF90CF9065
:101F80000895CF92DF92EF92FF920F931F93CF931A
:101F9000DF936C017A018B01C0E0D0E0CE15DF0544
:101FA00089F0D8016D918D01D601ED91FC910190E0
:101FB000F081E02DC6010995892B11F47E0102C044
:101FC0002196ECCFC701DF91CF911F910F91FF9028
:101FD000EF90DF90CF900895833081F028F4813026
:101FE00099F08230A1F008958730A9F08830B9F0D7
:101FF0008430D1F4809180008F7D03C08091800077
:102000008F7780938000089584B58F7702C084B560
:102010008F7D84BD08958091B0008F7703C080913B
:10202000B0008F7D8093B00008953FB7F894809101
:102030001D0490911E04A0911F04B091200426B5A8
:10204000A89B05C02F3F19F00196A11DB11D3FBFF0
:10205000BA2FA92F982F8827820F911DA11DB11D7E
:10206000BC01CD0142E0660F771F881F991F4A957A
:10207000D1F7089585ED8093BC008091BC0084FD6C
:10208000FCCF1092D20408954091F303262F30E044
:10209000240F311D21323105DCF42091D20424308B
:1020A000C9F4FC0180E090E0861758F43091F30306
:1020B0002191DC01AF52BC4FA30FB11D2C930196AF
:1020C000F3CF8091F303680F6093F30380E00895EA
:1020D00081E0089582E00895089581E090E03091D4
:1020E0006B0120916A01321710F480E090E0919525
:1020F00081959109089580916B0190916A018917EA
:1021000030F48F5F80936B0180E090E008958FEF53
:102110009FEF089580916A0190E020916B01821BEE
:1021200091090895CF92DF92EF92FF920F931F9340
:10213000CF93DF937C01262F972F8A018091D304C0
:10214000882391F0C62FD72F6E01C40ED51ECC1553
:10215000DD0571F06991D701ED91FC910190F0815D
:10216000E02DC7010995F3CF642F822F0E94441000
:10217000C801DF91CF911F910F91FF90EF90DF90F9
:10218000CF900895CF93DF931F92CDB7DEB76983C9
:102190002091D3042223D1F02091F604203240F084
:1021A00021E030E0FC013383228380E090E015C021
:1021B0008091D404E82FF0E0EB52FB4F998190839B
:1021C0008F5F8093D4048093F60405C061E0CE0154
:1021D00001960E94441081E090E00F90DF91CF9132
:1021E00008950E94783ECF93DF93282F30E0F901C5
:1021F000ED50FE4F8491F901E55AFA4FD491F9015F
:10220000E95BFA4FC491CC2391F081110E94EC0F4D
:10221000EC2FF0E0EE0FFF1FE751FE4FA591B491B8
:10222000EC91ED2381E090E021F480E002C080E0B9
:1022300090E0DF91CF9108951F93CF93DF93282FE4
:1022400030E0F901ED50FE4F8491F901E55AFA4F63
:10225000D491F901E95BFA4FC491CC23C9F0162F50
:1022600081110E94EC0FEC2FF0E0EE0FFF1FED5CF0
:10227000FA4FA591B4918FB7F894111105C09C91B4
:10228000ED2FE095E92302C0EC91ED2BEC938FBF8D
:10229000DF91CF911F9108958F929F92AF92BF923D
:1022A000CF92DF92EF92FF926B017C010E9415109A
:1022B0004B015C01C114D104E104F104F1F00E946E
:1022C0001510DC01CB0188199909AA09BB09883EC0
:1022D0009340A105B10570F321E0C21AD108E108CD
:1022E000F10888EE880E83E0981EA11CB11CC11471
:1022F000D104E104F10419F7DDCFFF90EF90DF90F6
:10230000CF90BF90AF909F908F9008952FB7F89483
:102310006091190470911A0480911B0490911C041F
:102320002FBF08951F920F920FB60F9211242F9373
:102330003F938F939F93AF93BF9380911904909194
:102340001A04A0911B04B0911C043091180423E0DE
:10235000230F2D3720F40196A11DB11D05C026E8DD
:10236000230F0296A11DB11D209318048093190418
:1023700090931A04A0931B04B0931C0480911D0435
:1023800090911E04A0911F04B09120040196A11DFC
:10239000B11D80931D0490931E04A0931F04B0935D
:1023A0002004BF91AF919F918F913F912F910F90FA
:1023B0000FBE0F901F9018951F920F920FB60F929D
:1023C00011242F933F934F935F936F937F938F933A
:1023D0009F93AF93BF93EF93FF938091B900887F52
:1023E000803609F49CC068F5883209F45BC090F42B
:1023F000803109F454C038F4882309F4F6C08830D9
:1024000009F44DC0F6C0883109F44CC0803209F49B
:102410005DC0EFC0803409F468C048F4803309F42B
:1024200055C0883309F0E5C08093D004D8C080350A
:1024300009F44FC0883509F45DC0883409F0D9C06B
:10244000D6C0883909F4C7C0A8F4883709F467C032
:1024500038F4883609F463C0803709F460C0C9C015
:10246000883809F4B8C0803909F45FC0803809F0B1
:10247000C0C05BC0803B09F486C038F4803A09F4E0
:1024800066C0883A09F47FC0B4C0803C09F4A7C094
:10249000883C09F4A4C0883B09F48AC0AAC0809192
:1024A000AD0410C09091CF048091CE04981770F5C0
:1024B000E091CF0481E08E0F8093CF04F0E0E255ED
:1024C000FB4F80818093BB0085EC86C08093D00455
:1024D0008EC0E091CF0481E08E0F8093CF04809175
:1024E000BB00F0E0E255FB4F80839091CF048091D8
:1024F000CE046EC0E091CF0481E08E0F8093CF04B4
:102500008091BB00F0E0E255FB4F80838091D104C5
:1025100081116DC081E08093AC0484EA61C083E0E6
:102520008093D20410921704CFCF80911704803289
:1025300008F051C0E091170481E08E0F80931704DA
:102540008091BB00F0E0E950FC4F8083BDCF85EC6B
:102550008093BC001092D20480911704803230F432
:10256000E0911704F0E0E950FC4F108260911704ED
:1025700070E0E091F503F091F60387EF93E00995A1
:102580001092170436C084E08093D2041092F403B2
:102590001092F303E091F103F091F2030995809119
:1025A000F303811105C081E08093F3031092D103FE
:1025B000E091F40381E08E0F8093F403F0E0EF529A
:1025C000FC4F80818093BB009091F4038091F303D2
:1025D000981708F479CF85E88093BC000AC085EC91
:1025E0008093BC001092D20404C01092D0040E94C8
:1025F0003A10FF91EF91BF91AF919F918F917F9191
:102600006F915F914F913F912F910F900FBE0F905F
:102610001F9018958EBD0DB407FEFDCF08958FEF66
:102620008EBD0DB407FEFDCF8EB508950F931F9399
:10263000CF93DF938B010E948611EB010E940F1351
:102640008F3F49F00E9486116C1B7D0B0617170700
:10265000A8F780E001C081E0DF91CF911F910F9139
:102660000895CF93DF93FC012381222361F0EC01D5
:102670000180F281E02D61E082810E941C118FEFC8
:102680000E940A131B82DF91CF910895CF93DF93AD
:10269000FC012381211110C0EC010180F281E02DA9
:1026A000908181819CBD8DBDE981FA8160E082814C
:1026B0000E941C1181E08B83DF91CF910895FF92DE
:1026C0000F931F93CF93DF9300D000D0CDB7DEB729
:1026D0008C01F62E29833A834B835C83FC01838132
:1026E000811103C0C8010E944613FF2029F06CE24B
:1026F00071E0C8010E9416138F2D80640E940A1396
:102700008C810E940A138B810E940A138A810E9485
:102710000A1389810E940A13FF2011F087E801C083
:1027200085E90E940A130E940F138BE0F82E0E9485
:102730000F13F801848387FF03C0FA94F110F7CFD9
:102740000F900F900F900F90DF91CF911F910F91ED
:10275000FF9008950F931F93CF93DF93EC018901AE
:102760008D81833039F089E0440F551F661F771F34
:102770008A95D1F79A01AB0168E1CE010E945F13FF
:10278000882311F082E330C08EEF0E940A13F80113
:1027900080818EBD818132961E5F0DB407FEFDCF14
:1027A0008EBDE017F10711F08191F7CF0DB407FE50
:1027B000FDCF8FEF0E940A138FEF0E940A130E9431
:1027C0000F138C838F71853031F087E58883CE01BC
:1027D0000E9431130AC060ED77E0CE010E9416130B
:1027E000182F811107C08AE58883CE010E9431131A
:1027F00010E012C020E030E0A9016DE0CE010E949F
:102800005F13811104C00E940F13882311F089E225
:10281000EBCFCE010E943113812FDF91CF911F9119
:102820000F910895EF92FF920F931F93CF93DF9331
:10283000EC0179018D81833039F089E0440F551F17
:10284000661F771F8A95D1F79A01AB0161E1CE012E
:102850000E945F13882319F080E3888338C00E94A8
:1028600086118B010E940F138C838F3F49F40E94C5
:102870008611601B710B693E7340A0F385E503C0B0
:102880008E3F31F080E58883CE010E9431131FC056
:102890008FEF8EBDF701D701A150BE4F9FEF0DB452
:1028A00007FEFDCF8EB59EBD8193EA17FB07B9F7F2
:1028B0000DB407FEFDCF8EB58C931C820E940F13C2
:1028C0000E940F13CE010E94311381E004C0CE019B
:1028D0000E94311380E0DF91CF911F910F91FF9003
:1028E000EF900895EF92FF921F93CF93DF93FC0137
:1028F000208120FF32C0EC017C01F7E0EF0EF11CDB
:102900004B815C816D817E81E981FA8197018081B3
:1029100091810E94AA13182F811102C010E01EC0DD
:10292000888181FD04C088818E7F888317C0E981FA
:10293000FA8144855585668577858B819C81AD813B
:10294000BE81480F591F6A1F7B1F970180819181AB
:102950000E94AA138111E7CFE1CF11E0812FDF910F
:10296000CF911F91FF90EF900895CF92DF92EF9259
:10297000FF921F93CF93DF93EC016A017B01122F2B
:102980008B819C81AD81BE8184179507A607B7070F
:10299000F1F0CE010E947214811103C080E090E03A
:1029A0001CC012FF06C01882CB82DC82ED82FE8240
:1029B0000EC0E981FA819E01295F3F4FB701A60150
:1029C000808191810E9412148111EDCFE7CF1370A5
:1029D0008881182B1883CE010796DF91CF911F9124
:1029E000FF90EF90DF90CF9008958F929F92AF92DB
:1029F000BF92CF92DF92EF92FF920F931F936A01E3
:102A00007B0148015901423051056105710510F4FF
:102A100080E052C0FC01408D518D628D738D4C154C
:102A20005D056E057F05A0F32581203241F54489BF
:102A300055896689778997018601E7E0369527955C
:102A400017950795EA95D1F7400F511F621F731F25
:102A500023E080960E94B5140097D1F2E894C7F85D
:102A6000DD24EE24FF24CC0CDD1CCC0CDD1CFC0191
:102A7000EC0DFD1D80829182A282B3821CC02031A8
:102A800039F6FC0144895589668977894D0D511DB8
:102A9000611D711D23E080960E94B514009709F412
:102AA000B7CFDD24EE24FF24CC0CDD1CFC01EC0DA3
:102AB000FD1D9182808281E01F910F91FF90EF9028
:102AC000DF90CF90BF90AF909F908F900895CF925E
:102AD000DF92EF92FF920F931F93CF93DF93EC015E
:102AE0006A017B018901423051056105710510F4CD
:102AF0008FEF63C0888D998DAA8DBB8D8417950744
:102B0000A607B707A8F38D81803241F58C899D898E
:102B1000AE89BF89E7E07695679557954795EA9521
:102B2000D1F7480F591F6A1F7B1F22E0CE01809604
:102B30000E94B5140097E1F2E894C7F8DD24EE2472
:102B4000FF24CC0CDD1CCC0CDD1CFC01EC0DFD1DB0
:102B500080819181A281B381BF701EC0803141F616
:102B60004C895D896E897F894D0D511D611D711DD7
:102B700022E0CE0180960E94B514009709F4B8CFE8
:102B8000DD24EE24FF24CC0CDD1CFC01EC0DFD1D2E
:102B900080819181A0E0B0E0488D598D6A8D7B8D58
:102BA000481759076A077B0738F0F801808391833B
:102BB000A283B38381E001C080E0DF91CF911F91B8
:102BC0000F91FF90EF90DF90CF900895FC01AC0142
:102BD000455F5F4F80E090E8899F90011124982F16
:102BE0009695922B2191892F820FE417F50799F77B
:102BF0000895089580E090E0089540E050E0BA0123
:102C000080914E0390914F030C94AE1E04960C9449
:102C10009921CF93DF931F92CDB7DEB7698341E04F
:102C200050E0BE016F5F7F4F04960E9499210F9084
:102C3000DF91CF91089504960C945D1EBC0180E055
:102C400090E00E94B03D20E030E040E650E40E9479
:102C50000F3D20E030E040E05FE30E94A33C0E9493
:102C6000813DCB0108950F931F93CF93DF93C82F1E
:102C700081E08093D3048CE38093F5041092D40414
:102C80001092F60460E487EF94E00E94C21088E09E
:102C9000C89FE001112400E010E0DA95FE01E00F8A
:102CA000F11FE95DFD4F649187EF94E00E94C2102F
:102CB0000F5F1F4F0830110589F7DF91CF911F91EA
:102CC0000F910C94772BCF93C82F81E08093D3047E
:102CD0008CE38093F5041092D4041092F60460E41F
:102CE00087EF94E00E94C2106C2F87EF94E00E945F
:102CF000C210CF910C94772B0F931F93CF93DF9338
:102D0000EC0188818823A9F000E010E08881F801B7
:102D100098E0899FE00DF11D1124E95DFE4F84913B
:102D20000E9463160F5F1F4F0830110579F7219637
:102D3000E8CFDF91CF911F910F910895CF93C82FC6
:102D400081E08093D3048CE38093F5041092D40443
:102D50001092F60460E887EF94E00E94C2106C2F96
:102D600087EF94E00E94C210CF910C94772BCF9301
:102D7000C82F80EB860F0E949E168C2F880F880F1D
:102D8000880F88708E5F0E949E1628E0C29FC00147
:102D9000112424E0959587952A95E1F78F70805F3F
:102DA000CF910C949E161F93CF93DF931F92CDB7B4
:102DB000DEB720913A0330913B0340913C035091A0
:102DC0003D03A4E6B0E00E94663C209126043091C9
:102DD000270440912804509129040E94713C122F2D
:102DE0002093250480911101843671F51092110110
:102DF00060E088E02A3038F40E94B716812F6AE03C
:102E00000E943E3E0DC0243670F40E94B716812FFA
:102E10006AE00E943E3E805D99830E94331699814C
:102E200080E3890F09C00E94B71681E30E94331620
:102E300080E30E94331680E30E94331685E20E94ED
:102E4000331680E20E9433161091250480911101FF
:102E5000811758F560E088E01A3038F40E94B71600
:102E6000812F6AE00E943E3E0DC0143670F40E942D
:102E7000B716812F6AE00E943E3E805D99830E94D2
:102E80003316998180E3890F09C00E94B71681E348
:102E90000E94331680E30E94331680E30E943316AB
:102EA00085E20E943316109311010F90DF91CF91AC
:102EB0001F9108950F931F93CF93DF930E94861164
:102EC00000912104109122042091230430912404C4
:102ED000DC01CB01801B910BA20BB30B893E93400D
:102EE000A105B10508F46AC00E948611609321040F
:102EF00070932204809323049093240420913F0331
:102F0000309140030AE010E0C901B8010E944A3E36
:102F1000892B69F060E08FE00E94B71680913F0333
:102F200090914003B8010E944A3E805D3CC0C4E6D7
:102F3000D0E0C901BE010E944A3E892B89F060E0C1
:102F40008EE00E94B71680913F0390914003BE012E
:102F50000E944A3EB8010E944A3E80E3860F20C08C
:102F600008EE13E0C901B8010E944A3E60E0892BD7
:102F700081F08DE00E94B71680913F03909140034D
:102F8000B8010E944A3EBE010E944A3E80E3860F7D
:102F900004C08DE00E94B71680E30E94331680E3E0
:102FA0000E94331680E30E94331680913F03909174
:102FB000400301969093400380933F03DF91CF91AC
:102FC0001F910F91089562E084E00E94B71681E49A
:102FD00091E00E947C1663E080E00E94B7164AE010
:102FE00060E273E08091090190910A010E94EA3B3E
:102FF00080E293E00E947C1663E085E00E94B716B1
:1030000080911301813019F48CE491E002C082E5D3
:1030100091E00E947C1663E08BE00E94B7168091DD
:103020000801813019F488E591E002C08EE591E055
:103030000C947C160F931F93CF93DF93EC0180E0E9
:103040000E94B716FE0101900020E9F731971E2F6C
:103050001C1B00E0011714F4888101C080E20E946B
:1030600033160F5F21960031A9F7DF91CF911F91A1
:103070000F9108950F931F93CF938C0180E00E94CE
:10308000B716C0E0F801EC0FF11DC7FDFA95849169
:10309000882321F00E943316CF5FF4CFC0312CF487
:1030A00080E20E943316CF5FF9CFCF911F910F912D
:1030B00008950F931F93CF93DF9310923A031092CA
:1030C0003B0310923C0310923D0380912B038E3FF3
:1030D00061F08AE090E0A0E0B0E080933A03909342
:1030E0003B03A0933C03B0933D03C1E0D0E080914B
:1030F000550390E08C179D070CF4B0C160913A0322
:1031000070913B0380913C0390913D030E943724D2
:103110000197D9F480912B038E3F21F080912C04EC
:1031200080932B0380912B038E3F99F480913A0377
:1031300090913B03A0913C03B0913D03BC01CD01B4
:1031400061507109810991094EC0C150C093550366
:1031500085C1813209F4CDC038F5833109F45BC0F3
:10316000B8F4813109F448C008F0ABC0803109F0EF
:1031700073C180913A0390913B03A0913C03B091BD
:103180003D03BC01CD016E5F7F4F8F4F9F4F2BC022
:10319000853109F46EC008F45DC0893109F434C189
:1031A000803209F482C058C1813309F4ABC078F48D
:1031B0008A3209F486C020F4843209F476C04CC106
:1031C0008B3209F48AC0803309F493C045C183333C
:1031D00009F4E0C008F4C0C0853309F4FEC08B34A4
:1031E00009F412C139C160933A0370933B03809391
:1031F0003C0390933D03B8C080913A0390913B0308
:10320000A0913C03B0913D03BC01CD01615F7F4FB4
:103210008F4F9F4F3CC060913A0370913B03809168
:103220003C0390913D030E943724019709F014C19B
:1032300080912C0490E0A0E0B0E0880F991FAA1FB5
:10324000BB1F40913A0350913B0360913C03709146
:103250003D03F6C080913A0390913B03A0913C035B
:10326000B0913D03BC01CD01695F7F4F8F4F9F4FF0
:103270000EC080913A0390913B03A0913C03B09122
:103280003D03BC01CD016B5F7F4F8F4F9F4F60931C
:103290003A0370933B0380933C0390933D030E9459
:1032A000AB23039709F0D8C0BBC080913A0390913B
:1032B0003B03A0913C03B0913D030296A11DB11DBB
:1032C000C3C080913A0390913B03A0913C03B0911D
:1032D0003D030496A11DB11DB7C080913A039091A2
:1032E0003B03A0913C03B0913D030596A11DB11D88
:1032F000ABC060913A0370913B0380913C03909185
:103300003D0316C080913A0390913B03A0913C038A
:10331000B0913D03BC01CD016F5F7F4F8F4F9F4F39
:1033200060933A0370933B0380933C0390933D0377
:103330000E943724019709F08FC020912C048091BE
:103340003A0390913B03A0913C03B0913D03820F5F
:10335000911DA11DB11D78C060913A0370913B038E
:1033600080913C0390913D030E94F823029709F05D
:1033700073C020912D0430912E0480913A039091D6
:103380003B03A0913C03B0913D03820F931FA11D0D
:10339000B11D5AC060913A0370913B0380913C0388
:1033A00090913D030E943724019709F055C0209168
:1033B0002C0430E0A3E0B0E00E94933C00913A037B
:1033C00010913B0320913C0330913D03DC01CB0184
:1033D000800F911FA21FB31F37C080913A039091B5
:1033E0003B03A0913C03B0913D03BC01CD01605F64
:1033F0007F4F8F4F9F4F60933A0370933B038093AF
:103400003C0390933D0308C060913A0370913B03E5
:1034100080913C0390913D030E9450230497E1F476
:1034200040913A0350913B0360913C0370913D03FE
:1034300080912F0490913004A0913104B091320416
:10344000840F951FA61FB71F80933A0390933B03E9
:10345000A0933C03B0933D03219649CE80912B036A
:103460008E3F99F081E08093390360913A03709127
:103470003B0380913C0390913D030E9437240197C8
:1034800039F480912C0480932B0382E080933903DC
:1034900060E070E085E292E00E943A1860E080E02F
:1034A0000E94B71687E491E00E947C168091550334
:1034B0003AE0632F0E943E3E292F0E943E3E905DDF
:1034C00090932003205D209321031092220380E239
:1034D00093E00E947C1684E691E00E947C16809125
:1034E0002B03982F92959F70803A10F4905D01C045
:1034F000995C909320038F708A3010F4805D01C036
:10350000895C809321031092220380E293E00E9461
:103510007C1684E6809311011092400310923F03C1
:1035200010923E031092330480913803811112C02F
:103530001092370381E08093300380E49FE1909301
:103540002F0380932E03909387008093860081E160
:1035500080938100DF91CF911F910F9108950E9478
:10356000FD15109254031092530380914E039091D5
:103570004F030E94372D882371F08BE095E00E9465
:10358000F220809153039091540301969093540339
:1035900080935303EACF8091530390915403909307
:1035A0005203809351030895CF92DF92EF92FF92DE
:1035B0000F931F93CF93DF93CDB7DEB7A0970FB6CE
:1035C000F894DEBF0FBECDBF7C01809156038130E1
:1035D00031F0EA94EF28B9F40E94FD1514C00E945E
:1035E000FD1501E010E00E151F059CF780914E03BC
:1035F00090914F030E94372D8BE095E00E94F220BE
:103600000F5F1F4FF0CF80914E0390914F030E94A8
:10361000372D19821A8280910B05811103C01092F7
:10362000510408C080910E05811174C081E594E0B9
:103630000E94422C81E493E00E94422C8091230559
:1036400090912405A0912505B0912605809326042C
:1036500090932704A0932804B093290480910B052C
:10366000807709F0F9C06AE371E081E493E00E9499
:103670009E3E892B09F4F0C01092AB048BE095E0DC
:103680000E94F22010929A038091AB048130B1F431
:1036900080919903882379F090E0019726E1289F93
:1036A000B001299F700D1124695A7C4F8AE993E07B
:1036B0000E94A73E16C06EE072E00FC06091260423
:1036C0007091270480912804909129042AE04AE906
:1036D00053E00E94F53B67E072E08AE993E00E94C4
:1036E000BB3B60E070E08AE993E00E941A181092F8
:1036F000AA040E94D42BA0960FB6F894DEBF0FBE8A
:10370000CDBFDF91CF911F910F91FF90EF90DF9090
:10371000CF9008958091130590911405A0911505FF
:10372000B091160560911105709112058E010F5F21
:103730001F4F0097A105B10539F4C8010E94D82098
:10374000882309F46CCF0FC020E2F80111922A956A
:10375000E9F720E1298321E02B8378876F838D8F20
:103760009E8FAF8FB8A3CC24C3949DE0D92E8091B7
:103770000E058C1508F453CFEC2CF12C40910F055D
:10378000509110054E195F0960E070E085E0440F2C
:10379000551F661F771F8A95D1F7C8010E94AE1E7C
:1037A000882309F43CCF60E0C8010E948D20FC0111
:1037B000892B09F434CF83858F3009F030CF808195
:1037C0008F7190E0E816F90609F029CF81E0E81A38
:1037D000F108DE9C9001DF9C300D1124B9016F5A75
:1037E0007B4F7F0180E0D701853028F411964D9101
:1037F0005C9112970BC08B3028F414964D915C911C
:10380000159704C016964D915C9117974115510577
:1038100091F028353105C8F42F5F3F4F4F375105E0
:1038200008F04FE3DB014D93BD018F5FB2E0EB0E7B
:10383000F11C8D30C1F62835310538F4808186FFC2
:1038400004C0D901AF5ABB4F1C921092A8048081CA
:1038500086FDF0CEC3948BCF81E08093AB040ECF76
:10386000CF9380E180938100C1E0C0933603109232
:10387000B1038BE095E00E94F220C0935603809143
:103880000F01909110010E94D41A10923A031092E5
:103890003B0310923C0310923D03109238041092A7
:1038A000480410923803CF9108950E94301C8091F3
:1038B000B103813041F460E070E08DE192E00E945C
:1038C0003A181092B10308951F93CF93DF93182FE6
:1038D000C4E0D0E0812F0E94F310892B49F4219796
:1038E00039F062E370E080E090E00E944C11F2CF8A
:1038F000DF91CF911F910895CF93C82F8C2F0E94F5
:10390000F310892B39F462E370E080E090E00E94CC
:103910004C11F4CFCF9108951F920F920FB60F92D2
:1039200011242F933F934F935F936F937F938F93C4
:103930009F93AF93BF93EF93FF93E0912C03F0918C
:103940002D030995FF91EF91BF91AF919F918F91B9
:103950007F916F915F914F913F912F910F900FBE8B
:103960000F901F90189580913603811169C02091A6
:10397000370480917B0190E0820F911D820F911D91
:10398000FC01E458FE4F8081813099F028F08230AC
:1039900081F580911F0328C0909133042091330456
:1039A00080911F03213001F19923F1F081111EC094
:1039B0001FC0909133042091330480911F03223063
:1039C00011F0911103C0811103C004C0811102C024
:1039D000299A01C0299880911E03813051F4809169
:1039E0003304813031F42EC0811102C0299801C006
:1039F000299A809133048F5F80933304809133043C
:103A0000843021F510923304809137048F5F8093C6
:103A100037042091370430E040911E0380ED90E0A0
:103A2000841B9109821793078CF4109237048091BC
:103A30007B0191E0892780937B0190930301089596
:103A40002998089583E080933304D3CF0895E091BB
:103A50003704F0E0319680916E01EE0FFF1FE80F02
:103A6000F11DE458FE4F20813091370480916E01A2
:103A700090E0830F911D830F911DFC01E458FE4FD0
:103A800080811092360490913603911106C030E087
:103A9000382B2115310509F089C080913603811139
:103AA00080C0809137048E5F809337048091370403
:103AB000813D50F01092370480916E0191E089278A
:103AC00080936E019093030168EE73E080E090E0D4
:103AD000DC01CB010496A11DB11D63E0880F991F85
:103AE000AA1FBB1F6A95D1F7009721E0A207B10575
:103AF00020F421E02093300342C0009728E0A20781
:103B0000B10558F422E02093300353E0B695A79511
:103B1000979587955A95D1F732C0009720E4A20770
:103B2000B10558F423E02093300346E0B695A795FD
:103B3000979587954A95D1F722C00097A10521E076
:103B4000B20740F424E020933003892F9A2FAB2F43
:103B5000BB2715C00097A10524E0B20758F425E063
:103B6000209330032AE0B695A795979587952A95D7
:103B7000D1F705C085E0809330038FEF9FEF9093DE
:103B80002F0380932E0380912E0390912F03909307
:103B9000870080938600809130038061809381004C
:103BA000089560E573EC80E090E092CF37FF07C0A6
:103BB00081E0809335043F77809334040AC080917C
:103BC0003404813029F480913504882309F472C0CB
:103BD00080E036FD0FC040916D0191E0411190E011
:103BE00090936D0190916D01911102C029980BC0C5
:103BF000299A09C035FD02C0299801C0299A20914F
:103C00002A0430912B04813091F590910801911193
:103C100080E080936D012150310935FF09C0109279
:103C20006D013F7DB90180E090E020E030E004C00C
:103C30006CED75E080E090E0E091370440916E011A
:103C400050E04E0F511D4E0F511DFA01E458FE4F2A
:103C50003083E0913704F0E0319630916E01EE0F41
:103C6000FF1FE30FF11DE458FE4F208331CF8091F9
:103C70003504813039F4A8EEB3E00E94933C1092F1
:103C8000350403C0B90180E090E0209137042E5F35
:103C90002093370420913704213D08F419CF109266
:103CA000370420916E0131E0232720936E01309379
:103CB00003010ECF109234048BCFCF93DF93FC011E
:103CC0002081211102C081E046C0EC01828182FF87
:103CD0003AC044895589668977898681978121E030
:103CE00080960E94B514009729F4898181608983A8
:103CF00080E031C0EC81FD81EF70FF2725E0EE0F01
:103D0000FF1F2A95E1F7DC01AE0FBF1F2C91253E66
:103D100061F3288123FF0AC0488D598D6A8D7B8D00
:103D20005C964D935D936D937C935F974C8D5D8D09
:103D30006E8D7F8DE80FF91F538F428F758B648BCB
:103D40008A818B7F8A838E819F8180960E947214E4
:103D5000882359F2B8CFDF91CF9108954F925F92A7
:103D60006F927F928F929F92AF92BF92CF92DF928B
:103D7000EF92FF920F931F93CF93DF93EC014A01D1
:103D80005B014C845D846E847F84A881AA2309F43E
:103D900091C0488959896A897B8984169506A60647
:103DA000B70609F48DC081149104A104B10429F46B
:103DB0001C861D861E861F8678C0A3FF0BC0088D3B
:103DC000198D2A8D3B8D081519052A053B0508F428
:103DD00071C014C0A5FF12C0EE81FF81868197815A
:103DE00025E0880F991F2A95E1F7A0E0B0E088153B
:103DF0009905AA05BB0508F45DC057C0EE81FF8197
:103E0000848190E009968A019B01015011092109E2
:103E10003109082E04C036952795179507950A9401
:103E2000D2F775016401B1E0CB1AD108E108F108BD
:103E300004C0F694E794D794C7948A95D2F7C01635
:103E4000D106E206F30620F0452B462B472B81F4E2
:103E5000A6FF05C0848D958DA68DB78D04C08C8D71
:103E60009D8DAE8DBF8D8C879D87AE87BF8704C02B
:103E7000C01AD10AE20AF30A8E01045F1F4FC1146F
:103E8000D104E104F10489F04C855D856E857F8560
:103E900098018E819F810E94671591E0C91AD1080F
:103EA000E108F10818165CF305C0888A998AAA8A85
:103EB000BB8A06C04C865D866E867F8680E001C028
:103EC00081E0DF91CF911F910F91FF90EF90DF90F4
:103ED000CF90BF90AF909F908F907F906F905F90AA
:103EE0004F9008954F925F926F927F928F929F9220
:103EF000AF92BF92CF92DF92EF92FF920F931F93F8
:103F0000CF93DF93EC014B018A0188818823D9F09C
:103F10009A8190FF18C01DC0D380D422A114B1048F
:103F200009F081C0D1107FC0892B8A2B8B2B09F41B
:103F300064C04C855D856E857F859201CF010E94AE
:103F4000671587FF6AC08981826089838FEF9FEF41
:103F5000D3C083FF15C0888D998DAA8DBB8D4889EC
:103F600059896A897B89841B950BA60BB70BA8011D
:103F700060E070E0481759076A077B07A0F012C09D
:103F800085FF11C0EE81FF818681978155E0880F02
:103F9000991F5A95E1F728893989821B930B80175D
:103FA000910708F48C0178012E012CE0420E511C7F
:103FB000612C42E0742EE114F10409F465C0888993
:103FC0009989AA89BB895C0121E0B2222881EE810E
:103FD000FF81AC01BD0139E076956795579547950E
:103FE0003A95D1F725FF98CF848D958DA68DB78D05
:103FF000480F591F6A1F7B1F34C026FF05C0848DE0
:10400000958DA68DB78D04C08C8D9D8DAE8DBF8D89
:104010008C879D87AE87BF8706C0811104C08881C9
:10402000807791F590CFEE81FF814C855D856E851F
:104030007F854250510961097109048004C0440F11
:10404000551F661F771F0A94D2F780899189A2892C
:10405000B389480F591F6A1F7B1F4D0D511D611DEC
:10406000711DEE81FF81A114B10471F5E11482E0AC
:10407000F80650F183A194A1A5A1B6A1481759074C
:104080006A077B0729F420C0C8018E199F0934C034
:104090009401808191810E941214882309F453CFE6
:1040A000C12C82E0D82E8C0C9D1C88899989AA8904
:1040B000BB898C0D9D1DA11DB11D888B998BAA8B71
:1040C000BB8BEC18FD0877CFC3018A199B096701E8
:1040D0008E159F0508F46C0120E0CF0180960E94A8
:1040E000B514009709F42FCFBC016A0D7B1DA60102
:1040F000C4010E948A3ED7CFDF91CF911F910F91CB
:10410000FF90EF90DF90CF90BF90AF909F908F90F7
:104110007F906F905F904F900895FF920F931F9341
:10412000CF93DF931F92CDB7DEB78C01FC0180895E
:104130009189A289B3899C01AD0175E05695479597
:10414000379527957A95D1F7F22FFF70FF2E11F052
:10415000611116C041E050E0BE016F5F7F4FC801A2
:104160000E94721F813019F080E090E01AC0F801BF
:1041700080899189A289B3894F96A11DB11D04C080
:104180008096A11DB11DF801808B918BA28BB38B02
:10419000F801868197818796F0E2FF9E800D911D40
:1041A00011240F90DF91CF911F910F91FF900895EF
:1041B000FC018081811114C080E2DF01982F1D92E3
:1041C0009A95E9F777836683DB0115969C91903188
:1041D00019F0903229F480E4808381E0828308958D
:1041E00080E00895CF93DF93EC010E945D1E18825A
:1041F000DF91CF9108953F924F925F926F927F929D
:104200008F929F92AF92BF92CF92DF92EF92FF92E6
:104210000F931F93CF93DF9300D000D0CDB7DEB7BD
:104220004C01FC01828184608283448455846684CD
:104230007784A680B780F501C084D184E284F384BA
:10424000C414D504E604F704C0F47301620110E05D
:10425000FFEFCF1ADF0AEF0AFF0AF501808D918D7B
:10426000A28DB38D8C159D05AE05BF0540F41111CF
:1042700032C0C084D184E284F38411E0E9CFC41455
:10428000D504E604F70439F19E012F5F3F4FB701D3
:10429000A601C5010E94671587FD1DC08823C1F2D4
:1042A00089819A81AB81BC81892B8A2B8B2B81F6EA
:1042B000112329F0F501C086D186E286F3860FEF3F
:1042C0001FEF2FEF3FE0B701A601C5010E94F514D3
:1042D000382E811102C0312C15C0411451046104E3
:1042E000710431F4F401C486D586E686F7860AC0E7
:1042F00097018601B301A201C5010E94F514811145
:10430000F1CFE9CF832D0F900F900F900F90DF9199
:10431000CF911F910F91FF90EF90DF90CF90BF90C2
:10432000AF909F908F907F906F905F904F903F9055
:1043300008952F923F924F925F926F927F928F9249
:104340009F92AF92BF92CF92DF92EF92FF920F9324
:104350001F93CF93DF93EC015B014A01888183FFB8
:104360000EC08A8181FF0BC083FF0FC0488D598D1D
:104370006A8D7B8DCE010E94AE1E811106C089819F
:10438000816089838FEF9FEF08C1A40160E070E036
:1043900088899989AA89BB8980959095A095B095BF
:1043A00084179507A607B70750F364011E018CE038
:1043B000280E311C088919892A893B89C114D10426
:1043C00009F4D0C08E819F81B901A80129E07695BA
:1043D0006795579547952A95D1F7DC011396FC9080
:1043E000F4221170F11034C00115110589F54C85C6
:1043F0005D856E857F85411551056105710569F003
:1044000091010E94671587FDBACF811121C0CE01AD
:104410000E94FB2081111CC0B2CF8C8D9D8DAE8D72
:10442000BF8D0097A105B10579F4CE010E94FB2054
:10443000882309F4A4CF8C859D85AE85BF858C8F9C
:104440009D8FAE8FBF8F04C08C879D87AE87BF873F
:10445000EE81FF814C855D856E857F8542505109D7
:1044600061097109048004C0440F551F661F771F3E
:104470000A94D2F780899189A289B389480F591F7C
:104480006A1F7B1F4F0D511D611D711D0115110507
:1044900021F4C114B2E0DB06B0F580E092E0801BAD
:1044A000910B76018C159D0508F47C010115110511
:1044B00079F4488859886A887B88888D998DAA8D77
:1044C000BB8D481659066A067B0610F025E001C030
:1044D00021E0CF0180960E94B514009709F44FCFD8
:1044E000A701B501800F911F0E948A3E0E0D1F1D6E
:1044F0000115124031F58E819F8180960E947214C1
:1045000081111FC03CCF83A194A1A5A1B6A184179E
:104510009507A607B70741F410A28FEF9FEFDC01C4
:1045200083A394A3A5A3B6A3EE81FF819501808107
:1045300091810E94AA13882309F421CFE12C82E003
:10454000F82E88899989AA89BB898E0D9F1DA11D86
:10455000B11D888B998BAA8BBB8BAE0CBF1CCE1860
:10456000DF0828CF888D998DAA8DBB8D8017910784
:10457000A207B30738F4088F198F2A8F3B8F8A81DF
:1045800084608A838A8187FD02C0C40106C0CE018F
:104590000E945D1E8111F9CFF2CEDF91CF911F9164
:1045A0000F91FF90EF90DF90CF90BF90AF909F90D2
:1045B0008F907F906F905F904F903F902F900895D5
:1045C000CF93DF93EB010E94503C8883CE01DF91B3
:1045D000CF9108958EE00E94F310892B79F08FE03F
:1045E0000E94F310892B51F081E10E94F310892B76
:1045F00029F080E10E94F310892B31F462E370E02E
:1046000080E090E00C944C1110920B01F7CFCF9307
:10461000C82F8BE095E00E94AE1E882349F04C2FF6
:1046200050E060E273E08BE095E0CF910C94721F54
:1046300080E090E0CF910895E0E7F1E082E081939F
:1046400091E0EB37F907D9F7089590911E03913067
:1046500089F4E0E7F1E080FF02C0908301C010829E
:104660008695319621E0E837F207A9F782E080933A
:10467000780111C010927001E1E7F1E091E080FF54
:1046800002C0908301C010828695319621E0E937FF
:10469000F207A9F781E08093790180937A01089568
:1046A0000F931F93CF93DF9300D000D0CDB7DEB729
:1046B000AB01BC018BE095E00E94AE1E882309F19E
:1046C00044E050E0BE016F5F7F4F8BE095E00E94B9
:1046D000721F84309105B9F440913A0350913B0325
:1046E00060913C0370913D034C5F5F4F6F4F7F4F74
:1046F00040933A0350933B0360933C0370933D0314
:1047000002C080E090E04C8150E0542F44272B8180
:10471000422B60E070E0BA01552744270A8110E07F
:10472000102F00272981022B20E030E0402B512B55
:10473000622B732B40932F04509330046093310409
:10474000709332040F900F900F900F90DF91CF91E4
:104750001F910F910895CF93DF9300D01F92CDB793
:10476000DEB7AB01BC018BE095E00E94AE1E882352
:1047700009F143E050E0BE016F5F7F4F8BE095E0B1
:104780000E94721F83309105B9F440913A03509111
:104790003B0360913C0370913D034D5F5F4F6F4F52
:1047A0007F4F40933A0350933B0360933C037093D5
:1047B0003D0302C080E090E04B8150E0542F44273D
:1047C0002A81422B60E070E0762F652F542F44271A
:1047D0002981422B40932F0450933004609331047D
:1047E000709332040F900F900F90DF91CF91089546
:1047F000CF93DF9300D0CDB7DEB7AB01BC018BE028
:1048000095E00E94AE1E882309F142E050E0BE010F
:104810006F5F7F4F8BE095E00E94721F82309105A1
:10482000B9F440913A0350913B0360913C0370917D
:104830003D034E5F5F4F6F4F7F4F40933A0350935E
:104840003B0360933C0370933D0302C080E090E023
:104850002A8130E0322F22274981242B30932E04E5
:1048600020932D040F900F90DF91CF910895CF9357
:10487000DF931F92CDB7DEB7AB01BC018BE095E0B3
:104880000E94AE1E882309F141E050E0BE016F5F37
:104890007F4F8BE095E00E94721F81309105B9F443
:1048A00040913A0350913B0360913C0370913D036A
:1048B0004F5F5F4F6F4F7F4F40933A0350933B03DF
:1048C00060933C0370933D0302C080E090E0298137
:1048D00020932C040F90DF91CF91089580910901CE
:1048E00090910A01803629E09207B9F04CF4803BA0
:1048F000944011F581E08093020180ED90E018C0B2
:1049000080312EE0920779F08A309F40A9F482E04E
:104910008093020184E490E00BC081E08093020167
:1049200088E690E005C082E08093020186E490E092
:10493000909305018093040180E1809381000895A4
:104940002F923F924F925F926F927F928F929F929F
:10495000AF92BF92CF92DF92EF92FF920F931F938D
:10496000CF93DF9300D01F92CDB7DEB75C018B01F0
:10497000FA01C180D280DB019C91907709F4EEC0EE
:10498000D5018C918111EAC09081937009F4D7C050
:10499000C6010C966DE070E00E944A3E9924939403
:1049A000960E7F0140E050E0BA01C8010E94AE1EA1
:1049B00019821B82812C1A821701B6E02B0E311C42
:1049C000F801408851886288738861E0C8010E94BC
:1049D0008D20009709F4C2C0DC012C91253E39F0EE
:1049E000222309F4B8C0891408F4ACC008C08914A3
:1049F00040F48394222309F4B1C0253E11F02E32F5
:104A000011F41A82DDCFFC0133853F3009F059C023
:104A10003A81311109C026FFD3CF2F712B83258511
:104A200029833B813A8309C03B8131503B83231367
:104A3000E8CF258539813213E4CF2B81422F50E016
:104A4000415051096DE0649F9001659F300D112424
:104A50002C153D05B0F6FC0170E0753018F481812D
:104A6000928107C07B3018F48481958102C08681D1
:104A700097812C153D0521F4892B09F4A1CFC1CFD5
:104A80008F3F910511F008F0BCCF4FEB480F4A3132
:104A900010F0682F02C060E2680FA9014F5F5F4FFE
:104AA000D70113968D919C911497DC01A20FB31F2F
:104AB0008C919FEB980F9A3108F4805E6813A1CF18
:104AC00043C033FD9ECF2A81222351F03B813130F8
:104AD00009F044C00E94E615298182133FC00CC032
:104AE0004BE050E0B1010E947D3E892B09F068CF78
:104AF000D7018C9180FD64CFB301A20185E076954A
:104B00006795579547958A95D1F72A81B801C501D0
:104B10000F900F900F90DF91CF911F910F91FF9009
:104B2000EF90DF90CF90BF90AF909F908F907F904D
:104B30006F905F904F903F902F900C94B42C9924DD
:104B400093942FCF812C5BCF7F5F32967D3009F419
:104B500037CF9A0182CF891408F44BCF80E00F90B1
:104B60000F900F90DF91CF911F910F91FF90EF90D9
:104B7000DF90CF90BF90AF909F908F907F906F907D
:104B80005F904F903F902F9008952F923F924F92B9
:104B90005F926F927F928F929F92AF92BF92CF92CD
:104BA000DF92EF92FF920F931F93CF93DF93CDB7D6
:104BB000DEB7E3970FB6F894DEBF0FBECDBF7C0122
:104BC0008A0119821A82FC01808181116BC1FB016B
:104BD0008081807709F466C1FA0180818F32B9F44F
:104BE0008F0181918F32E1F3FB0166817781811121
:104BF00004C0C7010E94D8205AC1CE0101960E946C
:104C0000D820882309F44EC1BE016F5F7F4F6E012B
:104C1000F2E3CF0ED11CD8010F5F1F4F8C91803271
:104C2000D1F3BDA3ACA3FD019F012A1B3B0B8191D6
:104C30008823D9F08F32C9F08C3509F433C1982F0D
:104C4000977F923209F42EC18A3309F42BC1982F31
:104C50009F7B9C3309F426C192EC980F923008F4A4
:104C600021C180528F3500F31DC1AD01420F531F8A
:104C7000CA018C01FC016190CF01F0E26F16C9F30B
:104C80002FE26216B1F39A012A1B3B0B4A175B070E
:104C900041F0FA018291AF018E32A9F3803299F38B
:104CA00003C01BAA1AAA07C03BAB2AAB2F3F310592
:104CB00011F00CF0F7C08AA99BA99BA38AA3CE018F
:104CC0008796FC0120E22193CF01EC15FD05C9F781
:104CD000CD019C012A1B3B0BFC014191CF014E32BF
:104CE000C1F34032B1F381E02115310509F080E0D4
:104CF0004AA95BA94150510938F05D01A40EB51EC7
:104D0000F50190819E32B1F77EA097E0892E312C7B
:104D1000512C912CE8E04E2EEAA9FBA92E173F0753
:104D20000CF07FC05D01A20EB31EF50190819032A0
:104D300009F465C09E3229F44217530709F05FC099
:104D400004C09232E1F09C37D1F0F6EDBF2EB90EDF
:104D5000F5E0FB1510F09D3291F4E6ECBE2EB90E95
:104D6000E5E0EB1560F4F5EABF2EB90EF2E0FB15B5
:104D700030F4EFEDBE2EB90EEDE5EB1520F424175F
:104D8000350781F440C024173507E9F1831440F159
:104D9000B92EFFE9AF2EA90EF9E1FA1548F09052AD
:104DA00094280CC08314E0F080E09FE5EFE5BE2E70
:104DB000EFEBBE0EF9E1FB1508F0542822242394F2
:104DC000230CE7E2AE2EB12CAC0EBD1EA30CB11C21
:104DD000F5019083F6E0F215A0F0722C322C1EC083
:104DE0008AE0881609F460C0421753070CF45CC0CF
:104DF0009A01FAE08F2E88E0382E90E1492E80E06B
:104E00000DC0322C0BC0FAE08F1609F44DC09A0188
:104E1000FAE08F2E98E0392EE0E14E2E2F5F3F4FC3
:104E20007BCF7EA29FA19032E9F1882339F05920EF
:104E300011F4892D01C082E089A314C081E089A307
:104E40008EA190E0E7E2F0E0EC0FFD1FE80FF91F04
:104E50002EE72083E8E2F0E0EC0FFD1FE80FF91FDA
:104E600021E320836620B9F0AE014F5D5F4FC7019B
:104E70000E94A0248823B1F0F701DE01119680E2A0
:104E800001900D928A95E1F7C7010E94F220BE01C0
:104E90006F5F7F4FC0CEAE014F5D5F4FC7010E9475
:104EA000A02405C080E003C07EA280E0BBCFE396D3
:104EB0000FB6F894DEBF0FBECDBFDF91CF911F912B
:104EC0000F91FF90EF90DF90CF90BF90AF909F90A9
:104ED0008F907F906F905F904F903F902F900895AC
:104EE0008F929F92AF92BF92CF92DF92EF92FF92FA
:104EF000CF93C82F1092300581E090E0A0E0B0E0A1
:104F00008093330590933405A0933505B09336050F
:104F10008BE295E090934D0580934C0510924B05E4
:104F20008FEF9FEFDC0180934E0590934F05A09388
:104F30005005B0935105CC2331F1C53008F0DCC0E9
:104F400020E040E050E0BA018BE495E00E94B51407
:104F5000009709F4D1C020E1C29F800D911D11245A
:104F60004097FC01E254FE4F20812F7709F0C4C026
:104F7000389680809180A280B38081149104A1042E
:104F8000B10421F4B9C0812C912C540120E0B50169
:104F9000A4018BE495E00E94B514FC01892B09F46F
:104FA000ABC0838594858115924009F0A5C08089A6
:104FB000823009F0A1C0468557854115510509F495
:104FC0009BC0258520932D058FEF820F80932E05A2
:104FD00080E091E0291751F031E0380F393019F4B1
:104FE00080932F0589C0990F832FF4CF80932F05CD
:104FF000C688D788C114D10419F0E12CF12C04C063
:10500000C4A0D5A0E6A0F7A0C0923705D09238057D
:10501000E0923905F0923A05D501C401840F951F3D
:10502000A11DB11D80933F0590934005A0934105BC
:10503000B09342052189328930933205209331059E
:10504000CC0CDD1CEE1CFF1CC80ED91EEA1EFB1E7C
:10505000C0924705D0924805E0924905F0924A0572
:1050600055E0220F331F5A95E1F721503E4F232F71
:1050700033272695C20ED31EE11CF11CC0923B05BE
:10508000D0923C05E0923D05F0923E05238934899B
:105090002115310521F0C901A0E0B0E004C080A1D4
:1050A00091A1A2A1B3A1B501A4014C195D096E099A
:1050B0007F09480F591F6A1F7B1F00902F0504C0EE
:1050C00076956795579547950A94D2F7DB01CA0103
:1050D0000196A11DB11D8093430590934405A093B3
:1050E0004505B0934605453F8FE0580761057105BA
:1050F00028F48CE08093300580E017C0453F5F4F77
:105100006105710510F480E10DC084A595A5A6A5E3
:10511000B7A58093470590934805A0934905B093A0
:105120004A0580E28093300581E0CF91FF90EF90B7
:10513000DF90CF90BF90AF909F908F900895809117
:105140003E03811164C060913A0370913B038091EA
:105150003C0390913D030E9437240197E1F5809133
:105160002C0480934F0480914B0490914C04A091A7
:105170004D04B0914E040197A109B10980934B04ED
:1051800090934C04A0934D04B0934E04892B8A2B2A
:105190008B2B49F580913A0390913B03A0913C03FE
:1051A000B0913D030197A109B10980933A0390930F
:1051B0003B03A0933C03B0933D038091490490913D
:1051C0004A04892B21F481E080933903089585E016
:1051D00080933703089580914804843021F081E062
:1051E00080933103EACF80914B0490914C04A091BD
:1051F0004D04B0914E040197A105B10511F088E06E
:1052000002C080911A0180933E0310923304809172
:1052100000019091010196FF0DC020914F0427FFDE
:1052200005C0906290930101809300018091330446
:105230008E5F14C080914F0487FF05C080914604A3
:105240009091470404C08091440490914504909348
:10525000010180930001809133048F5F80933304B8
:1052600080913304823061F480914F04880F8093E1
:105270004F0480913E03815080933E03109233048B
:10528000089580913E03811140C060913A0370916E
:105290003B0380913C0390913D030E94372401978A
:1052A00061F580912C0480934F0480914B04909180
:1052B0004C04A0914D04B0914E040197A109B1098D
:1052C00080934B0490934C04A0934D04B0934E04F0
:1052D00010925004892B8A2B8B2B91F481E08093C0
:1052E0006F018091490490914A04892B11F486E062
:1052F00005C085E08093370303C085E080933903C0
:105300008BE080933E031092330480913E03823001
:1053100029F480914304882309F47FC020913E033F
:1053200080914404909145042B3029F4909301011D
:105330008093000129C020913E03223099F42091EE
:105340004304217030915004321729F03091460403
:105350002091470402C0382F292F30930001209359
:10536000010112C020913E03213049F420914604EE
:1053700030914704309301012093000105C0209132
:105380004F0420FDF3CFD2CF209133042F5F209321
:105390003304209100013091010128173907F9F4F5
:1053A0009091330480910701981355C080913E037A
:1053B000823020F080913E038B3098F180913E0343
:1053C000815080933E031092330480916F018823B3
:1053D00009F441C080913E03882359F108959091CA
:1053E000330480910601981336C080913E038230C9
:1053F00020F080913E038B3000F180913E0381507C
:1054000080933E031092330480916F01882319F139
:1054100080913E03882369F0089581E080933E03E4
:105420007DCF80914F0490E09595879580934F04B0
:10543000C5CF85E08093390308959091500481E0B1
:1054400089278093500480914F0490E0959587952B
:1054500080934F04D2CF089580EA90E090930101A9
:10546000809300018091090190910A01803B24E022
:10547000920731F028E730E03093010120930001DA
:1054800020913304213061F4803B944019F482EA86
:1054900095E002C084EF91E09093010180930001B8
:1054A00080913304811117C080914F0487FF02C09F
:1054B00083E101C089E08093330480914F04880F19
:1054C00080934F0480913E03815080933E0310925D
:1054D00001011092000180913304815080933304C4
:1054E000089580913E03811125C060913A03709127
:1054F0003B0380913C0390913D030E943724019728
:1055000051F480912C0480934F0489E080933E03F2
:10551000109233040FC081E08093310380914904DD
:1055200090914A04909342048093410489E58093CA
:105530002B0308950C942C2A80913F0490914004F1
:10554000909301018093000180913D0490913E046D
:10555000019790933E0480933D04892B19F485E0D4
:1055600080933903089580913703833071F128F4D3
:10557000813049F08230E9F00895843081F185303E
:1055800009F494C0089580913F0490914004909351
:1055900001018093000180913D0490913E040197A8
:1055A00090933E0480933D04892B09F09FC082E0D4
:1055B00009C080913B0490913C0490930101809339
:1055C000000183E08093370308958091390490911E
:1055D0003A04909301018093000184E0F3CF80911D
:1055E00048049CEF980F923010F0811102C00C9487
:1055F0009F2880913E03811132C080916C018331DC
:1056000049F48091380480934F0482E080934804E9
:1056100085E0D8CF8F5F80936C018431D0F4E82F80
:10562000F0E0E15EFA4FE491E0934F048D3021F415
:105630008DEF80934F0404C08E3011F410924F040C
:1056400080914F049091380489278093380488E032
:1056500002C080911A0180933E031092330480911E
:105660004F0487FF05C0809146049091470404C011
:10567000809144049091450490930101809300012E
:10568000809133048F5F80933304809133048230A0
:1056900069F580914F04880F80934F0480913E03F9
:1056A000815080933E0310923304089520912B0380
:1056B0008091490490914A042E3F51F02B3F41F0D4
:1056C000909342048093410489E580932B0307C0A3
:1056D00090689093010180930001109237038091AC
:1056E0003103813019F48FEF80932B0308952091BB
:1056F000F6049091F504213208F04AC08091D2045A
:105700008111FCCF32E03093D20431E03093D104E8
:105710003FEF3093D0041092CF042093CE04A5ED38
:10572000B4E04EEA54E0FA013E2F341B321718F46D
:105730003D913193F9CF1092AD042091AD04990FB2
:10574000922B9093AD049091AC04913061F410923F
:10575000AC049091AD049093BB009091BC0093FD7C
:10576000F8CF95EC01C095EE9093BC009091D204D7
:105770009230E1F39091D0049F3F79F08091D00472
:10578000803241F08091D004803331F084E005C054
:1057900081E003C082E001C083E01092D404109243
:1057A000F6041092D30408950F931F93CF93DF93C1
:1057B000CDB7DEB761970FB6F894DEBF0FBECDBF91
:1057C0009091AB048091AA049923A9F19EE3998357
:1057D000DE01129620E030E090E061E574E0FB012C
:1057E00001900020E9F73197E155F440A901480FF5
:1057F000591F4E175F0730F4FA01EF5AFB4F4081F3
:105800004C9301C01C922F5F3F4F11962F303105F2
:1058100031F7198A61E070E0CE0101960E941A18F2
:1058200061960FB6F894DEBF0FBECDBFDF91CF916A
:105830001F910F910895DE01119620E030E090E075
:1058400041E554E0BC016A1B7B0BFA01019000208A
:10585000E9F73197E155F4408B010A0F1B1F0E1732
:105860001F0740F4F901E80FF91FEF5AFB4FE081E1
:10587000EC9301C01C922F5F3F4F119620313105F0
:1058800021F7C7CFCF92DF92FF920F931F93CF9351
:10589000DF93EC0190910B05911102C080E05CC098
:1058A000907621F08FE28883198255C040911F05C0
:1058B000509120056091210570912205809111057C
:1058C0009091120520E080960E94B514DC01892B8E
:1058D00029F320910F05309110052F70332785E0B3
:1058E000220F331F8A95E1F740E050E078E090E026
:1058F0008D01020F131F045F1F4F6EE2F62EFA0197
:10590000E20FF31F6F01CA0EDB1EF60180818032A9
:10591000D1F04830510539F4BE01690F711DFB010A
:10592000F0829F5F70E1F60160818FEB860F8A3114
:1059300028F4F8018081872309F0605EFE01E90FF9
:10594000F11D60839F5F4F5F5F4F4B305105B9F68C
:10595000C90FD11D188281E0DF91CF911F910F9166
:10596000FF90DF90CF900895CF92DF92EF92FF9259
:105970000F931F93CF93DF93DC0180E2ED01199227
:105980008A95E9F7EB01EE81FF811796FC93EE9380
:10599000169715965C934E931497CC8CDD8CEE8CF9
:1059A000FF8C1896CD92DD92ED92FC921B974F7072
:1059B0005527EF01A79635E0440F551F3A95E1F7BB
:1059C000BE01640F751FEB018B8583FD45C0CF01C0
:1059D000840F951FEC019AA997719C93EB018B851D
:1059E000887111F498609C9313962C93139781E01F
:1059F00012968C93129703A114A125A136A1549657
:105A00000D931D932D933C935797E40FF51F43ADD2
:105A100054AD60E070E0BA0155274427EF01CF5B39
:105A2000DF4F0881198120E030E0402B512B622BA1
:105A3000732B5C964D935D936D937C935F97ED5BB9
:105A4000FF4F408151816281738158964D935D93E0
:105A50006D937C935B9702C01C9280E0DF91CF91A5
:105A60001F910F91FF90EF90DF90CF900895AF922C
:105A7000BF92CF92DF92EF92FF920F931F93CF933B
:105A8000DF9300D000D0CDB7DEB7FC0180910B05CD
:105A9000811160C08081807709F45CC08089918920
:105AA000A289B3898F719927AA27BB27892B8A2BB3
:105AB0008B2B09F04FC05F0110E000E0F501C088BA
:105AC000D188E288F38860E0C5010E948D200097AC
:105AD00009F440C0FC0120812223E1F12E3211F4AF
